{"project/contracts/MusicConsensusSBT.sol":{"MusicConsensusSBT":{"abi":[{"inputs":[{"internalType":"address","name":"initialOwner","type":"address"},{"internalType":"string","name":"baseUri","type":"string"}],"stateMutability":"nonpayable","type":"constructor"},{"inputs":[{"internalType":"address","name":"sender","type":"address"},{"internalType":"uint256","name":"balance","type":"uint256"},{"internalType":"uint256","name":"needed","type":"uint256"},{"internalType":"uint256","name":"tokenId","type":"uint256"}],"name":"ERC1155InsufficientBalance","type":"error"},{"inputs":[{"internalType":"address","name":"approver","type":"address"}],"name":"ERC1155InvalidApprover","type":"error"},{"inputs":[{"internalType":"uint256","name":"idsLength","type":"uint256"},{"internalType":"uint256","name":"valuesLength","type":"uint256"}],"name":"ERC1155InvalidArrayLength","type":"error"},{"inputs":[{"internalType":"address","name":"operator","type":"address"}],"name":"ERC1155InvalidOperator","type":"error"},{"inputs":[{"internalType":"address","name":"receiver","type":"address"}],"name":"ERC1155InvalidReceiver","type":"error"},{"inputs":[{"internalType":"address","name":"sender","type":"address"}],"name":"ERC1155InvalidSender","type":"error"},{"inputs":[{"internalType":"address","name":"operator","type":"address"},{"internalType":"address","name":"owner","type":"address"}],"name":"ERC1155MissingApprovalForAll","type":"error"},{"inputs":[{"internalType":"address","name":"owner","type":"address"}],"name":"OwnableInvalidOwner","type":"error"},{"inputs":[{"internalType":"address","name":"account","type":"address"}],"name":"OwnableUnauthorizedAccount","type":"error"},{"anonymous":false,"inputs":[{"indexed":true,"internalType":"address","name":"user","type":"address"},{"indexed":true,"internalType":"uint256","name":"genreId","type":"uint256"},{"indexed":false,"internalType":"string","name":"actionType","type":"string"},{"indexed":false,"internalType":"string","name":"eventName","type":"string"}],"name":"ActionProofAdded","type":"event"},{"anonymous":false,"inputs":[{"indexed":true,"internalType":"address","name":"account","type":"address"},{"indexed":true,"internalType":"address","name":"operator","type":"address"},{"indexed":false,"internalType":"bool","name":"approved","type":"bool"}],"name":"ApprovalForAll","type":"event"},{"anonymous":false,"inputs":[{"indexed":true,"internalType":"address","name":"user","type":"address"},{"indexed":true,"internalType":"uint256","name":"genreId","type":"uint256"}],"name":"BadgeBurned","type":"event"},{"anonymous":false,"inputs":[{"indexed":true,"internalType":"address","name":"user","type":"address"},{"indexed":true,"internalType":"uint256","name":"genreId","type":"uint256"}],"name":"BadgeDecayed","type":"event"},{"anonymous":false,"inputs":[{"indexed":true,"internalType":"address","name":"user","type":"address"},{"indexed":true,"internalType":"uint256","name":"genreId","type":"uint256"},{"indexed":false,"internalType":"string","name":"genreName","type":"string"},{"indexed":false,"internalType":"uint8","name":"tier","type":"uint8"}],"name":"BadgeMinted","type":"event"},{"anonymous":false,"inputs":[{"indexed":true,"internalType":"address","name":"user","type":"address"},{"indexed":true,"internalType":"uint256","name":"genreId","type":"uint256"},{"indexed":false,"internalType":"uint8","name":"oldTier","type":"uint8"},{"indexed":false,"internalType":"uint8","name":"newTier","type":"uint8"}],"name":"BadgeRefreshed","type":"event"},{"anonymous":false,"inputs":[{"indexed":true,"internalType":"address","name":"previousOwner","type":"address"},{"indexed":true,"internalType":"address","name":"newOwner","type":"address"}],"name":"OwnershipTransferred","type":"event"},{"anonymous":false,"inputs":[{"indexed":true,"internalType":"address","name":"operator","type":"address"},{"indexed":true,"internalType":"address","name":"from","type":"address"},{"indexed":true,"internalType":"address","name":"to","type":"address"},{"indexed":false,"internalType":"uint256[]","name":"ids","type":"uint256[]"},{"indexed":false,"internalType":"uint256[]","name":"values","type":"uint256[]"}],"name":"TransferBatch","type":"event"},{"anonymous":false,"inputs":[{"indexed":true,"internalType":"address","name":"operator","type":"address"},{"indexed":true,"internalType":"address","name":"from","type":"address"},{"indexed":true,"internalType":"address","name":"to","type":"address"},{"indexed":false,"internalType":"uint256","name":"id","type":"uint256"},{"indexed":false,"internalType":"uint256","name":"value","type":"uint256"}],"name":"TransferSingle","type":"event"},{"anonymous":false,"inputs":[{"indexed":false,"internalType":"string","name":"value","type":"string"},{"indexed":true,"internalType":"uint256","name":"id","type":"uint256"}],"name":"URI","type":"event"},{"inputs":[],"name":"MAX_GENRE_ID","outputs":[{"internalType":"uint256","name":"","type":"uint256"}],"stateMutability":"view","type":"function"},{"inputs":[],"name":"STATUS_ACTIVE","outputs":[{"internalType":"uint8","name":"","type":"uint8"}],"stateMutability":"view","type":"function"},{"inputs":[],"name":"STATUS_INACTIVE","outputs":[{"internalType":"uint8","name":"","type":"uint8"}],"stateMutability":"view","type":"function"},{"inputs":[],"name":"TIER_ENTRY","outputs":[{"internalType":"uint8","name":"","type":"uint8"}],"stateMutability":"view","type":"function"},{"inputs":[],"name":"TIER_OG","outputs":[{"internalType":"uint8","name":"","type":"uint8"}],"stateMutability":"view","type":"function"},{"inputs":[],"name":"TIER_VETERAN","outputs":[{"internalType":"uint8","name":"","type":"uint8"}],"stateMutability":"view","type":"function"},{"inputs":[],"name":"VERIFICATION_VALIDITY","outputs":[{"internalType":"uint64","name":"","type":"uint64"}],"stateMutability":"view","type":"function"},{"inputs":[{"internalType":"address","name":"","type":"address"},{"internalType":"uint256","name":"","type":"uint256"},{"internalType":"uint256","name":"","type":"uint256"}],"name":"actionProofs","outputs":[{"internalType":"string","name":"actionType","type":"string"},{"internalType":"string","name":"eventName","type":"string"},{"internalType":"uint64","name":"timestamp","type":"uint64"},{"internalType":"string","name":"location","type":"string"}],"stateMutability":"view","type":"function"},{"inputs":[{"internalType":"address","name":"user","type":"address"},{"internalType":"uint256","name":"genreId","type":"uint256"},{"internalType":"string","name":"actionType","type":"string"},{"internalType":"string","name":"eventName","type":"string"},{"internalType":"string","name":"location","type":"string"}],"name":"addActionProof","outputs":[],"stateMutability":"nonpayable","type":"function"},{"inputs":[{"internalType":"address","name":"","type":"address"},{"internalType":"uint256","name":"","type":"uint256"}],"name":"badgeInfo","outputs":[{"internalType":"uint8","name":"tier","type":"uint8"},{"internalType":"uint64","name":"lastVerified","type":"uint64"},{"internalType":"uint8","name":"status","type":"uint8"}],"stateMutability":"view","type":"function"},{"inputs":[{"internalType":"address","name":"account","type":"address"},{"internalType":"uint256","name":"id","type":"uint256"}],"name":"balanceOf","outputs":[{"internalType":"uint256","name":"","type":"uint256"}],"stateMutability":"view","type":"function"},{"inputs":[{"internalType":"address[]","name":"accounts","type":"address[]"},{"internalType":"uint256[]","name":"ids","type":"uint256[]"}],"name":"balanceOfBatch","outputs":[{"internalType":"uint256[]","name":"","type":"uint256[]"}],"stateMutability":"view","type":"function"},{"inputs":[{"internalType":"uint256","name":"genreId","type":"uint256"}],"name":"burnBadge","outputs":[],"stateMutability":"nonpayable","type":"function"},{"inputs":[{"internalType":"address","name":"user","type":"address"}],"name":"checkAllBadgesDecay","outputs":[],"stateMutability":"nonpayable","type":"function"},{"inputs":[{"internalType":"address","name":"user","type":"address"},{"internalType":"uint256","name":"genreId","type":"uint256"}],"name":"checkAndDecayBadge","outputs":[],"stateMutability":"nonpayable","type":"function"},{"inputs":[{"internalType":"address","name":"user","type":"address"},{"internalType":"uint256","name":"genreId","type":"uint256"}],"name":"checkBadge","outputs":[{"internalType":"bool","name":"","type":"bool"}],"stateMutability":"view","type":"function"},{"inputs":[{"internalType":"uint256","name":"id","type":"uint256"}],"name":"exists","outputs":[{"internalType":"bool","name":"","type":"bool"}],"stateMutability":"view","type":"function"},{"inputs":[{"internalType":"uint256","name":"","type":"uint256"}],"name":"genreNames","outputs":[{"internalType":"string","name":"","type":"string"}],"stateMutability":"view","type":"function"},{"inputs":[{"internalType":"address","name":"user","type":"address"},{"internalType":"uint256","name":"genreId","type":"uint256"},{"internalType":"uint256","name":"index","type":"uint256"}],"name":"getActionProof","outputs":[{"components":[{"internalType":"string","name":"actionType","type":"string"},{"internalType":"string","name":"eventName","type":"string"},{"internalType":"uint64","name":"timestamp","type":"uint64"},{"internalType":"string","name":"location","type":"string"}],"internalType":"struct MusicConsensusSBT.ActionProof","name":"","type":"tuple"}],"stateMutability":"view","type":"function"},{"inputs":[{"internalType":"address","name":"user","type":"address"},{"internalType":"uint256","name":"genreId","type":"uint256"}],"name":"getActionProofCount","outputs":[{"internalType":"uint256","name":"","type":"uint256"}],"stateMutability":"view","type":"function"},{"inputs":[{"internalType":"address","name":"user","type":"address"}],"name":"getActiveBadgesWithInfo","outputs":[{"internalType":"uint256[]","name":"genreIds","type":"uint256[]"},{"internalType":"uint8[]","name":"tiers","type":"uint8[]"},{"internalType":"bool[]","name":"isActives","type":"bool[]"}],"stateMutability":"view","type":"function"},{"inputs":[{"internalType":"address","name":"user","type":"address"},{"internalType":"uint256","name":"genreId","type":"uint256"}],"name":"getBadgeInfo","outputs":[{"internalType":"uint8","name":"tier","type":"uint8"},{"internalType":"uint64","name":"lastVerified","type":"uint64"},{"internalType":"uint8","name":"status","type":"uint8"},{"internalType":"bool","name":"isExpired","type":"bool"}],"stateMutability":"view","type":"function"},{"inputs":[{"internalType":"address","name":"user","type":"address"},{"internalType":"uint256","name":"genreId","type":"uint256"}],"name":"getBadgeStatus","outputs":[{"internalType":"bool","name":"isActive","type":"bool"}],"stateMutability":"view","type":"function"},{"inputs":[{"internalType":"address","name":"user","type":"address"}],"name":"getUserBadges","outputs":[{"internalType":"uint256[]","name":"","type":"uint256[]"}],"stateMutability":"view","type":"function"},{"inputs":[{"internalType":"address","name":"user","type":"address"},{"internalType":"uint256","name":"genreId","type":"uint256"}],"name":"hasBadge","outputs":[{"internalType":"bool","name":"","type":"bool"}],"stateMutability":"view","type":"function"},{"inputs":[{"internalType":"address","name":"account","type":"address"},{"internalType":"address","name":"operator","type":"address"}],"name":"isApprovedForAll","outputs":[{"internalType":"bool","name":"","type":"bool"}],"stateMutability":"view","type":"function"},{"inputs":[{"internalType":"address","name":"user","type":"address"},{"internalType":"uint256","name":"genreId","type":"uint256"},{"internalType":"bytes","name":"data","type":"bytes"}],"name":"mintBadge","outputs":[],"stateMutability":"nonpayable","type":"function"},{"inputs":[{"internalType":"address","name":"user","type":"address"},{"internalType":"uint256[]","name":"genreIds","type":"uint256[]"},{"internalType":"bytes","name":"data","type":"bytes"}],"name":"mintBatchBadges","outputs":[],"stateMutability":"nonpayable","type":"function"},{"inputs":[{"internalType":"address","name":"user","type":"address"},{"internalType":"uint256[]","name":"genreIds","type":"uint256[]"},{"internalType":"uint8[]","name":"tiers","type":"uint8[]"},{"internalType":"bytes","name":"data","type":"bytes"}],"name":"mintBatchTieredBadges","outputs":[],"stateMutability":"nonpayable","type":"function"},{"inputs":[{"internalType":"address","name":"user","type":"address"},{"internalType":"uint256","name":"genreId","type":"uint256"},{"internalType":"uint8","name":"tier","type":"uint8"},{"internalType":"bytes","name":"data","type":"bytes"}],"name":"mintTieredBadge","outputs":[],"stateMutability":"nonpayable","type":"function"},{"inputs":[],"name":"name","outputs":[{"internalType":"string","name":"","type":"string"}],"stateMutability":"view","type":"function"},{"inputs":[],"name":"owner","outputs":[{"internalType":"address","name":"","type":"address"}],"stateMutability":"view","type":"function"},{"inputs":[{"internalType":"uint256","name":"genreId","type":"uint256"},{"internalType":"uint8","name":"newTier","type":"uint8"}],"name":"refreshBadge","outputs":[],"stateMutability":"nonpayable","type":"function"},{"inputs":[],"name":"renounceOwnership","outputs":[],"stateMutability":"nonpayable","type":"function"},{"inputs":[{"internalType":"address","name":"from","type":"address"},{"internalType":"address","name":"to","type":"address"},{"internalType":"uint256[]","name":"ids","type":"uint256[]"},{"internalType":"uint256[]","name":"values","type":"uint256[]"},{"internalType":"bytes","name":"data","type":"bytes"}],"name":"safeBatchTransferFrom","outputs":[],"stateMutability":"nonpayable","type":"function"},{"inputs":[{"internalType":"address","name":"from","type":"address"},{"internalType":"address","name":"to","type":"address"},{"internalType":"uint256","name":"id","type":"uint256"},{"internalType":"uint256","name":"value","type":"uint256"},{"internalType":"bytes","name":"data","type":"bytes"}],"name":"safeTransferFrom","outputs":[],"stateMutability":"nonpayable","type":"function"},{"inputs":[{"internalType":"address","name":"operator","type":"address"},{"internalType":"bool","name":"approved","type":"bool"}],"name":"setApprovalForAll","outputs":[],"stateMutability":"nonpayable","type":"function"},{"inputs":[{"internalType":"uint256","name":"genreId","type":"uint256"},{"internalType":"string","name":"genreName","type":"string"}],"name":"setGenreName","outputs":[],"stateMutability":"nonpayable","type":"function"},{"inputs":[{"internalType":"string","name":"newUri","type":"string"}],"name":"setURI","outputs":[],"stateMutability":"nonpayable","type":"function"},{"inputs":[{"internalType":"bytes4","name":"interfaceId","type":"bytes4"}],"name":"supportsInterface","outputs":[{"internalType":"bool","name":"","type":"bool"}],"stateMutability":"view","type":"function"},{"inputs":[],"name":"symbol","outputs":[{"internalType":"string","name":"","type":"string"}],"stateMutability":"view","type":"function"},{"inputs":[],"name":"totalSupply","outputs":[{"internalType":"uint256","name":"","type":"uint256"}],"stateMutability":"view","type":"function"},{"inputs":[{"internalType":"uint256","name":"id","type":"uint256"}],"name":"totalSupply","outputs":[{"internalType":"uint256","name":"","type":"uint256"}],"stateMutability":"view","type":"function"},{"inputs":[{"internalType":"address","name":"newOwner","type":"address"}],"name":"transferOwnership","outputs":[],"stateMutability":"nonpayable","type":"function"},{"inputs":[{"internalType":"uint256","name":"","type":"uint256"}],"name":"uri","outputs":[{"internalType":"string","name":"","type":"string"}],"stateMutability":"view","type":"function"}],"evm":{"bytecode":{"linkReferences":{},"object":"608060405234801562000010575f80fd5b5060405162004081380380620040818339810160408190526200003391620004d8565b8181620000408162000461565b506001600160a01b0381166200006f57604051631e4fbdf760e01b81525f600482015260240160405180910390fd5b6200007a8162000473565b5060408051808201909152601681527f4d7573696320436f6e73656e73757320534254205632000000000000000000006020820152600690620000be908262000652565b5060408051808201909152600681526526a1a9a12a1960d11b6020820152600790620000eb908262000652565b506040805180820190915260038152620506f760ec1b60208083019190915260015f52600890527fad67d757c34507f157cacfa2e3153e9f260a2244f30428821be7be64587ac55f9062000140908262000652565b50604080518082019091526004815263526f636b60e01b60208083019190915260025f52600890527f6add646517a5b0f6793cd5891b7937d28a5b2981a5d88ebc7cd776088fea90419062000196908262000652565b5060408051808201909152600781526604869702d486f760cc1b60208083019190915260035f52600890527f625b35f5e76f098dd7c3a05b10e2e5e78a4a01228d60c3b143426cdf36d2645590620001ef908262000652565b5060408051808201909152600381526229132160e91b60208083019190915260045f52600890527f9321edea6e3be4df59a344b401fab4f888b556fda1f954244cff9204bad624b89062000244908262000652565b5060408051808201909152600a815269456c656374726f6e696360b01b60208083019190915260055f52600890527f91238f30f286c9a1c6e901c4eda3b214c381c846e3dbe48df95c21488e8e1fdb90620002a0908262000652565b506040805180820190915260048152632530bd3d60e11b60208083019190915260065f52600890527f13acf3fc7bed94759963f076d5d3443d88732026bffc8253bdf4a6e65f21ecc590620002f6908262000652565b5060408051808201909152600981526810db185cdcda58d85b60ba1b60208083019190915260075f52600890527f24cd397636bedc6cf9b490d0edd57c769c19b367fb7d5c2344ae1ddc7d21c1449062000351908262000652565b50604080518082019091526007815266436f756e74727960c81b60208083019190915260085f81905290527fe4c2e8be66af8dd2d277000f4f830a10546f8b14e45cd850b875c98ba0f0d2cd90620003aa908262000652565b50604080518082019091526005815264496e64696560d81b60208083019190915260095f52600890527f82c9e868e45873bb5a4f47c09e14a12f6a6314e13aabd611e4374762bb4e8b369062000401908262000652565b5060408051808201909152600581526413595d185b60da1b602080830191909152600a5f52600890527f586689db7536874b78a6eac0f58556a56a106985743f7c16a699b27bb02f88bd9062000458908262000652565b5050506200071a565b60026200046f828262000652565b5050565b600580546001600160a01b038381166001600160a01b0319831681179093556040519116919082907f8be0079c531659141344cd1fd0a4f28419497f9722a3daafe3b4186f6b6457e0905f90a35050565b634e487b7160e01b5f52604160045260245ffd5b5f8060408385031215620004ea575f80fd5b82516001600160a01b038116811462000501575f80fd5b602084810151919350906001600160401b038082111562000520575f80fd5b818601915086601f83011262000534575f80fd5b815181811115620005495762000549620004c4565b604051601f8201601f19908116603f01168101908382118183101715620005745762000574620004c4565b8160405282815289868487010111156200058c575f80fd5b5f93505b82841015620005af578484018601518185018701529285019262000590565b5f8684830101528096505050505050509250929050565b600181811c90821680620005db57607f821691505b602082108103620005fa57634e487b7160e01b5f52602260045260245ffd5b50919050565b601f8211156200064d575f81815260208120601f850160051c81016020861015620006285750805b601f850160051c820191505b81811015620006495782815560010162000634565b5050505b505050565b81516001600160401b038111156200066e576200066e620004c4565b62000686816200067f8454620005c6565b8462000600565b602080601f831160018114620006bc575f8415620006a45750858301515b5f19600386901b1c1916600185901b17855562000649565b5f85815260208120601f198616915b82811015620006ec57888601518255948401946001909101908401620006cb565b50858210156200070a57878501515f19600388901b60f8161c191681555b5050505050600190811b01905550565b61395980620007285f395ff3fe608060405234801561000f575f80fd5b5060043610610275575f3560e01c806379bb051911610156578063cc18eadc116100ca578063e985e9c511610084578063e985e9c51461064a578063f242432a1461065d578063f2fde38b14610670578063f45fb6b514610683578063f74869601461039c578063ff4181be14610696575f80fd5b8063cc18eadc1461055b578063cd85336e1461056e578063d040fd1114610581578063d235deb314610594578063d4c19e33146105b4578063d532548714610628575f80fd5b80639fa76c931161011b5780639fa76c93146104e4578063a22cb465146104f7578063b5fa96421461050a578063bd85b03914610512578063c71c37d114610531578063cb2b50cd14610539575f80fd5b806379bb0519146104665780637f6feb6a146104795780638129782e146104ae5780638da5cb5b146104c157806395d89b41146104dc575f80fd5b8063417b9942116101ed5780634f558e79116101b25780634f558e791461040f57806355de28ae146104305780635982fefe146103b757806369d11c5514610443578063715018a61461044b5780637853702414610453575f80fd5b8063417b9942146103895780634389cc221461039c57806347f03f6a146103a45780634c6a70ce146103b75780634e1273f4146103fc575f80fd5b80630e89341c1161023e5780630e89341c1461030557806318160ddd1461031857806329efcf80146103205780632eb2c2d614610333578063311e2f501461034657806337c245fe14610369575f80fd5b8062fdd58e1461027957806301ffc9a71461029f57806302429742146102c257806302fe5305146102db57806306fdde03146102f0575b5f80fd5b61028c610287366004612c0d565b6106dd565b6040519081526020015b60405180910390f35b6102b26102ad366004612c4a565b610704565b6040519015158152602001610296565b6102c95f81565b60405160ff9091168152602001610296565b6102ee6102e9366004612d14565b610753565b005b6102f8610767565b6040516102969190612d90565b6102f8610313366004612da2565b6107f3565b60045461028c565b6102ee61032e366004612db9565b610885565b6102ee610341366004612e95565b6109e2565b610359610354366004612f37565b610a49565b6040516102969493929190612f67565b61037c610377366004612fb9565b610c3b565b604051610296919061300b565b6102ee610397366004612c0d565b610d6f565b6102c9600181565b6102ee6103b2366004612fb9565b610e33565b6102b26103c5366004612c0d565b6001600160a01b03919091165f908152600960209081526040808320938352929052205461010090046001600160401b0316151590565b61037c61040a36600461301d565b610f14565b6102b261041d366004612da2565b5f90815260036020526040902054151590565b6102ee61043e366004612da2565b610fe6565b61028c600a81565b6102ee6110aa565b6102ee6104613660046130d6565b6110bd565b6102ee610474366004613142565b611220565b61028c610487366004612c0d565b6001600160a01b03919091165f908152600a60209081526040808320938352929052205490565b6102ee6104bc3660046131b6565b6114cc565b6005546040516001600160a01b039091168152602001610296565b6102f8611659565b6102ee6104f2366004613219565b611666565b6102ee6105053660046132fb565b6119f9565b6102c9600281565b61028c610520366004612da2565b5f9081526003602052604090205490565b6102c9600381565b6105436276a70081565b6040516001600160401b039091168152602001610296565b6102ee610569366004613334565b611a04565b6102b261057c366004612c0d565b611a23565b6102ee61058f36600461336d565b611ac6565b6105a76105a2366004612f37565b611bcc565b6040516102969190613397565b6105fc6105c2366004612c0d565b600960209081525f928352604080842090915290825290205460ff808216916001600160401b0361010082041691600160481b9091041683565b6040805160ff94851681526001600160401b039093166020840152921691810191909152606001610296565b61063b610636366004612fb9565b611e81565b6040516102969392919061340a565b6102b261065836600461349b565b6120df565b6102ee61066b3660046134c3565b61210c565b6102ee61067e366004612fb9565b61216b565b6102f8610691366004612da2565b6121a5565b6106a96106a4366004612c0d565b6121bd565b6040805160ff95861681526001600160401b0394909416602085015291909316908201529015156060820152608001610296565b5f818152602081815260408083206001600160a01b03861684529091529020545b92915050565b5f6001600160e01b03198216636cdb3d1360e11b148061073457506001600160e01b031982166303a24d0760e21b145b806106fe57506301ffc9a760e01b6001600160e01b03198316146106fe565b61075b61225e565b6107648161228b565b50565b6006805461077490613522565b80601f01602080910402602001604051908101604052809291908181526020018280546107a090613522565b80156107eb5780601f106107c2576101008083540402835291602001916107eb565b820191905f5260205f20905b8154815290600101906020018083116107ce57829003601f168201915b505050505081565b60606002805461080290613522565b80601f016020809104026020016040519081016040528092919081815260200182805461082e90613522565b80156108795780601f1061085057610100808354040283529160200191610879565b820191905f5260205f20905b81548152906001019060200180831161085c57829003601f168201915b50505050509050919050565b600182101580156108975750600a8211155b6108bc5760405162461bcd60e51b81526004016108b39061355a565b60405180910390fd5b6001600160a01b0383165f90815260096020908152604080832085845290915290205461010090046001600160401b03161561090a5760405162461bcd60e51b81526004016108b390613584565b6040805160608101825260018082526001600160401b0342811660208085019182528486018481526001600160a01b038a165f908152600983528781208a8252909252959020935184549151955160ff908116600160481b0260ff60481b19979094166101000268ffffffffffffffffff19909316911617179390931692909217905561099b908490849084612297565b81836001600160a01b03165f8051602061390483398151915260085f8681526020019081526020015f2060016040516109d59291906135b2565b60405180910390a3505050565b336001600160a01b0386168114801590610a035750610a0186826120df565b155b15610a345760405163711bec9160e11b81526001600160a01b038083166004830152871660248201526044016108b3565b610a4186868686866122f2565b505050505050565b600a602052825f5260405f20602052815f5260405f208181548110610a6c575f80fd5b905f5260205f2090600402015f925092505050805f018054610a8d90613522565b80601f0160208091040260200160405190810160405280929190818152602001828054610ab990613522565b8015610b045780601f10610adb57610100808354040283529160200191610b04565b820191905f5260205f20905b815481529060010190602001808311610ae757829003601f168201915b505050505090806001018054610b1990613522565b80601f0160208091040260200160405190810160405280929190818152602001828054610b4590613522565b8015610b905780601f10610b6757610100808354040283529160200191610b90565b820191905f5260205f20905b815481529060010190602001808311610b7357829003601f168201915b505050600284015460038501805494956001600160401b03909216949193509150610bba90613522565b80601f0160208091040260200160405190810160405280929190818152602001828054610be690613522565b8015610c315780601f10610c0857610100808354040283529160200191610c31565b820191905f5260205f20905b815481529060010190602001808311610c1457829003601f168201915b5050505050905084565b60605f60015b600a8111610c9f576001600160a01b0384165f90815260096020908152604080832084845290915290205461010090046001600160401b031615610c8d5781610c8981613655565b9250505b80610c9781613655565b915050610c41565b505f816001600160401b03811115610cb957610cb9612c65565b604051908082528060200260200182016040528015610ce2578160200160208202803683370190505b5090505f60015b600a8111610d65576001600160a01b0386165f90815260096020908152604080832084845290915290205461010090046001600160401b031615610d535780838381518110610d3a57610d3a61366d565b602090810291909101015281610d4f81613655565b9250505b80610d5d81613655565b915050610ce9565b5090949350505050565b6001600160a01b0382165f9081526009602090815260408083208484529091529020805461010090046001600160401b031615801590610dba57508054600160481b900460ff166001145b15610e2e578054610ddd906276a7009061010090046001600160401b0316613681565b6001600160401b0316421115610e2e57805460ff60481b1916815560405182906001600160a01b038516907ffe3376793d31b551742504ab5d60ef12323f83f07f3f67c68f5c7ac1081feb05905f90a35b505050565b60015b600a8111610f10576001600160a01b0382165f9081526009602090815260408083208484529091529020805461010090046001600160401b031615801590610e8957508054600160481b900460ff166001145b15610efd578054610eac906276a7009061010090046001600160401b0316613681565b6001600160401b0316421115610efd57805460ff60481b1916815560405182906001600160a01b038516907ffe3376793d31b551742504ab5d60ef12323f83f07f3f67c68f5c7ac1081feb05905f90a35b5080610f0881613655565b915050610e36565b5050565b60608151835114610f455781518351604051635b05999160e01b8152600481019290925260248201526044016108b3565b5f83516001600160401b03811115610f5f57610f5f612c65565b604051908082528060200260200182016040528015610f88578160200160208202803683370190505b5090505f5b8451811015610fde57602080820286010151610fb1906020808402870101516106dd565b828281518110610fc357610fc361366d565b6020908102919091010152610fd781613655565b9050610f8d565b509392505050565b335f90815260096020908152604080832084845290915290205461010090046001600160401b031661102a5760405162461bcd60e51b81526004016108b3906136a8565b335f8181526009602090815260408083208584528252808320805469ffffffffffffffffffff19169055928252600a8152828220848352905290812061106f91612b45565b61107b33826001612350565b604051819033907f21efcae153b58616332d7f7ee4eb0b72bd5b472048c613a4107d750a710b6402905f90a350565b6110b261225e565b6110bb5f6123b6565b565b6110c561225e565b6001600160a01b0385165f90815260096020908152604080832087845290915290205461010090046001600160401b03166111125760405162461bcd60e51b81526004016108b3906136a8565b6001600160a01b0385165f908152600a60209081526040808320878452825280832081516080810183528781528084018790526001600160401b034216928101929092526060820185905280546001810182559084529190922082516004909202019081906111819082613716565b50602082015160018201906111969082613716565b50604082015160028201805467ffffffffffffffff19166001600160401b03909216919091179055606082015160038201906111d29082613716565b50505083856001600160a01b03167f76d76ed92d9f263f81c3d1b1ba92ae14f9ef6ee9c7f97b1233e5fc282084f66885856040516112119291906137d1565b60405180910390a35050505050565b5f82516001600160401b0381111561123a5761123a612c65565b604051908082528060200260200182016040528015611263578160200160208202803683370190505b5090505f5b83518110156114b95760018482815181106112855761128561366d565b6020026020010151101580156112b55750600a8482815181106112aa576112aa61366d565b602002602001015111155b6112d15760405162461bcd60e51b81526004016108b39061355a565b6001600160a01b0385165f90815260096020526040812085519091908690849081106112ff576112ff61366d565b60209081029190910181015182528101919091526040015f205461010090046001600160401b0316156113445760405162461bcd60e51b81526004016108b390613584565b6040518060600160405280600160ff168152602001426001600160401b03168152602001600160ff1681525060095f876001600160a01b03166001600160a01b031681526020019081526020015f205f8684815181106113a6576113a661366d565b60209081029190910181015182528181019290925260409081015f208351815493850151949092015160ff908116600160481b0260ff60481b196001600160401b039096166101000268ffffffffffffffffff199095169190931617929092179290921691909117905581516001908390839081106114275761142761366d565b6020026020010181815250508381815181106114455761144561366d565b6020026020010151856001600160a01b03165f8051602061390483398151915260085f88868151811061147a5761147a61366d565b602002602001015181526020019081526020015f20600160405161149f9291906135b2565b60405180910390a3806114b181613655565b915050611268565b506114c684848385612407565b50505050565b600183101580156114de5750600a8311155b6114fa5760405162461bcd60e51b81526004016108b39061355a565b600160ff8316108015906115125750600360ff831611155b61152e5760405162461bcd60e51b81526004016108b3906137f5565b6001600160a01b0384165f90815260096020908152604080832086845290915290205461010090046001600160401b03161561157c5760405162461bcd60e51b81526004016108b390613584565b6040805160608101825260ff80851682526001600160401b03428116602080850191825260018587018181526001600160a01b038c165f908152600984528881208c82529093529690912094518554925196518516600160481b0260ff60481b19979094166101000268ffffffffffffffffff199093169416939093171793909316929092179055611612908590859084612297565b82846001600160a01b03165f8051602061390483398151915260085f8781526020019081526020015f208560405161164b9291906135b2565b60405180910390a350505050565b6007805461077490613522565b81518351146116b05760405162461bcd60e51b8152602060048201526016602482015275082e4e4c2f2e640d8cadccee8d040dad2e6dac2e8c6d60531b60448201526064016108b3565b5f83516001600160401b038111156116ca576116ca612c65565b6040519080825280602002602001820160405280156116f3578160200160208202803683370190505b5090505f5b84518110156119e55760018582815181106117155761171561366d565b6020026020010151101580156117455750600a85828151811061173a5761173a61366d565b602002602001015111155b6117615760405162461bcd60e51b81526004016108b39061355a565b600160ff168482815181106117785761177861366d565b602002602001015160ff16101580156117b15750600360ff168482815181106117a3576117a361366d565b602002602001015160ff1611155b6117cd5760405162461bcd60e51b81526004016108b3906137f5565b6001600160a01b0386165f90815260096020526040812086519091908790849081106117fb576117fb61366d565b60209081029190910181015182528101919091526040015f205461010090046001600160401b0316156118405760405162461bcd60e51b81526004016108b390613584565b604051806060016040528085838151811061185d5761185d61366d565b602002602001015160ff168152602001426001600160401b03168152602001600160ff1681525060095f886001600160a01b03166001600160a01b031681526020019081526020015f205f8784815181106118ba576118ba61366d565b60209081029190910181015182528181019290925260409081015f208351815493850151949092015160ff908116600160481b0260ff60481b196001600160401b039096166101000268ffffffffffffffffff1990951691909316179290921792909216919091179055815160019083908390811061193b5761193b61366d565b6020026020010181815250508481815181106119595761195961366d565b6020026020010151866001600160a01b03165f8051602061390483398151915260085f89868151811061198e5761198e61366d565b602002602001015181526020019081526020015f208785815181106119b5576119b561366d565b60200260200101516040516119cb9291906135b2565b60405180910390a3806119dd81613655565b9150506116f8565b506119f285858385612407565b5050505050565b610f1033838361243d565b611a0c61225e565b5f828152600860205260409020610e2e8282613716565b6001600160a01b0382165f90815260096020908152604080832084845282528083208151606081018352905460ff80821683526001600160401b03610100830416948301859052600160481b9091041691810191909152908203611a8a575f9150506106fe565b6276a7008160200151611a9d9190613681565b6001600160401b03164211611abd576040015160ff1660011490506106fe565b505f9392505050565b335f90815260096020908152604080832085845290915290205461010090046001600160401b0316611b0a5760405162461bcd60e51b81526004016108b3906136a8565b600160ff821610801590611b225750600360ff821611155b611b3e5760405162461bcd60e51b81526004016108b3906137f5565b335f8181526009602090815260408083208684528252918290208054600160481b69ffffffffffffffffff00198216610100426001600160401b03160260ff60481b1916171760ff191660ff87811691821784558551921680835293820152909391928692917ffe5ac37f441080da72c3e4788457d0722b5196ed6d2843af39b402294074b2c7910161164b565b611bff604051806080016040528060608152602001606081526020015f6001600160401b03168152602001606081525090565b6001600160a01b0384165f908152600a602090815260408083208684529091529020548210611c665760405162461bcd60e51b8152602060048201526013602482015272496e646578206f7574206f6620626f756e647360681b60448201526064016108b3565b6001600160a01b0384165f908152600a602090815260408083208684529091529020805483908110611c9a57611c9a61366d565b905f5260205f2090600402016040518060800160405290815f82018054611cc090613522565b80601f0160208091040260200160405190810160405280929190818152602001828054611cec90613522565b8015611d375780601f10611d0e57610100808354040283529160200191611d37565b820191905f5260205f20905b815481529060010190602001808311611d1a57829003601f168201915b50505050508152602001600182018054611d5090613522565b80601f0160208091040260200160405190810160405280929190818152602001828054611d7c90613522565b8015611dc75780601f10611d9e57610100808354040283529160200191611dc7565b820191905f5260205f20905b815481529060010190602001808311611daa57829003601f168201915b505050918352505060028201546001600160401b03166020820152600382018054604090920191611df790613522565b80601f0160208091040260200160405190810160405280929190818152602001828054611e2390613522565b8015611e6e5780601f10611e4557610100808354040283529160200191611e6e565b820191905f5260205f20905b815481529060010190602001808311611e5157829003601f168201915b50505050508152505090505b9392505050565b606080805f60015b600a8111611ee7576001600160a01b0386165f90815260096020908152604080832084845290915290205461010090046001600160401b031615611ed55781611ed181613655565b9250505b80611edf81613655565b915050611e89565b50806001600160401b03811115611f0057611f00612c65565b604051908082528060200260200182016040528015611f29578160200160208202803683370190505b509350806001600160401b03811115611f4457611f44612c65565b604051908082528060200260200182016040528015611f6d578160200160208202803683370190505b509250806001600160401b03811115611f8857611f88612c65565b604051908082528060200260200182016040528015611fb1578160200160208202803683370190505b5091505f60015b600a81116120d5576001600160a01b0387165f9081526009602090815260408083208484528252918290208251606081018452905460ff80821683526001600160401b03610100830416938301849052600160481b9091041692810192909252156120c257818784815181106120305761203061366d565b602002602001018181525050805f01518684815181106120525761205261366d565b60ff9283166020918202929092010152604082015116600114801561209257506276a70081602001516120859190613681565b6001600160401b03164211155b8584815181106120a4576120a461366d565b91151560209283029190910190910152826120be81613655565b9350505b50806120cd81613655565b915050611fb8565b5050509193909250565b6001600160a01b039182165f90815260016020908152604080832093909416825291909152205460ff1690565b336001600160a01b038616811480159061212d575061212b86826120df565b155b1561215e5760405163711bec9160e11b81526001600160a01b038083166004830152871660248201526044016108b3565b610a4186868686866124c9565b61217361225e565b6001600160a01b03811661219c57604051631e4fbdf760e01b81525f60048201526024016108b3565b610764816123b6565b60086020525f90815260409020805461077490613522565b6001600160a01b0382165f90815260096020908152604080832084845282528083208151606081018352905460ff80821683526001600160401b03610100830416948301859052600160481b9091041691810191909152829182918291829015612242576276a70082602001516122349190613681565b6001600160401b0316421190505b8151602083015160409093015190999298509650945092505050565b6005546001600160a01b031633146110bb5760405163118cdaa760e01b81523360048201526024016108b3565b6002610f108282613716565b6001600160a01b0384166122c057604051632bfa23e760e11b81525f60048201526024016108b3565b60408051600180825260208201869052818301908152606082018590526080820190925290610a415f87848487612555565b6001600160a01b03841661231b57604051632bfa23e760e11b81525f60048201526024016108b3565b6001600160a01b03851661234357604051626a0d4560e21b81525f60048201526024016108b3565b6119f28585858585612555565b6001600160a01b03831661237857604051626a0d4560e21b81525f60048201526024016108b3565b604080516001808252602082018590528183019081526060820184905260a082019092525f608082018181529192916119f291879185908590612555565b600580546001600160a01b038381166001600160a01b0319831681179093556040519116919082907f8be0079c531659141344cd1fd0a4f28419497f9722a3daafe3b4186f6b6457e0905f90a35050565b6001600160a01b03841661243057604051632bfa23e760e11b81525f60048201526024016108b3565b6114c65f85858585612555565b6001600160a01b0382166124655760405162ced3e160e81b81525f60048201526024016108b3565b6001600160a01b038381165f81815260016020908152604080832094871680845294825291829020805460ff191686151590811790915591519182527f17307eab39ab6107e8899845ad3d59bd9653f200f220920489ca2b5937696c3191016109d5565b6001600160a01b0384166124f257604051632bfa23e760e11b81525f60048201526024016108b3565b6001600160a01b03851661251a57604051626a0d4560e21b81525f60048201526024016108b3565b6040805160018082526020820186905281830190815260608201859052608082019092529061254c8787848487612555565b50505050505050565b612561858585856125a8565b6001600160a01b038416156119f2578251339060010361259a576020848101519084015161259383898985858961262d565b5050610a41565b610a4181878787878761274e565b6001600160a01b038416158015906125c857506001600160a01b03831615155b156126215760405162461bcd60e51b8152602060048201526024808201527f536f756c626f756e643a20546f6b656e206973206e6f6e2d7472616e7366657260448201526361626c6560e01b60648201526084016108b3565b6114c684848484612835565b6001600160a01b0384163b15610a415760405163f23a6e6160e01b81526001600160a01b0385169063f23a6e6190612671908990899088908890889060040161381b565b6020604051808303815f875af19250505080156126ab575060408051601f3d908101601f191682019092526126a891810190613854565b60015b612712573d8080156126d8576040519150601f19603f3d011682016040523d82523d5f602084013e6126dd565b606091505b5080515f0361270a57604051632bfa23e760e11b81526001600160a01b03861660048201526024016108b3565b805160208201fd5b6001600160e01b0319811663f23a6e6160e01b1461254c57604051632bfa23e760e11b81526001600160a01b03861660048201526024016108b3565b6001600160a01b0384163b15610a415760405163bc197c8160e01b81526001600160a01b0385169063bc197c8190612792908990899088908890889060040161386f565b6020604051808303815f875af19250505080156127cc575060408051601f3d908101601f191682019092526127c991810190613854565b60015b6127f9573d8080156126d8576040519150601f19603f3d011682016040523d82523d5f602084013e6126dd565b6001600160e01b0319811663bc197c8160e01b1461254c57604051632bfa23e760e11b81526001600160a01b03861660048201526024016108b3565b6128418484848461292d565b6001600160a01b0384166128c7575f805b83518110156128ae5760208181028481018201519086018201515f90815260039092526040822080549192839261288a9084906138cc565b9091555061289a905081846138cc565b925050806128a790613655565b9050612852565b508060045f8282546128c091906138cc565b9091555050505b6001600160a01b0383166114c6575f805b835181101561291c5760208181028481018201519086018201515f9081526003909252604090912080548290039055919091019061291581613655565b90506128d8565b506004805491909103905550505050565b805182511461295c5781518151604051635b05999160e01b8152600481019290925260248201526044016108b3565b335f5b8351811015612a67576020818102858101820151908501909101516001600160a01b03881615612a10575f828152602081815260408083206001600160a01b038c168452909152902054818110156129ea576040516303dee4c560e01b81526001600160a01b038a1660048201526024810182905260448101839052606481018490526084016108b3565b5f838152602081815260408083206001600160a01b038d16845290915290209082900390555b6001600160a01b03871615612a54575f828152602081815260408083206001600160a01b038b16845290915281208054839290612a4e9084906138cc565b90915550505b505080612a6090613655565b905061295f565b508251600103612ae75760208301515f906020840151909150856001600160a01b0316876001600160a01b0316846001600160a01b03167fc3d58168c5ae7397731d063d5bbf3d657854427343f4c083240f7aacaa2d0f628585604051612ad8929190918252602082015260400190565b60405180910390a450506119f2565b836001600160a01b0316856001600160a01b0316826001600160a01b03167f4a39dc06d4c0dbc64b70af90fd698a233a518aa5d07e595d983b8c0526c8f7fb8686604051612b369291906138df565b60405180910390a45050505050565b5080545f8255600402905f5260205f209081019061076491905b80821115612ba8575f612b728282612bac565b612b7f600183015f612bac565b60028201805467ffffffffffffffff19169055612b9f600383015f612bac565b50600401612b5f565b5090565b508054612bb890613522565b5f825580601f10612bc7575050565b601f0160209004905f5260205f209081019061076491905b80821115612ba8575f8155600101612bdf565b80356001600160a01b0381168114612c08575f80fd5b919050565b5f8060408385031215612c1e575f80fd5b612c2783612bf2565b946020939093013593505050565b6001600160e01b031981168114610764575f80fd5b5f60208284031215612c5a575f80fd5b8135611e7a81612c35565b634e487b7160e01b5f52604160045260245ffd5b604051601f8201601f191681016001600160401b0381118282101715612ca157612ca1612c65565b604052919050565b5f82601f830112612cb8575f80fd5b81356001600160401b03811115612cd157612cd1612c65565b612ce4601f8201601f1916602001612c79565b818152846020838601011115612cf8575f80fd5b816020850160208301375f918101602001919091529392505050565b5f60208284031215612d24575f80fd5b81356001600160401b03811115612d39575f80fd5b612d4584828501612ca9565b949350505050565b5f81518084525f5b81811015612d7157602081850181015186830182015201612d55565b505f602082860101526020601f19601f83011685010191505092915050565b602081525f611e7a6020830184612d4d565b5f60208284031215612db2575f80fd5b5035919050565b5f805f60608486031215612dcb575f80fd5b612dd484612bf2565b92506020840135915060408401356001600160401b03811115612df5575f80fd5b612e0186828701612ca9565b9150509250925092565b5f6001600160401b03821115612e2357612e23612c65565b5060051b60200190565b5f82601f830112612e3c575f80fd5b81356020612e51612e4c83612e0b565b612c79565b82815260059290921b84018101918181019086841115612e6f575f80fd5b8286015b84811015612e8a5780358352918301918301612e73565b509695505050505050565b5f805f805f60a08688031215612ea9575f80fd5b612eb286612bf2565b9450612ec060208701612bf2565b935060408601356001600160401b0380821115612edb575f80fd5b612ee789838a01612e2d565b94506060880135915080821115612efc575f80fd5b612f0889838a01612e2d565b93506080880135915080821115612f1d575f80fd5b50612f2a88828901612ca9565b9150509295509295909350565b5f805f60608486031215612f49575f80fd5b612f5284612bf2565b95602085013595506040909401359392505050565b608081525f612f796080830187612d4d565b8281036020840152612f8b8187612d4d565b90506001600160401b03851660408401528281036060840152612fae8185612d4d565b979650505050505050565b5f60208284031215612fc9575f80fd5b611e7a82612bf2565b5f8151808452602080850194508084015f5b8381101561300057815187529582019590820190600101612fe4565b509495945050505050565b602081525f611e7a6020830184612fd2565b5f806040838503121561302e575f80fd5b82356001600160401b0380821115613044575f80fd5b818501915085601f830112613057575f80fd5b81356020613067612e4c83612e0b565b82815260059290921b84018101918181019089841115613085575f80fd5b948201945b838610156130aa5761309b86612bf2565b8252948201949082019061308a565b965050860135925050808211156130bf575f80fd5b506130cc85828601612e2d565b9150509250929050565b5f805f805f60a086880312156130ea575f80fd5b6130f386612bf2565b94506020860135935060408601356001600160401b0380821115613115575f80fd5b61312189838a01612ca9565b94506060880135915080821115613136575f80fd5b612f0889838a01612ca9565b5f805f60608486031215613154575f80fd5b61315d84612bf2565b925060208401356001600160401b0380821115613178575f80fd5b61318487838801612e2d565b93506040860135915080821115613199575f80fd5b50612e0186828701612ca9565b803560ff81168114612c08575f80fd5b5f805f80608085870312156131c9575f80fd5b6131d285612bf2565b9350602085013592506131e7604086016131a6565b915060608501356001600160401b03811115613201575f80fd5b61320d87828801612ca9565b91505092959194509250565b5f805f806080858703121561322c575f80fd5b61323585612bf2565b93506020808601356001600160401b0380821115613251575f80fd5b61325d89838a01612e2d565b95506040880135915080821115613272575f80fd5b818801915088601f830112613285575f80fd5b8135613293612e4c82612e0b565b81815260059190911b8301840190848101908b8311156132b1575f80fd5b938501935b828510156132d6576132c7856131a6565b825293850193908501906132b6565b9650505060608801359250808311156132ed575f80fd5b505061320d87828801612ca9565b5f806040838503121561330c575f80fd5b61331583612bf2565b915060208301358015158114613329575f80fd5b809150509250929050565b5f8060408385031215613345575f80fd5b8235915060208301356001600160401b03811115613361575f80fd5b6130cc85828601612ca9565b5f806040838503121561337e575f80fd5b8235915061338e602084016131a6565b90509250929050565b602081525f8251608060208401526133b260a0840182612d4d565b90506020840151601f19808584030160408601526133d08383612d4d565b92506001600160401b0360408701511660608601526060860151915080858403016080860152506134018282612d4d565b95945050505050565b606081525f61341c6060830186612fd2565b8281036020848101919091528551808352868201928201905f5b8181101561345557845160ff1683529383019391830191600101613436565b5050848103604086015285518082529082019250818601905f5b8181101561348d57825115158552938301939183019160010161346f565b509298975050505050505050565b5f80604083850312156134ac575f80fd5b6134b583612bf2565b915061338e60208401612bf2565b5f805f805f60a086880312156134d7575f80fd5b6134e086612bf2565b94506134ee60208701612bf2565b9350604086013592506060860135915060808601356001600160401b03811115613516575f80fd5b612f2a88828901612ca9565b600181811c9082168061353657607f821691505b60208210810361355457634e487b7160e01b5f52602260045260245ffd5b50919050565b60208082526010908201526f125b9d985b1a590819d95b9c9948125160821b604082015260600190565b602080825260149082015273426164676520616c72656164792065786973747360601b604082015260600190565b604081525f8084546135c381613522565b806040860152606060018084165f81146135e457600181146135fe5761362c565b60ff1985168884015283151560051b88018301955061362c565b895f526020805f205f5b868110156136235781548b8201870152908401908201613608565b8a018501975050505b5050505060ff85166020850152509050611e7a565b634e487b7160e01b5f52601160045260245ffd5b5f6001820161366657613666613641565b5060010190565b634e487b7160e01b5f52603260045260245ffd5b6001600160401b038181168382160190808211156136a1576136a1613641565b5092915050565b6020808252600f908201526e10985919d9481b9bdd081bdddb9959608a1b604082015260600190565b601f821115610e2e575f81815260208120601f850160051c810160208610156136f75750805b601f850160051c820191505b81811015610a4157828155600101613703565b81516001600160401b0381111561372f5761372f612c65565b6137438161373d8454613522565b846136d1565b602080601f831160018114613776575f841561375f5750858301515b5f19600386901b1c1916600185901b178555610a41565b5f85815260208120601f198616915b828110156137a457888601518255948401946001909101908401613785565b50858210156137c157878501515f19600388901b60f8161c191681555b5050505050600190811b01905550565b604081525f6137e36040830185612d4d565b82810360208401526134018185612d4d565b6020808252600c908201526b24b73b30b634b2103a34b2b960a11b604082015260600190565b6001600160a01b03868116825285166020820152604081018490526060810183905260a0608082018190525f90612fae90830184612d4d565b5f60208284031215613864575f80fd5b8151611e7a81612c35565b6001600160a01b0386811682528516602082015260a0604082018190525f9061389a90830186612fd2565b82810360608401526138ac8186612fd2565b905082810360808401526138c08185612d4d565b98975050505050505050565b808201808211156106fe576106fe613641565b604081525f6138f16040830185612fd2565b82810360208401526134018185612fd256feeea079fecea4873aede971df0e085eaadfb8311fc3b73bdb10a9469ea7d19227a264697066735822122041a7cdf3bbc21d5b27d733eaab29b2c4ed961307dcc92d510fcda5d6adf4f09064736f6c63430008140033","opcodes":"PUSH1 0x80 PUSH1 0x40 MSTORE CALLVALUE DUP1 ISZERO PUSH3 0x10 JUMPI PUSH0 DUP1 REVERT JUMPDEST POP PUSH1 0x40 MLOAD PUSH3 0x4081 CODESIZE SUB DUP1 PUSH3 0x4081 DUP4 CODECOPY DUP2 ADD PUSH1 0x40 DUP2 SWAP1 MSTORE PUSH3 0x33 SWAP2 PUSH3 0x4D8 JUMP JUMPDEST DUP2 DUP2 PUSH3 0x40 DUP2 PUSH3 0x461 JUMP JUMPDEST POP PUSH1 0x1 PUSH1 0x1 PUSH1 0xA0 SHL SUB DUP2 AND PUSH3 0x6F JUMPI PUSH1 0x40 MLOAD PUSH4 0x1E4FBDF7 PUSH1 0xE0 SHL DUP2 MSTORE PUSH0 PUSH1 0x4 DUP3 ADD MSTORE PUSH1 0x24 ADD PUSH1 0x40 MLOAD DUP1 SWAP2 SUB SWAP1 REVERT JUMPDEST PUSH3 0x7A DUP2 PUSH3 0x473 JUMP JUMPDEST POP PUSH1 0x40 DUP1 MLOAD DUP1 DUP3 ADD SWAP1 SWAP2 MSTORE PUSH1 0x16 DUP2 MSTORE PUSH32 0x4D7573696320436F6E73656E7375732053425420563200000000000000000000 PUSH1 0x20 DUP3 ADD MSTORE PUSH1 0x6 SWAP1 PUSH3 0xBE SWAP1 DUP3 PUSH3 0x652 JUMP JUMPDEST POP PUSH1 0x40 DUP1 MLOAD DUP1 DUP3 ADD SWAP1 SWAP2 MSTORE PUSH1 0x6 DUP2 MSTORE PUSH6 0x26A1A9A12A19 PUSH1 0xD1 SHL PUSH1 0x20 DUP3 ADD MSTORE PUSH1 0x7 SWAP1 PUSH3 0xEB SWAP1 DUP3 PUSH3 0x652 JUMP JUMPDEST POP PUSH1 0x40 DUP1 MLOAD DUP1 DUP3 ADD SWAP1 SWAP2 MSTORE PUSH1 0x3 DUP2 MSTORE PUSH3 0x506F7 PUSH1 0xEC SHL PUSH1 0x20 DUP1 DUP4 ADD SWAP2 SWAP1 SWAP2 MSTORE PUSH1 0x1 PUSH0 MSTORE PUSH1 0x8 SWAP1 MSTORE PUSH32 0xAD67D757C34507F157CACFA2E3153E9F260A2244F30428821BE7BE64587AC55F SWAP1 PUSH3 0x140 SWAP1 DUP3 PUSH3 0x652 JUMP JUMPDEST POP PUSH1 0x40 DUP1 MLOAD DUP1 DUP3 ADD SWAP1 SWAP2 MSTORE PUSH1 0x4 DUP2 MSTORE PUSH4 0x526F636B PUSH1 0xE0 SHL PUSH1 0x20 DUP1 DUP4 ADD SWAP2 SWAP1 SWAP2 MSTORE PUSH1 0x2 PUSH0 MSTORE PUSH1 0x8 SWAP1 MSTORE PUSH32 0x6ADD646517A5B0F6793CD5891B7937D28A5B2981A5D88EBC7CD776088FEA9041 SWAP1 PUSH3 0x196 SWAP1 DUP3 PUSH3 0x652 JUMP JUMPDEST POP PUSH1 0x40 DUP1 MLOAD DUP1 DUP3 ADD SWAP1 SWAP2 MSTORE PUSH1 0x7 DUP2 MSTORE PUSH7 0x4869702D486F7 PUSH1 0xCC SHL PUSH1 0x20 DUP1 DUP4 ADD SWAP2 SWAP1 SWAP2 MSTORE PUSH1 0x3 PUSH0 MSTORE PUSH1 0x8 SWAP1 MSTORE PUSH32 0x625B35F5E76F098DD7C3A05B10E2E5E78A4A01228D60C3B143426CDF36D26455 SWAP1 PUSH3 0x1EF SWAP1 DUP3 PUSH3 0x652 JUMP JUMPDEST POP PUSH1 0x40 DUP1 MLOAD DUP1 DUP3 ADD SWAP1 SWAP2 MSTORE PUSH1 0x3 DUP2 MSTORE PUSH3 0x291321 PUSH1 0xE9 SHL PUSH1 0x20 DUP1 DUP4 ADD SWAP2 SWAP1 SWAP2 MSTORE PUSH1 0x4 PUSH0 MSTORE PUSH1 0x8 SWAP1 MSTORE PUSH32 0x9321EDEA6E3BE4DF59A344B401FAB4F888B556FDA1F954244CFF9204BAD624B8 SWAP1 PUSH3 0x244 SWAP1 DUP3 PUSH3 0x652 JUMP JUMPDEST POP PUSH1 0x40 DUP1 MLOAD DUP1 DUP3 ADD SWAP1 SWAP2 MSTORE PUSH1 0xA DUP2 MSTORE PUSH10 0x456C656374726F6E6963 PUSH1 0xB0 SHL PUSH1 0x20 DUP1 DUP4 ADD SWAP2 SWAP1 SWAP2 MSTORE PUSH1 0x5 PUSH0 MSTORE PUSH1 0x8 SWAP1 MSTORE PUSH32 0x91238F30F286C9A1C6E901C4EDA3B214C381C846E3DBE48DF95C21488E8E1FDB SWAP1 PUSH3 0x2A0 SWAP1 DUP3 PUSH3 0x652 JUMP JUMPDEST POP PUSH1 0x40 DUP1 MLOAD DUP1 DUP3 ADD SWAP1 SWAP2 MSTORE PUSH1 0x4 DUP2 MSTORE PUSH4 0x2530BD3D PUSH1 0xE1 SHL PUSH1 0x20 DUP1 DUP4 ADD SWAP2 SWAP1 SWAP2 MSTORE PUSH1 0x6 PUSH0 MSTORE PUSH1 0x8 SWAP1 MSTORE PUSH32 0x13ACF3FC7BED94759963F076D5D3443D88732026BFFC8253BDF4A6E65F21ECC5 SWAP1 PUSH3 0x2F6 SWAP1 DUP3 PUSH3 0x652 JUMP JUMPDEST POP PUSH1 0x40 DUP1 MLOAD DUP1 DUP3 ADD SWAP1 SWAP2 MSTORE PUSH1 0x9 DUP2 MSTORE PUSH9 0x10DB185CDCDA58D85B PUSH1 0xBA SHL PUSH1 0x20 DUP1 DUP4 ADD SWAP2 SWAP1 SWAP2 MSTORE PUSH1 0x7 PUSH0 MSTORE PUSH1 0x8 SWAP1 MSTORE PUSH32 0x24CD397636BEDC6CF9B490D0EDD57C769C19B367FB7D5C2344AE1DDC7D21C144 SWAP1 PUSH3 0x351 SWAP1 DUP3 PUSH3 0x652 JUMP JUMPDEST POP PUSH1 0x40 DUP1 MLOAD DUP1 DUP3 ADD SWAP1 SWAP2 MSTORE PUSH1 0x7 DUP2 MSTORE PUSH7 0x436F756E747279 PUSH1 0xC8 SHL PUSH1 0x20 DUP1 DUP4 ADD SWAP2 SWAP1 SWAP2 MSTORE PUSH1 0x8 PUSH0 DUP2 SWAP1 MSTORE SWAP1 MSTORE PUSH32 0xE4C2E8BE66AF8DD2D277000F4F830A10546F8B14E45CD850B875C98BA0F0D2CD SWAP1 PUSH3 0x3AA SWAP1 DUP3 PUSH3 0x652 JUMP JUMPDEST POP PUSH1 0x40 DUP1 MLOAD DUP1 DUP3 ADD SWAP1 SWAP2 MSTORE PUSH1 0x5 DUP2 MSTORE PUSH5 0x496E646965 PUSH1 0xD8 SHL PUSH1 0x20 DUP1 DUP4 ADD SWAP2 SWAP1 SWAP2 MSTORE PUSH1 0x9 PUSH0 MSTORE PUSH1 0x8 SWAP1 MSTORE PUSH32 0x82C9E868E45873BB5A4F47C09E14A12F6A6314E13AABD611E4374762BB4E8B36 SWAP1 PUSH3 0x401 SWAP1 DUP3 PUSH3 0x652 JUMP JUMPDEST POP PUSH1 0x40 DUP1 MLOAD DUP1 DUP3 ADD SWAP1 SWAP2 MSTORE PUSH1 0x5 DUP2 MSTORE PUSH5 0x13595D185B PUSH1 0xDA SHL PUSH1 0x20 DUP1 DUP4 ADD SWAP2 SWAP1 SWAP2 MSTORE PUSH1 0xA PUSH0 MSTORE PUSH1 0x8 SWAP1 MSTORE PUSH32 0x586689DB7536874B78A6EAC0F58556A56A106985743F7C16A699B27BB02F88BD SWAP1 PUSH3 0x458 SWAP1 DUP3 PUSH3 0x652 JUMP JUMPDEST POP POP POP PUSH3 0x71A JUMP JUMPDEST PUSH1 0x2 PUSH3 0x46F DUP3 DUP3 PUSH3 0x652 JUMP JUMPDEST POP POP JUMP JUMPDEST PUSH1 0x5 DUP1 SLOAD PUSH1 0x1 PUSH1 0x1 PUSH1 0xA0 SHL SUB DUP4 DUP2 AND PUSH1 0x1 PUSH1 0x1 PUSH1 0xA0 SHL SUB NOT DUP4 AND DUP2 OR SWAP1 SWAP4 SSTORE PUSH1 0x40 MLOAD SWAP2 AND SWAP2 SWAP1 DUP3 SWAP1 PUSH32 0x8BE0079C531659141344CD1FD0A4F28419497F9722A3DAAFE3B4186F6B6457E0 SWAP1 PUSH0 SWAP1 LOG3 POP POP JUMP JUMPDEST PUSH4 0x4E487B71 PUSH1 0xE0 SHL PUSH0 MSTORE PUSH1 0x41 PUSH1 0x4 MSTORE PUSH1 0x24 PUSH0 REVERT JUMPDEST PUSH0 DUP1 PUSH1 0x40 DUP4 DUP6 SUB SLT ISZERO PUSH3 0x4EA JUMPI PUSH0 DUP1 REVERT JUMPDEST DUP3 MLOAD PUSH1 0x1 PUSH1 0x1 PUSH1 0xA0 SHL SUB DUP2 AND DUP2 EQ PUSH3 0x501 JUMPI PUSH0 DUP1 REVERT JUMPDEST PUSH1 0x20 DUP5 DUP2 ADD MLOAD SWAP2 SWAP4 POP SWAP1 PUSH1 0x1 PUSH1 0x1 PUSH1 0x40 SHL SUB DUP1 DUP3 GT ISZERO PUSH3 0x520 JUMPI PUSH0 DUP1 REVERT JUMPDEST DUP2 DUP7 ADD SWAP2 POP DUP7 PUSH1 0x1F DUP4 ADD SLT PUSH3 0x534 JUMPI PUSH0 DUP1 REVERT JUMPDEST DUP2 MLOAD DUP2 DUP2 GT ISZERO PUSH3 0x549 JUMPI PUSH3 0x549 PUSH3 0x4C4 JUMP JUMPDEST PUSH1 0x40 MLOAD PUSH1 0x1F DUP3 ADD PUSH1 0x1F NOT SWAP1 DUP2 AND PUSH1 0x3F ADD AND DUP2 ADD SWAP1 DUP4 DUP3 GT DUP2 DUP4 LT OR ISZERO PUSH3 0x574 JUMPI PUSH3 0x574 PUSH3 0x4C4 JUMP JUMPDEST DUP2 PUSH1 0x40 MSTORE DUP3 DUP2 MSTORE DUP10 DUP7 DUP5 DUP8 ADD ADD GT ISZERO PUSH3 0x58C JUMPI PUSH0 DUP1 REVERT JUMPDEST PUSH0 SWAP4 POP JUMPDEST DUP3 DUP5 LT ISZERO PUSH3 0x5AF JUMPI DUP5 DUP5 ADD DUP7 ADD MLOAD DUP2 DUP6 ADD DUP8 ADD MSTORE SWAP3 DUP6 ADD SWAP3 PUSH3 0x590 JUMP JUMPDEST PUSH0 DUP7 DUP5 DUP4 ADD ADD MSTORE DUP1 SWAP7 POP POP POP POP POP POP POP SWAP3 POP SWAP3 SWAP1 POP JUMP JUMPDEST PUSH1 0x1 DUP2 DUP2 SHR SWAP1 DUP3 AND DUP1 PUSH3 0x5DB JUMPI PUSH1 0x7F DUP3 AND SWAP2 POP JUMPDEST PUSH1 0x20 DUP3 LT DUP2 SUB PUSH3 0x5FA JUMPI PUSH4 0x4E487B71 PUSH1 0xE0 SHL PUSH0 MSTORE PUSH1 0x22 PUSH1 0x4 MSTORE PUSH1 0x24 PUSH0 REVERT JUMPDEST POP SWAP2 SWAP1 POP JUMP JUMPDEST PUSH1 0x1F DUP3 GT ISZERO PUSH3 0x64D JUMPI PUSH0 DUP2 DUP2 MSTORE PUSH1 0x20 DUP2 KECCAK256 PUSH1 0x1F DUP6 ADD PUSH1 0x5 SHR DUP2 ADD PUSH1 0x20 DUP7 LT ISZERO PUSH3 0x628 JUMPI POP DUP1 JUMPDEST PUSH1 0x1F DUP6 ADD PUSH1 0x5 SHR DUP3 ADD SWAP2 POP JUMPDEST DUP2 DUP2 LT ISZERO PUSH3 0x649 JUMPI DUP3 DUP2 SSTORE PUSH1 0x1 ADD PUSH3 0x634 JUMP JUMPDEST POP POP POP JUMPDEST POP POP POP JUMP JUMPDEST DUP2 MLOAD PUSH1 0x1 PUSH1 0x1 PUSH1 0x40 SHL SUB DUP2 GT ISZERO PUSH3 0x66E JUMPI PUSH3 0x66E PUSH3 0x4C4 JUMP JUMPDEST PUSH3 0x686 DUP2 PUSH3 0x67F DUP5 SLOAD PUSH3 0x5C6 JUMP JUMPDEST DUP5 PUSH3 0x600 JUMP JUMPDEST PUSH1 0x20 DUP1 PUSH1 0x1F DUP4 GT PUSH1 0x1 DUP2 EQ PUSH3 0x6BC JUMPI PUSH0 DUP5 ISZERO PUSH3 0x6A4 JUMPI POP DUP6 DUP4 ADD MLOAD JUMPDEST PUSH0 NOT PUSH1 0x3 DUP7 SWAP1 SHL SHR NOT AND PUSH1 0x1 DUP6 SWAP1 SHL OR DUP6 SSTORE PUSH3 0x649 JUMP JUMPDEST PUSH0 DUP6 DUP2 MSTORE PUSH1 0x20 DUP2 KECCAK256 PUSH1 0x1F NOT DUP7 AND SWAP2 JUMPDEST DUP3 DUP2 LT ISZERO PUSH3 0x6EC JUMPI DUP9 DUP7 ADD MLOAD DUP3 SSTORE SWAP5 DUP5 ADD SWAP5 PUSH1 0x1 SWAP1 SWAP2 ADD SWAP1 DUP5 ADD PUSH3 0x6CB JUMP JUMPDEST POP DUP6 DUP3 LT ISZERO PUSH3 0x70A JUMPI DUP8 DUP6 ADD MLOAD PUSH0 NOT PUSH1 0x3 DUP9 SWAP1 SHL PUSH1 0xF8 AND SHR NOT AND DUP2 SSTORE JUMPDEST POP POP POP POP POP PUSH1 0x1 SWAP1 DUP2 SHL ADD SWAP1 SSTORE POP JUMP JUMPDEST PUSH2 0x3959 DUP1 PUSH3 0x728 PUSH0 CODECOPY PUSH0 RETURN INVALID PUSH1 0x80 PUSH1 0x40 MSTORE CALLVALUE DUP1 ISZERO PUSH2 0xF JUMPI PUSH0 DUP1 REVERT JUMPDEST POP PUSH1 0x4 CALLDATASIZE LT PUSH2 0x275 JUMPI PUSH0 CALLDATALOAD PUSH1 0xE0 SHR DUP1 PUSH4 0x79BB0519 GT PUSH2 0x156 JUMPI DUP1 PUSH4 0xCC18EADC GT PUSH2 0xCA JUMPI DUP1 PUSH4 0xE985E9C5 GT PUSH2 0x84 JUMPI DUP1 PUSH4 0xE985E9C5 EQ PUSH2 0x64A JUMPI DUP1 PUSH4 0xF242432A EQ PUSH2 0x65D JUMPI DUP1 PUSH4 0xF2FDE38B EQ PUSH2 0x670 JUMPI DUP1 PUSH4 0xF45FB6B5 EQ PUSH2 0x683 JUMPI DUP1 PUSH4 0xF7486960 EQ PUSH2 0x39C JUMPI DUP1 PUSH4 0xFF4181BE EQ PUSH2 0x696 JUMPI PUSH0 DUP1 REVERT JUMPDEST DUP1 PUSH4 0xCC18EADC EQ PUSH2 0x55B JUMPI DUP1 PUSH4 0xCD85336E EQ PUSH2 0x56E JUMPI DUP1 PUSH4 0xD040FD11 EQ PUSH2 0x581 JUMPI DUP1 PUSH4 0xD235DEB3 EQ PUSH2 0x594 JUMPI DUP1 PUSH4 0xD4C19E33 EQ PUSH2 0x5B4 JUMPI DUP1 PUSH4 0xD5325487 EQ PUSH2 0x628 JUMPI PUSH0 DUP1 REVERT JUMPDEST DUP1 PUSH4 0x9FA76C93 GT PUSH2 0x11B JUMPI DUP1 PUSH4 0x9FA76C93 EQ PUSH2 0x4E4 JUMPI DUP1 PUSH4 0xA22CB465 EQ PUSH2 0x4F7 JUMPI DUP1 PUSH4 0xB5FA9642 EQ PUSH2 0x50A JUMPI DUP1 PUSH4 0xBD85B039 EQ PUSH2 0x512 JUMPI DUP1 PUSH4 0xC71C37D1 EQ PUSH2 0x531 JUMPI DUP1 PUSH4 0xCB2B50CD EQ PUSH2 0x539 JUMPI PUSH0 DUP1 REVERT JUMPDEST DUP1 PUSH4 0x79BB0519 EQ PUSH2 0x466 JUMPI DUP1 PUSH4 0x7F6FEB6A EQ PUSH2 0x479 JUMPI DUP1 PUSH4 0x8129782E EQ PUSH2 0x4AE JUMPI DUP1 PUSH4 0x8DA5CB5B EQ PUSH2 0x4C1 JUMPI DUP1 PUSH4 0x95D89B41 EQ PUSH2 0x4DC JUMPI PUSH0 DUP1 REVERT JUMPDEST DUP1 PUSH4 0x417B9942 GT PUSH2 0x1ED JUMPI DUP1 PUSH4 0x4F558E79 GT PUSH2 0x1B2 JUMPI DUP1 PUSH4 0x4F558E79 EQ PUSH2 0x40F JUMPI DUP1 PUSH4 0x55DE28AE EQ PUSH2 0x430 JUMPI DUP1 PUSH4 0x5982FEFE EQ PUSH2 0x3B7 JUMPI DUP1 PUSH4 0x69D11C55 EQ PUSH2 0x443 JUMPI DUP1 PUSH4 0x715018A6 EQ PUSH2 0x44B JUMPI DUP1 PUSH4 0x78537024 EQ PUSH2 0x453 JUMPI PUSH0 DUP1 REVERT JUMPDEST DUP1 PUSH4 0x417B9942 EQ PUSH2 0x389 JUMPI DUP1 PUSH4 0x4389CC22 EQ PUSH2 0x39C JUMPI DUP1 PUSH4 0x47F03F6A EQ PUSH2 0x3A4 JUMPI DUP1 PUSH4 0x4C6A70CE EQ PUSH2 0x3B7 JUMPI DUP1 PUSH4 0x4E1273F4 EQ PUSH2 0x3FC JUMPI PUSH0 DUP1 REVERT JUMPDEST DUP1 PUSH4 0xE89341C GT PUSH2 0x23E JUMPI DUP1 PUSH4 0xE89341C EQ PUSH2 0x305 JUMPI DUP1 PUSH4 0x18160DDD EQ PUSH2 0x318 JUMPI DUP1 PUSH4 0x29EFCF80 EQ PUSH2 0x320 JUMPI DUP1 PUSH4 0x2EB2C2D6 EQ PUSH2 0x333 JUMPI DUP1 PUSH4 0x311E2F50 EQ PUSH2 0x346 JUMPI DUP1 PUSH4 0x37C245FE EQ PUSH2 0x369 JUMPI PUSH0 DUP1 REVERT JUMPDEST DUP1 PUSH3 0xFDD58E EQ PUSH2 0x279 JUMPI DUP1 PUSH4 0x1FFC9A7 EQ PUSH2 0x29F JUMPI DUP1 PUSH4 0x2429742 EQ PUSH2 0x2C2 JUMPI DUP1 PUSH4 0x2FE5305 EQ PUSH2 0x2DB JUMPI DUP1 PUSH4 0x6FDDE03 EQ PUSH2 0x2F0 JUMPI JUMPDEST PUSH0 DUP1 REVERT JUMPDEST PUSH2 0x28C PUSH2 0x287 CALLDATASIZE PUSH1 0x4 PUSH2 0x2C0D JUMP JUMPDEST PUSH2 0x6DD JUMP JUMPDEST PUSH1 0x40 MLOAD SWAP1 DUP2 MSTORE PUSH1 0x20 ADD JUMPDEST PUSH1 0x40 MLOAD DUP1 SWAP2 SUB SWAP1 RETURN JUMPDEST PUSH2 0x2B2 PUSH2 0x2AD CALLDATASIZE PUSH1 0x4 PUSH2 0x2C4A JUMP JUMPDEST PUSH2 0x704 JUMP JUMPDEST PUSH1 0x40 MLOAD SWAP1 ISZERO ISZERO DUP2 MSTORE PUSH1 0x20 ADD PUSH2 0x296 JUMP JUMPDEST PUSH2 0x2C9 PUSH0 DUP2 JUMP JUMPDEST PUSH1 0x40 MLOAD PUSH1 0xFF SWAP1 SWAP2 AND DUP2 MSTORE PUSH1 0x20 ADD PUSH2 0x296 JUMP JUMPDEST PUSH2 0x2EE PUSH2 0x2E9 CALLDATASIZE PUSH1 0x4 PUSH2 0x2D14 JUMP JUMPDEST PUSH2 0x753 JUMP JUMPDEST STOP JUMPDEST PUSH2 0x2F8 PUSH2 0x767 JUMP JUMPDEST PUSH1 0x40 MLOAD PUSH2 0x296 SWAP2 SWAP1 PUSH2 0x2D90 JUMP JUMPDEST PUSH2 0x2F8 PUSH2 0x313 CALLDATASIZE PUSH1 0x4 PUSH2 0x2DA2 JUMP JUMPDEST PUSH2 0x7F3 JUMP JUMPDEST PUSH1 0x4 SLOAD PUSH2 0x28C JUMP JUMPDEST PUSH2 0x2EE PUSH2 0x32E CALLDATASIZE PUSH1 0x4 PUSH2 0x2DB9 JUMP JUMPDEST PUSH2 0x885 JUMP JUMPDEST PUSH2 0x2EE PUSH2 0x341 CALLDATASIZE PUSH1 0x4 PUSH2 0x2E95 JUMP JUMPDEST PUSH2 0x9E2 JUMP JUMPDEST PUSH2 0x359 PUSH2 0x354 CALLDATASIZE PUSH1 0x4 PUSH2 0x2F37 JUMP JUMPDEST PUSH2 0xA49 JUMP JUMPDEST PUSH1 0x40 MLOAD PUSH2 0x296 SWAP5 SWAP4 SWAP3 SWAP2 SWAP1 PUSH2 0x2F67 JUMP JUMPDEST PUSH2 0x37C PUSH2 0x377 CALLDATASIZE PUSH1 0x4 PUSH2 0x2FB9 JUMP JUMPDEST PUSH2 0xC3B JUMP JUMPDEST PUSH1 0x40 MLOAD PUSH2 0x296 SWAP2 SWAP1 PUSH2 0x300B JUMP JUMPDEST PUSH2 0x2EE PUSH2 0x397 CALLDATASIZE PUSH1 0x4 PUSH2 0x2C0D JUMP JUMPDEST PUSH2 0xD6F JUMP JUMPDEST PUSH2 0x2C9 PUSH1 0x1 DUP2 JUMP JUMPDEST PUSH2 0x2EE PUSH2 0x3B2 CALLDATASIZE PUSH1 0x4 PUSH2 0x2FB9 JUMP JUMPDEST PUSH2 0xE33 JUMP JUMPDEST PUSH2 0x2B2 PUSH2 0x3C5 CALLDATASIZE PUSH1 0x4 PUSH2 0x2C0D JUMP JUMPDEST PUSH1 0x1 PUSH1 0x1 PUSH1 0xA0 SHL SUB SWAP2 SWAP1 SWAP2 AND PUSH0 SWAP1 DUP2 MSTORE PUSH1 0x9 PUSH1 0x20 SWAP1 DUP2 MSTORE PUSH1 0x40 DUP1 DUP4 KECCAK256 SWAP4 DUP4 MSTORE SWAP3 SWAP1 MSTORE KECCAK256 SLOAD PUSH2 0x100 SWAP1 DIV PUSH1 0x1 PUSH1 0x1 PUSH1 0x40 SHL SUB AND ISZERO ISZERO SWAP1 JUMP JUMPDEST PUSH2 0x37C PUSH2 0x40A CALLDATASIZE PUSH1 0x4 PUSH2 0x301D JUMP JUMPDEST PUSH2 0xF14 JUMP JUMPDEST PUSH2 0x2B2 PUSH2 0x41D CALLDATASIZE PUSH1 0x4 PUSH2 0x2DA2 JUMP JUMPDEST PUSH0 SWAP1 DUP2 MSTORE PUSH1 0x3 PUSH1 0x20 MSTORE PUSH1 0x40 SWAP1 KECCAK256 SLOAD ISZERO ISZERO SWAP1 JUMP JUMPDEST PUSH2 0x2EE PUSH2 0x43E CALLDATASIZE PUSH1 0x4 PUSH2 0x2DA2 JUMP JUMPDEST PUSH2 0xFE6 JUMP JUMPDEST PUSH2 0x28C PUSH1 0xA DUP2 JUMP JUMPDEST PUSH2 0x2EE PUSH2 0x10AA JUMP JUMPDEST PUSH2 0x2EE PUSH2 0x461 CALLDATASIZE PUSH1 0x4 PUSH2 0x30D6 JUMP JUMPDEST PUSH2 0x10BD JUMP JUMPDEST PUSH2 0x2EE PUSH2 0x474 CALLDATASIZE PUSH1 0x4 PUSH2 0x3142 JUMP JUMPDEST PUSH2 0x1220 JUMP JUMPDEST PUSH2 0x28C PUSH2 0x487 CALLDATASIZE PUSH1 0x4 PUSH2 0x2C0D JUMP JUMPDEST PUSH1 0x1 PUSH1 0x1 PUSH1 0xA0 SHL SUB SWAP2 SWAP1 SWAP2 AND PUSH0 SWAP1 DUP2 MSTORE PUSH1 0xA PUSH1 0x20 SWAP1 DUP2 MSTORE PUSH1 0x40 DUP1 DUP4 KECCAK256 SWAP4 DUP4 MSTORE SWAP3 SWAP1 MSTORE KECCAK256 SLOAD SWAP1 JUMP JUMPDEST PUSH2 0x2EE PUSH2 0x4BC CALLDATASIZE PUSH1 0x4 PUSH2 0x31B6 JUMP JUMPDEST PUSH2 0x14CC JUMP JUMPDEST PUSH1 0x5 SLOAD PUSH1 0x40 MLOAD PUSH1 0x1 PUSH1 0x1 PUSH1 0xA0 SHL SUB SWAP1 SWAP2 AND DUP2 MSTORE PUSH1 0x20 ADD PUSH2 0x296 JUMP JUMPDEST PUSH2 0x2F8 PUSH2 0x1659 JUMP JUMPDEST PUSH2 0x2EE PUSH2 0x4F2 CALLDATASIZE PUSH1 0x4 PUSH2 0x3219 JUMP JUMPDEST PUSH2 0x1666 JUMP JUMPDEST PUSH2 0x2EE PUSH2 0x505 CALLDATASIZE PUSH1 0x4 PUSH2 0x32FB JUMP JUMPDEST PUSH2 0x19F9 JUMP JUMPDEST PUSH2 0x2C9 PUSH1 0x2 DUP2 JUMP JUMPDEST PUSH2 0x28C PUSH2 0x520 CALLDATASIZE PUSH1 0x4 PUSH2 0x2DA2 JUMP JUMPDEST PUSH0 SWAP1 DUP2 MSTORE PUSH1 0x3 PUSH1 0x20 MSTORE PUSH1 0x40 SWAP1 KECCAK256 SLOAD SWAP1 JUMP JUMPDEST PUSH2 0x2C9 PUSH1 0x3 DUP2 JUMP JUMPDEST PUSH2 0x543 PUSH3 0x76A700 DUP2 JUMP JUMPDEST PUSH1 0x40 MLOAD PUSH1 0x1 PUSH1 0x1 PUSH1 0x40 SHL SUB SWAP1 SWAP2 AND DUP2 MSTORE PUSH1 0x20 ADD PUSH2 0x296 JUMP JUMPDEST PUSH2 0x2EE PUSH2 0x569 CALLDATASIZE PUSH1 0x4 PUSH2 0x3334 JUMP JUMPDEST PUSH2 0x1A04 JUMP JUMPDEST PUSH2 0x2B2 PUSH2 0x57C CALLDATASIZE PUSH1 0x4 PUSH2 0x2C0D JUMP JUMPDEST PUSH2 0x1A23 JUMP JUMPDEST PUSH2 0x2EE PUSH2 0x58F CALLDATASIZE PUSH1 0x4 PUSH2 0x336D JUMP JUMPDEST PUSH2 0x1AC6 JUMP JUMPDEST PUSH2 0x5A7 PUSH2 0x5A2 CALLDATASIZE PUSH1 0x4 PUSH2 0x2F37 JUMP JUMPDEST PUSH2 0x1BCC JUMP JUMPDEST PUSH1 0x40 MLOAD PUSH2 0x296 SWAP2 SWAP1 PUSH2 0x3397 JUMP JUMPDEST PUSH2 0x5FC PUSH2 0x5C2 CALLDATASIZE PUSH1 0x4 PUSH2 0x2C0D JUMP JUMPDEST PUSH1 0x9 PUSH1 0x20 SWAP1 DUP2 MSTORE PUSH0 SWAP3 DUP4 MSTORE PUSH1 0x40 DUP1 DUP5 KECCAK256 SWAP1 SWAP2 MSTORE SWAP1 DUP3 MSTORE SWAP1 KECCAK256 SLOAD PUSH1 0xFF DUP1 DUP3 AND SWAP2 PUSH1 0x1 PUSH1 0x1 PUSH1 0x40 SHL SUB PUSH2 0x100 DUP3 DIV AND SWAP2 PUSH1 0x1 PUSH1 0x48 SHL SWAP1 SWAP2 DIV AND DUP4 JUMP JUMPDEST PUSH1 0x40 DUP1 MLOAD PUSH1 0xFF SWAP5 DUP6 AND DUP2 MSTORE PUSH1 0x1 PUSH1 0x1 PUSH1 0x40 SHL SUB SWAP1 SWAP4 AND PUSH1 0x20 DUP5 ADD MSTORE SWAP3 AND SWAP2 DUP2 ADD SWAP2 SWAP1 SWAP2 MSTORE PUSH1 0x60 ADD PUSH2 0x296 JUMP JUMPDEST PUSH2 0x63B PUSH2 0x636 CALLDATASIZE PUSH1 0x4 PUSH2 0x2FB9 JUMP JUMPDEST PUSH2 0x1E81 JUMP JUMPDEST PUSH1 0x40 MLOAD PUSH2 0x296 SWAP4 SWAP3 SWAP2 SWAP1 PUSH2 0x340A JUMP JUMPDEST PUSH2 0x2B2 PUSH2 0x658 CALLDATASIZE PUSH1 0x4 PUSH2 0x349B JUMP JUMPDEST PUSH2 0x20DF JUMP JUMPDEST PUSH2 0x2EE PUSH2 0x66B CALLDATASIZE PUSH1 0x4 PUSH2 0x34C3 JUMP JUMPDEST PUSH2 0x210C JUMP JUMPDEST PUSH2 0x2EE PUSH2 0x67E CALLDATASIZE PUSH1 0x4 PUSH2 0x2FB9 JUMP JUMPDEST PUSH2 0x216B JUMP JUMPDEST PUSH2 0x2F8 PUSH2 0x691 CALLDATASIZE PUSH1 0x4 PUSH2 0x2DA2 JUMP JUMPDEST PUSH2 0x21A5 JUMP JUMPDEST PUSH2 0x6A9 PUSH2 0x6A4 CALLDATASIZE PUSH1 0x4 PUSH2 0x2C0D JUMP JUMPDEST PUSH2 0x21BD JUMP JUMPDEST PUSH1 0x40 DUP1 MLOAD PUSH1 0xFF SWAP6 DUP7 AND DUP2 MSTORE PUSH1 0x1 PUSH1 0x1 PUSH1 0x40 SHL SUB SWAP5 SWAP1 SWAP5 AND PUSH1 0x20 DUP6 ADD MSTORE SWAP2 SWAP1 SWAP4 AND SWAP1 DUP3 ADD MSTORE SWAP1 ISZERO ISZERO PUSH1 0x60 DUP3 ADD MSTORE PUSH1 0x80 ADD PUSH2 0x296 JUMP JUMPDEST PUSH0 DUP2 DUP2 MSTORE PUSH1 0x20 DUP2 DUP2 MSTORE PUSH1 0x40 DUP1 DUP4 KECCAK256 PUSH1 0x1 PUSH1 0x1 PUSH1 0xA0 SHL SUB DUP7 AND DUP5 MSTORE SWAP1 SWAP2 MSTORE SWAP1 KECCAK256 SLOAD JUMPDEST SWAP3 SWAP2 POP POP JUMP JUMPDEST PUSH0 PUSH1 0x1 PUSH1 0x1 PUSH1 0xE0 SHL SUB NOT DUP3 AND PUSH4 0x6CDB3D13 PUSH1 0xE1 SHL EQ DUP1 PUSH2 0x734 JUMPI POP PUSH1 0x1 PUSH1 0x1 PUSH1 0xE0 SHL SUB NOT DUP3 AND PUSH4 0x3A24D07 PUSH1 0xE2 SHL EQ JUMPDEST DUP1 PUSH2 0x6FE JUMPI POP PUSH4 0x1FFC9A7 PUSH1 0xE0 SHL PUSH1 0x1 PUSH1 0x1 PUSH1 0xE0 SHL SUB NOT DUP4 AND EQ PUSH2 0x6FE JUMP JUMPDEST PUSH2 0x75B PUSH2 0x225E JUMP JUMPDEST PUSH2 0x764 DUP2 PUSH2 0x228B JUMP JUMPDEST POP JUMP JUMPDEST PUSH1 0x6 DUP1 SLOAD PUSH2 0x774 SWAP1 PUSH2 0x3522 JUMP JUMPDEST DUP1 PUSH1 0x1F ADD PUSH1 0x20 DUP1 SWAP2 DIV MUL PUSH1 0x20 ADD PUSH1 0x40 MLOAD SWAP1 DUP2 ADD PUSH1 0x40 MSTORE DUP1 SWAP3 SWAP2 SWAP1 DUP2 DUP2 MSTORE PUSH1 0x20 ADD DUP3 DUP1 SLOAD PUSH2 0x7A0 SWAP1 PUSH2 0x3522 JUMP JUMPDEST DUP1 ISZERO PUSH2 0x7EB JUMPI DUP1 PUSH1 0x1F LT PUSH2 0x7C2 JUMPI PUSH2 0x100 DUP1 DUP4 SLOAD DIV MUL DUP4 MSTORE SWAP2 PUSH1 0x20 ADD SWAP2 PUSH2 0x7EB JUMP JUMPDEST DUP3 ADD SWAP2 SWAP1 PUSH0 MSTORE PUSH1 0x20 PUSH0 KECCAK256 SWAP1 JUMPDEST DUP2 SLOAD DUP2 MSTORE SWAP1 PUSH1 0x1 ADD SWAP1 PUSH1 0x20 ADD DUP1 DUP4 GT PUSH2 0x7CE JUMPI DUP3 SWAP1 SUB PUSH1 0x1F AND DUP3 ADD SWAP2 JUMPDEST POP POP POP POP POP DUP2 JUMP JUMPDEST PUSH1 0x60 PUSH1 0x2 DUP1 SLOAD PUSH2 0x802 SWAP1 PUSH2 0x3522 JUMP JUMPDEST DUP1 PUSH1 0x1F ADD PUSH1 0x20 DUP1 SWAP2 DIV MUL PUSH1 0x20 ADD PUSH1 0x40 MLOAD SWAP1 DUP2 ADD PUSH1 0x40 MSTORE DUP1 SWAP3 SWAP2 SWAP1 DUP2 DUP2 MSTORE PUSH1 0x20 ADD DUP3 DUP1 SLOAD PUSH2 0x82E SWAP1 PUSH2 0x3522 JUMP JUMPDEST DUP1 ISZERO PUSH2 0x879 JUMPI DUP1 PUSH1 0x1F LT PUSH2 0x850 JUMPI PUSH2 0x100 DUP1 DUP4 SLOAD DIV MUL DUP4 MSTORE SWAP2 PUSH1 0x20 ADD SWAP2 PUSH2 0x879 JUMP JUMPDEST DUP3 ADD SWAP2 SWAP1 PUSH0 MSTORE PUSH1 0x20 PUSH0 KECCAK256 SWAP1 JUMPDEST DUP2 SLOAD DUP2 MSTORE SWAP1 PUSH1 0x1 ADD SWAP1 PUSH1 0x20 ADD DUP1 DUP4 GT PUSH2 0x85C JUMPI DUP3 SWAP1 SUB PUSH1 0x1F AND DUP3 ADD SWAP2 JUMPDEST POP POP POP POP POP SWAP1 POP SWAP2 SWAP1 POP JUMP JUMPDEST PUSH1 0x1 DUP3 LT ISZERO DUP1 ISZERO PUSH2 0x897 JUMPI POP PUSH1 0xA DUP3 GT ISZERO JUMPDEST PUSH2 0x8BC JUMPI PUSH1 0x40 MLOAD PUSH3 0x461BCD PUSH1 0xE5 SHL DUP2 MSTORE PUSH1 0x4 ADD PUSH2 0x8B3 SWAP1 PUSH2 0x355A JUMP JUMPDEST PUSH1 0x40 MLOAD DUP1 SWAP2 SUB SWAP1 REVERT JUMPDEST PUSH1 0x1 PUSH1 0x1 PUSH1 0xA0 SHL SUB DUP4 AND PUSH0 SWAP1 DUP2 MSTORE PUSH1 0x9 PUSH1 0x20 SWAP1 DUP2 MSTORE PUSH1 0x40 DUP1 DUP4 KECCAK256 DUP6 DUP5 MSTORE SWAP1 SWAP2 MSTORE SWAP1 KECCAK256 SLOAD PUSH2 0x100 SWAP1 DIV PUSH1 0x1 PUSH1 0x1 PUSH1 0x40 SHL SUB AND ISZERO PUSH2 0x90A JUMPI PUSH1 0x40 MLOAD PUSH3 0x461BCD PUSH1 0xE5 SHL DUP2 MSTORE PUSH1 0x4 ADD PUSH2 0x8B3 SWAP1 PUSH2 0x3584 JUMP JUMPDEST PUSH1 0x40 DUP1 MLOAD PUSH1 0x60 DUP2 ADD DUP3 MSTORE PUSH1 0x1 DUP1 DUP3 MSTORE PUSH1 0x1 PUSH1 0x1 PUSH1 0x40 SHL SUB TIMESTAMP DUP2 AND PUSH1 0x20 DUP1 DUP6 ADD SWAP2 DUP3 MSTORE DUP5 DUP7 ADD DUP5 DUP2 MSTORE PUSH1 0x1 PUSH1 0x1 PUSH1 0xA0 SHL SUB DUP11 AND PUSH0 SWAP1 DUP2 MSTORE PUSH1 0x9 DUP4 MSTORE DUP8 DUP2 KECCAK256 DUP11 DUP3 MSTORE SWAP1 SWAP3 MSTORE SWAP6 SWAP1 KECCAK256 SWAP4 MLOAD DUP5 SLOAD SWAP2 MLOAD SWAP6 MLOAD PUSH1 0xFF SWAP1 DUP2 AND PUSH1 0x1 PUSH1 0x48 SHL MUL PUSH1 0xFF PUSH1 0x48 SHL NOT SWAP8 SWAP1 SWAP5 AND PUSH2 0x100 MUL PUSH9 0xFFFFFFFFFFFFFFFFFF NOT SWAP1 SWAP4 AND SWAP2 AND OR OR SWAP4 SWAP1 SWAP4 AND SWAP3 SWAP1 SWAP3 OR SWAP1 SSTORE PUSH2 0x99B SWAP1 DUP5 SWAP1 DUP5 SWAP1 DUP5 PUSH2 0x2297 JUMP JUMPDEST DUP2 DUP4 PUSH1 0x1 PUSH1 0x1 PUSH1 0xA0 SHL SUB AND PUSH0 DUP1 MLOAD PUSH1 0x20 PUSH2 0x3904 DUP4 CODECOPY DUP2 MLOAD SWAP2 MSTORE PUSH1 0x8 PUSH0 DUP7 DUP2 MSTORE PUSH1 0x20 ADD SWAP1 DUP2 MSTORE PUSH1 0x20 ADD PUSH0 KECCAK256 PUSH1 0x1 PUSH1 0x40 MLOAD PUSH2 0x9D5 SWAP3 SWAP2 SWAP1 PUSH2 0x35B2 JUMP JUMPDEST PUSH1 0x40 MLOAD DUP1 SWAP2 SUB SWAP1 LOG3 POP POP POP JUMP JUMPDEST CALLER PUSH1 0x1 PUSH1 0x1 PUSH1 0xA0 SHL SUB DUP7 AND DUP2 EQ DUP1 ISZERO SWAP1 PUSH2 0xA03 JUMPI POP PUSH2 0xA01 DUP7 DUP3 PUSH2 0x20DF JUMP JUMPDEST ISZERO JUMPDEST ISZERO PUSH2 0xA34 JUMPI PUSH1 0x40 MLOAD PUSH4 0x711BEC91 PUSH1 0xE1 SHL DUP2 MSTORE PUSH1 0x1 PUSH1 0x1 PUSH1 0xA0 SHL SUB DUP1 DUP4 AND PUSH1 0x4 DUP4 ADD MSTORE DUP8 AND PUSH1 0x24 DUP3 ADD MSTORE PUSH1 0x44 ADD PUSH2 0x8B3 JUMP JUMPDEST PUSH2 0xA41 DUP7 DUP7 DUP7 DUP7 DUP7 PUSH2 0x22F2 JUMP JUMPDEST POP POP POP POP POP POP JUMP JUMPDEST PUSH1 0xA PUSH1 0x20 MSTORE DUP3 PUSH0 MSTORE PUSH1 0x40 PUSH0 KECCAK256 PUSH1 0x20 MSTORE DUP2 PUSH0 MSTORE PUSH1 0x40 PUSH0 KECCAK256 DUP2 DUP2 SLOAD DUP2 LT PUSH2 0xA6C JUMPI PUSH0 DUP1 REVERT JUMPDEST SWAP1 PUSH0 MSTORE PUSH1 0x20 PUSH0 KECCAK256 SWAP1 PUSH1 0x4 MUL ADD PUSH0 SWAP3 POP SWAP3 POP POP POP DUP1 PUSH0 ADD DUP1 SLOAD PUSH2 0xA8D SWAP1 PUSH2 0x3522 JUMP JUMPDEST DUP1 PUSH1 0x1F ADD PUSH1 0x20 DUP1 SWAP2 DIV MUL PUSH1 0x20 ADD PUSH1 0x40 MLOAD SWAP1 DUP2 ADD PUSH1 0x40 MSTORE DUP1 SWAP3 SWAP2 SWAP1 DUP2 DUP2 MSTORE PUSH1 0x20 ADD DUP3 DUP1 SLOAD PUSH2 0xAB9 SWAP1 PUSH2 0x3522 JUMP JUMPDEST DUP1 ISZERO PUSH2 0xB04 JUMPI DUP1 PUSH1 0x1F LT PUSH2 0xADB JUMPI PUSH2 0x100 DUP1 DUP4 SLOAD DIV MUL DUP4 MSTORE SWAP2 PUSH1 0x20 ADD SWAP2 PUSH2 0xB04 JUMP JUMPDEST DUP3 ADD SWAP2 SWAP1 PUSH0 MSTORE PUSH1 0x20 PUSH0 KECCAK256 SWAP1 JUMPDEST DUP2 SLOAD DUP2 MSTORE SWAP1 PUSH1 0x1 ADD SWAP1 PUSH1 0x20 ADD DUP1 DUP4 GT PUSH2 0xAE7 JUMPI DUP3 SWAP1 SUB PUSH1 0x1F AND DUP3 ADD SWAP2 JUMPDEST POP POP POP POP POP SWAP1 DUP1 PUSH1 0x1 ADD DUP1 SLOAD PUSH2 0xB19 SWAP1 PUSH2 0x3522 JUMP JUMPDEST DUP1 PUSH1 0x1F ADD PUSH1 0x20 DUP1 SWAP2 DIV MUL PUSH1 0x20 ADD PUSH1 0x40 MLOAD SWAP1 DUP2 ADD PUSH1 0x40 MSTORE DUP1 SWAP3 SWAP2 SWAP1 DUP2 DUP2 MSTORE PUSH1 0x20 ADD DUP3 DUP1 SLOAD PUSH2 0xB45 SWAP1 PUSH2 0x3522 JUMP JUMPDEST DUP1 ISZERO PUSH2 0xB90 JUMPI DUP1 PUSH1 0x1F LT PUSH2 0xB67 JUMPI PUSH2 0x100 DUP1 DUP4 SLOAD DIV MUL DUP4 MSTORE SWAP2 PUSH1 0x20 ADD SWAP2 PUSH2 0xB90 JUMP JUMPDEST DUP3 ADD SWAP2 SWAP1 PUSH0 MSTORE PUSH1 0x20 PUSH0 KECCAK256 SWAP1 JUMPDEST DUP2 SLOAD DUP2 MSTORE SWAP1 PUSH1 0x1 ADD SWAP1 PUSH1 0x20 ADD DUP1 DUP4 GT PUSH2 0xB73 JUMPI DUP3 SWAP1 SUB PUSH1 0x1F AND DUP3 ADD SWAP2 JUMPDEST POP POP POP PUSH1 0x2 DUP5 ADD SLOAD PUSH1 0x3 DUP6 ADD DUP1 SLOAD SWAP5 SWAP6 PUSH1 0x1 PUSH1 0x1 PUSH1 0x40 SHL SUB SWAP1 SWAP3 AND SWAP5 SWAP2 SWAP4 POP SWAP2 POP PUSH2 0xBBA SWAP1 PUSH2 0x3522 JUMP JUMPDEST DUP1 PUSH1 0x1F ADD PUSH1 0x20 DUP1 SWAP2 DIV MUL PUSH1 0x20 ADD PUSH1 0x40 MLOAD SWAP1 DUP2 ADD PUSH1 0x40 MSTORE DUP1 SWAP3 SWAP2 SWAP1 DUP2 DUP2 MSTORE PUSH1 0x20 ADD DUP3 DUP1 SLOAD PUSH2 0xBE6 SWAP1 PUSH2 0x3522 JUMP JUMPDEST DUP1 ISZERO PUSH2 0xC31 JUMPI DUP1 PUSH1 0x1F LT PUSH2 0xC08 JUMPI PUSH2 0x100 DUP1 DUP4 SLOAD DIV MUL DUP4 MSTORE SWAP2 PUSH1 0x20 ADD SWAP2 PUSH2 0xC31 JUMP JUMPDEST DUP3 ADD SWAP2 SWAP1 PUSH0 MSTORE PUSH1 0x20 PUSH0 KECCAK256 SWAP1 JUMPDEST DUP2 SLOAD DUP2 MSTORE SWAP1 PUSH1 0x1 ADD SWAP1 PUSH1 0x20 ADD DUP1 DUP4 GT PUSH2 0xC14 JUMPI DUP3 SWAP1 SUB PUSH1 0x1F AND DUP3 ADD SWAP2 JUMPDEST POP POP POP POP POP SWAP1 POP DUP5 JUMP JUMPDEST PUSH1 0x60 PUSH0 PUSH1 0x1 JUMPDEST PUSH1 0xA DUP2 GT PUSH2 0xC9F JUMPI PUSH1 0x1 PUSH1 0x1 PUSH1 0xA0 SHL SUB DUP5 AND PUSH0 SWAP1 DUP2 MSTORE PUSH1 0x9 PUSH1 0x20 SWAP1 DUP2 MSTORE PUSH1 0x40 DUP1 DUP4 KECCAK256 DUP5 DUP5 MSTORE SWAP1 SWAP2 MSTORE SWAP1 KECCAK256 SLOAD PUSH2 0x100 SWAP1 DIV PUSH1 0x1 PUSH1 0x1 PUSH1 0x40 SHL SUB AND ISZERO PUSH2 0xC8D JUMPI DUP2 PUSH2 0xC89 DUP2 PUSH2 0x3655 JUMP JUMPDEST SWAP3 POP POP JUMPDEST DUP1 PUSH2 0xC97 DUP2 PUSH2 0x3655 JUMP JUMPDEST SWAP2 POP POP PUSH2 0xC41 JUMP JUMPDEST POP PUSH0 DUP2 PUSH1 0x1 PUSH1 0x1 PUSH1 0x40 SHL SUB DUP2 GT ISZERO PUSH2 0xCB9 JUMPI PUSH2 0xCB9 PUSH2 0x2C65 JUMP JUMPDEST PUSH1 0x40 MLOAD SWAP1 DUP1 DUP3 MSTORE DUP1 PUSH1 0x20 MUL PUSH1 0x20 ADD DUP3 ADD PUSH1 0x40 MSTORE DUP1 ISZERO PUSH2 0xCE2 JUMPI DUP2 PUSH1 0x20 ADD PUSH1 0x20 DUP3 MUL DUP1 CALLDATASIZE DUP4 CALLDATACOPY ADD SWAP1 POP JUMPDEST POP SWAP1 POP PUSH0 PUSH1 0x1 JUMPDEST PUSH1 0xA DUP2 GT PUSH2 0xD65 JUMPI PUSH1 0x1 PUSH1 0x1 PUSH1 0xA0 SHL SUB DUP7 AND PUSH0 SWAP1 DUP2 MSTORE PUSH1 0x9 PUSH1 0x20 SWAP1 DUP2 MSTORE PUSH1 0x40 DUP1 DUP4 KECCAK256 DUP5 DUP5 MSTORE SWAP1 SWAP2 MSTORE SWAP1 KECCAK256 SLOAD PUSH2 0x100 SWAP1 DIV PUSH1 0x1 PUSH1 0x1 PUSH1 0x40 SHL SUB AND ISZERO PUSH2 0xD53 JUMPI DUP1 DUP4 DUP4 DUP2 MLOAD DUP2 LT PUSH2 0xD3A JUMPI PUSH2 0xD3A PUSH2 0x366D JUMP JUMPDEST PUSH1 0x20 SWAP1 DUP2 MUL SWAP2 SWAP1 SWAP2 ADD ADD MSTORE DUP2 PUSH2 0xD4F DUP2 PUSH2 0x3655 JUMP JUMPDEST SWAP3 POP POP JUMPDEST DUP1 PUSH2 0xD5D DUP2 PUSH2 0x3655 JUMP JUMPDEST SWAP2 POP POP PUSH2 0xCE9 JUMP JUMPDEST POP SWAP1 SWAP5 SWAP4 POP POP POP POP JUMP JUMPDEST PUSH1 0x1 PUSH1 0x1 PUSH1 0xA0 SHL SUB DUP3 AND PUSH0 SWAP1 DUP2 MSTORE PUSH1 0x9 PUSH1 0x20 SWAP1 DUP2 MSTORE PUSH1 0x40 DUP1 DUP4 KECCAK256 DUP5 DUP5 MSTORE SWAP1 SWAP2 MSTORE SWAP1 KECCAK256 DUP1 SLOAD PUSH2 0x100 SWAP1 DIV PUSH1 0x1 PUSH1 0x1 PUSH1 0x40 SHL SUB AND ISZERO DUP1 ISZERO SWAP1 PUSH2 0xDBA JUMPI POP DUP1 SLOAD PUSH1 0x1 PUSH1 0x48 SHL SWAP1 DIV PUSH1 0xFF AND PUSH1 0x1 EQ JUMPDEST ISZERO PUSH2 0xE2E JUMPI DUP1 SLOAD PUSH2 0xDDD SWAP1 PUSH3 0x76A700 SWAP1 PUSH2 0x100 SWAP1 DIV PUSH1 0x1 PUSH1 0x1 PUSH1 0x40 SHL SUB AND PUSH2 0x3681 JUMP JUMPDEST PUSH1 0x1 PUSH1 0x1 PUSH1 0x40 SHL SUB AND TIMESTAMP GT ISZERO PUSH2 0xE2E JUMPI DUP1 SLOAD PUSH1 0xFF PUSH1 0x48 SHL NOT AND DUP2 SSTORE PUSH1 0x40 MLOAD DUP3 SWAP1 PUSH1 0x1 PUSH1 0x1 PUSH1 0xA0 SHL SUB DUP6 AND SWAP1 PUSH32 0xFE3376793D31B551742504AB5D60EF12323F83F07F3F67C68F5C7AC1081FEB05 SWAP1 PUSH0 SWAP1 LOG3 JUMPDEST POP POP POP JUMP JUMPDEST PUSH1 0x1 JUMPDEST PUSH1 0xA DUP2 GT PUSH2 0xF10 JUMPI PUSH1 0x1 PUSH1 0x1 PUSH1 0xA0 SHL SUB DUP3 AND PUSH0 SWAP1 DUP2 MSTORE PUSH1 0x9 PUSH1 0x20 SWAP1 DUP2 MSTORE PUSH1 0x40 DUP1 DUP4 KECCAK256 DUP5 DUP5 MSTORE SWAP1 SWAP2 MSTORE SWAP1 KECCAK256 DUP1 SLOAD PUSH2 0x100 SWAP1 DIV PUSH1 0x1 PUSH1 0x1 PUSH1 0x40 SHL SUB AND ISZERO DUP1 ISZERO SWAP1 PUSH2 0xE89 JUMPI POP DUP1 SLOAD PUSH1 0x1 PUSH1 0x48 SHL SWAP1 DIV PUSH1 0xFF AND PUSH1 0x1 EQ JUMPDEST ISZERO PUSH2 0xEFD JUMPI DUP1 SLOAD PUSH2 0xEAC SWAP1 PUSH3 0x76A700 SWAP1 PUSH2 0x100 SWAP1 DIV PUSH1 0x1 PUSH1 0x1 PUSH1 0x40 SHL SUB AND PUSH2 0x3681 JUMP JUMPDEST PUSH1 0x1 PUSH1 0x1 PUSH1 0x40 SHL SUB AND TIMESTAMP GT ISZERO PUSH2 0xEFD JUMPI DUP1 SLOAD PUSH1 0xFF PUSH1 0x48 SHL NOT AND DUP2 SSTORE PUSH1 0x40 MLOAD DUP3 SWAP1 PUSH1 0x1 PUSH1 0x1 PUSH1 0xA0 SHL SUB DUP6 AND SWAP1 PUSH32 0xFE3376793D31B551742504AB5D60EF12323F83F07F3F67C68F5C7AC1081FEB05 SWAP1 PUSH0 SWAP1 LOG3 JUMPDEST POP DUP1 PUSH2 0xF08 DUP2 PUSH2 0x3655 JUMP JUMPDEST SWAP2 POP POP PUSH2 0xE36 JUMP JUMPDEST POP POP JUMP JUMPDEST PUSH1 0x60 DUP2 MLOAD DUP4 MLOAD EQ PUSH2 0xF45 JUMPI DUP2 MLOAD DUP4 MLOAD PUSH1 0x40 MLOAD PUSH4 0x5B059991 PUSH1 0xE0 SHL DUP2 MSTORE PUSH1 0x4 DUP2 ADD SWAP3 SWAP1 SWAP3 MSTORE PUSH1 0x24 DUP3 ADD MSTORE PUSH1 0x44 ADD PUSH2 0x8B3 JUMP JUMPDEST PUSH0 DUP4 MLOAD PUSH1 0x1 PUSH1 0x1 PUSH1 0x40 SHL SUB DUP2 GT ISZERO PUSH2 0xF5F JUMPI PUSH2 0xF5F PUSH2 0x2C65 JUMP JUMPDEST PUSH1 0x40 MLOAD SWAP1 DUP1 DUP3 MSTORE DUP1 PUSH1 0x20 MUL PUSH1 0x20 ADD DUP3 ADD PUSH1 0x40 MSTORE DUP1 ISZERO PUSH2 0xF88 JUMPI DUP2 PUSH1 0x20 ADD PUSH1 0x20 DUP3 MUL DUP1 CALLDATASIZE DUP4 CALLDATACOPY ADD SWAP1 POP JUMPDEST POP SWAP1 POP PUSH0 JUMPDEST DUP5 MLOAD DUP2 LT ISZERO PUSH2 0xFDE JUMPI PUSH1 0x20 DUP1 DUP3 MUL DUP7 ADD ADD MLOAD PUSH2 0xFB1 SWAP1 PUSH1 0x20 DUP1 DUP5 MUL DUP8 ADD ADD MLOAD PUSH2 0x6DD JUMP JUMPDEST DUP3 DUP3 DUP2 MLOAD DUP2 LT PUSH2 0xFC3 JUMPI PUSH2 0xFC3 PUSH2 0x366D JUMP JUMPDEST PUSH1 0x20 SWAP1 DUP2 MUL SWAP2 SWAP1 SWAP2 ADD ADD MSTORE PUSH2 0xFD7 DUP2 PUSH2 0x3655 JUMP JUMPDEST SWAP1 POP PUSH2 0xF8D JUMP JUMPDEST POP SWAP4 SWAP3 POP POP POP JUMP JUMPDEST CALLER PUSH0 SWAP1 DUP2 MSTORE PUSH1 0x9 PUSH1 0x20 SWAP1 DUP2 MSTORE PUSH1 0x40 DUP1 DUP4 KECCAK256 DUP5 DUP5 MSTORE SWAP1 SWAP2 MSTORE SWAP1 KECCAK256 SLOAD PUSH2 0x100 SWAP1 DIV PUSH1 0x1 PUSH1 0x1 PUSH1 0x40 SHL SUB AND PUSH2 0x102A JUMPI PUSH1 0x40 MLOAD PUSH3 0x461BCD PUSH1 0xE5 SHL DUP2 MSTORE PUSH1 0x4 ADD PUSH2 0x8B3 SWAP1 PUSH2 0x36A8 JUMP JUMPDEST CALLER PUSH0 DUP2 DUP2 MSTORE PUSH1 0x9 PUSH1 0x20 SWAP1 DUP2 MSTORE PUSH1 0x40 DUP1 DUP4 KECCAK256 DUP6 DUP5 MSTORE DUP3 MSTORE DUP1 DUP4 KECCAK256 DUP1 SLOAD PUSH10 0xFFFFFFFFFFFFFFFFFFFF NOT AND SWAP1 SSTORE SWAP3 DUP3 MSTORE PUSH1 0xA DUP2 MSTORE DUP3 DUP3 KECCAK256 DUP5 DUP4 MSTORE SWAP1 MSTORE SWAP1 DUP2 KECCAK256 PUSH2 0x106F SWAP2 PUSH2 0x2B45 JUMP JUMPDEST PUSH2 0x107B CALLER DUP3 PUSH1 0x1 PUSH2 0x2350 JUMP JUMPDEST PUSH1 0x40 MLOAD DUP2 SWAP1 CALLER SWAP1 PUSH32 0x21EFCAE153B58616332D7F7EE4EB0B72BD5B472048C613A4107D750A710B6402 SWAP1 PUSH0 SWAP1 LOG3 POP JUMP JUMPDEST PUSH2 0x10B2 PUSH2 0x225E JUMP JUMPDEST PUSH2 0x10BB PUSH0 PUSH2 0x23B6 JUMP JUMPDEST JUMP JUMPDEST PUSH2 0x10C5 PUSH2 0x225E JUMP JUMPDEST PUSH1 0x1 PUSH1 0x1 PUSH1 0xA0 SHL SUB DUP6 AND PUSH0 SWAP1 DUP2 MSTORE PUSH1 0x9 PUSH1 0x20 SWAP1 DUP2 MSTORE PUSH1 0x40 DUP1 DUP4 KECCAK256 DUP8 DUP5 MSTORE SWAP1 SWAP2 MSTORE SWAP1 KECCAK256 SLOAD PUSH2 0x100 SWAP1 DIV PUSH1 0x1 PUSH1 0x1 PUSH1 0x40 SHL SUB AND PUSH2 0x1112 JUMPI PUSH1 0x40 MLOAD PUSH3 0x461BCD PUSH1 0xE5 SHL DUP2 MSTORE PUSH1 0x4 ADD PUSH2 0x8B3 SWAP1 PUSH2 0x36A8 JUMP JUMPDEST PUSH1 0x1 PUSH1 0x1 PUSH1 0xA0 SHL SUB DUP6 AND PUSH0 SWAP1 DUP2 MSTORE PUSH1 0xA PUSH1 0x20 SWAP1 DUP2 MSTORE PUSH1 0x40 DUP1 DUP4 KECCAK256 DUP8 DUP5 MSTORE DUP3 MSTORE DUP1 DUP4 KECCAK256 DUP2 MLOAD PUSH1 0x80 DUP2 ADD DUP4 MSTORE DUP8 DUP2 MSTORE DUP1 DUP5 ADD DUP8 SWAP1 MSTORE PUSH1 0x1 PUSH1 0x1 PUSH1 0x40 SHL SUB TIMESTAMP AND SWAP3 DUP2 ADD SWAP3 SWAP1 SWAP3 MSTORE PUSH1 0x60 DUP3 ADD DUP6 SWAP1 MSTORE DUP1 SLOAD PUSH1 0x1 DUP2 ADD DUP3 SSTORE SWAP1 DUP5 MSTORE SWAP2 SWAP1 SWAP3 KECCAK256 DUP3 MLOAD PUSH1 0x4 SWAP1 SWAP3 MUL ADD SWAP1 DUP2 SWAP1 PUSH2 0x1181 SWAP1 DUP3 PUSH2 0x3716 JUMP JUMPDEST POP PUSH1 0x20 DUP3 ADD MLOAD PUSH1 0x1 DUP3 ADD SWAP1 PUSH2 0x1196 SWAP1 DUP3 PUSH2 0x3716 JUMP JUMPDEST POP PUSH1 0x40 DUP3 ADD MLOAD PUSH1 0x2 DUP3 ADD DUP1 SLOAD PUSH8 0xFFFFFFFFFFFFFFFF NOT AND PUSH1 0x1 PUSH1 0x1 PUSH1 0x40 SHL SUB SWAP1 SWAP3 AND SWAP2 SWAP1 SWAP2 OR SWAP1 SSTORE PUSH1 0x60 DUP3 ADD MLOAD PUSH1 0x3 DUP3 ADD SWAP1 PUSH2 0x11D2 SWAP1 DUP3 PUSH2 0x3716 JUMP JUMPDEST POP POP POP DUP4 DUP6 PUSH1 0x1 PUSH1 0x1 PUSH1 0xA0 SHL SUB AND PUSH32 0x76D76ED92D9F263F81C3D1B1BA92AE14F9EF6EE9C7F97B1233E5FC282084F668 DUP6 DUP6 PUSH1 0x40 MLOAD PUSH2 0x1211 SWAP3 SWAP2 SWAP1 PUSH2 0x37D1 JUMP JUMPDEST PUSH1 0x40 MLOAD DUP1 SWAP2 SUB SWAP1 LOG3 POP POP POP POP POP JUMP JUMPDEST PUSH0 DUP3 MLOAD PUSH1 0x1 PUSH1 0x1 PUSH1 0x40 SHL SUB DUP2 GT ISZERO PUSH2 0x123A JUMPI PUSH2 0x123A PUSH2 0x2C65 JUMP JUMPDEST PUSH1 0x40 MLOAD SWAP1 DUP1 DUP3 MSTORE DUP1 PUSH1 0x20 MUL PUSH1 0x20 ADD DUP3 ADD PUSH1 0x40 MSTORE DUP1 ISZERO PUSH2 0x1263 JUMPI DUP2 PUSH1 0x20 ADD PUSH1 0x20 DUP3 MUL DUP1 CALLDATASIZE DUP4 CALLDATACOPY ADD SWAP1 POP JUMPDEST POP SWAP1 POP PUSH0 JUMPDEST DUP4 MLOAD DUP2 LT ISZERO PUSH2 0x14B9 JUMPI PUSH1 0x1 DUP5 DUP3 DUP2 MLOAD DUP2 LT PUSH2 0x1285 JUMPI PUSH2 0x1285 PUSH2 0x366D JUMP JUMPDEST PUSH1 0x20 MUL PUSH1 0x20 ADD ADD MLOAD LT ISZERO DUP1 ISZERO PUSH2 0x12B5 JUMPI POP PUSH1 0xA DUP5 DUP3 DUP2 MLOAD DUP2 LT PUSH2 0x12AA JUMPI PUSH2 0x12AA PUSH2 0x366D JUMP JUMPDEST PUSH1 0x20 MUL PUSH1 0x20 ADD ADD MLOAD GT ISZERO JUMPDEST PUSH2 0x12D1 JUMPI PUSH1 0x40 MLOAD PUSH3 0x461BCD PUSH1 0xE5 SHL DUP2 MSTORE PUSH1 0x4 ADD PUSH2 0x8B3 SWAP1 PUSH2 0x355A JUMP JUMPDEST PUSH1 0x1 PUSH1 0x1 PUSH1 0xA0 SHL SUB DUP6 AND PUSH0 SWAP1 DUP2 MSTORE PUSH1 0x9 PUSH1 0x20 MSTORE PUSH1 0x40 DUP2 KECCAK256 DUP6 MLOAD SWAP1 SWAP2 SWAP1 DUP7 SWAP1 DUP5 SWAP1 DUP2 LT PUSH2 0x12FF JUMPI PUSH2 0x12FF PUSH2 0x366D JUMP JUMPDEST PUSH1 0x20 SWAP1 DUP2 MUL SWAP2 SWAP1 SWAP2 ADD DUP2 ADD MLOAD DUP3 MSTORE DUP2 ADD SWAP2 SWAP1 SWAP2 MSTORE PUSH1 0x40 ADD PUSH0 KECCAK256 SLOAD PUSH2 0x100 SWAP1 DIV PUSH1 0x1 PUSH1 0x1 PUSH1 0x40 SHL SUB AND ISZERO PUSH2 0x1344 JUMPI PUSH1 0x40 MLOAD PUSH3 0x461BCD PUSH1 0xE5 SHL DUP2 MSTORE PUSH1 0x4 ADD PUSH2 0x8B3 SWAP1 PUSH2 0x3584 JUMP JUMPDEST PUSH1 0x40 MLOAD DUP1 PUSH1 0x60 ADD PUSH1 0x40 MSTORE DUP1 PUSH1 0x1 PUSH1 0xFF AND DUP2 MSTORE PUSH1 0x20 ADD TIMESTAMP PUSH1 0x1 PUSH1 0x1 PUSH1 0x40 SHL SUB AND DUP2 MSTORE PUSH1 0x20 ADD PUSH1 0x1 PUSH1 0xFF AND DUP2 MSTORE POP PUSH1 0x9 PUSH0 DUP8 PUSH1 0x1 PUSH1 0x1 PUSH1 0xA0 SHL SUB AND PUSH1 0x1 PUSH1 0x1 PUSH1 0xA0 SHL SUB AND DUP2 MSTORE PUSH1 0x20 ADD SWAP1 DUP2 MSTORE PUSH1 0x20 ADD PUSH0 KECCAK256 PUSH0 DUP7 DUP5 DUP2 MLOAD DUP2 LT PUSH2 0x13A6 JUMPI PUSH2 0x13A6 PUSH2 0x366D JUMP JUMPDEST PUSH1 0x20 SWAP1 DUP2 MUL SWAP2 SWAP1 SWAP2 ADD DUP2 ADD MLOAD DUP3 MSTORE DUP2 DUP2 ADD SWAP3 SWAP1 SWAP3 MSTORE PUSH1 0x40 SWAP1 DUP2 ADD PUSH0 KECCAK256 DUP4 MLOAD DUP2 SLOAD SWAP4 DUP6 ADD MLOAD SWAP5 SWAP1 SWAP3 ADD MLOAD PUSH1 0xFF SWAP1 DUP2 AND PUSH1 0x1 PUSH1 0x48 SHL MUL PUSH1 0xFF PUSH1 0x48 SHL NOT PUSH1 0x1 PUSH1 0x1 PUSH1 0x40 SHL SUB SWAP1 SWAP7 AND PUSH2 0x100 MUL PUSH9 0xFFFFFFFFFFFFFFFFFF NOT SWAP1 SWAP6 AND SWAP2 SWAP1 SWAP4 AND OR SWAP3 SWAP1 SWAP3 OR SWAP3 SWAP1 SWAP3 AND SWAP2 SWAP1 SWAP2 OR SWAP1 SSTORE DUP2 MLOAD PUSH1 0x1 SWAP1 DUP4 SWAP1 DUP4 SWAP1 DUP2 LT PUSH2 0x1427 JUMPI PUSH2 0x1427 PUSH2 0x366D JUMP JUMPDEST PUSH1 0x20 MUL PUSH1 0x20 ADD ADD DUP2 DUP2 MSTORE POP POP DUP4 DUP2 DUP2 MLOAD DUP2 LT PUSH2 0x1445 JUMPI PUSH2 0x1445 PUSH2 0x366D JUMP JUMPDEST PUSH1 0x20 MUL PUSH1 0x20 ADD ADD MLOAD DUP6 PUSH1 0x1 PUSH1 0x1 PUSH1 0xA0 SHL SUB AND PUSH0 DUP1 MLOAD PUSH1 0x20 PUSH2 0x3904 DUP4 CODECOPY DUP2 MLOAD SWAP2 MSTORE PUSH1 0x8 PUSH0 DUP9 DUP7 DUP2 MLOAD DUP2 LT PUSH2 0x147A JUMPI PUSH2 0x147A PUSH2 0x366D JUMP JUMPDEST PUSH1 0x20 MUL PUSH1 0x20 ADD ADD MLOAD DUP2 MSTORE PUSH1 0x20 ADD SWAP1 DUP2 MSTORE PUSH1 0x20 ADD PUSH0 KECCAK256 PUSH1 0x1 PUSH1 0x40 MLOAD PUSH2 0x149F SWAP3 SWAP2 SWAP1 PUSH2 0x35B2 JUMP JUMPDEST PUSH1 0x40 MLOAD DUP1 SWAP2 SUB SWAP1 LOG3 DUP1 PUSH2 0x14B1 DUP2 PUSH2 0x3655 JUMP JUMPDEST SWAP2 POP POP PUSH2 0x1268 JUMP JUMPDEST POP PUSH2 0x14C6 DUP5 DUP5 DUP4 DUP6 PUSH2 0x2407 JUMP JUMPDEST POP POP POP POP JUMP JUMPDEST PUSH1 0x1 DUP4 LT ISZERO DUP1 ISZERO PUSH2 0x14DE JUMPI POP PUSH1 0xA DUP4 GT ISZERO JUMPDEST PUSH2 0x14FA JUMPI PUSH1 0x40 MLOAD PUSH3 0x461BCD PUSH1 0xE5 SHL DUP2 MSTORE PUSH1 0x4 ADD PUSH2 0x8B3 SWAP1 PUSH2 0x355A JUMP JUMPDEST PUSH1 0x1 PUSH1 0xFF DUP4 AND LT DUP1 ISZERO SWAP1 PUSH2 0x1512 JUMPI POP PUSH1 0x3 PUSH1 0xFF DUP4 AND GT ISZERO JUMPDEST PUSH2 0x152E JUMPI PUSH1 0x40 MLOAD PUSH3 0x461BCD PUSH1 0xE5 SHL DUP2 MSTORE PUSH1 0x4 ADD PUSH2 0x8B3 SWAP1 PUSH2 0x37F5 JUMP JUMPDEST PUSH1 0x1 PUSH1 0x1 PUSH1 0xA0 SHL SUB DUP5 AND PUSH0 SWAP1 DUP2 MSTORE PUSH1 0x9 PUSH1 0x20 SWAP1 DUP2 MSTORE PUSH1 0x40 DUP1 DUP4 KECCAK256 DUP7 DUP5 MSTORE SWAP1 SWAP2 MSTORE SWAP1 KECCAK256 SLOAD PUSH2 0x100 SWAP1 DIV PUSH1 0x1 PUSH1 0x1 PUSH1 0x40 SHL SUB AND ISZERO PUSH2 0x157C JUMPI PUSH1 0x40 MLOAD PUSH3 0x461BCD PUSH1 0xE5 SHL DUP2 MSTORE PUSH1 0x4 ADD PUSH2 0x8B3 SWAP1 PUSH2 0x3584 JUMP JUMPDEST PUSH1 0x40 DUP1 MLOAD PUSH1 0x60 DUP2 ADD DUP3 MSTORE PUSH1 0xFF DUP1 DUP6 AND DUP3 MSTORE PUSH1 0x1 PUSH1 0x1 PUSH1 0x40 SHL SUB TIMESTAMP DUP2 AND PUSH1 0x20 DUP1 DUP6 ADD SWAP2 DUP3 MSTORE PUSH1 0x1 DUP6 DUP8 ADD DUP2 DUP2 MSTORE PUSH1 0x1 PUSH1 0x1 PUSH1 0xA0 SHL SUB DUP13 AND PUSH0 SWAP1 DUP2 MSTORE PUSH1 0x9 DUP5 MSTORE DUP9 DUP2 KECCAK256 DUP13 DUP3 MSTORE SWAP1 SWAP4 MSTORE SWAP7 SWAP1 SWAP2 KECCAK256 SWAP5 MLOAD DUP6 SLOAD SWAP3 MLOAD SWAP7 MLOAD DUP6 AND PUSH1 0x1 PUSH1 0x48 SHL MUL PUSH1 0xFF PUSH1 0x48 SHL NOT SWAP8 SWAP1 SWAP5 AND PUSH2 0x100 MUL PUSH9 0xFFFFFFFFFFFFFFFFFF NOT SWAP1 SWAP4 AND SWAP5 AND SWAP4 SWAP1 SWAP4 OR OR SWAP4 SWAP1 SWAP4 AND SWAP3 SWAP1 SWAP3 OR SWAP1 SSTORE PUSH2 0x1612 SWAP1 DUP6 SWAP1 DUP6 SWAP1 DUP5 PUSH2 0x2297 JUMP JUMPDEST DUP3 DUP5 PUSH1 0x1 PUSH1 0x1 PUSH1 0xA0 SHL SUB AND PUSH0 DUP1 MLOAD PUSH1 0x20 PUSH2 0x3904 DUP4 CODECOPY DUP2 MLOAD SWAP2 MSTORE PUSH1 0x8 PUSH0 DUP8 DUP2 MSTORE PUSH1 0x20 ADD SWAP1 DUP2 MSTORE PUSH1 0x20 ADD PUSH0 KECCAK256 DUP6 PUSH1 0x40 MLOAD PUSH2 0x164B SWAP3 SWAP2 SWAP1 PUSH2 0x35B2 JUMP JUMPDEST PUSH1 0x40 MLOAD DUP1 SWAP2 SUB SWAP1 LOG3 POP POP POP POP JUMP JUMPDEST PUSH1 0x7 DUP1 SLOAD PUSH2 0x774 SWAP1 PUSH2 0x3522 JUMP JUMPDEST DUP2 MLOAD DUP4 MLOAD EQ PUSH2 0x16B0 JUMPI PUSH1 0x40 MLOAD PUSH3 0x461BCD PUSH1 0xE5 SHL DUP2 MSTORE PUSH1 0x20 PUSH1 0x4 DUP3 ADD MSTORE PUSH1 0x16 PUSH1 0x24 DUP3 ADD MSTORE PUSH22 0x82E4E4C2F2E640D8CADCCEE8D040DAD2E6DAC2E8C6D PUSH1 0x53 SHL PUSH1 0x44 DUP3 ADD MSTORE PUSH1 0x64 ADD PUSH2 0x8B3 JUMP JUMPDEST PUSH0 DUP4 MLOAD PUSH1 0x1 PUSH1 0x1 PUSH1 0x40 SHL SUB DUP2 GT ISZERO PUSH2 0x16CA JUMPI PUSH2 0x16CA PUSH2 0x2C65 JUMP JUMPDEST PUSH1 0x40 MLOAD SWAP1 DUP1 DUP3 MSTORE DUP1 PUSH1 0x20 MUL PUSH1 0x20 ADD DUP3 ADD PUSH1 0x40 MSTORE DUP1 ISZERO PUSH2 0x16F3 JUMPI DUP2 PUSH1 0x20 ADD PUSH1 0x20 DUP3 MUL DUP1 CALLDATASIZE DUP4 CALLDATACOPY ADD SWAP1 POP JUMPDEST POP SWAP1 POP PUSH0 JUMPDEST DUP5 MLOAD DUP2 LT ISZERO PUSH2 0x19E5 JUMPI PUSH1 0x1 DUP6 DUP3 DUP2 MLOAD DUP2 LT PUSH2 0x1715 JUMPI PUSH2 0x1715 PUSH2 0x366D JUMP JUMPDEST PUSH1 0x20 MUL PUSH1 0x20 ADD ADD MLOAD LT ISZERO DUP1 ISZERO PUSH2 0x1745 JUMPI POP PUSH1 0xA DUP6 DUP3 DUP2 MLOAD DUP2 LT PUSH2 0x173A JUMPI PUSH2 0x173A PUSH2 0x366D JUMP JUMPDEST PUSH1 0x20 MUL PUSH1 0x20 ADD ADD MLOAD GT ISZERO JUMPDEST PUSH2 0x1761 JUMPI PUSH1 0x40 MLOAD PUSH3 0x461BCD PUSH1 0xE5 SHL DUP2 MSTORE PUSH1 0x4 ADD PUSH2 0x8B3 SWAP1 PUSH2 0x355A JUMP JUMPDEST PUSH1 0x1 PUSH1 0xFF AND DUP5 DUP3 DUP2 MLOAD DUP2 LT PUSH2 0x1778 JUMPI PUSH2 0x1778 PUSH2 0x366D JUMP JUMPDEST PUSH1 0x20 MUL PUSH1 0x20 ADD ADD MLOAD PUSH1 0xFF AND LT ISZERO DUP1 ISZERO PUSH2 0x17B1 JUMPI POP PUSH1 0x3 PUSH1 0xFF AND DUP5 DUP3 DUP2 MLOAD DUP2 LT PUSH2 0x17A3 JUMPI PUSH2 0x17A3 PUSH2 0x366D JUMP JUMPDEST PUSH1 0x20 MUL PUSH1 0x20 ADD ADD MLOAD PUSH1 0xFF AND GT ISZERO JUMPDEST PUSH2 0x17CD JUMPI PUSH1 0x40 MLOAD PUSH3 0x461BCD PUSH1 0xE5 SHL DUP2 MSTORE PUSH1 0x4 ADD PUSH2 0x8B3 SWAP1 PUSH2 0x37F5 JUMP JUMPDEST PUSH1 0x1 PUSH1 0x1 PUSH1 0xA0 SHL SUB DUP7 AND PUSH0 SWAP1 DUP2 MSTORE PUSH1 0x9 PUSH1 0x20 MSTORE PUSH1 0x40 DUP2 KECCAK256 DUP7 MLOAD SWAP1 SWAP2 SWAP1 DUP8 SWAP1 DUP5 SWAP1 DUP2 LT PUSH2 0x17FB JUMPI PUSH2 0x17FB PUSH2 0x366D JUMP JUMPDEST PUSH1 0x20 SWAP1 DUP2 MUL SWAP2 SWAP1 SWAP2 ADD DUP2 ADD MLOAD DUP3 MSTORE DUP2 ADD SWAP2 SWAP1 SWAP2 MSTORE PUSH1 0x40 ADD PUSH0 KECCAK256 SLOAD PUSH2 0x100 SWAP1 DIV PUSH1 0x1 PUSH1 0x1 PUSH1 0x40 SHL SUB AND ISZERO PUSH2 0x1840 JUMPI PUSH1 0x40 MLOAD PUSH3 0x461BCD PUSH1 0xE5 SHL DUP2 MSTORE PUSH1 0x4 ADD PUSH2 0x8B3 SWAP1 PUSH2 0x3584 JUMP JUMPDEST PUSH1 0x40 MLOAD DUP1 PUSH1 0x60 ADD PUSH1 0x40 MSTORE DUP1 DUP6 DUP4 DUP2 MLOAD DUP2 LT PUSH2 0x185D JUMPI PUSH2 0x185D PUSH2 0x366D JUMP JUMPDEST PUSH1 0x20 MUL PUSH1 0x20 ADD ADD MLOAD PUSH1 0xFF AND DUP2 MSTORE PUSH1 0x20 ADD TIMESTAMP PUSH1 0x1 PUSH1 0x1 PUSH1 0x40 SHL SUB AND DUP2 MSTORE PUSH1 0x20 ADD PUSH1 0x1 PUSH1 0xFF AND DUP2 MSTORE POP PUSH1 0x9 PUSH0 DUP9 PUSH1 0x1 PUSH1 0x1 PUSH1 0xA0 SHL SUB AND PUSH1 0x1 PUSH1 0x1 PUSH1 0xA0 SHL SUB AND DUP2 MSTORE PUSH1 0x20 ADD SWAP1 DUP2 MSTORE PUSH1 0x20 ADD PUSH0 KECCAK256 PUSH0 DUP8 DUP5 DUP2 MLOAD DUP2 LT PUSH2 0x18BA JUMPI PUSH2 0x18BA PUSH2 0x366D JUMP JUMPDEST PUSH1 0x20 SWAP1 DUP2 MUL SWAP2 SWAP1 SWAP2 ADD DUP2 ADD MLOAD DUP3 MSTORE DUP2 DUP2 ADD SWAP3 SWAP1 SWAP3 MSTORE PUSH1 0x40 SWAP1 DUP2 ADD PUSH0 KECCAK256 DUP4 MLOAD DUP2 SLOAD SWAP4 DUP6 ADD MLOAD SWAP5 SWAP1 SWAP3 ADD MLOAD PUSH1 0xFF SWAP1 DUP2 AND PUSH1 0x1 PUSH1 0x48 SHL MUL PUSH1 0xFF PUSH1 0x48 SHL NOT PUSH1 0x1 PUSH1 0x1 PUSH1 0x40 SHL SUB SWAP1 SWAP7 AND PUSH2 0x100 MUL PUSH9 0xFFFFFFFFFFFFFFFFFF NOT SWAP1 SWAP6 AND SWAP2 SWAP1 SWAP4 AND OR SWAP3 SWAP1 SWAP3 OR SWAP3 SWAP1 SWAP3 AND SWAP2 SWAP1 SWAP2 OR SWAP1 SSTORE DUP2 MLOAD PUSH1 0x1 SWAP1 DUP4 SWAP1 DUP4 SWAP1 DUP2 LT PUSH2 0x193B JUMPI PUSH2 0x193B PUSH2 0x366D JUMP JUMPDEST PUSH1 0x20 MUL PUSH1 0x20 ADD ADD DUP2 DUP2 MSTORE POP POP DUP5 DUP2 DUP2 MLOAD DUP2 LT PUSH2 0x1959 JUMPI PUSH2 0x1959 PUSH2 0x366D JUMP JUMPDEST PUSH1 0x20 MUL PUSH1 0x20 ADD ADD MLOAD DUP7 PUSH1 0x1 PUSH1 0x1 PUSH1 0xA0 SHL SUB AND PUSH0 DUP1 MLOAD PUSH1 0x20 PUSH2 0x3904 DUP4 CODECOPY DUP2 MLOAD SWAP2 MSTORE PUSH1 0x8 PUSH0 DUP10 DUP7 DUP2 MLOAD DUP2 LT PUSH2 0x198E JUMPI PUSH2 0x198E PUSH2 0x366D JUMP JUMPDEST PUSH1 0x20 MUL PUSH1 0x20 ADD ADD MLOAD DUP2 MSTORE PUSH1 0x20 ADD SWAP1 DUP2 MSTORE PUSH1 0x20 ADD PUSH0 KECCAK256 DUP8 DUP6 DUP2 MLOAD DUP2 LT PUSH2 0x19B5 JUMPI PUSH2 0x19B5 PUSH2 0x366D JUMP JUMPDEST PUSH1 0x20 MUL PUSH1 0x20 ADD ADD MLOAD PUSH1 0x40 MLOAD PUSH2 0x19CB SWAP3 SWAP2 SWAP1 PUSH2 0x35B2 JUMP JUMPDEST PUSH1 0x40 MLOAD DUP1 SWAP2 SUB SWAP1 LOG3 DUP1 PUSH2 0x19DD DUP2 PUSH2 0x3655 JUMP JUMPDEST SWAP2 POP POP PUSH2 0x16F8 JUMP JUMPDEST POP PUSH2 0x19F2 DUP6 DUP6 DUP4 DUP6 PUSH2 0x2407 JUMP JUMPDEST POP POP POP POP POP JUMP JUMPDEST PUSH2 0xF10 CALLER DUP4 DUP4 PUSH2 0x243D JUMP JUMPDEST PUSH2 0x1A0C PUSH2 0x225E JUMP JUMPDEST PUSH0 DUP3 DUP2 MSTORE PUSH1 0x8 PUSH1 0x20 MSTORE PUSH1 0x40 SWAP1 KECCAK256 PUSH2 0xE2E DUP3 DUP3 PUSH2 0x3716 JUMP JUMPDEST PUSH1 0x1 PUSH1 0x1 PUSH1 0xA0 SHL SUB DUP3 AND PUSH0 SWAP1 DUP2 MSTORE PUSH1 0x9 PUSH1 0x20 SWAP1 DUP2 MSTORE PUSH1 0x40 DUP1 DUP4 KECCAK256 DUP5 DUP5 MSTORE DUP3 MSTORE DUP1 DUP4 KECCAK256 DUP2 MLOAD PUSH1 0x60 DUP2 ADD DUP4 MSTORE SWAP1 SLOAD PUSH1 0xFF DUP1 DUP3 AND DUP4 MSTORE PUSH1 0x1 PUSH1 0x1 PUSH1 0x40 SHL SUB PUSH2 0x100 DUP4 DIV AND SWAP5 DUP4 ADD DUP6 SWAP1 MSTORE PUSH1 0x1 PUSH1 0x48 SHL SWAP1 SWAP2 DIV AND SWAP2 DUP2 ADD SWAP2 SWAP1 SWAP2 MSTORE SWAP1 DUP3 SUB PUSH2 0x1A8A JUMPI PUSH0 SWAP2 POP POP PUSH2 0x6FE JUMP JUMPDEST PUSH3 0x76A700 DUP2 PUSH1 0x20 ADD MLOAD PUSH2 0x1A9D SWAP2 SWAP1 PUSH2 0x3681 JUMP JUMPDEST PUSH1 0x1 PUSH1 0x1 PUSH1 0x40 SHL SUB AND TIMESTAMP GT PUSH2 0x1ABD JUMPI PUSH1 0x40 ADD MLOAD PUSH1 0xFF AND PUSH1 0x1 EQ SWAP1 POP PUSH2 0x6FE JUMP JUMPDEST POP PUSH0 SWAP4 SWAP3 POP POP POP JUMP JUMPDEST CALLER PUSH0 SWAP1 DUP2 MSTORE PUSH1 0x9 PUSH1 0x20 SWAP1 DUP2 MSTORE PUSH1 0x40 DUP1 DUP4 KECCAK256 DUP6 DUP5 MSTORE SWAP1 SWAP2 MSTORE SWAP1 KECCAK256 SLOAD PUSH2 0x100 SWAP1 DIV PUSH1 0x1 PUSH1 0x1 PUSH1 0x40 SHL SUB AND PUSH2 0x1B0A JUMPI PUSH1 0x40 MLOAD PUSH3 0x461BCD PUSH1 0xE5 SHL DUP2 MSTORE PUSH1 0x4 ADD PUSH2 0x8B3 SWAP1 PUSH2 0x36A8 JUMP JUMPDEST PUSH1 0x1 PUSH1 0xFF DUP3 AND LT DUP1 ISZERO SWAP1 PUSH2 0x1B22 JUMPI POP PUSH1 0x3 PUSH1 0xFF DUP3 AND GT ISZERO JUMPDEST PUSH2 0x1B3E JUMPI PUSH1 0x40 MLOAD PUSH3 0x461BCD PUSH1 0xE5 SHL DUP2 MSTORE PUSH1 0x4 ADD PUSH2 0x8B3 SWAP1 PUSH2 0x37F5 JUMP JUMPDEST CALLER PUSH0 DUP2 DUP2 MSTORE PUSH1 0x9 PUSH1 0x20 SWAP1 DUP2 MSTORE PUSH1 0x40 DUP1 DUP4 KECCAK256 DUP7 DUP5 MSTORE DUP3 MSTORE SWAP2 DUP3 SWAP1 KECCAK256 DUP1 SLOAD PUSH1 0x1 PUSH1 0x48 SHL PUSH10 0xFFFFFFFFFFFFFFFFFF00 NOT DUP3 AND PUSH2 0x100 TIMESTAMP PUSH1 0x1 PUSH1 0x1 PUSH1 0x40 SHL SUB AND MUL PUSH1 0xFF PUSH1 0x48 SHL NOT AND OR OR PUSH1 0xFF NOT AND PUSH1 0xFF DUP8 DUP2 AND SWAP2 DUP3 OR DUP5 SSTORE DUP6 MLOAD SWAP3 AND DUP1 DUP4 MSTORE SWAP4 DUP3 ADD MSTORE SWAP1 SWAP4 SWAP2 SWAP3 DUP7 SWAP3 SWAP2 PUSH32 0xFE5AC37F441080DA72C3E4788457D0722B5196ED6D2843AF39B402294074B2C7 SWAP2 ADD PUSH2 0x164B JUMP JUMPDEST PUSH2 0x1BFF PUSH1 0x40 MLOAD DUP1 PUSH1 0x80 ADD PUSH1 0x40 MSTORE DUP1 PUSH1 0x60 DUP2 MSTORE PUSH1 0x20 ADD PUSH1 0x60 DUP2 MSTORE PUSH1 0x20 ADD PUSH0 PUSH1 0x1 PUSH1 0x1 PUSH1 0x40 SHL SUB AND DUP2 MSTORE PUSH1 0x20 ADD PUSH1 0x60 DUP2 MSTORE POP SWAP1 JUMP JUMPDEST PUSH1 0x1 PUSH1 0x1 PUSH1 0xA0 SHL SUB DUP5 AND PUSH0 SWAP1 DUP2 MSTORE PUSH1 0xA PUSH1 0x20 SWAP1 DUP2 MSTORE PUSH1 0x40 DUP1 DUP4 KECCAK256 DUP7 DUP5 MSTORE SWAP1 SWAP2 MSTORE SWAP1 KECCAK256 SLOAD DUP3 LT PUSH2 0x1C66 JUMPI PUSH1 0x40 MLOAD PUSH3 0x461BCD PUSH1 0xE5 SHL DUP2 MSTORE PUSH1 0x20 PUSH1 0x4 DUP3 ADD MSTORE PUSH1 0x13 PUSH1 0x24 DUP3 ADD MSTORE PUSH19 0x496E646578206F7574206F6620626F756E6473 PUSH1 0x68 SHL PUSH1 0x44 DUP3 ADD MSTORE PUSH1 0x64 ADD PUSH2 0x8B3 JUMP JUMPDEST PUSH1 0x1 PUSH1 0x1 PUSH1 0xA0 SHL SUB DUP5 AND PUSH0 SWAP1 DUP2 MSTORE PUSH1 0xA PUSH1 0x20 SWAP1 DUP2 MSTORE PUSH1 0x40 DUP1 DUP4 KECCAK256 DUP7 DUP5 MSTORE SWAP1 SWAP2 MSTORE SWAP1 KECCAK256 DUP1 SLOAD DUP4 SWAP1 DUP2 LT PUSH2 0x1C9A JUMPI PUSH2 0x1C9A PUSH2 0x366D JUMP JUMPDEST SWAP1 PUSH0 MSTORE PUSH1 0x20 PUSH0 KECCAK256 SWAP1 PUSH1 0x4 MUL ADD PUSH1 0x40 MLOAD DUP1 PUSH1 0x80 ADD PUSH1 0x40 MSTORE SWAP1 DUP2 PUSH0 DUP3 ADD DUP1 SLOAD PUSH2 0x1CC0 SWAP1 PUSH2 0x3522 JUMP JUMPDEST DUP1 PUSH1 0x1F ADD PUSH1 0x20 DUP1 SWAP2 DIV MUL PUSH1 0x20 ADD PUSH1 0x40 MLOAD SWAP1 DUP2 ADD PUSH1 0x40 MSTORE DUP1 SWAP3 SWAP2 SWAP1 DUP2 DUP2 MSTORE PUSH1 0x20 ADD DUP3 DUP1 SLOAD PUSH2 0x1CEC SWAP1 PUSH2 0x3522 JUMP JUMPDEST DUP1 ISZERO PUSH2 0x1D37 JUMPI DUP1 PUSH1 0x1F LT PUSH2 0x1D0E JUMPI PUSH2 0x100 DUP1 DUP4 SLOAD DIV MUL DUP4 MSTORE SWAP2 PUSH1 0x20 ADD SWAP2 PUSH2 0x1D37 JUMP JUMPDEST DUP3 ADD SWAP2 SWAP1 PUSH0 MSTORE PUSH1 0x20 PUSH0 KECCAK256 SWAP1 JUMPDEST DUP2 SLOAD DUP2 MSTORE SWAP1 PUSH1 0x1 ADD SWAP1 PUSH1 0x20 ADD DUP1 DUP4 GT PUSH2 0x1D1A JUMPI DUP3 SWAP1 SUB PUSH1 0x1F AND DUP3 ADD SWAP2 JUMPDEST POP POP POP POP POP DUP2 MSTORE PUSH1 0x20 ADD PUSH1 0x1 DUP3 ADD DUP1 SLOAD PUSH2 0x1D50 SWAP1 PUSH2 0x3522 JUMP JUMPDEST DUP1 PUSH1 0x1F ADD PUSH1 0x20 DUP1 SWAP2 DIV MUL PUSH1 0x20 ADD PUSH1 0x40 MLOAD SWAP1 DUP2 ADD PUSH1 0x40 MSTORE DUP1 SWAP3 SWAP2 SWAP1 DUP2 DUP2 MSTORE PUSH1 0x20 ADD DUP3 DUP1 SLOAD PUSH2 0x1D7C SWAP1 PUSH2 0x3522 JUMP JUMPDEST DUP1 ISZERO PUSH2 0x1DC7 JUMPI DUP1 PUSH1 0x1F LT PUSH2 0x1D9E JUMPI PUSH2 0x100 DUP1 DUP4 SLOAD DIV MUL DUP4 MSTORE SWAP2 PUSH1 0x20 ADD SWAP2 PUSH2 0x1DC7 JUMP JUMPDEST DUP3 ADD SWAP2 SWAP1 PUSH0 MSTORE PUSH1 0x20 PUSH0 KECCAK256 SWAP1 JUMPDEST DUP2 SLOAD DUP2 MSTORE SWAP1 PUSH1 0x1 ADD SWAP1 PUSH1 0x20 ADD DUP1 DUP4 GT PUSH2 0x1DAA JUMPI DUP3 SWAP1 SUB PUSH1 0x1F AND DUP3 ADD SWAP2 JUMPDEST POP POP POP SWAP2 DUP4 MSTORE POP POP PUSH1 0x2 DUP3 ADD SLOAD PUSH1 0x1 PUSH1 0x1 PUSH1 0x40 SHL SUB AND PUSH1 0x20 DUP3 ADD MSTORE PUSH1 0x3 DUP3 ADD DUP1 SLOAD PUSH1 0x40 SWAP1 SWAP3 ADD SWAP2 PUSH2 0x1DF7 SWAP1 PUSH2 0x3522 JUMP JUMPDEST DUP1 PUSH1 0x1F ADD PUSH1 0x20 DUP1 SWAP2 DIV MUL PUSH1 0x20 ADD PUSH1 0x40 MLOAD SWAP1 DUP2 ADD PUSH1 0x40 MSTORE DUP1 SWAP3 SWAP2 SWAP1 DUP2 DUP2 MSTORE PUSH1 0x20 ADD DUP3 DUP1 SLOAD PUSH2 0x1E23 SWAP1 PUSH2 0x3522 JUMP JUMPDEST DUP1 ISZERO PUSH2 0x1E6E JUMPI DUP1 PUSH1 0x1F LT PUSH2 0x1E45 JUMPI PUSH2 0x100 DUP1 DUP4 SLOAD DIV MUL DUP4 MSTORE SWAP2 PUSH1 0x20 ADD SWAP2 PUSH2 0x1E6E JUMP JUMPDEST DUP3 ADD SWAP2 SWAP1 PUSH0 MSTORE PUSH1 0x20 PUSH0 KECCAK256 SWAP1 JUMPDEST DUP2 SLOAD DUP2 MSTORE SWAP1 PUSH1 0x1 ADD SWAP1 PUSH1 0x20 ADD DUP1 DUP4 GT PUSH2 0x1E51 JUMPI DUP3 SWAP1 SUB PUSH1 0x1F AND DUP3 ADD SWAP2 JUMPDEST POP POP POP POP POP DUP2 MSTORE POP POP SWAP1 POP JUMPDEST SWAP4 SWAP3 POP POP POP JUMP JUMPDEST PUSH1 0x60 DUP1 DUP1 PUSH0 PUSH1 0x1 JUMPDEST PUSH1 0xA DUP2 GT PUSH2 0x1EE7 JUMPI PUSH1 0x1 PUSH1 0x1 PUSH1 0xA0 SHL SUB DUP7 AND PUSH0 SWAP1 DUP2 MSTORE PUSH1 0x9 PUSH1 0x20 SWAP1 DUP2 MSTORE PUSH1 0x40 DUP1 DUP4 KECCAK256 DUP5 DUP5 MSTORE SWAP1 SWAP2 MSTORE SWAP1 KECCAK256 SLOAD PUSH2 0x100 SWAP1 DIV PUSH1 0x1 PUSH1 0x1 PUSH1 0x40 SHL SUB AND ISZERO PUSH2 0x1ED5 JUMPI DUP2 PUSH2 0x1ED1 DUP2 PUSH2 0x3655 JUMP JUMPDEST SWAP3 POP POP JUMPDEST DUP1 PUSH2 0x1EDF DUP2 PUSH2 0x3655 JUMP JUMPDEST SWAP2 POP POP PUSH2 0x1E89 JUMP JUMPDEST POP DUP1 PUSH1 0x1 PUSH1 0x1 PUSH1 0x40 SHL SUB DUP2 GT ISZERO PUSH2 0x1F00 JUMPI PUSH2 0x1F00 PUSH2 0x2C65 JUMP JUMPDEST PUSH1 0x40 MLOAD SWAP1 DUP1 DUP3 MSTORE DUP1 PUSH1 0x20 MUL PUSH1 0x20 ADD DUP3 ADD PUSH1 0x40 MSTORE DUP1 ISZERO PUSH2 0x1F29 JUMPI DUP2 PUSH1 0x20 ADD PUSH1 0x20 DUP3 MUL DUP1 CALLDATASIZE DUP4 CALLDATACOPY ADD SWAP1 POP JUMPDEST POP SWAP4 POP DUP1 PUSH1 0x1 PUSH1 0x1 PUSH1 0x40 SHL SUB DUP2 GT ISZERO PUSH2 0x1F44 JUMPI PUSH2 0x1F44 PUSH2 0x2C65 JUMP JUMPDEST PUSH1 0x40 MLOAD SWAP1 DUP1 DUP3 MSTORE DUP1 PUSH1 0x20 MUL PUSH1 0x20 ADD DUP3 ADD PUSH1 0x40 MSTORE DUP1 ISZERO PUSH2 0x1F6D JUMPI DUP2 PUSH1 0x20 ADD PUSH1 0x20 DUP3 MUL DUP1 CALLDATASIZE DUP4 CALLDATACOPY ADD SWAP1 POP JUMPDEST POP SWAP3 POP DUP1 PUSH1 0x1 PUSH1 0x1 PUSH1 0x40 SHL SUB DUP2 GT ISZERO PUSH2 0x1F88 JUMPI PUSH2 0x1F88 PUSH2 0x2C65 JUMP JUMPDEST PUSH1 0x40 MLOAD SWAP1 DUP1 DUP3 MSTORE DUP1 PUSH1 0x20 MUL PUSH1 0x20 ADD DUP3 ADD PUSH1 0x40 MSTORE DUP1 ISZERO PUSH2 0x1FB1 JUMPI DUP2 PUSH1 0x20 ADD PUSH1 0x20 DUP3 MUL DUP1 CALLDATASIZE DUP4 CALLDATACOPY ADD SWAP1 POP JUMPDEST POP SWAP2 POP PUSH0 PUSH1 0x1 JUMPDEST PUSH1 0xA DUP2 GT PUSH2 0x20D5 JUMPI PUSH1 0x1 PUSH1 0x1 PUSH1 0xA0 SHL SUB DUP8 AND PUSH0 SWAP1 DUP2 MSTORE PUSH1 0x9 PUSH1 0x20 SWAP1 DUP2 MSTORE PUSH1 0x40 DUP1 DUP4 KECCAK256 DUP5 DUP5 MSTORE DUP3 MSTORE SWAP2 DUP3 SWAP1 KECCAK256 DUP3 MLOAD PUSH1 0x60 DUP2 ADD DUP5 MSTORE SWAP1 SLOAD PUSH1 0xFF DUP1 DUP3 AND DUP4 MSTORE PUSH1 0x1 PUSH1 0x1 PUSH1 0x40 SHL SUB PUSH2 0x100 DUP4 DIV AND SWAP4 DUP4 ADD DUP5 SWAP1 MSTORE PUSH1 0x1 PUSH1 0x48 SHL SWAP1 SWAP2 DIV AND SWAP3 DUP2 ADD SWAP3 SWAP1 SWAP3 MSTORE ISZERO PUSH2 0x20C2 JUMPI DUP2 DUP8 DUP5 DUP2 MLOAD DUP2 LT PUSH2 0x2030 JUMPI PUSH2 0x2030 PUSH2 0x366D JUMP JUMPDEST PUSH1 0x20 MUL PUSH1 0x20 ADD ADD DUP2 DUP2 MSTORE POP POP DUP1 PUSH0 ADD MLOAD DUP7 DUP5 DUP2 MLOAD DUP2 LT PUSH2 0x2052 JUMPI PUSH2 0x2052 PUSH2 0x366D JUMP JUMPDEST PUSH1 0xFF SWAP3 DUP4 AND PUSH1 0x20 SWAP2 DUP3 MUL SWAP3 SWAP1 SWAP3 ADD ADD MSTORE PUSH1 0x40 DUP3 ADD MLOAD AND PUSH1 0x1 EQ DUP1 ISZERO PUSH2 0x2092 JUMPI POP PUSH3 0x76A700 DUP2 PUSH1 0x20 ADD MLOAD PUSH2 0x2085 SWAP2 SWAP1 PUSH2 0x3681 JUMP JUMPDEST PUSH1 0x1 PUSH1 0x1 PUSH1 0x40 SHL SUB AND TIMESTAMP GT ISZERO JUMPDEST DUP6 DUP5 DUP2 MLOAD DUP2 LT PUSH2 0x20A4 JUMPI PUSH2 0x20A4 PUSH2 0x366D JUMP JUMPDEST SWAP2 ISZERO ISZERO PUSH1 0x20 SWAP3 DUP4 MUL SWAP2 SWAP1 SWAP2 ADD SWAP1 SWAP2 ADD MSTORE DUP3 PUSH2 0x20BE DUP2 PUSH2 0x3655 JUMP JUMPDEST SWAP4 POP POP JUMPDEST POP DUP1 PUSH2 0x20CD DUP2 PUSH2 0x3655 JUMP JUMPDEST SWAP2 POP POP PUSH2 0x1FB8 JUMP JUMPDEST POP POP POP SWAP2 SWAP4 SWAP1 SWAP3 POP JUMP JUMPDEST PUSH1 0x1 PUSH1 0x1 PUSH1 0xA0 SHL SUB SWAP2 DUP3 AND PUSH0 SWAP1 DUP2 MSTORE PUSH1 0x1 PUSH1 0x20 SWAP1 DUP2 MSTORE PUSH1 0x40 DUP1 DUP4 KECCAK256 SWAP4 SWAP1 SWAP5 AND DUP3 MSTORE SWAP2 SWAP1 SWAP2 MSTORE KECCAK256 SLOAD PUSH1 0xFF AND SWAP1 JUMP JUMPDEST CALLER PUSH1 0x1 PUSH1 0x1 PUSH1 0xA0 SHL SUB DUP7 AND DUP2 EQ DUP1 ISZERO SWAP1 PUSH2 0x212D JUMPI POP PUSH2 0x212B DUP7 DUP3 PUSH2 0x20DF JUMP JUMPDEST ISZERO JUMPDEST ISZERO PUSH2 0x215E JUMPI PUSH1 0x40 MLOAD PUSH4 0x711BEC91 PUSH1 0xE1 SHL DUP2 MSTORE PUSH1 0x1 PUSH1 0x1 PUSH1 0xA0 SHL SUB DUP1 DUP4 AND PUSH1 0x4 DUP4 ADD MSTORE DUP8 AND PUSH1 0x24 DUP3 ADD MSTORE PUSH1 0x44 ADD PUSH2 0x8B3 JUMP JUMPDEST PUSH2 0xA41 DUP7 DUP7 DUP7 DUP7 DUP7 PUSH2 0x24C9 JUMP JUMPDEST PUSH2 0x2173 PUSH2 0x225E JUMP JUMPDEST PUSH1 0x1 PUSH1 0x1 PUSH1 0xA0 SHL SUB DUP2 AND PUSH2 0x219C JUMPI PUSH1 0x40 MLOAD PUSH4 0x1E4FBDF7 PUSH1 0xE0 SHL DUP2 MSTORE PUSH0 PUSH1 0x4 DUP3 ADD MSTORE PUSH1 0x24 ADD PUSH2 0x8B3 JUMP JUMPDEST PUSH2 0x764 DUP2 PUSH2 0x23B6 JUMP JUMPDEST PUSH1 0x8 PUSH1 0x20 MSTORE PUSH0 SWAP1 DUP2 MSTORE PUSH1 0x40 SWAP1 KECCAK256 DUP1 SLOAD PUSH2 0x774 SWAP1 PUSH2 0x3522 JUMP JUMPDEST PUSH1 0x1 PUSH1 0x1 PUSH1 0xA0 SHL SUB DUP3 AND PUSH0 SWAP1 DUP2 MSTORE PUSH1 0x9 PUSH1 0x20 SWAP1 DUP2 MSTORE PUSH1 0x40 DUP1 DUP4 KECCAK256 DUP5 DUP5 MSTORE DUP3 MSTORE DUP1 DUP4 KECCAK256 DUP2 MLOAD PUSH1 0x60 DUP2 ADD DUP4 MSTORE SWAP1 SLOAD PUSH1 0xFF DUP1 DUP3 AND DUP4 MSTORE PUSH1 0x1 PUSH1 0x1 PUSH1 0x40 SHL SUB PUSH2 0x100 DUP4 DIV AND SWAP5 DUP4 ADD DUP6 SWAP1 MSTORE PUSH1 0x1 PUSH1 0x48 SHL SWAP1 SWAP2 DIV AND SWAP2 DUP2 ADD SWAP2 SWAP1 SWAP2 MSTORE DUP3 SWAP2 DUP3 SWAP2 DUP3 SWAP2 DUP3 SWAP1 ISZERO PUSH2 0x2242 JUMPI PUSH3 0x76A700 DUP3 PUSH1 0x20 ADD MLOAD PUSH2 0x2234 SWAP2 SWAP1 PUSH2 0x3681 JUMP JUMPDEST PUSH1 0x1 PUSH1 0x1 PUSH1 0x40 SHL SUB AND TIMESTAMP GT SWAP1 POP JUMPDEST DUP2 MLOAD PUSH1 0x20 DUP4 ADD MLOAD PUSH1 0x40 SWAP1 SWAP4 ADD MLOAD SWAP1 SWAP10 SWAP3 SWAP9 POP SWAP7 POP SWAP5 POP SWAP3 POP POP POP JUMP JUMPDEST PUSH1 0x5 SLOAD PUSH1 0x1 PUSH1 0x1 PUSH1 0xA0 SHL SUB AND CALLER EQ PUSH2 0x10BB JUMPI PUSH1 0x40 MLOAD PUSH4 0x118CDAA7 PUSH1 0xE0 SHL DUP2 MSTORE CALLER PUSH1 0x4 DUP3 ADD MSTORE PUSH1 0x24 ADD PUSH2 0x8B3 JUMP JUMPDEST PUSH1 0x2 PUSH2 0xF10 DUP3 DUP3 PUSH2 0x3716 JUMP JUMPDEST PUSH1 0x1 PUSH1 0x1 PUSH1 0xA0 SHL SUB DUP5 AND PUSH2 0x22C0 JUMPI PUSH1 0x40 MLOAD PUSH4 0x2BFA23E7 PUSH1 0xE1 SHL DUP2 MSTORE PUSH0 PUSH1 0x4 DUP3 ADD MSTORE PUSH1 0x24 ADD PUSH2 0x8B3 JUMP JUMPDEST PUSH1 0x40 DUP1 MLOAD PUSH1 0x1 DUP1 DUP3 MSTORE PUSH1 0x20 DUP3 ADD DUP7 SWAP1 MSTORE DUP2 DUP4 ADD SWAP1 DUP2 MSTORE PUSH1 0x60 DUP3 ADD DUP6 SWAP1 MSTORE PUSH1 0x80 DUP3 ADD SWAP1 SWAP3 MSTORE SWAP1 PUSH2 0xA41 PUSH0 DUP8 DUP5 DUP5 DUP8 PUSH2 0x2555 JUMP JUMPDEST PUSH1 0x1 PUSH1 0x1 PUSH1 0xA0 SHL SUB DUP5 AND PUSH2 0x231B JUMPI PUSH1 0x40 MLOAD PUSH4 0x2BFA23E7 PUSH1 0xE1 SHL DUP2 MSTORE PUSH0 PUSH1 0x4 DUP3 ADD MSTORE PUSH1 0x24 ADD PUSH2 0x8B3 JUMP JUMPDEST PUSH1 0x1 PUSH1 0x1 PUSH1 0xA0 SHL SUB DUP6 AND PUSH2 0x2343 JUMPI PUSH1 0x40 MLOAD PUSH3 0x6A0D45 PUSH1 0xE2 SHL DUP2 MSTORE PUSH0 PUSH1 0x4 DUP3 ADD MSTORE PUSH1 0x24 ADD PUSH2 0x8B3 JUMP JUMPDEST PUSH2 0x19F2 DUP6 DUP6 DUP6 DUP6 DUP6 PUSH2 0x2555 JUMP JUMPDEST PUSH1 0x1 PUSH1 0x1 PUSH1 0xA0 SHL SUB DUP4 AND PUSH2 0x2378 JUMPI PUSH1 0x40 MLOAD PUSH3 0x6A0D45 PUSH1 0xE2 SHL DUP2 MSTORE PUSH0 PUSH1 0x4 DUP3 ADD MSTORE PUSH1 0x24 ADD PUSH2 0x8B3 JUMP JUMPDEST PUSH1 0x40 DUP1 MLOAD PUSH1 0x1 DUP1 DUP3 MSTORE PUSH1 0x20 DUP3 ADD DUP6 SWAP1 MSTORE DUP2 DUP4 ADD SWAP1 DUP2 MSTORE PUSH1 0x60 DUP3 ADD DUP5 SWAP1 MSTORE PUSH1 0xA0 DUP3 ADD SWAP1 SWAP3 MSTORE PUSH0 PUSH1 0x80 DUP3 ADD DUP2 DUP2 MSTORE SWAP2 SWAP3 SWAP2 PUSH2 0x19F2 SWAP2 DUP8 SWAP2 DUP6 SWAP1 DUP6 SWAP1 PUSH2 0x2555 JUMP JUMPDEST PUSH1 0x5 DUP1 SLOAD PUSH1 0x1 PUSH1 0x1 PUSH1 0xA0 SHL SUB DUP4 DUP2 AND PUSH1 0x1 PUSH1 0x1 PUSH1 0xA0 SHL SUB NOT DUP4 AND DUP2 OR SWAP1 SWAP4 SSTORE PUSH1 0x40 MLOAD SWAP2 AND SWAP2 SWAP1 DUP3 SWAP1 PUSH32 0x8BE0079C531659141344CD1FD0A4F28419497F9722A3DAAFE3B4186F6B6457E0 SWAP1 PUSH0 SWAP1 LOG3 POP POP JUMP JUMPDEST PUSH1 0x1 PUSH1 0x1 PUSH1 0xA0 SHL SUB DUP5 AND PUSH2 0x2430 JUMPI PUSH1 0x40 MLOAD PUSH4 0x2BFA23E7 PUSH1 0xE1 SHL DUP2 MSTORE PUSH0 PUSH1 0x4 DUP3 ADD MSTORE PUSH1 0x24 ADD PUSH2 0x8B3 JUMP JUMPDEST PUSH2 0x14C6 PUSH0 DUP6 DUP6 DUP6 DUP6 PUSH2 0x2555 JUMP JUMPDEST PUSH1 0x1 PUSH1 0x1 PUSH1 0xA0 SHL SUB DUP3 AND PUSH2 0x2465 JUMPI PUSH1 0x40 MLOAD PUSH3 0xCED3E1 PUSH1 0xE8 SHL DUP2 MSTORE PUSH0 PUSH1 0x4 DUP3 ADD MSTORE PUSH1 0x24 ADD PUSH2 0x8B3 JUMP JUMPDEST PUSH1 0x1 PUSH1 0x1 PUSH1 0xA0 SHL SUB DUP4 DUP2 AND PUSH0 DUP2 DUP2 MSTORE PUSH1 0x1 PUSH1 0x20 SWAP1 DUP2 MSTORE PUSH1 0x40 DUP1 DUP4 KECCAK256 SWAP5 DUP8 AND DUP1 DUP5 MSTORE SWAP5 DUP3 MSTORE SWAP2 DUP3 SWAP1 KECCAK256 DUP1 SLOAD PUSH1 0xFF NOT AND DUP7 ISZERO ISZERO SWAP1 DUP2 OR SWAP1 SWAP2 SSTORE SWAP2 MLOAD SWAP2 DUP3 MSTORE PUSH32 0x17307EAB39AB6107E8899845AD3D59BD9653F200F220920489CA2B5937696C31 SWAP2 ADD PUSH2 0x9D5 JUMP JUMPDEST PUSH1 0x1 PUSH1 0x1 PUSH1 0xA0 SHL SUB DUP5 AND PUSH2 0x24F2 JUMPI PUSH1 0x40 MLOAD PUSH4 0x2BFA23E7 PUSH1 0xE1 SHL DUP2 MSTORE PUSH0 PUSH1 0x4 DUP3 ADD MSTORE PUSH1 0x24 ADD PUSH2 0x8B3 JUMP JUMPDEST PUSH1 0x1 PUSH1 0x1 PUSH1 0xA0 SHL SUB DUP6 AND PUSH2 0x251A JUMPI PUSH1 0x40 MLOAD PUSH3 0x6A0D45 PUSH1 0xE2 SHL DUP2 MSTORE PUSH0 PUSH1 0x4 DUP3 ADD MSTORE PUSH1 0x24 ADD PUSH2 0x8B3 JUMP JUMPDEST PUSH1 0x40 DUP1 MLOAD PUSH1 0x1 DUP1 DUP3 MSTORE PUSH1 0x20 DUP3 ADD DUP7 SWAP1 MSTORE DUP2 DUP4 ADD SWAP1 DUP2 MSTORE PUSH1 0x60 DUP3 ADD DUP6 SWAP1 MSTORE PUSH1 0x80 DUP3 ADD SWAP1 SWAP3 MSTORE SWAP1 PUSH2 0x254C DUP8 DUP8 DUP5 DUP5 DUP8 PUSH2 0x2555 JUMP JUMPDEST POP POP POP POP POP POP POP JUMP JUMPDEST PUSH2 0x2561 DUP6 DUP6 DUP6 DUP6 PUSH2 0x25A8 JUMP JUMPDEST PUSH1 0x1 PUSH1 0x1 PUSH1 0xA0 SHL SUB DUP5 AND ISZERO PUSH2 0x19F2 JUMPI DUP3 MLOAD CALLER SWAP1 PUSH1 0x1 SUB PUSH2 0x259A JUMPI PUSH1 0x20 DUP5 DUP2 ADD MLOAD SWAP1 DUP5 ADD MLOAD PUSH2 0x2593 DUP4 DUP10 DUP10 DUP6 DUP6 DUP10 PUSH2 0x262D JUMP JUMPDEST POP POP PUSH2 0xA41 JUMP JUMPDEST PUSH2 0xA41 DUP2 DUP8 DUP8 DUP8 DUP8 DUP8 PUSH2 0x274E JUMP JUMPDEST PUSH1 0x1 PUSH1 0x1 PUSH1 0xA0 SHL SUB DUP5 AND ISZERO DUP1 ISZERO SWAP1 PUSH2 0x25C8 JUMPI POP PUSH1 0x1 PUSH1 0x1 PUSH1 0xA0 SHL SUB DUP4 AND ISZERO ISZERO JUMPDEST ISZERO PUSH2 0x2621 JUMPI PUSH1 0x40 MLOAD PUSH3 0x461BCD PUSH1 0xE5 SHL DUP2 MSTORE PUSH1 0x20 PUSH1 0x4 DUP3 ADD MSTORE PUSH1 0x24 DUP1 DUP3 ADD MSTORE PUSH32 0x536F756C626F756E643A20546F6B656E206973206E6F6E2D7472616E73666572 PUSH1 0x44 DUP3 ADD MSTORE PUSH4 0x61626C65 PUSH1 0xE0 SHL PUSH1 0x64 DUP3 ADD MSTORE PUSH1 0x84 ADD PUSH2 0x8B3 JUMP JUMPDEST PUSH2 0x14C6 DUP5 DUP5 DUP5 DUP5 PUSH2 0x2835 JUMP JUMPDEST PUSH1 0x1 PUSH1 0x1 PUSH1 0xA0 SHL SUB DUP5 AND EXTCODESIZE ISZERO PUSH2 0xA41 JUMPI PUSH1 0x40 MLOAD PUSH4 0xF23A6E61 PUSH1 0xE0 SHL DUP2 MSTORE PUSH1 0x1 PUSH1 0x1 PUSH1 0xA0 SHL SUB DUP6 AND SWAP1 PUSH4 0xF23A6E61 SWAP1 PUSH2 0x2671 SWAP1 DUP10 SWAP1 DUP10 SWAP1 DUP9 SWAP1 DUP9 SWAP1 DUP9 SWAP1 PUSH1 0x4 ADD PUSH2 0x381B JUMP JUMPDEST PUSH1 0x20 PUSH1 0x40 MLOAD DUP1 DUP4 SUB DUP2 PUSH0 DUP8 GAS CALL SWAP3 POP POP POP DUP1 ISZERO PUSH2 0x26AB JUMPI POP PUSH1 0x40 DUP1 MLOAD PUSH1 0x1F RETURNDATASIZE SWAP1 DUP2 ADD PUSH1 0x1F NOT AND DUP3 ADD SWAP1 SWAP3 MSTORE PUSH2 0x26A8 SWAP2 DUP2 ADD SWAP1 PUSH2 0x3854 JUMP JUMPDEST PUSH1 0x1 JUMPDEST PUSH2 0x2712 JUMPI RETURNDATASIZE DUP1 DUP1 ISZERO PUSH2 0x26D8 JUMPI PUSH1 0x40 MLOAD SWAP2 POP PUSH1 0x1F NOT PUSH1 0x3F RETURNDATASIZE ADD AND DUP3 ADD PUSH1 0x40 MSTORE RETURNDATASIZE DUP3 MSTORE RETURNDATASIZE PUSH0 PUSH1 0x20 DUP5 ADD RETURNDATACOPY PUSH2 0x26DD JUMP JUMPDEST PUSH1 0x60 SWAP2 POP JUMPDEST POP DUP1 MLOAD PUSH0 SUB PUSH2 0x270A JUMPI PUSH1 0x40 MLOAD PUSH4 0x2BFA23E7 PUSH1 0xE1 SHL DUP2 MSTORE PUSH1 0x1 PUSH1 0x1 PUSH1 0xA0 SHL SUB DUP7 AND PUSH1 0x4 DUP3 ADD MSTORE PUSH1 0x24 ADD PUSH2 0x8B3 JUMP JUMPDEST DUP1 MLOAD PUSH1 0x20 DUP3 ADD REVERT JUMPDEST PUSH1 0x1 PUSH1 0x1 PUSH1 0xE0 SHL SUB NOT DUP2 AND PUSH4 0xF23A6E61 PUSH1 0xE0 SHL EQ PUSH2 0x254C JUMPI PUSH1 0x40 MLOAD PUSH4 0x2BFA23E7 PUSH1 0xE1 SHL DUP2 MSTORE PUSH1 0x1 PUSH1 0x1 PUSH1 0xA0 SHL SUB DUP7 AND PUSH1 0x4 DUP3 ADD MSTORE PUSH1 0x24 ADD PUSH2 0x8B3 JUMP JUMPDEST PUSH1 0x1 PUSH1 0x1 PUSH1 0xA0 SHL SUB DUP5 AND EXTCODESIZE ISZERO PUSH2 0xA41 JUMPI PUSH1 0x40 MLOAD PUSH4 0xBC197C81 PUSH1 0xE0 SHL DUP2 MSTORE PUSH1 0x1 PUSH1 0x1 PUSH1 0xA0 SHL SUB DUP6 AND SWAP1 PUSH4 0xBC197C81 SWAP1 PUSH2 0x2792 SWAP1 DUP10 SWAP1 DUP10 SWAP1 DUP9 SWAP1 DUP9 SWAP1 DUP9 SWAP1 PUSH1 0x4 ADD PUSH2 0x386F JUMP JUMPDEST PUSH1 0x20 PUSH1 0x40 MLOAD DUP1 DUP4 SUB DUP2 PUSH0 DUP8 GAS CALL SWAP3 POP POP POP DUP1 ISZERO PUSH2 0x27CC JUMPI POP PUSH1 0x40 DUP1 MLOAD PUSH1 0x1F RETURNDATASIZE SWAP1 DUP2 ADD PUSH1 0x1F NOT AND DUP3 ADD SWAP1 SWAP3 MSTORE PUSH2 0x27C9 SWAP2 DUP2 ADD SWAP1 PUSH2 0x3854 JUMP JUMPDEST PUSH1 0x1 JUMPDEST PUSH2 0x27F9 JUMPI RETURNDATASIZE DUP1 DUP1 ISZERO PUSH2 0x26D8 JUMPI PUSH1 0x40 MLOAD SWAP2 POP PUSH1 0x1F NOT PUSH1 0x3F RETURNDATASIZE ADD AND DUP3 ADD PUSH1 0x40 MSTORE RETURNDATASIZE DUP3 MSTORE RETURNDATASIZE PUSH0 PUSH1 0x20 DUP5 ADD RETURNDATACOPY PUSH2 0x26DD JUMP JUMPDEST PUSH1 0x1 PUSH1 0x1 PUSH1 0xE0 SHL SUB NOT DUP2 AND PUSH4 0xBC197C81 PUSH1 0xE0 SHL EQ PUSH2 0x254C JUMPI PUSH1 0x40 MLOAD PUSH4 0x2BFA23E7 PUSH1 0xE1 SHL DUP2 MSTORE PUSH1 0x1 PUSH1 0x1 PUSH1 0xA0 SHL SUB DUP7 AND PUSH1 0x4 DUP3 ADD MSTORE PUSH1 0x24 ADD PUSH2 0x8B3 JUMP JUMPDEST PUSH2 0x2841 DUP5 DUP5 DUP5 DUP5 PUSH2 0x292D JUMP JUMPDEST PUSH1 0x1 PUSH1 0x1 PUSH1 0xA0 SHL SUB DUP5 AND PUSH2 0x28C7 JUMPI PUSH0 DUP1 JUMPDEST DUP4 MLOAD DUP2 LT ISZERO PUSH2 0x28AE JUMPI PUSH1 0x20 DUP2 DUP2 MUL DUP5 DUP2 ADD DUP3 ADD MLOAD SWAP1 DUP7 ADD DUP3 ADD MLOAD PUSH0 SWAP1 DUP2 MSTORE PUSH1 0x3 SWAP1 SWAP3 MSTORE PUSH1 0x40 DUP3 KECCAK256 DUP1 SLOAD SWAP2 SWAP3 DUP4 SWAP3 PUSH2 0x288A SWAP1 DUP5 SWAP1 PUSH2 0x38CC JUMP JUMPDEST SWAP1 SWAP2 SSTORE POP PUSH2 0x289A SWAP1 POP DUP2 DUP5 PUSH2 0x38CC JUMP JUMPDEST SWAP3 POP POP DUP1 PUSH2 0x28A7 SWAP1 PUSH2 0x3655 JUMP JUMPDEST SWAP1 POP PUSH2 0x2852 JUMP JUMPDEST POP DUP1 PUSH1 0x4 PUSH0 DUP3 DUP3 SLOAD PUSH2 0x28C0 SWAP2 SWAP1 PUSH2 0x38CC JUMP JUMPDEST SWAP1 SWAP2 SSTORE POP POP POP JUMPDEST PUSH1 0x1 PUSH1 0x1 PUSH1 0xA0 SHL SUB DUP4 AND PUSH2 0x14C6 JUMPI PUSH0 DUP1 JUMPDEST DUP4 MLOAD DUP2 LT ISZERO PUSH2 0x291C JUMPI PUSH1 0x20 DUP2 DUP2 MUL DUP5 DUP2 ADD DUP3 ADD MLOAD SWAP1 DUP7 ADD DUP3 ADD MLOAD PUSH0 SWAP1 DUP2 MSTORE PUSH1 0x3 SWAP1 SWAP3 MSTORE PUSH1 0x40 SWAP1 SWAP2 KECCAK256 DUP1 SLOAD DUP3 SWAP1 SUB SWAP1 SSTORE SWAP2 SWAP1 SWAP2 ADD SWAP1 PUSH2 0x2915 DUP2 PUSH2 0x3655 JUMP JUMPDEST SWAP1 POP PUSH2 0x28D8 JUMP JUMPDEST POP PUSH1 0x4 DUP1 SLOAD SWAP2 SWAP1 SWAP2 SUB SWAP1 SSTORE POP POP POP POP JUMP JUMPDEST DUP1 MLOAD DUP3 MLOAD EQ PUSH2 0x295C JUMPI DUP2 MLOAD DUP2 MLOAD PUSH1 0x40 MLOAD PUSH4 0x5B059991 PUSH1 0xE0 SHL DUP2 MSTORE PUSH1 0x4 DUP2 ADD SWAP3 SWAP1 SWAP3 MSTORE PUSH1 0x24 DUP3 ADD MSTORE PUSH1 0x44 ADD PUSH2 0x8B3 JUMP JUMPDEST CALLER PUSH0 JUMPDEST DUP4 MLOAD DUP2 LT ISZERO PUSH2 0x2A67 JUMPI PUSH1 0x20 DUP2 DUP2 MUL DUP6 DUP2 ADD DUP3 ADD MLOAD SWAP1 DUP6 ADD SWAP1 SWAP2 ADD MLOAD PUSH1 0x1 PUSH1 0x1 PUSH1 0xA0 SHL SUB DUP9 AND ISZERO PUSH2 0x2A10 JUMPI PUSH0 DUP3 DUP2 MSTORE PUSH1 0x20 DUP2 DUP2 MSTORE PUSH1 0x40 DUP1 DUP4 KECCAK256 PUSH1 0x1 PUSH1 0x1 PUSH1 0xA0 SHL SUB DUP13 AND DUP5 MSTORE SWAP1 SWAP2 MSTORE SWAP1 KECCAK256 SLOAD DUP2 DUP2 LT ISZERO PUSH2 0x29EA JUMPI PUSH1 0x40 MLOAD PUSH4 0x3DEE4C5 PUSH1 0xE0 SHL DUP2 MSTORE PUSH1 0x1 PUSH1 0x1 PUSH1 0xA0 SHL SUB DUP11 AND PUSH1 0x4 DUP3 ADD MSTORE PUSH1 0x24 DUP2 ADD DUP3 SWAP1 MSTORE PUSH1 0x44 DUP2 ADD DUP4 SWAP1 MSTORE PUSH1 0x64 DUP2 ADD DUP5 SWAP1 MSTORE PUSH1 0x84 ADD PUSH2 0x8B3 JUMP JUMPDEST PUSH0 DUP4 DUP2 MSTORE PUSH1 0x20 DUP2 DUP2 MSTORE PUSH1 0x40 DUP1 DUP4 KECCAK256 PUSH1 0x1 PUSH1 0x1 PUSH1 0xA0 SHL SUB DUP14 AND DUP5 MSTORE SWAP1 SWAP2 MSTORE SWAP1 KECCAK256 SWAP1 DUP3 SWAP1 SUB SWAP1 SSTORE JUMPDEST PUSH1 0x1 PUSH1 0x1 PUSH1 0xA0 SHL SUB DUP8 AND ISZERO PUSH2 0x2A54 JUMPI PUSH0 DUP3 DUP2 MSTORE PUSH1 0x20 DUP2 DUP2 MSTORE PUSH1 0x40 DUP1 DUP4 KECCAK256 PUSH1 0x1 PUSH1 0x1 PUSH1 0xA0 SHL SUB DUP12 AND DUP5 MSTORE SWAP1 SWAP2 MSTORE DUP2 KECCAK256 DUP1 SLOAD DUP4 SWAP3 SWAP1 PUSH2 0x2A4E SWAP1 DUP5 SWAP1 PUSH2 0x38CC JUMP JUMPDEST SWAP1 SWAP2 SSTORE POP POP JUMPDEST POP POP DUP1 PUSH2 0x2A60 SWAP1 PUSH2 0x3655 JUMP JUMPDEST SWAP1 POP PUSH2 0x295F JUMP JUMPDEST POP DUP3 MLOAD PUSH1 0x1 SUB PUSH2 0x2AE7 JUMPI PUSH1 0x20 DUP4 ADD MLOAD PUSH0 SWAP1 PUSH1 0x20 DUP5 ADD MLOAD SWAP1 SWAP2 POP DUP6 PUSH1 0x1 PUSH1 0x1 PUSH1 0xA0 SHL SUB AND DUP8 PUSH1 0x1 PUSH1 0x1 PUSH1 0xA0 SHL SUB AND DUP5 PUSH1 0x1 PUSH1 0x1 PUSH1 0xA0 SHL SUB AND PUSH32 0xC3D58168C5AE7397731D063D5BBF3D657854427343F4C083240F7AACAA2D0F62 DUP6 DUP6 PUSH1 0x40 MLOAD PUSH2 0x2AD8 SWAP3 SWAP2 SWAP1 SWAP2 DUP3 MSTORE PUSH1 0x20 DUP3 ADD MSTORE PUSH1 0x40 ADD SWAP1 JUMP JUMPDEST PUSH1 0x40 MLOAD DUP1 SWAP2 SUB SWAP1 LOG4 POP POP PUSH2 0x19F2 JUMP JUMPDEST DUP4 PUSH1 0x1 PUSH1 0x1 PUSH1 0xA0 SHL SUB AND DUP6 PUSH1 0x1 PUSH1 0x1 PUSH1 0xA0 SHL SUB AND DUP3 PUSH1 0x1 PUSH1 0x1 PUSH1 0xA0 SHL SUB AND PUSH32 0x4A39DC06D4C0DBC64B70AF90FD698A233A518AA5D07E595D983B8C0526C8F7FB DUP7 DUP7 PUSH1 0x40 MLOAD PUSH2 0x2B36 SWAP3 SWAP2 SWAP1 PUSH2 0x38DF JUMP JUMPDEST PUSH1 0x40 MLOAD DUP1 SWAP2 SUB SWAP1 LOG4 POP POP POP POP POP JUMP JUMPDEST POP DUP1 SLOAD PUSH0 DUP3 SSTORE PUSH1 0x4 MUL SWAP1 PUSH0 MSTORE PUSH1 0x20 PUSH0 KECCAK256 SWAP1 DUP2 ADD SWAP1 PUSH2 0x764 SWAP2 SWAP1 JUMPDEST DUP1 DUP3 GT ISZERO PUSH2 0x2BA8 JUMPI PUSH0 PUSH2 0x2B72 DUP3 DUP3 PUSH2 0x2BAC JUMP JUMPDEST PUSH2 0x2B7F PUSH1 0x1 DUP4 ADD PUSH0 PUSH2 0x2BAC JUMP JUMPDEST PUSH1 0x2 DUP3 ADD DUP1 SLOAD PUSH8 0xFFFFFFFFFFFFFFFF NOT AND SWAP1 SSTORE PUSH2 0x2B9F PUSH1 0x3 DUP4 ADD PUSH0 PUSH2 0x2BAC JUMP JUMPDEST POP PUSH1 0x4 ADD PUSH2 0x2B5F JUMP JUMPDEST POP SWAP1 JUMP JUMPDEST POP DUP1 SLOAD PUSH2 0x2BB8 SWAP1 PUSH2 0x3522 JUMP JUMPDEST PUSH0 DUP3 SSTORE DUP1 PUSH1 0x1F LT PUSH2 0x2BC7 JUMPI POP POP JUMP JUMPDEST PUSH1 0x1F ADD PUSH1 0x20 SWAP1 DIV SWAP1 PUSH0 MSTORE PUSH1 0x20 PUSH0 KECCAK256 SWAP1 DUP2 ADD SWAP1 PUSH2 0x764 SWAP2 SWAP1 JUMPDEST DUP1 DUP3 GT ISZERO PUSH2 0x2BA8 JUMPI PUSH0 DUP2 SSTORE PUSH1 0x1 ADD PUSH2 0x2BDF JUMP JUMPDEST DUP1 CALLDATALOAD PUSH1 0x1 PUSH1 0x1 PUSH1 0xA0 SHL SUB DUP2 AND DUP2 EQ PUSH2 0x2C08 JUMPI PUSH0 DUP1 REVERT JUMPDEST SWAP2 SWAP1 POP JUMP JUMPDEST PUSH0 DUP1 PUSH1 0x40 DUP4 DUP6 SUB SLT ISZERO PUSH2 0x2C1E JUMPI PUSH0 DUP1 REVERT JUMPDEST PUSH2 0x2C27 DUP4 PUSH2 0x2BF2 JUMP JUMPDEST SWAP5 PUSH1 0x20 SWAP4 SWAP1 SWAP4 ADD CALLDATALOAD SWAP4 POP POP POP JUMP JUMPDEST PUSH1 0x1 PUSH1 0x1 PUSH1 0xE0 SHL SUB NOT DUP2 AND DUP2 EQ PUSH2 0x764 JUMPI PUSH0 DUP1 REVERT JUMPDEST PUSH0 PUSH1 0x20 DUP3 DUP5 SUB SLT ISZERO PUSH2 0x2C5A JUMPI PUSH0 DUP1 REVERT JUMPDEST DUP2 CALLDATALOAD PUSH2 0x1E7A DUP2 PUSH2 0x2C35 JUMP JUMPDEST PUSH4 0x4E487B71 PUSH1 0xE0 SHL PUSH0 MSTORE PUSH1 0x41 PUSH1 0x4 MSTORE PUSH1 0x24 PUSH0 REVERT JUMPDEST PUSH1 0x40 MLOAD PUSH1 0x1F DUP3 ADD PUSH1 0x1F NOT AND DUP2 ADD PUSH1 0x1 PUSH1 0x1 PUSH1 0x40 SHL SUB DUP2 GT DUP3 DUP3 LT OR ISZERO PUSH2 0x2CA1 JUMPI PUSH2 0x2CA1 PUSH2 0x2C65 JUMP JUMPDEST PUSH1 0x40 MSTORE SWAP2 SWAP1 POP JUMP JUMPDEST PUSH0 DUP3 PUSH1 0x1F DUP4 ADD SLT PUSH2 0x2CB8 JUMPI PUSH0 DUP1 REVERT JUMPDEST DUP2 CALLDATALOAD PUSH1 0x1 PUSH1 0x1 PUSH1 0x40 SHL SUB DUP2 GT ISZERO PUSH2 0x2CD1 JUMPI PUSH2 0x2CD1 PUSH2 0x2C65 JUMP JUMPDEST PUSH2 0x2CE4 PUSH1 0x1F DUP3 ADD PUSH1 0x1F NOT AND PUSH1 0x20 ADD PUSH2 0x2C79 JUMP JUMPDEST DUP2 DUP2 MSTORE DUP5 PUSH1 0x20 DUP4 DUP7 ADD ADD GT ISZERO PUSH2 0x2CF8 JUMPI PUSH0 DUP1 REVERT JUMPDEST DUP2 PUSH1 0x20 DUP6 ADD PUSH1 0x20 DUP4 ADD CALLDATACOPY PUSH0 SWAP2 DUP2 ADD PUSH1 0x20 ADD SWAP2 SWAP1 SWAP2 MSTORE SWAP4 SWAP3 POP POP POP JUMP JUMPDEST PUSH0 PUSH1 0x20 DUP3 DUP5 SUB SLT ISZERO PUSH2 0x2D24 JUMPI PUSH0 DUP1 REVERT JUMPDEST DUP2 CALLDATALOAD PUSH1 0x1 PUSH1 0x1 PUSH1 0x40 SHL SUB DUP2 GT ISZERO PUSH2 0x2D39 JUMPI PUSH0 DUP1 REVERT JUMPDEST PUSH2 0x2D45 DUP5 DUP3 DUP6 ADD PUSH2 0x2CA9 JUMP JUMPDEST SWAP5 SWAP4 POP POP POP POP JUMP JUMPDEST PUSH0 DUP2 MLOAD DUP1 DUP5 MSTORE PUSH0 JUMPDEST DUP2 DUP2 LT ISZERO PUSH2 0x2D71 JUMPI PUSH1 0x20 DUP2 DUP6 ADD DUP2 ADD MLOAD DUP7 DUP4 ADD DUP3 ADD MSTORE ADD PUSH2 0x2D55 JUMP JUMPDEST POP PUSH0 PUSH1 0x20 DUP3 DUP7 ADD ADD MSTORE PUSH1 0x20 PUSH1 0x1F NOT PUSH1 0x1F DUP4 ADD AND DUP6 ADD ADD SWAP2 POP POP SWAP3 SWAP2 POP POP JUMP JUMPDEST PUSH1 0x20 DUP2 MSTORE PUSH0 PUSH2 0x1E7A PUSH1 0x20 DUP4 ADD DUP5 PUSH2 0x2D4D JUMP JUMPDEST PUSH0 PUSH1 0x20 DUP3 DUP5 SUB SLT ISZERO PUSH2 0x2DB2 JUMPI PUSH0 DUP1 REVERT JUMPDEST POP CALLDATALOAD SWAP2 SWAP1 POP JUMP JUMPDEST PUSH0 DUP1 PUSH0 PUSH1 0x60 DUP5 DUP7 SUB SLT ISZERO PUSH2 0x2DCB JUMPI PUSH0 DUP1 REVERT JUMPDEST PUSH2 0x2DD4 DUP5 PUSH2 0x2BF2 JUMP JUMPDEST SWAP3 POP PUSH1 0x20 DUP5 ADD CALLDATALOAD SWAP2 POP PUSH1 0x40 DUP5 ADD CALLDATALOAD PUSH1 0x1 PUSH1 0x1 PUSH1 0x40 SHL SUB DUP2 GT ISZERO PUSH2 0x2DF5 JUMPI PUSH0 DUP1 REVERT JUMPDEST PUSH2 0x2E01 DUP7 DUP3 DUP8 ADD PUSH2 0x2CA9 JUMP JUMPDEST SWAP2 POP POP SWAP3 POP SWAP3 POP SWAP3 JUMP JUMPDEST PUSH0 PUSH1 0x1 PUSH1 0x1 PUSH1 0x40 SHL SUB DUP3 GT ISZERO PUSH2 0x2E23 JUMPI PUSH2 0x2E23 PUSH2 0x2C65 JUMP JUMPDEST POP PUSH1 0x5 SHL PUSH1 0x20 ADD SWAP1 JUMP JUMPDEST PUSH0 DUP3 PUSH1 0x1F DUP4 ADD SLT PUSH2 0x2E3C JUMPI PUSH0 DUP1 REVERT JUMPDEST DUP2 CALLDATALOAD PUSH1 0x20 PUSH2 0x2E51 PUSH2 0x2E4C DUP4 PUSH2 0x2E0B JUMP JUMPDEST PUSH2 0x2C79 JUMP JUMPDEST DUP3 DUP2 MSTORE PUSH1 0x5 SWAP3 SWAP1 SWAP3 SHL DUP5 ADD DUP2 ADD SWAP2 DUP2 DUP2 ADD SWAP1 DUP7 DUP5 GT ISZERO PUSH2 0x2E6F JUMPI PUSH0 DUP1 REVERT JUMPDEST DUP3 DUP7 ADD JUMPDEST DUP5 DUP2 LT ISZERO PUSH2 0x2E8A JUMPI DUP1 CALLDATALOAD DUP4 MSTORE SWAP2 DUP4 ADD SWAP2 DUP4 ADD PUSH2 0x2E73 JUMP JUMPDEST POP SWAP7 SWAP6 POP POP POP POP POP POP JUMP JUMPDEST PUSH0 DUP1 PUSH0 DUP1 PUSH0 PUSH1 0xA0 DUP7 DUP9 SUB SLT ISZERO PUSH2 0x2EA9 JUMPI PUSH0 DUP1 REVERT JUMPDEST PUSH2 0x2EB2 DUP7 PUSH2 0x2BF2 JUMP JUMPDEST SWAP5 POP PUSH2 0x2EC0 PUSH1 0x20 DUP8 ADD PUSH2 0x2BF2 JUMP JUMPDEST SWAP4 POP PUSH1 0x40 DUP7 ADD CALLDATALOAD PUSH1 0x1 PUSH1 0x1 PUSH1 0x40 SHL SUB DUP1 DUP3 GT ISZERO PUSH2 0x2EDB JUMPI PUSH0 DUP1 REVERT JUMPDEST PUSH2 0x2EE7 DUP10 DUP4 DUP11 ADD PUSH2 0x2E2D JUMP JUMPDEST SWAP5 POP PUSH1 0x60 DUP9 ADD CALLDATALOAD SWAP2 POP DUP1 DUP3 GT ISZERO PUSH2 0x2EFC JUMPI PUSH0 DUP1 REVERT JUMPDEST PUSH2 0x2F08 DUP10 DUP4 DUP11 ADD PUSH2 0x2E2D JUMP JUMPDEST SWAP4 POP PUSH1 0x80 DUP9 ADD CALLDATALOAD SWAP2 POP DUP1 DUP3 GT ISZERO PUSH2 0x2F1D JUMPI PUSH0 DUP1 REVERT JUMPDEST POP PUSH2 0x2F2A DUP9 DUP3 DUP10 ADD PUSH2 0x2CA9 JUMP JUMPDEST SWAP2 POP POP SWAP3 SWAP6 POP SWAP3 SWAP6 SWAP1 SWAP4 POP JUMP JUMPDEST PUSH0 DUP1 PUSH0 PUSH1 0x60 DUP5 DUP7 SUB SLT ISZERO PUSH2 0x2F49 JUMPI PUSH0 DUP1 REVERT JUMPDEST PUSH2 0x2F52 DUP5 PUSH2 0x2BF2 JUMP JUMPDEST SWAP6 PUSH1 0x20 DUP6 ADD CALLDATALOAD SWAP6 POP PUSH1 0x40 SWAP1 SWAP5 ADD CALLDATALOAD SWAP4 SWAP3 POP POP POP JUMP JUMPDEST PUSH1 0x80 DUP2 MSTORE PUSH0 PUSH2 0x2F79 PUSH1 0x80 DUP4 ADD DUP8 PUSH2 0x2D4D JUMP JUMPDEST DUP3 DUP2 SUB PUSH1 0x20 DUP5 ADD MSTORE PUSH2 0x2F8B DUP2 DUP8 PUSH2 0x2D4D JUMP JUMPDEST SWAP1 POP PUSH1 0x1 PUSH1 0x1 PUSH1 0x40 SHL SUB DUP6 AND PUSH1 0x40 DUP5 ADD MSTORE DUP3 DUP2 SUB PUSH1 0x60 DUP5 ADD MSTORE PUSH2 0x2FAE DUP2 DUP6 PUSH2 0x2D4D JUMP JUMPDEST SWAP8 SWAP7 POP POP POP POP POP POP POP JUMP JUMPDEST PUSH0 PUSH1 0x20 DUP3 DUP5 SUB SLT ISZERO PUSH2 0x2FC9 JUMPI PUSH0 DUP1 REVERT JUMPDEST PUSH2 0x1E7A DUP3 PUSH2 0x2BF2 JUMP JUMPDEST PUSH0 DUP2 MLOAD DUP1 DUP5 MSTORE PUSH1 0x20 DUP1 DUP6 ADD SWAP5 POP DUP1 DUP5 ADD PUSH0 JUMPDEST DUP4 DUP2 LT ISZERO PUSH2 0x3000 JUMPI DUP2 MLOAD DUP8 MSTORE SWAP6 DUP3 ADD SWAP6 SWAP1 DUP3 ADD SWAP1 PUSH1 0x1 ADD PUSH2 0x2FE4 JUMP JUMPDEST POP SWAP5 SWAP6 SWAP5 POP POP POP POP POP JUMP JUMPDEST PUSH1 0x20 DUP2 MSTORE PUSH0 PUSH2 0x1E7A PUSH1 0x20 DUP4 ADD DUP5 PUSH2 0x2FD2 JUMP JUMPDEST PUSH0 DUP1 PUSH1 0x40 DUP4 DUP6 SUB SLT ISZERO PUSH2 0x302E JUMPI PUSH0 DUP1 REVERT JUMPDEST DUP3 CALLDATALOAD PUSH1 0x1 PUSH1 0x1 PUSH1 0x40 SHL SUB DUP1 DUP3 GT ISZERO PUSH2 0x3044 JUMPI PUSH0 DUP1 REVERT JUMPDEST DUP2 DUP6 ADD SWAP2 POP DUP6 PUSH1 0x1F DUP4 ADD SLT PUSH2 0x3057 JUMPI PUSH0 DUP1 REVERT JUMPDEST DUP2 CALLDATALOAD PUSH1 0x20 PUSH2 0x3067 PUSH2 0x2E4C DUP4 PUSH2 0x2E0B JUMP JUMPDEST DUP3 DUP2 MSTORE PUSH1 0x5 SWAP3 SWAP1 SWAP3 SHL DUP5 ADD DUP2 ADD SWAP2 DUP2 DUP2 ADD SWAP1 DUP10 DUP5 GT ISZERO PUSH2 0x3085 JUMPI PUSH0 DUP1 REVERT JUMPDEST SWAP5 DUP3 ADD SWAP5 JUMPDEST DUP4 DUP7 LT ISZERO PUSH2 0x30AA JUMPI PUSH2 0x309B DUP7 PUSH2 0x2BF2 JUMP JUMPDEST DUP3 MSTORE SWAP5 DUP3 ADD SWAP5 SWAP1 DUP3 ADD SWAP1 PUSH2 0x308A JUMP JUMPDEST SWAP7 POP POP DUP7 ADD CALLDATALOAD SWAP3 POP POP DUP1 DUP3 GT ISZERO PUSH2 0x30BF JUMPI PUSH0 DUP1 REVERT JUMPDEST POP PUSH2 0x30CC DUP6 DUP3 DUP7 ADD PUSH2 0x2E2D JUMP JUMPDEST SWAP2 POP POP SWAP3 POP SWAP3 SWAP1 POP JUMP JUMPDEST PUSH0 DUP1 PUSH0 DUP1 PUSH0 PUSH1 0xA0 DUP7 DUP9 SUB SLT ISZERO PUSH2 0x30EA JUMPI PUSH0 DUP1 REVERT JUMPDEST PUSH2 0x30F3 DUP7 PUSH2 0x2BF2 JUMP JUMPDEST SWAP5 POP PUSH1 0x20 DUP7 ADD CALLDATALOAD SWAP4 POP PUSH1 0x40 DUP7 ADD CALLDATALOAD PUSH1 0x1 PUSH1 0x1 PUSH1 0x40 SHL SUB DUP1 DUP3 GT ISZERO PUSH2 0x3115 JUMPI PUSH0 DUP1 REVERT JUMPDEST PUSH2 0x3121 DUP10 DUP4 DUP11 ADD PUSH2 0x2CA9 JUMP JUMPDEST SWAP5 POP PUSH1 0x60 DUP9 ADD CALLDATALOAD SWAP2 POP DUP1 DUP3 GT ISZERO PUSH2 0x3136 JUMPI PUSH0 DUP1 REVERT JUMPDEST PUSH2 0x2F08 DUP10 DUP4 DUP11 ADD PUSH2 0x2CA9 JUMP JUMPDEST PUSH0 DUP1 PUSH0 PUSH1 0x60 DUP5 DUP7 SUB SLT ISZERO PUSH2 0x3154 JUMPI PUSH0 DUP1 REVERT JUMPDEST PUSH2 0x315D DUP5 PUSH2 0x2BF2 JUMP JUMPDEST SWAP3 POP PUSH1 0x20 DUP5 ADD CALLDATALOAD PUSH1 0x1 PUSH1 0x1 PUSH1 0x40 SHL SUB DUP1 DUP3 GT ISZERO PUSH2 0x3178 JUMPI PUSH0 DUP1 REVERT JUMPDEST PUSH2 0x3184 DUP8 DUP4 DUP9 ADD PUSH2 0x2E2D JUMP JUMPDEST SWAP4 POP PUSH1 0x40 DUP7 ADD CALLDATALOAD SWAP2 POP DUP1 DUP3 GT ISZERO PUSH2 0x3199 JUMPI PUSH0 DUP1 REVERT JUMPDEST POP PUSH2 0x2E01 DUP7 DUP3 DUP8 ADD PUSH2 0x2CA9 JUMP JUMPDEST DUP1 CALLDATALOAD PUSH1 0xFF DUP2 AND DUP2 EQ PUSH2 0x2C08 JUMPI PUSH0 DUP1 REVERT JUMPDEST PUSH0 DUP1 PUSH0 DUP1 PUSH1 0x80 DUP6 DUP8 SUB SLT ISZERO PUSH2 0x31C9 JUMPI PUSH0 DUP1 REVERT JUMPDEST PUSH2 0x31D2 DUP6 PUSH2 0x2BF2 JUMP JUMPDEST SWAP4 POP PUSH1 0x20 DUP6 ADD CALLDATALOAD SWAP3 POP PUSH2 0x31E7 PUSH1 0x40 DUP7 ADD PUSH2 0x31A6 JUMP JUMPDEST SWAP2 POP PUSH1 0x60 DUP6 ADD CALLDATALOAD PUSH1 0x1 PUSH1 0x1 PUSH1 0x40 SHL SUB DUP2 GT ISZERO PUSH2 0x3201 JUMPI PUSH0 DUP1 REVERT JUMPDEST PUSH2 0x320D DUP8 DUP3 DUP9 ADD PUSH2 0x2CA9 JUMP JUMPDEST SWAP2 POP POP SWAP3 SWAP6 SWAP2 SWAP5 POP SWAP3 POP JUMP JUMPDEST PUSH0 DUP1 PUSH0 DUP1 PUSH1 0x80 DUP6 DUP8 SUB SLT ISZERO PUSH2 0x322C JUMPI PUSH0 DUP1 REVERT JUMPDEST PUSH2 0x3235 DUP6 PUSH2 0x2BF2 JUMP JUMPDEST SWAP4 POP PUSH1 0x20 DUP1 DUP7 ADD CALLDATALOAD PUSH1 0x1 PUSH1 0x1 PUSH1 0x40 SHL SUB DUP1 DUP3 GT ISZERO PUSH2 0x3251 JUMPI PUSH0 DUP1 REVERT JUMPDEST PUSH2 0x325D DUP10 DUP4 DUP11 ADD PUSH2 0x2E2D JUMP JUMPDEST SWAP6 POP PUSH1 0x40 DUP9 ADD CALLDATALOAD SWAP2 POP DUP1 DUP3 GT ISZERO PUSH2 0x3272 JUMPI PUSH0 DUP1 REVERT JUMPDEST DUP2 DUP9 ADD SWAP2 POP DUP9 PUSH1 0x1F DUP4 ADD SLT PUSH2 0x3285 JUMPI PUSH0 DUP1 REVERT JUMPDEST DUP2 CALLDATALOAD PUSH2 0x3293 PUSH2 0x2E4C DUP3 PUSH2 0x2E0B JUMP JUMPDEST DUP2 DUP2 MSTORE PUSH1 0x5 SWAP2 SWAP1 SWAP2 SHL DUP4 ADD DUP5 ADD SWAP1 DUP5 DUP2 ADD SWAP1 DUP12 DUP4 GT ISZERO PUSH2 0x32B1 JUMPI PUSH0 DUP1 REVERT JUMPDEST SWAP4 DUP6 ADD SWAP4 JUMPDEST DUP3 DUP6 LT ISZERO PUSH2 0x32D6 JUMPI PUSH2 0x32C7 DUP6 PUSH2 0x31A6 JUMP JUMPDEST DUP3 MSTORE SWAP4 DUP6 ADD SWAP4 SWAP1 DUP6 ADD SWAP1 PUSH2 0x32B6 JUMP JUMPDEST SWAP7 POP POP POP PUSH1 0x60 DUP9 ADD CALLDATALOAD SWAP3 POP DUP1 DUP4 GT ISZERO PUSH2 0x32ED JUMPI PUSH0 DUP1 REVERT JUMPDEST POP POP PUSH2 0x320D DUP8 DUP3 DUP9 ADD PUSH2 0x2CA9 JUMP JUMPDEST PUSH0 DUP1 PUSH1 0x40 DUP4 DUP6 SUB SLT ISZERO PUSH2 0x330C JUMPI PUSH0 DUP1 REVERT JUMPDEST PUSH2 0x3315 DUP4 PUSH2 0x2BF2 JUMP JUMPDEST SWAP2 POP PUSH1 0x20 DUP4 ADD CALLDATALOAD DUP1 ISZERO ISZERO DUP2 EQ PUSH2 0x3329 JUMPI PUSH0 DUP1 REVERT JUMPDEST DUP1 SWAP2 POP POP SWAP3 POP SWAP3 SWAP1 POP JUMP JUMPDEST PUSH0 DUP1 PUSH1 0x40 DUP4 DUP6 SUB SLT ISZERO PUSH2 0x3345 JUMPI PUSH0 DUP1 REVERT JUMPDEST DUP3 CALLDATALOAD SWAP2 POP PUSH1 0x20 DUP4 ADD CALLDATALOAD PUSH1 0x1 PUSH1 0x1 PUSH1 0x40 SHL SUB DUP2 GT ISZERO PUSH2 0x3361 JUMPI PUSH0 DUP1 REVERT JUMPDEST PUSH2 0x30CC DUP6 DUP3 DUP7 ADD PUSH2 0x2CA9 JUMP JUMPDEST PUSH0 DUP1 PUSH1 0x40 DUP4 DUP6 SUB SLT ISZERO PUSH2 0x337E JUMPI PUSH0 DUP1 REVERT JUMPDEST DUP3 CALLDATALOAD SWAP2 POP PUSH2 0x338E PUSH1 0x20 DUP5 ADD PUSH2 0x31A6 JUMP JUMPDEST SWAP1 POP SWAP3 POP SWAP3 SWAP1 POP JUMP JUMPDEST PUSH1 0x20 DUP2 MSTORE PUSH0 DUP3 MLOAD PUSH1 0x80 PUSH1 0x20 DUP5 ADD MSTORE PUSH2 0x33B2 PUSH1 0xA0 DUP5 ADD DUP3 PUSH2 0x2D4D JUMP JUMPDEST SWAP1 POP PUSH1 0x20 DUP5 ADD MLOAD PUSH1 0x1F NOT DUP1 DUP6 DUP5 SUB ADD PUSH1 0x40 DUP7 ADD MSTORE PUSH2 0x33D0 DUP4 DUP4 PUSH2 0x2D4D JUMP JUMPDEST SWAP3 POP PUSH1 0x1 PUSH1 0x1 PUSH1 0x40 SHL SUB PUSH1 0x40 DUP8 ADD MLOAD AND PUSH1 0x60 DUP7 ADD MSTORE PUSH1 0x60 DUP7 ADD MLOAD SWAP2 POP DUP1 DUP6 DUP5 SUB ADD PUSH1 0x80 DUP7 ADD MSTORE POP PUSH2 0x3401 DUP3 DUP3 PUSH2 0x2D4D JUMP JUMPDEST SWAP6 SWAP5 POP POP POP POP POP JUMP JUMPDEST PUSH1 0x60 DUP2 MSTORE PUSH0 PUSH2 0x341C PUSH1 0x60 DUP4 ADD DUP7 PUSH2 0x2FD2 JUMP JUMPDEST DUP3 DUP2 SUB PUSH1 0x20 DUP5 DUP2 ADD SWAP2 SWAP1 SWAP2 MSTORE DUP6 MLOAD DUP1 DUP4 MSTORE DUP7 DUP3 ADD SWAP3 DUP3 ADD SWAP1 PUSH0 JUMPDEST DUP2 DUP2 LT ISZERO PUSH2 0x3455 JUMPI DUP5 MLOAD PUSH1 0xFF AND DUP4 MSTORE SWAP4 DUP4 ADD SWAP4 SWAP2 DUP4 ADD SWAP2 PUSH1 0x1 ADD PUSH2 0x3436 JUMP JUMPDEST POP POP DUP5 DUP2 SUB PUSH1 0x40 DUP7 ADD MSTORE DUP6 MLOAD DUP1 DUP3 MSTORE SWAP1 DUP3 ADD SWAP3 POP DUP2 DUP7 ADD SWAP1 PUSH0 JUMPDEST DUP2 DUP2 LT ISZERO PUSH2 0x348D JUMPI DUP3 MLOAD ISZERO ISZERO DUP6 MSTORE SWAP4 DUP4 ADD SWAP4 SWAP2 DUP4 ADD SWAP2 PUSH1 0x1 ADD PUSH2 0x346F JUMP JUMPDEST POP SWAP3 SWAP9 SWAP8 POP POP POP POP POP POP POP POP JUMP JUMPDEST PUSH0 DUP1 PUSH1 0x40 DUP4 DUP6 SUB SLT ISZERO PUSH2 0x34AC JUMPI PUSH0 DUP1 REVERT JUMPDEST PUSH2 0x34B5 DUP4 PUSH2 0x2BF2 JUMP JUMPDEST SWAP2 POP PUSH2 0x338E PUSH1 0x20 DUP5 ADD PUSH2 0x2BF2 JUMP JUMPDEST PUSH0 DUP1 PUSH0 DUP1 PUSH0 PUSH1 0xA0 DUP7 DUP9 SUB SLT ISZERO PUSH2 0x34D7 JUMPI PUSH0 DUP1 REVERT JUMPDEST PUSH2 0x34E0 DUP7 PUSH2 0x2BF2 JUMP JUMPDEST SWAP5 POP PUSH2 0x34EE PUSH1 0x20 DUP8 ADD PUSH2 0x2BF2 JUMP JUMPDEST SWAP4 POP PUSH1 0x40 DUP7 ADD CALLDATALOAD SWAP3 POP PUSH1 0x60 DUP7 ADD CALLDATALOAD SWAP2 POP PUSH1 0x80 DUP7 ADD CALLDATALOAD PUSH1 0x1 PUSH1 0x1 PUSH1 0x40 SHL SUB DUP2 GT ISZERO PUSH2 0x3516 JUMPI PUSH0 DUP1 REVERT JUMPDEST PUSH2 0x2F2A DUP9 DUP3 DUP10 ADD PUSH2 0x2CA9 JUMP JUMPDEST PUSH1 0x1 DUP2 DUP2 SHR SWAP1 DUP3 AND DUP1 PUSH2 0x3536 JUMPI PUSH1 0x7F DUP3 AND SWAP2 POP JUMPDEST PUSH1 0x20 DUP3 LT DUP2 SUB PUSH2 0x3554 JUMPI PUSH4 0x4E487B71 PUSH1 0xE0 SHL PUSH0 MSTORE PUSH1 0x22 PUSH1 0x4 MSTORE PUSH1 0x24 PUSH0 REVERT JUMPDEST POP SWAP2 SWAP1 POP JUMP JUMPDEST PUSH1 0x20 DUP1 DUP3 MSTORE PUSH1 0x10 SWAP1 DUP3 ADD MSTORE PUSH16 0x125B9D985B1A590819D95B9C99481251 PUSH1 0x82 SHL PUSH1 0x40 DUP3 ADD MSTORE PUSH1 0x60 ADD SWAP1 JUMP JUMPDEST PUSH1 0x20 DUP1 DUP3 MSTORE PUSH1 0x14 SWAP1 DUP3 ADD MSTORE PUSH20 0x426164676520616C726561647920657869737473 PUSH1 0x60 SHL PUSH1 0x40 DUP3 ADD MSTORE PUSH1 0x60 ADD SWAP1 JUMP JUMPDEST PUSH1 0x40 DUP2 MSTORE PUSH0 DUP1 DUP5 SLOAD PUSH2 0x35C3 DUP2 PUSH2 0x3522 JUMP JUMPDEST DUP1 PUSH1 0x40 DUP7 ADD MSTORE PUSH1 0x60 PUSH1 0x1 DUP1 DUP5 AND PUSH0 DUP2 EQ PUSH2 0x35E4 JUMPI PUSH1 0x1 DUP2 EQ PUSH2 0x35FE JUMPI PUSH2 0x362C JUMP JUMPDEST PUSH1 0xFF NOT DUP6 AND DUP9 DUP5 ADD MSTORE DUP4 ISZERO ISZERO PUSH1 0x5 SHL DUP9 ADD DUP4 ADD SWAP6 POP PUSH2 0x362C JUMP JUMPDEST DUP10 PUSH0 MSTORE PUSH1 0x20 DUP1 PUSH0 KECCAK256 PUSH0 JUMPDEST DUP7 DUP2 LT ISZERO PUSH2 0x3623 JUMPI DUP2 SLOAD DUP12 DUP3 ADD DUP8 ADD MSTORE SWAP1 DUP5 ADD SWAP1 DUP3 ADD PUSH2 0x3608 JUMP JUMPDEST DUP11 ADD DUP6 ADD SWAP8 POP POP POP JUMPDEST POP POP POP POP PUSH1 0xFF DUP6 AND PUSH1 0x20 DUP6 ADD MSTORE POP SWAP1 POP PUSH2 0x1E7A JUMP JUMPDEST PUSH4 0x4E487B71 PUSH1 0xE0 SHL PUSH0 MSTORE PUSH1 0x11 PUSH1 0x4 MSTORE PUSH1 0x24 PUSH0 REVERT JUMPDEST PUSH0 PUSH1 0x1 DUP3 ADD PUSH2 0x3666 JUMPI PUSH2 0x3666 PUSH2 0x3641 JUMP JUMPDEST POP PUSH1 0x1 ADD SWAP1 JUMP JUMPDEST PUSH4 0x4E487B71 PUSH1 0xE0 SHL PUSH0 MSTORE PUSH1 0x32 PUSH1 0x4 MSTORE PUSH1 0x24 PUSH0 REVERT JUMPDEST PUSH1 0x1 PUSH1 0x1 PUSH1 0x40 SHL SUB DUP2 DUP2 AND DUP4 DUP3 AND ADD SWAP1 DUP1 DUP3 GT ISZERO PUSH2 0x36A1 JUMPI PUSH2 0x36A1 PUSH2 0x3641 JUMP JUMPDEST POP SWAP3 SWAP2 POP POP JUMP JUMPDEST PUSH1 0x20 DUP1 DUP3 MSTORE PUSH1 0xF SWAP1 DUP3 ADD MSTORE PUSH15 0x10985919D9481B9BDD081BDDDB9959 PUSH1 0x8A SHL PUSH1 0x40 DUP3 ADD MSTORE PUSH1 0x60 ADD SWAP1 JUMP JUMPDEST PUSH1 0x1F DUP3 GT ISZERO PUSH2 0xE2E JUMPI PUSH0 DUP2 DUP2 MSTORE PUSH1 0x20 DUP2 KECCAK256 PUSH1 0x1F DUP6 ADD PUSH1 0x5 SHR DUP2 ADD PUSH1 0x20 DUP7 LT ISZERO PUSH2 0x36F7 JUMPI POP DUP1 JUMPDEST PUSH1 0x1F DUP6 ADD PUSH1 0x5 SHR DUP3 ADD SWAP2 POP JUMPDEST DUP2 DUP2 LT ISZERO PUSH2 0xA41 JUMPI DUP3 DUP2 SSTORE PUSH1 0x1 ADD PUSH2 0x3703 JUMP JUMPDEST DUP2 MLOAD PUSH1 0x1 PUSH1 0x1 PUSH1 0x40 SHL SUB DUP2 GT ISZERO PUSH2 0x372F JUMPI PUSH2 0x372F PUSH2 0x2C65 JUMP JUMPDEST PUSH2 0x3743 DUP2 PUSH2 0x373D DUP5 SLOAD PUSH2 0x3522 JUMP JUMPDEST DUP5 PUSH2 0x36D1 JUMP JUMPDEST PUSH1 0x20 DUP1 PUSH1 0x1F DUP4 GT PUSH1 0x1 DUP2 EQ PUSH2 0x3776 JUMPI PUSH0 DUP5 ISZERO PUSH2 0x375F JUMPI POP DUP6 DUP4 ADD MLOAD JUMPDEST PUSH0 NOT PUSH1 0x3 DUP7 SWAP1 SHL SHR NOT AND PUSH1 0x1 DUP6 SWAP1 SHL OR DUP6 SSTORE PUSH2 0xA41 JUMP JUMPDEST PUSH0 DUP6 DUP2 MSTORE PUSH1 0x20 DUP2 KECCAK256 PUSH1 0x1F NOT DUP7 AND SWAP2 JUMPDEST DUP3 DUP2 LT ISZERO PUSH2 0x37A4 JUMPI DUP9 DUP7 ADD MLOAD DUP3 SSTORE SWAP5 DUP5 ADD SWAP5 PUSH1 0x1 SWAP1 SWAP2 ADD SWAP1 DUP5 ADD PUSH2 0x3785 JUMP JUMPDEST POP DUP6 DUP3 LT ISZERO PUSH2 0x37C1 JUMPI DUP8 DUP6 ADD MLOAD PUSH0 NOT PUSH1 0x3 DUP9 SWAP1 SHL PUSH1 0xF8 AND SHR NOT AND DUP2 SSTORE JUMPDEST POP POP POP POP POP PUSH1 0x1 SWAP1 DUP2 SHL ADD SWAP1 SSTORE POP JUMP JUMPDEST PUSH1 0x40 DUP2 MSTORE PUSH0 PUSH2 0x37E3 PUSH1 0x40 DUP4 ADD DUP6 PUSH2 0x2D4D JUMP JUMPDEST DUP3 DUP2 SUB PUSH1 0x20 DUP5 ADD MSTORE PUSH2 0x3401 DUP2 DUP6 PUSH2 0x2D4D JUMP JUMPDEST PUSH1 0x20 DUP1 DUP3 MSTORE PUSH1 0xC SWAP1 DUP3 ADD MSTORE PUSH12 0x24B73B30B634B2103A34B2B9 PUSH1 0xA1 SHL PUSH1 0x40 DUP3 ADD MSTORE PUSH1 0x60 ADD SWAP1 JUMP JUMPDEST PUSH1 0x1 PUSH1 0x1 PUSH1 0xA0 SHL SUB DUP7 DUP2 AND DUP3 MSTORE DUP6 AND PUSH1 0x20 DUP3 ADD MSTORE PUSH1 0x40 DUP2 ADD DUP5 SWAP1 MSTORE PUSH1 0x60 DUP2 ADD DUP4 SWAP1 MSTORE PUSH1 0xA0 PUSH1 0x80 DUP3 ADD DUP2 SWAP1 MSTORE PUSH0 SWAP1 PUSH2 0x2FAE SWAP1 DUP4 ADD DUP5 PUSH2 0x2D4D JUMP JUMPDEST PUSH0 PUSH1 0x20 DUP3 DUP5 SUB SLT ISZERO PUSH2 0x3864 JUMPI PUSH0 DUP1 REVERT JUMPDEST DUP2 MLOAD PUSH2 0x1E7A DUP2 PUSH2 0x2C35 JUMP JUMPDEST PUSH1 0x1 PUSH1 0x1 PUSH1 0xA0 SHL SUB DUP7 DUP2 AND DUP3 MSTORE DUP6 AND PUSH1 0x20 DUP3 ADD MSTORE PUSH1 0xA0 PUSH1 0x40 DUP3 ADD DUP2 SWAP1 MSTORE PUSH0 SWAP1 PUSH2 0x389A SWAP1 DUP4 ADD DUP7 PUSH2 0x2FD2 JUMP JUMPDEST DUP3 DUP2 SUB PUSH1 0x60 DUP5 ADD MSTORE PUSH2 0x38AC DUP2 DUP7 PUSH2 0x2FD2 JUMP JUMPDEST SWAP1 POP DUP3 DUP2 SUB PUSH1 0x80 DUP5 ADD MSTORE PUSH2 0x38C0 DUP2 DUP6 PUSH2 0x2D4D JUMP JUMPDEST SWAP9 SWAP8 POP POP POP POP POP POP POP POP JUMP JUMPDEST DUP1 DUP3 ADD DUP1 DUP3 GT ISZERO PUSH2 0x6FE JUMPI PUSH2 0x6FE PUSH2 0x3641 JUMP JUMPDEST PUSH1 0x40 DUP2 MSTORE PUSH0 PUSH2 0x38F1 PUSH1 0x40 DUP4 ADD DUP6 PUSH2 0x2FD2 JUMP JUMPDEST DUP3 DUP2 SUB PUSH1 0x20 DUP5 ADD MSTORE PUSH2 0x3401 DUP2 DUP6 PUSH2 0x2FD2 JUMP INVALID 0xEE LOG0 PUSH26 0xFECEA4873AEDE971DF0E085EAADFB8311FC3B73BDB10A9469EA7 0xD1 SWAP3 0x27 LOG2 PUSH5 0x6970667358 0x22 SLT KECCAK256 COINBASE 0xA7 0xCD RETURN 0xBB 0xC2 SAR JUMPDEST 0x27 0xD7 CALLER 0xEA 0xAB 0x29 0xB2 0xC4 0xED SWAP7 SGT SMOD 0xDC 0xC9 0x2D MLOAD 0xF 0xCD 0xA5 0xD6 0xAD DELEGATECALL CREATE SWAP1 PUSH5 0x736F6C6343 STOP ADDMOD EQ STOP CALLER "},"methodIdentifiers":{"MAX_GENRE_ID()":"69d11c55","STATUS_ACTIVE()":"4389cc22","STATUS_INACTIVE()":"02429742","TIER_ENTRY()":"f7486960","TIER_OG()":"c71c37d1","TIER_VETERAN()":"b5fa9642","VERIFICATION_VALIDITY()":"cb2b50cd","actionProofs(address,uint256,uint256)":"311e2f50","addActionProof(address,uint256,string,string,string)":"78537024","badgeInfo(address,uint256)":"d4c19e33","balanceOf(address,uint256)":"00fdd58e","balanceOfBatch(address[],uint256[])":"4e1273f4","burnBadge(uint256)":"55de28ae","checkAllBadgesDecay(address)":"47f03f6a","checkAndDecayBadge(address,uint256)":"417b9942","checkBadge(address,uint256)":"5982fefe","exists(uint256)":"4f558e79","genreNames(uint256)":"f45fb6b5","getActionProof(address,uint256,uint256)":"d235deb3","getActionProofCount(address,uint256)":"7f6feb6a","getActiveBadgesWithInfo(address)":"d5325487","getBadgeInfo(address,uint256)":"ff4181be","getBadgeStatus(address,uint256)":"cd85336e","getUserBadges(address)":"37c245fe","hasBadge(address,uint256)":"4c6a70ce","isApprovedForAll(address,address)":"e985e9c5","mintBadge(address,uint256,bytes)":"29efcf80","mintBatchBadges(address,uint256[],bytes)":"79bb0519","mintBatchTieredBadges(address,uint256[],uint8[],bytes)":"9fa76c93","mintTieredBadge(address,uint256,uint8,bytes)":"8129782e","name()":"06fdde03","owner()":"8da5cb5b","refreshBadge(uint256,uint8)":"d040fd11","renounceOwnership()":"715018a6","safeBatchTransferFrom(address,address,uint256[],uint256[],bytes)":"2eb2c2d6","safeTransferFrom(address,address,uint256,uint256,bytes)":"f242432a","setApprovalForAll(address,bool)":"a22cb465","setGenreName(uint256,string)":"cc18eadc","setURI(string)":"02fe5305","supportsInterface(bytes4)":"01ffc9a7","symbol()":"95d89b41","totalSupply()":"18160ddd","totalSupply(uint256)":"bd85b039","transferOwnership(address)":"f2fde38b","uri(uint256)":"0e89341c"}}}}}