{"project/contracts/MusicConsensusSBTV4.sol":{"MusicConsensusSBTV4":{"abi":[{"inputs":[{"internalType":"address","name":"initialOwner","type":"address"},{"internalType":"string","name":"baseUri","type":"string"},{"internalType":"address","name":"_reclaimAddress","type":"address"},{"internalType":"address","name":"_vibeTokenAddress","type":"address"}],"stateMutability":"nonpayable","type":"constructor"},{"inputs":[{"internalType":"address","name":"sender","type":"address"},{"internalType":"uint256","name":"balance","type":"uint256"},{"internalType":"uint256","name":"needed","type":"uint256"},{"internalType":"uint256","name":"tokenId","type":"uint256"}],"name":"ERC1155InsufficientBalance","type":"error"},{"inputs":[{"internalType":"address","name":"approver","type":"address"}],"name":"ERC1155InvalidApprover","type":"error"},{"inputs":[{"internalType":"uint256","name":"idsLength","type":"uint256"},{"internalType":"uint256","name":"valuesLength","type":"uint256"}],"name":"ERC1155InvalidArrayLength","type":"error"},{"inputs":[{"internalType":"address","name":"operator","type":"address"}],"name":"ERC1155InvalidOperator","type":"error"},{"inputs":[{"internalType":"address","name":"receiver","type":"address"}],"name":"ERC1155InvalidReceiver","type":"error"},{"inputs":[{"internalType":"address","name":"sender","type":"address"}],"name":"ERC1155InvalidSender","type":"error"},{"inputs":[{"internalType":"address","name":"operator","type":"address"},{"internalType":"address","name":"owner","type":"address"}],"name":"ERC1155MissingApprovalForAll","type":"error"},{"inputs":[{"internalType":"address","name":"owner","type":"address"}],"name":"OwnableInvalidOwner","type":"error"},{"inputs":[{"internalType":"address","name":"account","type":"address"}],"name":"OwnableUnauthorizedAccount","type":"error"},{"anonymous":false,"inputs":[{"indexed":true,"internalType":"address","name":"account","type":"address"},{"indexed":true,"internalType":"address","name":"operator","type":"address"},{"indexed":false,"internalType":"bool","name":"approved","type":"bool"}],"name":"ApprovalForAll","type":"event"},{"anonymous":false,"inputs":[{"indexed":true,"internalType":"address","name":"user","type":"address"},{"indexed":true,"internalType":"uint256","name":"genreId","type":"uint256"}],"name":"BadgeBurned","type":"event"},{"anonymous":false,"inputs":[{"indexed":true,"internalType":"address","name":"user","type":"address"},{"indexed":true,"internalType":"uint256","name":"genreId","type":"uint256"}],"name":"BadgeDecayed","type":"event"},{"anonymous":false,"inputs":[{"indexed":true,"internalType":"address","name":"user","type":"address"},{"indexed":true,"internalType":"uint256","name":"genreId","type":"uint256"},{"indexed":false,"internalType":"string","name":"genreName","type":"string"},{"indexed":false,"internalType":"uint8","name":"tier","type":"uint8"}],"name":"BadgeMinted","type":"event"},{"anonymous":false,"inputs":[{"indexed":true,"internalType":"address","name":"user","type":"address"},{"indexed":true,"internalType":"uint256","name":"genreId","type":"uint256"},{"indexed":false,"internalType":"string","name":"genreName","type":"string"},{"indexed":false,"internalType":"uint8","name":"tier","type":"uint8"},{"indexed":false,"internalType":"uint256","name":"cvibBurned","type":"uint256"}],"name":"BadgeMintedWithCVIB","type":"event"},{"anonymous":false,"inputs":[{"indexed":true,"internalType":"address","name":"user","type":"address"},{"indexed":true,"internalType":"uint256","name":"genreId","type":"uint256"},{"indexed":false,"internalType":"uint8","name":"oldTier","type":"uint8"},{"indexed":false,"internalType":"uint8","name":"newTier","type":"uint8"}],"name":"BadgeRefreshed","type":"event"},{"anonymous":false,"inputs":[{"indexed":true,"internalType":"address","name":"previousOwner","type":"address"},{"indexed":true,"internalType":"address","name":"newOwner","type":"address"}],"name":"OwnershipTransferred","type":"event"},{"anonymous":false,"inputs":[{"indexed":true,"internalType":"uint8","name":"tier","type":"uint8"},{"indexed":false,"internalType":"uint256","name":"oldCost","type":"uint256"},{"indexed":false,"internalType":"uint256","name":"newCost","type":"uint256"}],"name":"TierCostUpdated","type":"event"},{"anonymous":false,"inputs":[{"indexed":true,"internalType":"address","name":"operator","type":"address"},{"indexed":true,"internalType":"address","name":"from","type":"address"},{"indexed":true,"internalType":"address","name":"to","type":"address"},{"indexed":false,"internalType":"uint256[]","name":"ids","type":"uint256[]"},{"indexed":false,"internalType":"uint256[]","name":"values","type":"uint256[]"}],"name":"TransferBatch","type":"event"},{"anonymous":false,"inputs":[{"indexed":true,"internalType":"address","name":"operator","type":"address"},{"indexed":true,"internalType":"address","name":"from","type":"address"},{"indexed":true,"internalType":"address","name":"to","type":"address"},{"indexed":false,"internalType":"uint256","name":"id","type":"uint256"},{"indexed":false,"internalType":"uint256","name":"value","type":"uint256"}],"name":"TransferSingle","type":"event"},{"anonymous":false,"inputs":[{"indexed":false,"internalType":"string","name":"value","type":"string"},{"indexed":true,"internalType":"uint256","name":"id","type":"uint256"}],"name":"URI","type":"event"},{"inputs":[],"name":"MAX_GENRE_ID","outputs":[{"internalType":"uint256","name":"","type":"uint256"}],"stateMutability":"view","type":"function"},{"inputs":[],"name":"STATUS_ACTIVE","outputs":[{"internalType":"uint8","name":"","type":"uint8"}],"stateMutability":"view","type":"function"},{"inputs":[],"name":"STATUS_INACTIVE","outputs":[{"internalType":"uint8","name":"","type":"uint8"}],"stateMutability":"view","type":"function"},{"inputs":[],"name":"TIER_ENTRY","outputs":[{"internalType":"uint8","name":"","type":"uint8"}],"stateMutability":"view","type":"function"},{"inputs":[],"name":"TIER_OG","outputs":[{"internalType":"uint8","name":"","type":"uint8"}],"stateMutability":"view","type":"function"},{"inputs":[],"name":"TIER_VETERAN","outputs":[{"internalType":"uint8","name":"","type":"uint8"}],"stateMutability":"view","type":"function"},{"inputs":[],"name":"VERIFICATION_VALIDITY","outputs":[{"internalType":"uint64","name":"","type":"uint64"}],"stateMutability":"view","type":"function"},{"inputs":[{"internalType":"address","name":"","type":"address"},{"internalType":"uint256","name":"","type":"uint256"}],"name":"badgeInfo","outputs":[{"internalType":"uint8","name":"tier","type":"uint8"},{"internalType":"uint64","name":"lastVerified","type":"uint64"},{"internalType":"uint8","name":"status","type":"uint8"}],"stateMutability":"view","type":"function"},{"inputs":[{"internalType":"address","name":"account","type":"address"},{"internalType":"uint256","name":"id","type":"uint256"}],"name":"balanceOf","outputs":[{"internalType":"uint256","name":"","type":"uint256"}],"stateMutability":"view","type":"function"},{"inputs":[{"internalType":"address[]","name":"accounts","type":"address[]"},{"internalType":"uint256[]","name":"ids","type":"uint256[]"}],"name":"balanceOfBatch","outputs":[{"internalType":"uint256[]","name":"","type":"uint256[]"}],"stateMutability":"view","type":"function"},{"inputs":[{"internalType":"uint256","name":"genreId","type":"uint256"}],"name":"burnBadge","outputs":[],"stateMutability":"nonpayable","type":"function"},{"inputs":[{"internalType":"address","name":"user","type":"address"},{"internalType":"uint256","name":"genreId","type":"uint256"}],"name":"checkAndDecayBadge","outputs":[],"stateMutability":"nonpayable","type":"function"},{"inputs":[{"internalType":"address","name":"user","type":"address"},{"internalType":"uint256","name":"genreId","type":"uint256"}],"name":"checkBadge","outputs":[{"internalType":"bool","name":"","type":"bool"}],"stateMutability":"view","type":"function"},{"inputs":[{"internalType":"uint256","name":"id","type":"uint256"}],"name":"exists","outputs":[{"internalType":"bool","name":"","type":"bool"}],"stateMutability":"view","type":"function"},{"inputs":[{"internalType":"uint256","name":"","type":"uint256"}],"name":"genreNames","outputs":[{"internalType":"string","name":"","type":"string"}],"stateMutability":"view","type":"function"},{"inputs":[{"internalType":"address","name":"user","type":"address"}],"name":"getActiveBadgesWithInfo","outputs":[{"internalType":"uint256[]","name":"genreIds","type":"uint256[]"},{"internalType":"uint8[]","name":"tiers","type":"uint8[]"},{"internalType":"bool[]","name":"isActives","type":"bool[]"}],"stateMutability":"view","type":"function"},{"inputs":[{"internalType":"address","name":"user","type":"address"},{"internalType":"uint256","name":"genreId","type":"uint256"}],"name":"getBadgeInfo","outputs":[{"internalType":"uint8","name":"tier","type":"uint8"},{"internalType":"uint64","name":"lastVerified","type":"uint64"},{"internalType":"uint8","name":"status","type":"uint8"},{"internalType":"bool","name":"isExpired","type":"bool"}],"stateMutability":"view","type":"function"},{"inputs":[{"internalType":"address","name":"user","type":"address"},{"internalType":"uint256","name":"genreId","type":"uint256"}],"name":"getBadgeStatus","outputs":[{"internalType":"bool","name":"isActive","type":"bool"}],"stateMutability":"view","type":"function"},{"inputs":[{"internalType":"uint8","name":"tier","type":"uint8"}],"name":"getMintCost","outputs":[{"internalType":"uint256","name":"","type":"uint256"}],"stateMutability":"view","type":"function"},{"inputs":[{"internalType":"address","name":"user","type":"address"},{"internalType":"uint256","name":"genreId","type":"uint256"},{"internalType":"uint8","name":"newTier","type":"uint8"}],"name":"getUpgradeCost","outputs":[{"internalType":"uint256","name":"","type":"uint256"}],"stateMutability":"view","type":"function"},{"inputs":[{"internalType":"address","name":"user","type":"address"}],"name":"getUserBadges","outputs":[{"internalType":"uint256[]","name":"","type":"uint256[]"}],"stateMutability":"view","type":"function"},{"inputs":[{"internalType":"address","name":"user","type":"address"},{"internalType":"uint256","name":"genreId","type":"uint256"}],"name":"hasBadge","outputs":[{"internalType":"bool","name":"","type":"bool"}],"stateMutability":"view","type":"function"},{"inputs":[{"internalType":"address","name":"account","type":"address"},{"internalType":"address","name":"operator","type":"address"}],"name":"isApprovedForAll","outputs":[{"internalType":"bool","name":"","type":"bool"}],"stateMutability":"view","type":"function"},{"inputs":[{"internalType":"uint256[]","name":"genreIds","type":"uint256[]"},{"internalType":"uint8[]","name":"tiers","type":"uint8[]"}],"name":"mintBatchWithCVIB","outputs":[],"stateMutability":"nonpayable","type":"function"},{"inputs":[{"internalType":"uint256","name":"genreId","type":"uint256"},{"internalType":"uint8","name":"tier","type":"uint8"}],"name":"mintWithCVIB","outputs":[],"stateMutability":"nonpayable","type":"function"},{"inputs":[{"components":[{"components":[{"internalType":"string","name":"provider","type":"string"},{"internalType":"string","name":"parameters","type":"string"},{"internalType":"string","name":"context","type":"string"}],"internalType":"struct ClaimInfo","name":"claimInfo","type":"tuple"},{"components":[{"components":[{"internalType":"bytes32","name":"identifier","type":"bytes32"},{"internalType":"address","name":"owner","type":"address"},{"internalType":"uint32","name":"timestampS","type":"uint32"},{"internalType":"uint32","name":"epoch","type":"uint32"}],"internalType":"struct CompleteClaimData","name":"claim","type":"tuple"},{"internalType":"bytes[]","name":"signatures","type":"bytes[]"}],"internalType":"struct SignedClaim","name":"signedClaim","type":"tuple"}],"internalType":"struct Proof","name":"proof","type":"tuple"},{"internalType":"uint256","name":"genreId","type":"uint256"},{"internalType":"uint8","name":"tier","type":"uint8"}],"name":"mintWithProof","outputs":[],"stateMutability":"nonpayable","type":"function"},{"inputs":[],"name":"name","outputs":[{"internalType":"string","name":"","type":"string"}],"stateMutability":"view","type":"function"},{"inputs":[],"name":"owner","outputs":[{"internalType":"address","name":"","type":"address"}],"stateMutability":"view","type":"function"},{"inputs":[],"name":"reclaimAddress","outputs":[{"internalType":"address","name":"","type":"address"}],"stateMutability":"view","type":"function"},{"inputs":[],"name":"renounceOwnership","outputs":[],"stateMutability":"nonpayable","type":"function"},{"inputs":[{"internalType":"address","name":"from","type":"address"},{"internalType":"address","name":"to","type":"address"},{"internalType":"uint256[]","name":"ids","type":"uint256[]"},{"internalType":"uint256[]","name":"values","type":"uint256[]"},{"internalType":"bytes","name":"data","type":"bytes"}],"name":"safeBatchTransferFrom","outputs":[],"stateMutability":"nonpayable","type":"function"},{"inputs":[{"internalType":"address","name":"from","type":"address"},{"internalType":"address","name":"to","type":"address"},{"internalType":"uint256","name":"id","type":"uint256"},{"internalType":"uint256","name":"value","type":"uint256"},{"internalType":"bytes","name":"data","type":"bytes"}],"name":"safeTransferFrom","outputs":[],"stateMutability":"nonpayable","type":"function"},{"inputs":[{"internalType":"address","name":"operator","type":"address"},{"internalType":"bool","name":"approved","type":"bool"}],"name":"setApprovalForAll","outputs":[],"stateMutability":"nonpayable","type":"function"},{"inputs":[{"internalType":"uint256","name":"genreId","type":"uint256"},{"internalType":"string","name":"genreName","type":"string"}],"name":"setGenreName","outputs":[],"stateMutability":"nonpayable","type":"function"},{"inputs":[{"internalType":"address","name":"_reclaimAddress","type":"address"}],"name":"setReclaimAddress","outputs":[],"stateMutability":"nonpayable","type":"function"},{"inputs":[{"internalType":"uint8","name":"tier","type":"uint8"},{"internalType":"uint256","name":"cost","type":"uint256"}],"name":"setTierCost","outputs":[],"stateMutability":"nonpayable","type":"function"},{"inputs":[{"internalType":"string","name":"newUri","type":"string"}],"name":"setURI","outputs":[],"stateMutability":"nonpayable","type":"function"},{"inputs":[{"internalType":"address","name":"_vibeTokenAddress","type":"address"}],"name":"setVibeTokenAddress","outputs":[],"stateMutability":"nonpayable","type":"function"},{"inputs":[{"internalType":"bytes4","name":"interfaceId","type":"bytes4"}],"name":"supportsInterface","outputs":[{"internalType":"bool","name":"","type":"bool"}],"stateMutability":"view","type":"function"},{"inputs":[],"name":"symbol","outputs":[{"internalType":"string","name":"","type":"string"}],"stateMutability":"view","type":"function"},{"inputs":[{"internalType":"uint8","name":"","type":"uint8"}],"name":"tierCost","outputs":[{"internalType":"uint256","name":"","type":"uint256"}],"stateMutability":"view","type":"function"},{"inputs":[],"name":"totalSupply","outputs":[{"internalType":"uint256","name":"","type":"uint256"}],"stateMutability":"view","type":"function"},{"inputs":[{"internalType":"uint256","name":"id","type":"uint256"}],"name":"totalSupply","outputs":[{"internalType":"uint256","name":"","type":"uint256"}],"stateMutability":"view","type":"function"},{"inputs":[{"internalType":"address","name":"newOwner","type":"address"}],"name":"transferOwnership","outputs":[],"stateMutability":"nonpayable","type":"function"},{"inputs":[{"internalType":"uint256","name":"genreId","type":"uint256"},{"internalType":"uint8","name":"newTier","type":"uint8"}],"name":"upgradeBadgeWithCVIB","outputs":[],"stateMutability":"nonpayable","type":"function"},{"inputs":[{"internalType":"uint256","name":"","type":"uint256"}],"name":"uri","outputs":[{"internalType":"string","name":"","type":"string"}],"stateMutability":"view","type":"function"},{"inputs":[{"internalType":"bytes32","name":"","type":"bytes32"}],"name":"usedProofs","outputs":[{"internalType":"bool","name":"","type":"bool"}],"stateMutability":"view","type":"function"},{"inputs":[],"name":"vibeTokenAddress","outputs":[{"internalType":"address","name":"","type":"address"}],"stateMutability":"view","type":"function"}],"evm":{"bytecode":{"linkReferences":{},"object":"608060405234801562000010575f80fd5b5060405162004054380380620040548339810160408190526200003391620005b1565b838362000040816200051e565b506001600160a01b0381166200006f57604051631e4fbdf760e01b81525f600482015260240160405180910390fd5b6200007a8162000530565b5060408051808201909152601681527f4d7573696320436f6e73656e73757320534254205634000000000000000000006020820152600690620000be908262000743565b506040805180820190915260068152651350d4d0950d60d21b6020820152600790620000eb908262000743565b50600880546001600160a01b038085166001600160a01b03199283161790925560098054928416929091169190911790556040805180820190915260038152620506f760ec1b60208083019190915260015f52600a90527fbbc70db1b6c7afd11e79c0fb0051300458f1a3acb8ee9789d9b6b26c61ad9bc79062000170908262000743565b50604080518082019091526004815263526f636b60e01b60208083019190915260025f52600a90527fbff4442b8ed600beeb8e26b1279a0f0d14c6edfaec26d968ee13c86f7d4c2ba890620001c6908262000743565b5060408051808201909152600781526604869702d486f760cc1b60208083019190915260035f52600a90527fa856840544dc26124927add067d799967eac11be13e14d82cc281ea46fa39759906200021f908262000743565b5060408051808201909152600381526229132160e91b60208083019190915260045f52600a90527fe1eb2b2161a492c07c5a334e48012567cba93ec021043f53c1955516a3c5a8419062000274908262000743565b5060408051808201909152600a80825269456c656374726f6e696360b01b60208084019190915260055f52527ff35035bc2b01d44bd35a1dcdc552315cffb73da35cfd60570b7b777f98036f9f90620002ce908262000743565b506040805180820190915260048152632530bd3d60e11b60208083019190915260065f52600a90527f10d9dd018e4cae503383c9f804c1c1603ada5856ee7894375d9b97cd8c8b27db9062000324908262000743565b5060408051808201909152600981526810db185cdcda58d85b60ba1b60208083019190915260075f52600a90527f22e39f61d1e4986b4f116cea9067f62cc77d74dff1780ae9c8b5166d1dd28829906200037f908262000743565b50604080518082019091526007815266436f756e74727960c81b60208083019190915260085f52600a90527f2c1fd36ba11b13b555f58753742999069764391f450ca8727fe8a3eeffe6777590620003d8908262000743565b50604080518082019091526005815264496e64696560d81b60208083019190915260095f52600a90527f825eb4cda6b8b44578c55770496c59e6dc3cf2235f690bcdaf51a61898ceb284906200042f908262000743565b5060408051808201909152600581526413595d185b60da1b602080830191909152600a5f81905290527f3e57c57b03145299956be61386751c5b285d460d484d5c2403a6be086d9d6baa9062000486908262000743565b5050600d602052505068056bc75e2d631000007ffd54ff1ed53f34a900b24c5ba64f85761163b5d82d98a47b9bd80e45466993c55550681b1ae4d6e2ef5000007f10a81eed9d63d16face5e76357905348e6253d3394086026bb2bf2145d7cc2495560035f52683635c9adc5dea000007f26b4a10d0f0b04925c23bd4480ee147c916e5e87a7d68206a533dad160ac81e2556200080b565b60026200052c828262000743565b5050565b600580546001600160a01b038381166001600160a01b0319831681179093556040519116919082907f8be0079c531659141344cd1fd0a4f28419497f9722a3daafe3b4186f6b6457e0905f90a35050565b80516001600160a01b038116811462000598575f80fd5b919050565b634e487b7160e01b5f52604160045260245ffd5b5f805f8060808587031215620005c5575f80fd5b620005d08562000581565b602086810151919550906001600160401b0380821115620005ef575f80fd5b818801915088601f83011262000603575f80fd5b8151818111156200061857620006186200059d565b604051601f8201601f19908116603f011681019083821181831017156200064357620006436200059d565b816040528281528b868487010111156200065b575f80fd5b5f93505b828410156200067e57848401860151818501870152928501926200065f565b5f8684830101528098505050505050506200069c6040860162000581565b9150620006ac6060860162000581565b905092959194509250565b600181811c90821680620006cc57607f821691505b602082108103620006eb57634e487b7160e01b5f52602260045260245ffd5b50919050565b601f8211156200073e575f81815260208120601f850160051c81016020861015620007195750805b601f850160051c820191505b818110156200073a5782815560010162000725565b5050505b505050565b81516001600160401b038111156200075f576200075f6200059d565b6200077781620007708454620006b7565b84620006f1565b602080601f831160018114620007ad575f8415620007955750858301515b5f19600386901b1c1916600185901b1785556200073a565b5f85815260208120601f198616915b82811015620007dd57888601518255948401946001909101908401620007bc565b5085821015620007fb57878501515f19600388901b60f8161c191681555b5050505050600190811b01905550565b61383b80620008195f395ff3fe608060405234801561000f575f80fd5b5060043610610296575f3560e01c80637b231cd011610161578063cc18eadc116100ca578063f2fde38b11610084578063f2fde38b14610691578063f45fb6b5146106a4578063f7486960146103cf578063fd49d4aa146106b7578063ff4181be146106ca578063ffdbd60d14610711575f80fd5b8063cc18eadc146105af578063cd85336e146105c2578063d4c19e33146105d5578063d532548714610649578063e985e9c51461066b578063f242432a1461067e575f80fd5b8063b5fa96421161011b578063b5fa964214610529578063bd85b03914610531578063bd990d3214610550578063c30a0f2514610563578063c71c37d114610585578063cb2b50cd1461058d575f80fd5b80637b231cd0146104c45780638da5cb5b146104d757806395d89b41146104e85780639fc43dbe146104f0578063a22cb46514610503578063aeade0e614610516575f80fd5b8063417b99421161020357806355de28ae116101bd57806355de28ae146104635780635982fefe146103ea5780635c3cd2091461047657806364e8934e146104a157806369d11c55146104b4578063715018a6146104bc575f80fd5b8063417b9942146103bc5780634389cc22146103cf57806349c6c84f146103d75780634c6a70ce146103ea5780634e1273f41461042f5780634f558e7914610442575f80fd5b80630e7d912e116102545780630e7d912e146103395780630e89341c1461034c57806315bdca041461035f57806318160ddd146103815780632eb2c2d61461038957806337c245fe1461039c575f80fd5b8062fdd58e1461029a57806301ffc9a7146102c057806302429742146102e357806302fe5305146102fc578063040013721461031157806306fdde0314610324575b5f80fd5b6102ad6102a8366004612a25565b610730565b6040519081526020015b60405180910390f35b6102d36102ce366004612a62565b610757565b60405190151581526020016102b7565b6102ea5f81565b60405160ff90911681526020016102b7565b61030f61030a366004612b2c565b6107a6565b005b6102ad61031f366004612b75565b6107ba565b61032c610868565b6040516102b79190612bf1565b61030f610347366004612c4a565b6108f4565b61032c61035a366004612cb0565b610ef1565b6102ad61036d366004612cc7565b60ff165f908152600d602052604090205490565b6004546102ad565b61030f610397366004612d6a565b610f83565b6103af6103aa366004612e0c565b610fe2565b6040516102b79190612e5e565b61030f6103ca366004612a25565b611116565b6102ea600181565b61030f6103e5366004612e0c565b6111da565b6102d36103f8366004612a25565b6001600160a01b03919091165f908152600b60209081526040808320938352929052205461010090046001600160401b0316151590565b6103af61043d366004612e70565b611204565b6102d3610450366004612cb0565b5f90815260036020526040902054151590565b61030f610471366004612cb0565b6112d6565b600954610489906001600160a01b031681565b6040516001600160a01b0390911681526020016102b7565b61030f6104af366004612f29565b6113a1565b6102ad600a81565b61030f6116bd565b61030f6104d2366004612f29565b6116d0565b6005546001600160a01b0316610489565b61032c6118bf565b61030f6104fe366004612e0c565b6118cc565b61030f610511366004612f53565b6118f6565b600854610489906001600160a01b031681565b6102ea600281565b6102ad61053f366004612cb0565b5f9081526003602052604090205490565b61030f61055e366004612f8c565b611905565b6102d3610571366004612cb0565b600c6020525f908152604090205460ff1681565b6102ea600381565b6105976276a70081565b6040516001600160401b0390911681526020016102b7565b61030f6105bd366004612fc4565b611be3565b6102d36105d0366004612a25565b611c02565b61061d6105e3366004612a25565b600b60209081525f928352604080842090915290825290205460ff808216916001600160401b0361010082041691600160481b9091041683565b6040805160ff94851681526001600160401b0390931660208401529216918101919091526060016102b7565b61065c610657366004612e0c565b611ca5565b6040516102b793929190612ffd565b6102d361067936600461308e565b611f03565b61030f61068c3660046130b6565b611f30565b61030f61069f366004612e0c565b611f8f565b61032c6106b2366004612cb0565b611fc9565b61030f6106c5366004613115565b611fe1565b6106dd6106d8366004612a25565b612075565b6040805160ff95861681526001600160401b03949094166020850152919093169082015290151560608201526080016102b7565b6102ad61071f366004612cc7565b600d6020525f908152604090205481565b5f818152602081815260408083206001600160a01b03861684529091529020545b92915050565b5f6001600160e01b03198216636cdb3d1360e11b148061078757506001600160e01b031982166303a24d0760e21b145b8061075157506301ffc9a760e01b6001600160e01b0319831614610751565b6107ae612116565b6107b781612143565b50565b6001600160a01b0383165f908152600b6020908152604080832085845282528083208151606081018352905460ff80821683526001600160401b03610100830416948301859052600160481b90910416918101919091529015806108275750805f015160ff168360ff1611155b15610835575f915050610861565b805160ff9081165f908152600d602052604080822054928616825290205461085d9190613143565b9150505b9392505050565b6006805461087590613156565b80601f01602080910402602001604051908101604052809291908181526020018280546108a190613156565b80156108ec5780601f106108c3576101008083540402835291602001916108ec565b820191905f5260205f20905b8154815290600101906020018083116108cf57829003601f168201915b505050505081565b82811461093a5760405162461bcd60e51b815260206004820152600f60248201526e082e4e4c2f2e640dad2e6dac2e8c6d608b1b60448201526064015b60405180910390fd5b826109765760405162461bcd60e51b815260206004820152600c60248201526b456d7074792061727261797360a01b6044820152606401610931565b5f805b82811015610a5c5760018484838181106109955761099561318e565b90506020020160208101906109aa9190612cc7565b60ff16101580156109e5575060038484838181106109ca576109ca61318e565b90506020020160208101906109df9190612cc7565b60ff1611155b610a015760405162461bcd60e51b8152600401610931906131a2565b600d5f858584818110610a1657610a1661318e565b9050602002016020810190610a2b9190612cc7565b60ff16815260208101919091526040015f2054610a4890836131c8565b915080610a54816131db565b915050610979565b506009546040516370a0823160e01b815233600482015282916001600160a01b0316906370a0823190602401602060405180830381865afa158015610aa3573d5f803e3d5ffd5b505050506040513d601f19601f82011682018060405250810190610ac791906131f3565b1015610b115760405162461bcd60e51b8152602060048201526019602482015278496e73756666696369656e7420435649422062616c616e636560381b6044820152606401610931565b60095460405163079cc67960e41b8152336004820152602481018390526001600160a01b03909116906379cc6790906044015f604051808303815f87803b158015610b5a575f80fd5b505af1158015610b6c573d5f803e3d5ffd5b505f9250869150506001600160401b03811115610b8b57610b8b612a7d565b604051908082528060200260200182016040528015610bb4578160200160208202803683370190505b5090505f5b85811015610e9c576001878783818110610bd557610bd561318e565b9050602002013510158015610c035750600a878783818110610bf957610bf961318e565b9050602002013511155b610c1f5760405162461bcd60e51b81526004016109319061320a565b335f908152600b6020526040812090888884818110610c4057610c4061318e565b602090810292909201358352508101919091526040015f205461010090046001600160401b031615610ca35760405162461bcd60e51b815260206004820152600c60248201526b42616467652065786973747360a01b6044820152606401610931565b6040518060600160405280868684818110610cc057610cc061318e565b9050602002016020810190610cd59190612cc7565b60ff1681526001600160401b0342166020808301919091526001604092830152335f908152600b90915290812090898985818110610d1557610d1561318e565b602090810292909201358352508181019290925260409081015f208351815493850151949092015160ff908116600160481b0260ff60481b196001600160401b039096166101000268ffffffffffffffffff19909516919093161792909217929092169190911790558151600190839083908110610d9557610d9561318e565b602002602001018181525050868682818110610db357610db361318e565b90506020020135336001600160a01b03167fe2cd9e06786bb57e10d4cb6de25c23039ac44f7b93b1ff941027c25b0504dcae600a5f8b8b87818110610dfa57610dfa61318e565b9050602002013581526020019081526020015f20888886818110610e2057610e2061318e565b9050602002016020810190610e359190612cc7565b600d5f8b8b89818110610e4a57610e4a61318e565b9050602002016020810190610e5f9190612cc7565b60ff1660ff1681526020019081526020015f2054604051610e82939291906132ad565b60405180910390a380610e94816131db565b915050610bb9565b50610ee9338787808060200260200160405190810160405280939291908181526020018383602002808284375f9201829052506040805160208101909152908152879350915061214f9050565b505050505050565b606060028054610f0090613156565b80601f0160208091040260200160405190810160405280929190818152602001828054610f2c90613156565b8015610f775780601f10610f4e57610100808354040283529160200191610f77565b820191905f5260205f20905b815481529060010190602001808311610f5a57829003601f168201915b50505050509050919050565b336001600160a01b0386168114801590610fa45750610fa28682611f03565b155b15610fd55760405163711bec9160e11b81526001600160a01b03808316600483015287166024820152604401610931565b610ee9868686868661218b565b60605f60015b600a8111611046576001600160a01b0384165f908152600b6020908152604080832084845290915290205461010090046001600160401b0316156110345781611030816131db565b9250505b8061103e816131db565b915050610fe8565b505f816001600160401b0381111561106057611060612a7d565b604051908082528060200260200182016040528015611089578160200160208202803683370190505b5090505f60015b600a811161110c576001600160a01b0386165f908152600b6020908152604080832084845290915290205461010090046001600160401b0316156110fa57808383815181106110e1576110e161318e565b6020908102919091010152816110f6816131db565b9250505b80611104816131db565b915050611090565b5090949350505050565b6001600160a01b0382165f908152600b602090815260408083208484529091529020805461010090046001600160401b03161580159061116157508054600160481b900460ff166001145b156111d5578054611184906276a7009061010090046001600160401b03166132d4565b6001600160401b03164211156111d557805460ff60481b1916815560405182906001600160a01b038516907ffe3376793d31b551742504ab5d60ef12323f83f07f3f67c68f5c7ac1081feb05905f90a35b505050565b6111e2612116565b600980546001600160a01b0319166001600160a01b0392909216919091179055565b606081518351146112355781518351604051635b05999160e01b815260048101929092526024820152604401610931565b5f83516001600160401b0381111561124f5761124f612a7d565b604051908082528060200260200182016040528015611278578160200160208202803683370190505b5090505f5b84518110156112ce576020808202860101516112a190602080840287010151610730565b8282815181106112b3576112b361318e565b60209081029190910101526112c7816131db565b905061127d565b509392505050565b335f908152600b6020908152604080832084845290915290205461010090046001600160401b031661133c5760405162461bcd60e51b815260206004820152600f60248201526e10985919d9481b9bdd081bdddb9959608a1b6044820152606401610931565b335f818152600b602090815260408083208584529091529020805469ffffffffffffffffffff19169055611372908260016121f0565b604051819033907f21efcae153b58616332d7f7ee4eb0b72bd5b472048c613a4107d750a710b6402905f90a350565b600182101580156113b35750600a8211155b6113cf5760405162461bcd60e51b81526004016109319061320a565b600160ff8216108015906113e75750600360ff821611155b6114035760405162461bcd60e51b8152600401610931906131a2565b335f908152600b6020908152604080832085845290915290205461010090046001600160401b03161561146f5760405162461bcd60e51b8152602060048201526014602482015273426164676520616c72656164792065786973747360601b6044820152606401610931565b60ff81165f908152600d6020526040902054806114c25760405162461bcd60e51b8152602060048201526011602482015270125b9d985b1a59081d1a595c8818dbdcdd607a1b6044820152606401610931565b6009546040516370a0823160e01b815233600482015282916001600160a01b0316906370a0823190602401602060405180830381865afa158015611508573d5f803e3d5ffd5b505050506040513d601f19601f8201168201806040525081019061152c91906131f3565b10156115765760405162461bcd60e51b8152602060048201526019602482015278496e73756666696369656e7420435649422062616c616e636560381b6044820152606401610931565b60095460405163079cc67960e41b8152336004820152602481018390526001600160a01b03909116906379cc6790906044015f604051808303815f87803b1580156115bf575f80fd5b505af11580156115d1573d5f803e3d5ffd5b50506040805160608101825260ff80871682526001600160401b0342811660208085019182526001858701818152335f818152600b85528981208f8252855289812098518954965193518916600160481b0260ff60481b19949098166101000268ffffffffffffffffff19909716981697909717949094171693909317909455845193840190945290825261166c9450919250869190612256565b5f838152600a6020526040908190209051849133917fe2cd9e06786bb57e10d4cb6de25c23039ac44f7b93b1ff941027c25b0504dcae916116b091879087906132ad565b60405180910390a3505050565b6116c5612116565b6116ce5f6122b1565b565b335f908152600b602090815260408083208584529091529020805461010090046001600160401b03166117375760405162461bcd60e51b815260206004820152600f60248201526e10985919d9481b9bdd081bdddb9959608a1b6044820152606401610931565b805460ff9081169083161161178e5760405162461bcd60e51b815260206004820152601760248201527f4e65772074696572206d757374206265206869676865720000000000000000006044820152606401610931565b600360ff831611156117b25760405162461bcd60e51b8152600401610931906131a2565b805460ff9081165f908152600d6020526040808220549285168252812054906117db8383613143565b60095460405163079cc67960e41b8152336004820152602481018390529192506001600160a01b0316906379cc6790906044015f604051808303815f87803b158015611825575f80fd5b505af1158015611837573d5f803e3d5ffd5b50508554600160481b60ff89811668ffffffffffffffffff1984168117610100426001600160401b0316021760ff60481b19169290921789556040805191909316808252602082019290925290935089925033917ffe5ac37f441080da72c3e4788457d0722b5196ed6d2843af39b402294074b2c7910160405180910390a350505050505050565b6007805461087590613156565b6118d4612116565b600880546001600160a01b0319166001600160a01b0392909216919091179055565b611901338383612302565b5050565b600182101580156119175750600a8211155b6119335760405162461bcd60e51b81526004016109319061320a565b600160ff82161080159061194b5750600360ff821611155b6119675760405162461bcd60e51b8152600401610931906131a2565b335f908152600b6020908152604080832085845290915290205461010090046001600160401b0316156119d35760405162461bcd60e51b8152602060048201526014602482015273426164676520616c72656164792065786973747360601b6044820152606401610931565b5f6119de84806132fb565b6119e89080613319565b6119f286806132fb565b611a00906020810190613319565b611a0d602089018961335b565b604051611a2295949392913590602001613397565b60408051601f1981840301815291815281516020928301205f818152600c90935291205490915060ff1615611a8e5760405162461bcd60e51b8152602060048201526012602482015271141c9bdbd988185b1c9958591e481d5cd95960721b6044820152606401610931565b6008546040516354b0734f60e11b81526001600160a01b039091169063a960e69e90611abe908790600401613549565b5f6040518083038186803b158015611ad4575f80fd5b505afa158015611ae6573d5f803e3d5ffd5b5050505f828152600c60209081526040808320805460ff19166001908117909155815160608101835260ff88811682526001600160401b0342811683870190815283860185815233808a52600b8952878a208e8b528952878a2095518654935192518616600160481b0260ff60481b19939095166101000268ffffffffffffffffff199094169516949094179190911716179091558251938401909252928252611b939350918691612256565b5f838152600a6020526040908190209051849133917feea079fecea4873aede971df0e085eaadfb8311fc3b73bdb10a9469ea7d1922791611bd5918790613601565b60405180910390a350505050565b611beb612116565b5f828152600a602052604090206111d5828261366a565b6001600160a01b0382165f908152600b6020908152604080832084845282528083208151606081018352905460ff80821683526001600160401b03610100830416948301859052600160481b9091041691810191909152908203611c69575f915050610751565b6276a7008160200151611c7c91906132d4565b6001600160401b03164211611c9c576040015160ff166001149050610751565b505f9392505050565b606080805f60015b600a8111611d0b576001600160a01b0386165f908152600b6020908152604080832084845290915290205461010090046001600160401b031615611cf95781611cf5816131db565b9250505b80611d03816131db565b915050611cad565b50806001600160401b03811115611d2457611d24612a7d565b604051908082528060200260200182016040528015611d4d578160200160208202803683370190505b509350806001600160401b03811115611d6857611d68612a7d565b604051908082528060200260200182016040528015611d91578160200160208202803683370190505b509250806001600160401b03811115611dac57611dac612a7d565b604051908082528060200260200182016040528015611dd5578160200160208202803683370190505b5091505f60015b600a8111611ef9576001600160a01b0387165f908152600b602090815260408083208484528252918290208251606081018452905460ff80821683526001600160401b03610100830416938301849052600160481b909104169281019290925215611ee65781878481518110611e5457611e5461318e565b602002602001018181525050805f0151868481518110611e7657611e7661318e565b60ff92831660209182029290920101526040820151166001148015611eb657506276a7008160200151611ea991906132d4565b6001600160401b03164211155b858481518110611ec857611ec861318e565b9115156020928302919091019091015282611ee2816131db565b9350505b5080611ef1816131db565b915050611ddc565b5050509193909250565b6001600160a01b039182165f90815260016020908152604080832093909416825291909152205460ff1690565b336001600160a01b0386168114801590611f515750611f4f8682611f03565b155b15611f825760405163711bec9160e11b81526001600160a01b03808316600483015287166024820152604401610931565b610ee9868686868661238e565b611f97612116565b6001600160a01b038116611fc057604051631e4fbdf760e01b81525f6004820152602401610931565b6107b7816122b1565b600a6020525f90815260409020805461087590613156565b611fe9612116565b600160ff8316108015906120015750600360ff831611155b61201d5760405162461bcd60e51b8152600401610931906131a2565b60ff82165f818152600d6020908152604091829020805490859055825181815291820185905292917f36ce8b5aa7f36316e5f4340d2d5e9123306e977039e992a8257620272391be7b910160405180910390a2505050565b6001600160a01b0382165f908152600b6020908152604080832084845282528083208151606081018352905460ff80821683526001600160401b03610100830416948301859052600160481b90910416918101919091528291829182918290156120fa576276a70082602001516120ec91906132d4565b6001600160401b0316421190505b8151602083015160409093015190999298509650945092505050565b6005546001600160a01b031633146116ce5760405163118cdaa760e01b8152336004820152602401610931565b6002611901828261366a565b6001600160a01b03841661217857604051632bfa23e760e11b81525f6004820152602401610931565b6121855f8585858561241a565b50505050565b6001600160a01b0384166121b457604051632bfa23e760e11b81525f6004820152602401610931565b6001600160a01b0385166121dc57604051626a0d4560e21b81525f6004820152602401610931565b6121e9858585858561241a565b5050505050565b6001600160a01b03831661221857604051626a0d4560e21b81525f6004820152602401610931565b604080516001808252602082018590528183019081526060820184905260a082019092525f608082018181529192916121e99187918590859061241a565b6001600160a01b03841661227f57604051632bfa23e760e11b81525f6004820152602401610931565b60408051600180825260208201869052818301908152606082018590526080820190925290610ee95f8784848761241a565b600580546001600160a01b038381166001600160a01b0319831681179093556040519116919082907f8be0079c531659141344cd1fd0a4f28419497f9722a3daafe3b4186f6b6457e0905f90a35050565b6001600160a01b03821661232a5760405162ced3e160e81b81525f6004820152602401610931565b6001600160a01b038381165f81815260016020908152604080832094871680845294825291829020805460ff191686151590811790915591519182527f17307eab39ab6107e8899845ad3d59bd9653f200f220920489ca2b5937696c3191016116b0565b6001600160a01b0384166123b757604051632bfa23e760e11b81525f6004820152602401610931565b6001600160a01b0385166123df57604051626a0d4560e21b81525f6004820152602401610931565b60408051600180825260208201869052818301908152606082018590526080820190925290612411878784848761241a565b50505050505050565b6124268585858561246d565b6001600160a01b038416156121e9578251339060010361245f57602084810151908401516124588389898585896124f2565b5050610ee9565b610ee9818787878787612613565b6001600160a01b0384161580159061248d57506001600160a01b03831615155b156124e65760405162461bcd60e51b8152602060048201526024808201527f536f756c626f756e643a20546f6b656e206973206e6f6e2d7472616e7366657260448201526361626c6560e01b6064820152608401610931565b612185848484846126fa565b6001600160a01b0384163b15610ee95760405163f23a6e6160e01b81526001600160a01b0385169063f23a6e61906125369089908990889088908890600401613725565b6020604051808303815f875af1925050508015612570575060408051601f3d908101601f1916820190925261256d91810190613769565b60015b6125d7573d80801561259d576040519150601f19603f3d011682016040523d82523d5f602084013e6125a2565b606091505b5080515f036125cf57604051632bfa23e760e11b81526001600160a01b0386166004820152602401610931565b805160208201fd5b6001600160e01b0319811663f23a6e6160e01b1461241157604051632bfa23e760e11b81526001600160a01b0386166004820152602401610931565b6001600160a01b0384163b15610ee95760405163bc197c8160e01b81526001600160a01b0385169063bc197c81906126579089908990889088908890600401613784565b6020604051808303815f875af1925050508015612691575060408051601f3d908101601f1916820190925261268e91810190613769565b60015b6126be573d80801561259d576040519150601f19603f3d011682016040523d82523d5f602084013e6125a2565b6001600160e01b0319811663bc197c8160e01b1461241157604051632bfa23e760e11b81526001600160a01b0386166004820152602401610931565b612706848484846127f2565b6001600160a01b03841661278c575f805b83518110156127735760208181028481018201519086018201515f90815260039092526040822080549192839261274f9084906131c8565b9091555061275f905081846131c8565b9250508061276c906131db565b9050612717565b508060045f82825461278591906131c8565b9091555050505b6001600160a01b038316612185575f805b83518110156127e15760208181028481018201519086018201515f908152600390925260409091208054829003905591909101906127da816131db565b905061279d565b506004805491909103905550505050565b80518251146128215781518151604051635b05999160e01b815260048101929092526024820152604401610931565b335f5b835181101561292c576020818102858101820151908501909101516001600160a01b038816156128d5575f828152602081815260408083206001600160a01b038c168452909152902054818110156128af576040516303dee4c560e01b81526001600160a01b038a166004820152602481018290526044810183905260648101849052608401610931565b5f838152602081815260408083206001600160a01b038d16845290915290209082900390555b6001600160a01b03871615612919575f828152602081815260408083206001600160a01b038b168452909152812080548392906129139084906131c8565b90915550505b505080612925906131db565b9050612824565b5082516001036129ac5760208301515f906020840151909150856001600160a01b0316876001600160a01b0316846001600160a01b03167fc3d58168c5ae7397731d063d5bbf3d657854427343f4c083240f7aacaa2d0f62858560405161299d929190918252602082015260400190565b60405180910390a450506121e9565b836001600160a01b0316856001600160a01b0316826001600160a01b03167f4a39dc06d4c0dbc64b70af90fd698a233a518aa5d07e595d983b8c0526c8f7fb86866040516129fb9291906137e1565b60405180910390a45050505050565b80356001600160a01b0381168114612a20575f80fd5b919050565b5f8060408385031215612a36575f80fd5b612a3f83612a0a565b946020939093013593505050565b6001600160e01b0319811681146107b7575f80fd5b5f60208284031215612a72575f80fd5b813561086181612a4d565b634e487b7160e01b5f52604160045260245ffd5b604051601f8201601f191681016001600160401b0381118282101715612ab957612ab9612a7d565b604052919050565b5f82601f830112612ad0575f80fd5b81356001600160401b03811115612ae957612ae9612a7d565b612afc601f8201601f1916602001612a91565b818152846020838601011115612b10575f80fd5b816020850160208301375f918101602001919091529392505050565b5f60208284031215612b3c575f80fd5b81356001600160401b03811115612b51575f80fd5b612b5d84828501612ac1565b949350505050565b803560ff81168114612a20575f80fd5b5f805f60608486031215612b87575f80fd5b612b9084612a0a565b925060208401359150612ba560408501612b65565b90509250925092565b5f81518084525f5b81811015612bd257602081850181015186830182015201612bb6565b505f602082860101526020601f19601f83011685010191505092915050565b602081525f6108616020830184612bae565b5f8083601f840112612c13575f80fd5b5081356001600160401b03811115612c29575f80fd5b6020830191508360208260051b8501011115612c43575f80fd5b9250929050565b5f805f8060408587031215612c5d575f80fd5b84356001600160401b0380821115612c73575f80fd5b612c7f88838901612c03565b90965094506020870135915080821115612c97575f80fd5b50612ca487828801612c03565b95989497509550505050565b5f60208284031215612cc0575f80fd5b5035919050565b5f60208284031215612cd7575f80fd5b61086182612b65565b5f6001600160401b03821115612cf857612cf8612a7d565b5060051b60200190565b5f82601f830112612d11575f80fd5b81356020612d26612d2183612ce0565b612a91565b82815260059290921b84018101918181019086841115612d44575f80fd5b8286015b84811015612d5f5780358352918301918301612d48565b509695505050505050565b5f805f805f60a08688031215612d7e575f80fd5b612d8786612a0a565b9450612d9560208701612a0a565b935060408601356001600160401b0380821115612db0575f80fd5b612dbc89838a01612d02565b94506060880135915080821115612dd1575f80fd5b612ddd89838a01612d02565b93506080880135915080821115612df2575f80fd5b50612dff88828901612ac1565b9150509295509295909350565b5f60208284031215612e1c575f80fd5b61086182612a0a565b5f8151808452602080850194508084015f5b83811015612e5357815187529582019590820190600101612e37565b509495945050505050565b602081525f6108616020830184612e25565b5f8060408385031215612e81575f80fd5b82356001600160401b0380821115612e97575f80fd5b818501915085601f830112612eaa575f80fd5b81356020612eba612d2183612ce0565b82815260059290921b84018101918181019089841115612ed8575f80fd5b948201945b83861015612efd57612eee86612a0a565b82529482019490820190612edd565b96505086013592505080821115612f12575f80fd5b50612f1f85828601612d02565b9150509250929050565b5f8060408385031215612f3a575f80fd5b82359150612f4a60208401612b65565b90509250929050565b5f8060408385031215612f64575f80fd5b612f6d83612a0a565b915060208301358015158114612f81575f80fd5b809150509250929050565b5f805f60608486031215612f9e575f80fd5b83356001600160401b03811115612fb3575f80fd5b840160408187031215612b90575f80fd5b5f8060408385031215612fd5575f80fd5b8235915060208301356001600160401b03811115612ff1575f80fd5b612f1f85828601612ac1565b606081525f61300f6060830186612e25565b8281036020848101919091528551808352868201928201905f5b8181101561304857845160ff1683529383019391830191600101613029565b5050848103604086015285518082529082019250818601905f5b81811015613080578251151585529383019391830191600101613062565b509298975050505050505050565b5f806040838503121561309f575f80fd5b6130a883612a0a565b9150612f4a60208401612a0a565b5f805f805f60a086880312156130ca575f80fd5b6130d386612a0a565b94506130e160208701612a0a565b9350604086013592506060860135915060808601356001600160401b03811115613109575f80fd5b612dff88828901612ac1565b5f8060408385031215613126575f80fd5b612a3f83612b65565b634e487b7160e01b5f52601160045260245ffd5b818103818111156107515761075161312f565b600181811c9082168061316a57607f821691505b60208210810361318857634e487b7160e01b5f52602260045260245ffd5b50919050565b634e487b7160e01b5f52603260045260245ffd5b6020808252600c908201526b24b73b30b634b2103a34b2b960a11b604082015260600190565b808201808211156107515761075161312f565b5f600182016131ec576131ec61312f565b5060010190565b5f60208284031215613203575f80fd5b5051919050565b60208082526010908201526f125b9d985b1a590819d95b9c9948125160821b604082015260600190565b5f815461324081613156565b80855260206001838116801561325d5760018114613277576132a2565b60ff1985168884015283151560051b8801830195506132a2565b865f52825f205f5b8581101561329a5781548a820186015290830190840161327f565b890184019650505b505050505092915050565b606081525f6132bf6060830186613234565b60ff9490941660208301525060400152919050565b6001600160401b038181168382160190808211156132f4576132f461312f565b5092915050565b5f8235605e1983360301811261330f575f80fd5b9190910192915050565b5f808335601e1984360301811261332e575f80fd5b8301803591506001600160401b03821115613347575f80fd5b602001915036819003821315612c43575f80fd5b5f8235609e1983360301811261330f575f80fd5b81835281816020850137505f828201602090810191909152601f909101601f19169091010190565b606081525f6133aa60608301878961336f565b82810360208401526133bd81868861336f565b9150508260408301529695505050505050565b5f808335601e198436030181126133e5575f80fd5b83016020810192503590506001600160401b03811115613403575f80fd5b803603821315612c43575f80fd5b5f8235609e19833603018112613425575f80fd5b90910192915050565b803563ffffffff81168114612a20575f80fd5b8183525f6020808501808196508560051b81019150845f5b8781101561348f57828403895261347082886133d0565b61347b86828461336f565b9a87019a9550505090840190600101613459565b5091979650505050505050565b803582526001600160a01b036134b460208301612a0a565b1660208301525f6134c76040830161342e565b63ffffffff8082166040860152806134e16060860161342e565b16606086015250506080820135601e198336030181126134ff575f80fd5b82016020810190356001600160401b0381111561351a575f80fd5b8060051b360382131561352b575f80fd5b60a0608086015261354060a086018284613441565b95945050505050565b602081525f8235605e19843603018112613561575f80fd5b60406020840152830161357481806133d0565b60608086015261358860c08601828461336f565b91505061359860208301836133d0565b605f19808785030160808801526135b084838561336f565b93506135bf60408601866133d0565b95509250808785030160a088015250506135da82848361336f565b925050506135eb6020850185613411565b838203601f19016040850152613540828261349c565b604081525f6136136040830185613234565b905060ff831660208301529392505050565b601f8211156111d5575f81815260208120601f850160051c8101602086101561364b5750805b601f850160051c820191505b81811015610ee957828155600101613657565b81516001600160401b0381111561368357613683612a7d565b613697816136918454613156565b84613625565b602080601f8311600181146136ca575f84156136b35750858301515b5f19600386901b1c1916600185901b178555610ee9565b5f85815260208120601f198616915b828110156136f8578886015182559484019460019091019084016136d9565b508582101561371557878501515f19600388901b60f8161c191681555b5050505050600190811b01905550565b6001600160a01b03868116825285166020820152604081018490526060810183905260a0608082018190525f9061375e90830184612bae565b979650505050505050565b5f60208284031215613779575f80fd5b815161086181612a4d565b6001600160a01b0386811682528516602082015260a0604082018190525f906137af90830186612e25565b82810360608401526137c18186612e25565b905082810360808401526137d58185612bae565b98975050505050505050565b604081525f6137f36040830185612e25565b828103602084015261085d8185612e2556fea2646970667358221220cfe524647d5f41aa6b673d878f76badfdf53d633e47b9d03f8abe60d7d3af4c164736f6c63430008140033","opcodes":"PUSH1 0x80 PUSH1 0x40 MSTORE CALLVALUE DUP1 ISZERO PUSH3 0x10 JUMPI PUSH0 DUP1 REVERT JUMPDEST POP PUSH1 0x40 MLOAD PUSH3 0x4054 CODESIZE SUB DUP1 PUSH3 0x4054 DUP4 CODECOPY DUP2 ADD PUSH1 0x40 DUP2 SWAP1 MSTORE PUSH3 0x33 SWAP2 PUSH3 0x5B1 JUMP JUMPDEST DUP4 DUP4 PUSH3 0x40 DUP2 PUSH3 0x51E JUMP JUMPDEST POP PUSH1 0x1 PUSH1 0x1 PUSH1 0xA0 SHL SUB DUP2 AND PUSH3 0x6F JUMPI PUSH1 0x40 MLOAD PUSH4 0x1E4FBDF7 PUSH1 0xE0 SHL DUP2 MSTORE PUSH0 PUSH1 0x4 DUP3 ADD MSTORE PUSH1 0x24 ADD PUSH1 0x40 MLOAD DUP1 SWAP2 SUB SWAP1 REVERT JUMPDEST PUSH3 0x7A DUP2 PUSH3 0x530 JUMP JUMPDEST POP PUSH1 0x40 DUP1 MLOAD DUP1 DUP3 ADD SWAP1 SWAP2 MSTORE PUSH1 0x16 DUP2 MSTORE PUSH32 0x4D7573696320436F6E73656E7375732053425420563400000000000000000000 PUSH1 0x20 DUP3 ADD MSTORE PUSH1 0x6 SWAP1 PUSH3 0xBE SWAP1 DUP3 PUSH3 0x743 JUMP JUMPDEST POP PUSH1 0x40 DUP1 MLOAD DUP1 DUP3 ADD SWAP1 SWAP2 MSTORE PUSH1 0x6 DUP2 MSTORE PUSH6 0x1350D4D0950D PUSH1 0xD2 SHL PUSH1 0x20 DUP3 ADD MSTORE PUSH1 0x7 SWAP1 PUSH3 0xEB SWAP1 DUP3 PUSH3 0x743 JUMP JUMPDEST POP PUSH1 0x8 DUP1 SLOAD PUSH1 0x1 PUSH1 0x1 PUSH1 0xA0 SHL SUB DUP1 DUP6 AND PUSH1 0x1 PUSH1 0x1 PUSH1 0xA0 SHL SUB NOT SWAP3 DUP4 AND OR SWAP1 SWAP3 SSTORE PUSH1 0x9 DUP1 SLOAD SWAP3 DUP5 AND SWAP3 SWAP1 SWAP2 AND SWAP2 SWAP1 SWAP2 OR SWAP1 SSTORE PUSH1 0x40 DUP1 MLOAD DUP1 DUP3 ADD SWAP1 SWAP2 MSTORE PUSH1 0x3 DUP2 MSTORE PUSH3 0x506F7 PUSH1 0xEC SHL PUSH1 0x20 DUP1 DUP4 ADD SWAP2 SWAP1 SWAP2 MSTORE PUSH1 0x1 PUSH0 MSTORE PUSH1 0xA SWAP1 MSTORE PUSH32 0xBBC70DB1B6C7AFD11E79C0FB0051300458F1A3ACB8EE9789D9B6B26C61AD9BC7 SWAP1 PUSH3 0x170 SWAP1 DUP3 PUSH3 0x743 JUMP JUMPDEST POP PUSH1 0x40 DUP1 MLOAD DUP1 DUP3 ADD SWAP1 SWAP2 MSTORE PUSH1 0x4 DUP2 MSTORE PUSH4 0x526F636B PUSH1 0xE0 SHL PUSH1 0x20 DUP1 DUP4 ADD SWAP2 SWAP1 SWAP2 MSTORE PUSH1 0x2 PUSH0 MSTORE PUSH1 0xA SWAP1 MSTORE PUSH32 0xBFF4442B8ED600BEEB8E26B1279A0F0D14C6EDFAEC26D968EE13C86F7D4C2BA8 SWAP1 PUSH3 0x1C6 SWAP1 DUP3 PUSH3 0x743 JUMP JUMPDEST POP PUSH1 0x40 DUP1 MLOAD DUP1 DUP3 ADD SWAP1 SWAP2 MSTORE PUSH1 0x7 DUP2 MSTORE PUSH7 0x4869702D486F7 PUSH1 0xCC SHL PUSH1 0x20 DUP1 DUP4 ADD SWAP2 SWAP1 SWAP2 MSTORE PUSH1 0x3 PUSH0 MSTORE PUSH1 0xA SWAP1 MSTORE PUSH32 0xA856840544DC26124927ADD067D799967EAC11BE13E14D82CC281EA46FA39759 SWAP1 PUSH3 0x21F SWAP1 DUP3 PUSH3 0x743 JUMP JUMPDEST POP PUSH1 0x40 DUP1 MLOAD DUP1 DUP3 ADD SWAP1 SWAP2 MSTORE PUSH1 0x3 DUP2 MSTORE PUSH3 0x291321 PUSH1 0xE9 SHL PUSH1 0x20 DUP1 DUP4 ADD SWAP2 SWAP1 SWAP2 MSTORE PUSH1 0x4 PUSH0 MSTORE PUSH1 0xA SWAP1 MSTORE PUSH32 0xE1EB2B2161A492C07C5A334E48012567CBA93EC021043F53C1955516A3C5A841 SWAP1 PUSH3 0x274 SWAP1 DUP3 PUSH3 0x743 JUMP JUMPDEST POP PUSH1 0x40 DUP1 MLOAD DUP1 DUP3 ADD SWAP1 SWAP2 MSTORE PUSH1 0xA DUP1 DUP3 MSTORE PUSH10 0x456C656374726F6E6963 PUSH1 0xB0 SHL PUSH1 0x20 DUP1 DUP5 ADD SWAP2 SWAP1 SWAP2 MSTORE PUSH1 0x5 PUSH0 MSTORE MSTORE PUSH32 0xF35035BC2B01D44BD35A1DCDC552315CFFB73DA35CFD60570B7B777F98036F9F SWAP1 PUSH3 0x2CE SWAP1 DUP3 PUSH3 0x743 JUMP JUMPDEST POP PUSH1 0x40 DUP1 MLOAD DUP1 DUP3 ADD SWAP1 SWAP2 MSTORE PUSH1 0x4 DUP2 MSTORE PUSH4 0x2530BD3D PUSH1 0xE1 SHL PUSH1 0x20 DUP1 DUP4 ADD SWAP2 SWAP1 SWAP2 MSTORE PUSH1 0x6 PUSH0 MSTORE PUSH1 0xA SWAP1 MSTORE PUSH32 0x10D9DD018E4CAE503383C9F804C1C1603ADA5856EE7894375D9B97CD8C8B27DB SWAP1 PUSH3 0x324 SWAP1 DUP3 PUSH3 0x743 JUMP JUMPDEST POP PUSH1 0x40 DUP1 MLOAD DUP1 DUP3 ADD SWAP1 SWAP2 MSTORE PUSH1 0x9 DUP2 MSTORE PUSH9 0x10DB185CDCDA58D85B PUSH1 0xBA SHL PUSH1 0x20 DUP1 DUP4 ADD SWAP2 SWAP1 SWAP2 MSTORE PUSH1 0x7 PUSH0 MSTORE PUSH1 0xA SWAP1 MSTORE PUSH32 0x22E39F61D1E4986B4F116CEA9067F62CC77D74DFF1780AE9C8B5166D1DD28829 SWAP1 PUSH3 0x37F SWAP1 DUP3 PUSH3 0x743 JUMP JUMPDEST POP PUSH1 0x40 DUP1 MLOAD DUP1 DUP3 ADD SWAP1 SWAP2 MSTORE PUSH1 0x7 DUP2 MSTORE PUSH7 0x436F756E747279 PUSH1 0xC8 SHL PUSH1 0x20 DUP1 DUP4 ADD SWAP2 SWAP1 SWAP2 MSTORE PUSH1 0x8 PUSH0 MSTORE PUSH1 0xA SWAP1 MSTORE PUSH32 0x2C1FD36BA11B13B555F58753742999069764391F450CA8727FE8A3EEFFE67775 SWAP1 PUSH3 0x3D8 SWAP1 DUP3 PUSH3 0x743 JUMP JUMPDEST POP PUSH1 0x40 DUP1 MLOAD DUP1 DUP3 ADD SWAP1 SWAP2 MSTORE PUSH1 0x5 DUP2 MSTORE PUSH5 0x496E646965 PUSH1 0xD8 SHL PUSH1 0x20 DUP1 DUP4 ADD SWAP2 SWAP1 SWAP2 MSTORE PUSH1 0x9 PUSH0 MSTORE PUSH1 0xA SWAP1 MSTORE PUSH32 0x825EB4CDA6B8B44578C55770496C59E6DC3CF2235F690BCDAF51A61898CEB284 SWAP1 PUSH3 0x42F SWAP1 DUP3 PUSH3 0x743 JUMP JUMPDEST POP PUSH1 0x40 DUP1 MLOAD DUP1 DUP3 ADD SWAP1 SWAP2 MSTORE PUSH1 0x5 DUP2 MSTORE PUSH5 0x13595D185B PUSH1 0xDA SHL PUSH1 0x20 DUP1 DUP4 ADD SWAP2 SWAP1 SWAP2 MSTORE PUSH1 0xA PUSH0 DUP2 SWAP1 MSTORE SWAP1 MSTORE PUSH32 0x3E57C57B03145299956BE61386751C5B285D460D484D5C2403A6BE086D9D6BAA SWAP1 PUSH3 0x486 SWAP1 DUP3 PUSH3 0x743 JUMP JUMPDEST POP POP PUSH1 0xD PUSH1 0x20 MSTORE POP POP PUSH9 0x56BC75E2D63100000 PUSH32 0xFD54FF1ED53F34A900B24C5BA64F85761163B5D82D98A47B9BD80E45466993C5 SSTORE POP PUSH9 0x1B1AE4D6E2EF500000 PUSH32 0x10A81EED9D63D16FACE5E76357905348E6253D3394086026BB2BF2145D7CC249 SSTORE PUSH1 0x3 PUSH0 MSTORE PUSH9 0x3635C9ADC5DEA00000 PUSH32 0x26B4A10D0F0B04925C23BD4480EE147C916E5E87A7D68206A533DAD160AC81E2 SSTORE PUSH3 0x80B JUMP JUMPDEST PUSH1 0x2 PUSH3 0x52C DUP3 DUP3 PUSH3 0x743 JUMP JUMPDEST POP POP JUMP JUMPDEST PUSH1 0x5 DUP1 SLOAD PUSH1 0x1 PUSH1 0x1 PUSH1 0xA0 SHL SUB DUP4 DUP2 AND PUSH1 0x1 PUSH1 0x1 PUSH1 0xA0 SHL SUB NOT DUP4 AND DUP2 OR SWAP1 SWAP4 SSTORE PUSH1 0x40 MLOAD SWAP2 AND SWAP2 SWAP1 DUP3 SWAP1 PUSH32 0x8BE0079C531659141344CD1FD0A4F28419497F9722A3DAAFE3B4186F6B6457E0 SWAP1 PUSH0 SWAP1 LOG3 POP POP JUMP JUMPDEST DUP1 MLOAD PUSH1 0x1 PUSH1 0x1 PUSH1 0xA0 SHL SUB DUP2 AND DUP2 EQ PUSH3 0x598 JUMPI PUSH0 DUP1 REVERT JUMPDEST SWAP2 SWAP1 POP JUMP JUMPDEST PUSH4 0x4E487B71 PUSH1 0xE0 SHL PUSH0 MSTORE PUSH1 0x41 PUSH1 0x4 MSTORE PUSH1 0x24 PUSH0 REVERT JUMPDEST PUSH0 DUP1 PUSH0 DUP1 PUSH1 0x80 DUP6 DUP8 SUB SLT ISZERO PUSH3 0x5C5 JUMPI PUSH0 DUP1 REVERT JUMPDEST PUSH3 0x5D0 DUP6 PUSH3 0x581 JUMP JUMPDEST PUSH1 0x20 DUP7 DUP2 ADD MLOAD SWAP2 SWAP6 POP SWAP1 PUSH1 0x1 PUSH1 0x1 PUSH1 0x40 SHL SUB DUP1 DUP3 GT ISZERO PUSH3 0x5EF JUMPI PUSH0 DUP1 REVERT JUMPDEST DUP2 DUP9 ADD SWAP2 POP DUP9 PUSH1 0x1F DUP4 ADD SLT PUSH3 0x603 JUMPI PUSH0 DUP1 REVERT JUMPDEST DUP2 MLOAD DUP2 DUP2 GT ISZERO PUSH3 0x618 JUMPI PUSH3 0x618 PUSH3 0x59D JUMP JUMPDEST PUSH1 0x40 MLOAD PUSH1 0x1F DUP3 ADD PUSH1 0x1F NOT SWAP1 DUP2 AND PUSH1 0x3F ADD AND DUP2 ADD SWAP1 DUP4 DUP3 GT DUP2 DUP4 LT OR ISZERO PUSH3 0x643 JUMPI PUSH3 0x643 PUSH3 0x59D JUMP JUMPDEST DUP2 PUSH1 0x40 MSTORE DUP3 DUP2 MSTORE DUP12 DUP7 DUP5 DUP8 ADD ADD GT ISZERO PUSH3 0x65B JUMPI PUSH0 DUP1 REVERT JUMPDEST PUSH0 SWAP4 POP JUMPDEST DUP3 DUP5 LT ISZERO PUSH3 0x67E JUMPI DUP5 DUP5 ADD DUP7 ADD MLOAD DUP2 DUP6 ADD DUP8 ADD MSTORE SWAP3 DUP6 ADD SWAP3 PUSH3 0x65F JUMP JUMPDEST PUSH0 DUP7 DUP5 DUP4 ADD ADD MSTORE DUP1 SWAP9 POP POP POP POP POP POP POP PUSH3 0x69C PUSH1 0x40 DUP7 ADD PUSH3 0x581 JUMP JUMPDEST SWAP2 POP PUSH3 0x6AC PUSH1 0x60 DUP7 ADD PUSH3 0x581 JUMP JUMPDEST SWAP1 POP SWAP3 SWAP6 SWAP2 SWAP5 POP SWAP3 POP JUMP JUMPDEST PUSH1 0x1 DUP2 DUP2 SHR SWAP1 DUP3 AND DUP1 PUSH3 0x6CC JUMPI PUSH1 0x7F DUP3 AND SWAP2 POP JUMPDEST PUSH1 0x20 DUP3 LT DUP2 SUB PUSH3 0x6EB JUMPI PUSH4 0x4E487B71 PUSH1 0xE0 SHL PUSH0 MSTORE PUSH1 0x22 PUSH1 0x4 MSTORE PUSH1 0x24 PUSH0 REVERT JUMPDEST POP SWAP2 SWAP1 POP JUMP JUMPDEST PUSH1 0x1F DUP3 GT ISZERO PUSH3 0x73E JUMPI PUSH0 DUP2 DUP2 MSTORE PUSH1 0x20 DUP2 KECCAK256 PUSH1 0x1F DUP6 ADD PUSH1 0x5 SHR DUP2 ADD PUSH1 0x20 DUP7 LT ISZERO PUSH3 0x719 JUMPI POP DUP1 JUMPDEST PUSH1 0x1F DUP6 ADD PUSH1 0x5 SHR DUP3 ADD SWAP2 POP JUMPDEST DUP2 DUP2 LT ISZERO PUSH3 0x73A JUMPI DUP3 DUP2 SSTORE PUSH1 0x1 ADD PUSH3 0x725 JUMP JUMPDEST POP POP POP JUMPDEST POP POP POP JUMP JUMPDEST DUP2 MLOAD PUSH1 0x1 PUSH1 0x1 PUSH1 0x40 SHL SUB DUP2 GT ISZERO PUSH3 0x75F JUMPI PUSH3 0x75F PUSH3 0x59D JUMP JUMPDEST PUSH3 0x777 DUP2 PUSH3 0x770 DUP5 SLOAD PUSH3 0x6B7 JUMP JUMPDEST DUP5 PUSH3 0x6F1 JUMP JUMPDEST PUSH1 0x20 DUP1 PUSH1 0x1F DUP4 GT PUSH1 0x1 DUP2 EQ PUSH3 0x7AD JUMPI PUSH0 DUP5 ISZERO PUSH3 0x795 JUMPI POP DUP6 DUP4 ADD MLOAD JUMPDEST PUSH0 NOT PUSH1 0x3 DUP7 SWAP1 SHL SHR NOT AND PUSH1 0x1 DUP6 SWAP1 SHL OR DUP6 SSTORE PUSH3 0x73A JUMP JUMPDEST PUSH0 DUP6 DUP2 MSTORE PUSH1 0x20 DUP2 KECCAK256 PUSH1 0x1F NOT DUP7 AND SWAP2 JUMPDEST DUP3 DUP2 LT ISZERO PUSH3 0x7DD JUMPI DUP9 DUP7 ADD MLOAD DUP3 SSTORE SWAP5 DUP5 ADD SWAP5 PUSH1 0x1 SWAP1 SWAP2 ADD SWAP1 DUP5 ADD PUSH3 0x7BC JUMP JUMPDEST POP DUP6 DUP3 LT ISZERO PUSH3 0x7FB JUMPI DUP8 DUP6 ADD MLOAD PUSH0 NOT PUSH1 0x3 DUP9 SWAP1 SHL PUSH1 0xF8 AND SHR NOT AND DUP2 SSTORE JUMPDEST POP POP POP POP POP PUSH1 0x1 SWAP1 DUP2 SHL ADD SWAP1 SSTORE POP JUMP JUMPDEST PUSH2 0x383B DUP1 PUSH3 0x819 PUSH0 CODECOPY PUSH0 RETURN INVALID PUSH1 0x80 PUSH1 0x40 MSTORE CALLVALUE DUP1 ISZERO PUSH2 0xF JUMPI PUSH0 DUP1 REVERT JUMPDEST POP PUSH1 0x4 CALLDATASIZE LT PUSH2 0x296 JUMPI PUSH0 CALLDATALOAD PUSH1 0xE0 SHR DUP1 PUSH4 0x7B231CD0 GT PUSH2 0x161 JUMPI DUP1 PUSH4 0xCC18EADC GT PUSH2 0xCA JUMPI DUP1 PUSH4 0xF2FDE38B GT PUSH2 0x84 JUMPI DUP1 PUSH4 0xF2FDE38B EQ PUSH2 0x691 JUMPI DUP1 PUSH4 0xF45FB6B5 EQ PUSH2 0x6A4 JUMPI DUP1 PUSH4 0xF7486960 EQ PUSH2 0x3CF JUMPI DUP1 PUSH4 0xFD49D4AA EQ PUSH2 0x6B7 JUMPI DUP1 PUSH4 0xFF4181BE EQ PUSH2 0x6CA JUMPI DUP1 PUSH4 0xFFDBD60D EQ PUSH2 0x711 JUMPI PUSH0 DUP1 REVERT JUMPDEST DUP1 PUSH4 0xCC18EADC EQ PUSH2 0x5AF JUMPI DUP1 PUSH4 0xCD85336E EQ PUSH2 0x5C2 JUMPI DUP1 PUSH4 0xD4C19E33 EQ PUSH2 0x5D5 JUMPI DUP1 PUSH4 0xD5325487 EQ PUSH2 0x649 JUMPI DUP1 PUSH4 0xE985E9C5 EQ PUSH2 0x66B JUMPI DUP1 PUSH4 0xF242432A EQ PUSH2 0x67E JUMPI PUSH0 DUP1 REVERT JUMPDEST DUP1 PUSH4 0xB5FA9642 GT PUSH2 0x11B JUMPI DUP1 PUSH4 0xB5FA9642 EQ PUSH2 0x529 JUMPI DUP1 PUSH4 0xBD85B039 EQ PUSH2 0x531 JUMPI DUP1 PUSH4 0xBD990D32 EQ PUSH2 0x550 JUMPI DUP1 PUSH4 0xC30A0F25 EQ PUSH2 0x563 JUMPI DUP1 PUSH4 0xC71C37D1 EQ PUSH2 0x585 JUMPI DUP1 PUSH4 0xCB2B50CD EQ PUSH2 0x58D JUMPI PUSH0 DUP1 REVERT JUMPDEST DUP1 PUSH4 0x7B231CD0 EQ PUSH2 0x4C4 JUMPI DUP1 PUSH4 0x8DA5CB5B EQ PUSH2 0x4D7 JUMPI DUP1 PUSH4 0x95D89B41 EQ PUSH2 0x4E8 JUMPI DUP1 PUSH4 0x9FC43DBE EQ PUSH2 0x4F0 JUMPI DUP1 PUSH4 0xA22CB465 EQ PUSH2 0x503 JUMPI DUP1 PUSH4 0xAEADE0E6 EQ PUSH2 0x516 JUMPI PUSH0 DUP1 REVERT JUMPDEST DUP1 PUSH4 0x417B9942 GT PUSH2 0x203 JUMPI DUP1 PUSH4 0x55DE28AE GT PUSH2 0x1BD JUMPI DUP1 PUSH4 0x55DE28AE EQ PUSH2 0x463 JUMPI DUP1 PUSH4 0x5982FEFE EQ PUSH2 0x3EA JUMPI DUP1 PUSH4 0x5C3CD209 EQ PUSH2 0x476 JUMPI DUP1 PUSH4 0x64E8934E EQ PUSH2 0x4A1 JUMPI DUP1 PUSH4 0x69D11C55 EQ PUSH2 0x4B4 JUMPI DUP1 PUSH4 0x715018A6 EQ PUSH2 0x4BC JUMPI PUSH0 DUP1 REVERT JUMPDEST DUP1 PUSH4 0x417B9942 EQ PUSH2 0x3BC JUMPI DUP1 PUSH4 0x4389CC22 EQ PUSH2 0x3CF JUMPI DUP1 PUSH4 0x49C6C84F EQ PUSH2 0x3D7 JUMPI DUP1 PUSH4 0x4C6A70CE EQ PUSH2 0x3EA JUMPI DUP1 PUSH4 0x4E1273F4 EQ PUSH2 0x42F JUMPI DUP1 PUSH4 0x4F558E79 EQ PUSH2 0x442 JUMPI PUSH0 DUP1 REVERT JUMPDEST DUP1 PUSH4 0xE7D912E GT PUSH2 0x254 JUMPI DUP1 PUSH4 0xE7D912E EQ PUSH2 0x339 JUMPI DUP1 PUSH4 0xE89341C EQ PUSH2 0x34C JUMPI DUP1 PUSH4 0x15BDCA04 EQ PUSH2 0x35F JUMPI DUP1 PUSH4 0x18160DDD EQ PUSH2 0x381 JUMPI DUP1 PUSH4 0x2EB2C2D6 EQ PUSH2 0x389 JUMPI DUP1 PUSH4 0x37C245FE EQ PUSH2 0x39C JUMPI PUSH0 DUP1 REVERT JUMPDEST DUP1 PUSH3 0xFDD58E EQ PUSH2 0x29A JUMPI DUP1 PUSH4 0x1FFC9A7 EQ PUSH2 0x2C0 JUMPI DUP1 PUSH4 0x2429742 EQ PUSH2 0x2E3 JUMPI DUP1 PUSH4 0x2FE5305 EQ PUSH2 0x2FC JUMPI DUP1 PUSH4 0x4001372 EQ PUSH2 0x311 JUMPI DUP1 PUSH4 0x6FDDE03 EQ PUSH2 0x324 JUMPI JUMPDEST PUSH0 DUP1 REVERT JUMPDEST PUSH2 0x2AD PUSH2 0x2A8 CALLDATASIZE PUSH1 0x4 PUSH2 0x2A25 JUMP JUMPDEST PUSH2 0x730 JUMP JUMPDEST PUSH1 0x40 MLOAD SWAP1 DUP2 MSTORE PUSH1 0x20 ADD JUMPDEST PUSH1 0x40 MLOAD DUP1 SWAP2 SUB SWAP1 RETURN JUMPDEST PUSH2 0x2D3 PUSH2 0x2CE CALLDATASIZE PUSH1 0x4 PUSH2 0x2A62 JUMP JUMPDEST PUSH2 0x757 JUMP JUMPDEST PUSH1 0x40 MLOAD SWAP1 ISZERO ISZERO DUP2 MSTORE PUSH1 0x20 ADD PUSH2 0x2B7 JUMP JUMPDEST PUSH2 0x2EA PUSH0 DUP2 JUMP JUMPDEST PUSH1 0x40 MLOAD PUSH1 0xFF SWAP1 SWAP2 AND DUP2 MSTORE PUSH1 0x20 ADD PUSH2 0x2B7 JUMP JUMPDEST PUSH2 0x30F PUSH2 0x30A CALLDATASIZE PUSH1 0x4 PUSH2 0x2B2C JUMP JUMPDEST PUSH2 0x7A6 JUMP JUMPDEST STOP JUMPDEST PUSH2 0x2AD PUSH2 0x31F CALLDATASIZE PUSH1 0x4 PUSH2 0x2B75 JUMP JUMPDEST PUSH2 0x7BA JUMP JUMPDEST PUSH2 0x32C PUSH2 0x868 JUMP JUMPDEST PUSH1 0x40 MLOAD PUSH2 0x2B7 SWAP2 SWAP1 PUSH2 0x2BF1 JUMP JUMPDEST PUSH2 0x30F PUSH2 0x347 CALLDATASIZE PUSH1 0x4 PUSH2 0x2C4A JUMP JUMPDEST PUSH2 0x8F4 JUMP JUMPDEST PUSH2 0x32C PUSH2 0x35A CALLDATASIZE PUSH1 0x4 PUSH2 0x2CB0 JUMP JUMPDEST PUSH2 0xEF1 JUMP JUMPDEST PUSH2 0x2AD PUSH2 0x36D CALLDATASIZE PUSH1 0x4 PUSH2 0x2CC7 JUMP JUMPDEST PUSH1 0xFF AND PUSH0 SWAP1 DUP2 MSTORE PUSH1 0xD PUSH1 0x20 MSTORE PUSH1 0x40 SWAP1 KECCAK256 SLOAD SWAP1 JUMP JUMPDEST PUSH1 0x4 SLOAD PUSH2 0x2AD JUMP JUMPDEST PUSH2 0x30F PUSH2 0x397 CALLDATASIZE PUSH1 0x4 PUSH2 0x2D6A JUMP JUMPDEST PUSH2 0xF83 JUMP JUMPDEST PUSH2 0x3AF PUSH2 0x3AA CALLDATASIZE PUSH1 0x4 PUSH2 0x2E0C JUMP JUMPDEST PUSH2 0xFE2 JUMP JUMPDEST PUSH1 0x40 MLOAD PUSH2 0x2B7 SWAP2 SWAP1 PUSH2 0x2E5E JUMP JUMPDEST PUSH2 0x30F PUSH2 0x3CA CALLDATASIZE PUSH1 0x4 PUSH2 0x2A25 JUMP JUMPDEST PUSH2 0x1116 JUMP JUMPDEST PUSH2 0x2EA PUSH1 0x1 DUP2 JUMP JUMPDEST PUSH2 0x30F PUSH2 0x3E5 CALLDATASIZE PUSH1 0x4 PUSH2 0x2E0C JUMP JUMPDEST PUSH2 0x11DA JUMP JUMPDEST PUSH2 0x2D3 PUSH2 0x3F8 CALLDATASIZE PUSH1 0x4 PUSH2 0x2A25 JUMP JUMPDEST PUSH1 0x1 PUSH1 0x1 PUSH1 0xA0 SHL SUB SWAP2 SWAP1 SWAP2 AND PUSH0 SWAP1 DUP2 MSTORE PUSH1 0xB PUSH1 0x20 SWAP1 DUP2 MSTORE PUSH1 0x40 DUP1 DUP4 KECCAK256 SWAP4 DUP4 MSTORE SWAP3 SWAP1 MSTORE KECCAK256 SLOAD PUSH2 0x100 SWAP1 DIV PUSH1 0x1 PUSH1 0x1 PUSH1 0x40 SHL SUB AND ISZERO ISZERO SWAP1 JUMP JUMPDEST PUSH2 0x3AF PUSH2 0x43D CALLDATASIZE PUSH1 0x4 PUSH2 0x2E70 JUMP JUMPDEST PUSH2 0x1204 JUMP JUMPDEST PUSH2 0x2D3 PUSH2 0x450 CALLDATASIZE PUSH1 0x4 PUSH2 0x2CB0 JUMP JUMPDEST PUSH0 SWAP1 DUP2 MSTORE PUSH1 0x3 PUSH1 0x20 MSTORE PUSH1 0x40 SWAP1 KECCAK256 SLOAD ISZERO ISZERO SWAP1 JUMP JUMPDEST PUSH2 0x30F PUSH2 0x471 CALLDATASIZE PUSH1 0x4 PUSH2 0x2CB0 JUMP JUMPDEST PUSH2 0x12D6 JUMP JUMPDEST PUSH1 0x9 SLOAD PUSH2 0x489 SWAP1 PUSH1 0x1 PUSH1 0x1 PUSH1 0xA0 SHL SUB AND DUP2 JUMP JUMPDEST PUSH1 0x40 MLOAD PUSH1 0x1 PUSH1 0x1 PUSH1 0xA0 SHL SUB SWAP1 SWAP2 AND DUP2 MSTORE PUSH1 0x20 ADD PUSH2 0x2B7 JUMP JUMPDEST PUSH2 0x30F PUSH2 0x4AF CALLDATASIZE PUSH1 0x4 PUSH2 0x2F29 JUMP JUMPDEST PUSH2 0x13A1 JUMP JUMPDEST PUSH2 0x2AD PUSH1 0xA DUP2 JUMP JUMPDEST PUSH2 0x30F PUSH2 0x16BD JUMP JUMPDEST PUSH2 0x30F PUSH2 0x4D2 CALLDATASIZE PUSH1 0x4 PUSH2 0x2F29 JUMP JUMPDEST PUSH2 0x16D0 JUMP JUMPDEST PUSH1 0x5 SLOAD PUSH1 0x1 PUSH1 0x1 PUSH1 0xA0 SHL SUB AND PUSH2 0x489 JUMP JUMPDEST PUSH2 0x32C PUSH2 0x18BF JUMP JUMPDEST PUSH2 0x30F PUSH2 0x4FE CALLDATASIZE PUSH1 0x4 PUSH2 0x2E0C JUMP JUMPDEST PUSH2 0x18CC JUMP JUMPDEST PUSH2 0x30F PUSH2 0x511 CALLDATASIZE PUSH1 0x4 PUSH2 0x2F53 JUMP JUMPDEST PUSH2 0x18F6 JUMP JUMPDEST PUSH1 0x8 SLOAD PUSH2 0x489 SWAP1 PUSH1 0x1 PUSH1 0x1 PUSH1 0xA0 SHL SUB AND DUP2 JUMP JUMPDEST PUSH2 0x2EA PUSH1 0x2 DUP2 JUMP JUMPDEST PUSH2 0x2AD PUSH2 0x53F CALLDATASIZE PUSH1 0x4 PUSH2 0x2CB0 JUMP JUMPDEST PUSH0 SWAP1 DUP2 MSTORE PUSH1 0x3 PUSH1 0x20 MSTORE PUSH1 0x40 SWAP1 KECCAK256 SLOAD SWAP1 JUMP JUMPDEST PUSH2 0x30F PUSH2 0x55E CALLDATASIZE PUSH1 0x4 PUSH2 0x2F8C JUMP JUMPDEST PUSH2 0x1905 JUMP JUMPDEST PUSH2 0x2D3 PUSH2 0x571 CALLDATASIZE PUSH1 0x4 PUSH2 0x2CB0 JUMP JUMPDEST PUSH1 0xC PUSH1 0x20 MSTORE PUSH0 SWAP1 DUP2 MSTORE PUSH1 0x40 SWAP1 KECCAK256 SLOAD PUSH1 0xFF AND DUP2 JUMP JUMPDEST PUSH2 0x2EA PUSH1 0x3 DUP2 JUMP JUMPDEST PUSH2 0x597 PUSH3 0x76A700 DUP2 JUMP JUMPDEST PUSH1 0x40 MLOAD PUSH1 0x1 PUSH1 0x1 PUSH1 0x40 SHL SUB SWAP1 SWAP2 AND DUP2 MSTORE PUSH1 0x20 ADD PUSH2 0x2B7 JUMP JUMPDEST PUSH2 0x30F PUSH2 0x5BD CALLDATASIZE PUSH1 0x4 PUSH2 0x2FC4 JUMP JUMPDEST PUSH2 0x1BE3 JUMP JUMPDEST PUSH2 0x2D3 PUSH2 0x5D0 CALLDATASIZE PUSH1 0x4 PUSH2 0x2A25 JUMP JUMPDEST PUSH2 0x1C02 JUMP JUMPDEST PUSH2 0x61D PUSH2 0x5E3 CALLDATASIZE PUSH1 0x4 PUSH2 0x2A25 JUMP JUMPDEST PUSH1 0xB PUSH1 0x20 SWAP1 DUP2 MSTORE PUSH0 SWAP3 DUP4 MSTORE PUSH1 0x40 DUP1 DUP5 KECCAK256 SWAP1 SWAP2 MSTORE SWAP1 DUP3 MSTORE SWAP1 KECCAK256 SLOAD PUSH1 0xFF DUP1 DUP3 AND SWAP2 PUSH1 0x1 PUSH1 0x1 PUSH1 0x40 SHL SUB PUSH2 0x100 DUP3 DIV AND SWAP2 PUSH1 0x1 PUSH1 0x48 SHL SWAP1 SWAP2 DIV AND DUP4 JUMP JUMPDEST PUSH1 0x40 DUP1 MLOAD PUSH1 0xFF SWAP5 DUP6 AND DUP2 MSTORE PUSH1 0x1 PUSH1 0x1 PUSH1 0x40 SHL SUB SWAP1 SWAP4 AND PUSH1 0x20 DUP5 ADD MSTORE SWAP3 AND SWAP2 DUP2 ADD SWAP2 SWAP1 SWAP2 MSTORE PUSH1 0x60 ADD PUSH2 0x2B7 JUMP JUMPDEST PUSH2 0x65C PUSH2 0x657 CALLDATASIZE PUSH1 0x4 PUSH2 0x2E0C JUMP JUMPDEST PUSH2 0x1CA5 JUMP JUMPDEST PUSH1 0x40 MLOAD PUSH2 0x2B7 SWAP4 SWAP3 SWAP2 SWAP1 PUSH2 0x2FFD JUMP JUMPDEST PUSH2 0x2D3 PUSH2 0x679 CALLDATASIZE PUSH1 0x4 PUSH2 0x308E JUMP JUMPDEST PUSH2 0x1F03 JUMP JUMPDEST PUSH2 0x30F PUSH2 0x68C CALLDATASIZE PUSH1 0x4 PUSH2 0x30B6 JUMP JUMPDEST PUSH2 0x1F30 JUMP JUMPDEST PUSH2 0x30F PUSH2 0x69F CALLDATASIZE PUSH1 0x4 PUSH2 0x2E0C JUMP JUMPDEST PUSH2 0x1F8F JUMP JUMPDEST PUSH2 0x32C PUSH2 0x6B2 CALLDATASIZE PUSH1 0x4 PUSH2 0x2CB0 JUMP JUMPDEST PUSH2 0x1FC9 JUMP JUMPDEST PUSH2 0x30F PUSH2 0x6C5 CALLDATASIZE PUSH1 0x4 PUSH2 0x3115 JUMP JUMPDEST PUSH2 0x1FE1 JUMP JUMPDEST PUSH2 0x6DD PUSH2 0x6D8 CALLDATASIZE PUSH1 0x4 PUSH2 0x2A25 JUMP JUMPDEST PUSH2 0x2075 JUMP JUMPDEST PUSH1 0x40 DUP1 MLOAD PUSH1 0xFF SWAP6 DUP7 AND DUP2 MSTORE PUSH1 0x1 PUSH1 0x1 PUSH1 0x40 SHL SUB SWAP5 SWAP1 SWAP5 AND PUSH1 0x20 DUP6 ADD MSTORE SWAP2 SWAP1 SWAP4 AND SWAP1 DUP3 ADD MSTORE SWAP1 ISZERO ISZERO PUSH1 0x60 DUP3 ADD MSTORE PUSH1 0x80 ADD PUSH2 0x2B7 JUMP JUMPDEST PUSH2 0x2AD PUSH2 0x71F CALLDATASIZE PUSH1 0x4 PUSH2 0x2CC7 JUMP JUMPDEST PUSH1 0xD PUSH1 0x20 MSTORE PUSH0 SWAP1 DUP2 MSTORE PUSH1 0x40 SWAP1 KECCAK256 SLOAD DUP2 JUMP JUMPDEST PUSH0 DUP2 DUP2 MSTORE PUSH1 0x20 DUP2 DUP2 MSTORE PUSH1 0x40 DUP1 DUP4 KECCAK256 PUSH1 0x1 PUSH1 0x1 PUSH1 0xA0 SHL SUB DUP7 AND DUP5 MSTORE SWAP1 SWAP2 MSTORE SWAP1 KECCAK256 SLOAD JUMPDEST SWAP3 SWAP2 POP POP JUMP JUMPDEST PUSH0 PUSH1 0x1 PUSH1 0x1 PUSH1 0xE0 SHL SUB NOT DUP3 AND PUSH4 0x6CDB3D13 PUSH1 0xE1 SHL EQ DUP1 PUSH2 0x787 JUMPI POP PUSH1 0x1 PUSH1 0x1 PUSH1 0xE0 SHL SUB NOT DUP3 AND PUSH4 0x3A24D07 PUSH1 0xE2 SHL EQ JUMPDEST DUP1 PUSH2 0x751 JUMPI POP PUSH4 0x1FFC9A7 PUSH1 0xE0 SHL PUSH1 0x1 PUSH1 0x1 PUSH1 0xE0 SHL SUB NOT DUP4 AND EQ PUSH2 0x751 JUMP JUMPDEST PUSH2 0x7AE PUSH2 0x2116 JUMP JUMPDEST PUSH2 0x7B7 DUP2 PUSH2 0x2143 JUMP JUMPDEST POP JUMP JUMPDEST PUSH1 0x1 PUSH1 0x1 PUSH1 0xA0 SHL SUB DUP4 AND PUSH0 SWAP1 DUP2 MSTORE PUSH1 0xB PUSH1 0x20 SWAP1 DUP2 MSTORE PUSH1 0x40 DUP1 DUP4 KECCAK256 DUP6 DUP5 MSTORE DUP3 MSTORE DUP1 DUP4 KECCAK256 DUP2 MLOAD PUSH1 0x60 DUP2 ADD DUP4 MSTORE SWAP1 SLOAD PUSH1 0xFF DUP1 DUP3 AND DUP4 MSTORE PUSH1 0x1 PUSH1 0x1 PUSH1 0x40 SHL SUB PUSH2 0x100 DUP4 DIV AND SWAP5 DUP4 ADD DUP6 SWAP1 MSTORE PUSH1 0x1 PUSH1 0x48 SHL SWAP1 SWAP2 DIV AND SWAP2 DUP2 ADD SWAP2 SWAP1 SWAP2 MSTORE SWAP1 ISZERO DUP1 PUSH2 0x827 JUMPI POP DUP1 PUSH0 ADD MLOAD PUSH1 0xFF AND DUP4 PUSH1 0xFF AND GT ISZERO JUMPDEST ISZERO PUSH2 0x835 JUMPI PUSH0 SWAP2 POP POP PUSH2 0x861 JUMP JUMPDEST DUP1 MLOAD PUSH1 0xFF SWAP1 DUP2 AND PUSH0 SWAP1 DUP2 MSTORE PUSH1 0xD PUSH1 0x20 MSTORE PUSH1 0x40 DUP1 DUP3 KECCAK256 SLOAD SWAP3 DUP7 AND DUP3 MSTORE SWAP1 KECCAK256 SLOAD PUSH2 0x85D SWAP2 SWAP1 PUSH2 0x3143 JUMP JUMPDEST SWAP2 POP POP JUMPDEST SWAP4 SWAP3 POP POP POP JUMP JUMPDEST PUSH1 0x6 DUP1 SLOAD PUSH2 0x875 SWAP1 PUSH2 0x3156 JUMP JUMPDEST DUP1 PUSH1 0x1F ADD PUSH1 0x20 DUP1 SWAP2 DIV MUL PUSH1 0x20 ADD PUSH1 0x40 MLOAD SWAP1 DUP2 ADD PUSH1 0x40 MSTORE DUP1 SWAP3 SWAP2 SWAP1 DUP2 DUP2 MSTORE PUSH1 0x20 ADD DUP3 DUP1 SLOAD PUSH2 0x8A1 SWAP1 PUSH2 0x3156 JUMP JUMPDEST DUP1 ISZERO PUSH2 0x8EC JUMPI DUP1 PUSH1 0x1F LT PUSH2 0x8C3 JUMPI PUSH2 0x100 DUP1 DUP4 SLOAD DIV MUL DUP4 MSTORE SWAP2 PUSH1 0x20 ADD SWAP2 PUSH2 0x8EC JUMP JUMPDEST DUP3 ADD SWAP2 SWAP1 PUSH0 MSTORE PUSH1 0x20 PUSH0 KECCAK256 SWAP1 JUMPDEST DUP2 SLOAD DUP2 MSTORE SWAP1 PUSH1 0x1 ADD SWAP1 PUSH1 0x20 ADD DUP1 DUP4 GT PUSH2 0x8CF JUMPI DUP3 SWAP1 SUB PUSH1 0x1F AND DUP3 ADD SWAP2 JUMPDEST POP POP POP POP POP DUP2 JUMP JUMPDEST DUP3 DUP2 EQ PUSH2 0x93A JUMPI PUSH1 0x40 MLOAD PUSH3 0x461BCD PUSH1 0xE5 SHL DUP2 MSTORE PUSH1 0x20 PUSH1 0x4 DUP3 ADD MSTORE PUSH1 0xF PUSH1 0x24 DUP3 ADD MSTORE PUSH15 0x82E4E4C2F2E640DAD2E6DAC2E8C6D PUSH1 0x8B SHL PUSH1 0x44 DUP3 ADD MSTORE PUSH1 0x64 ADD JUMPDEST PUSH1 0x40 MLOAD DUP1 SWAP2 SUB SWAP1 REVERT JUMPDEST DUP3 PUSH2 0x976 JUMPI PUSH1 0x40 MLOAD PUSH3 0x461BCD PUSH1 0xE5 SHL DUP2 MSTORE PUSH1 0x20 PUSH1 0x4 DUP3 ADD MSTORE PUSH1 0xC PUSH1 0x24 DUP3 ADD MSTORE PUSH12 0x456D70747920617272617973 PUSH1 0xA0 SHL PUSH1 0x44 DUP3 ADD MSTORE PUSH1 0x64 ADD PUSH2 0x931 JUMP JUMPDEST PUSH0 DUP1 JUMPDEST DUP3 DUP2 LT ISZERO PUSH2 0xA5C JUMPI PUSH1 0x1 DUP5 DUP5 DUP4 DUP2 DUP2 LT PUSH2 0x995 JUMPI PUSH2 0x995 PUSH2 0x318E JUMP JUMPDEST SWAP1 POP PUSH1 0x20 MUL ADD PUSH1 0x20 DUP2 ADD SWAP1 PUSH2 0x9AA SWAP2 SWAP1 PUSH2 0x2CC7 JUMP JUMPDEST PUSH1 0xFF AND LT ISZERO DUP1 ISZERO PUSH2 0x9E5 JUMPI POP PUSH1 0x3 DUP5 DUP5 DUP4 DUP2 DUP2 LT PUSH2 0x9CA JUMPI PUSH2 0x9CA PUSH2 0x318E JUMP JUMPDEST SWAP1 POP PUSH1 0x20 MUL ADD PUSH1 0x20 DUP2 ADD SWAP1 PUSH2 0x9DF SWAP2 SWAP1 PUSH2 0x2CC7 JUMP JUMPDEST PUSH1 0xFF AND GT ISZERO JUMPDEST PUSH2 0xA01 JUMPI PUSH1 0x40 MLOAD PUSH3 0x461BCD PUSH1 0xE5 SHL DUP2 MSTORE PUSH1 0x4 ADD PUSH2 0x931 SWAP1 PUSH2 0x31A2 JUMP JUMPDEST PUSH1 0xD PUSH0 DUP6 DUP6 DUP5 DUP2 DUP2 LT PUSH2 0xA16 JUMPI PUSH2 0xA16 PUSH2 0x318E JUMP JUMPDEST SWAP1 POP PUSH1 0x20 MUL ADD PUSH1 0x20 DUP2 ADD SWAP1 PUSH2 0xA2B SWAP2 SWAP1 PUSH2 0x2CC7 JUMP JUMPDEST PUSH1 0xFF AND DUP2 MSTORE PUSH1 0x20 DUP2 ADD SWAP2 SWAP1 SWAP2 MSTORE PUSH1 0x40 ADD PUSH0 KECCAK256 SLOAD PUSH2 0xA48 SWAP1 DUP4 PUSH2 0x31C8 JUMP JUMPDEST SWAP2 POP DUP1 PUSH2 0xA54 DUP2 PUSH2 0x31DB JUMP JUMPDEST SWAP2 POP POP PUSH2 0x979 JUMP JUMPDEST POP PUSH1 0x9 SLOAD PUSH1 0x40 MLOAD PUSH4 0x70A08231 PUSH1 0xE0 SHL DUP2 MSTORE CALLER PUSH1 0x4 DUP3 ADD MSTORE DUP3 SWAP2 PUSH1 0x1 PUSH1 0x1 PUSH1 0xA0 SHL SUB AND SWAP1 PUSH4 0x70A08231 SWAP1 PUSH1 0x24 ADD PUSH1 0x20 PUSH1 0x40 MLOAD DUP1 DUP4 SUB DUP2 DUP7 GAS STATICCALL ISZERO DUP1 ISZERO PUSH2 0xAA3 JUMPI RETURNDATASIZE PUSH0 DUP1 RETURNDATACOPY RETURNDATASIZE PUSH0 REVERT JUMPDEST POP POP POP POP PUSH1 0x40 MLOAD RETURNDATASIZE PUSH1 0x1F NOT PUSH1 0x1F DUP3 ADD AND DUP3 ADD DUP1 PUSH1 0x40 MSTORE POP DUP2 ADD SWAP1 PUSH2 0xAC7 SWAP2 SWAP1 PUSH2 0x31F3 JUMP JUMPDEST LT ISZERO PUSH2 0xB11 JUMPI PUSH1 0x40 MLOAD PUSH3 0x461BCD PUSH1 0xE5 SHL DUP2 MSTORE PUSH1 0x20 PUSH1 0x4 DUP3 ADD MSTORE PUSH1 0x19 PUSH1 0x24 DUP3 ADD MSTORE PUSH25 0x496E73756666696369656E7420435649422062616C616E6365 PUSH1 0x38 SHL PUSH1 0x44 DUP3 ADD MSTORE PUSH1 0x64 ADD PUSH2 0x931 JUMP JUMPDEST PUSH1 0x9 SLOAD PUSH1 0x40 MLOAD PUSH4 0x79CC679 PUSH1 0xE4 SHL DUP2 MSTORE CALLER PUSH1 0x4 DUP3 ADD MSTORE PUSH1 0x24 DUP2 ADD DUP4 SWAP1 MSTORE PUSH1 0x1 PUSH1 0x1 PUSH1 0xA0 SHL SUB SWAP1 SWAP2 AND SWAP1 PUSH4 0x79CC6790 SWAP1 PUSH1 0x44 ADD PUSH0 PUSH1 0x40 MLOAD DUP1 DUP4 SUB DUP2 PUSH0 DUP8 DUP1 EXTCODESIZE ISZERO DUP1 ISZERO PUSH2 0xB5A JUMPI PUSH0 DUP1 REVERT JUMPDEST POP GAS CALL ISZERO DUP1 ISZERO PUSH2 0xB6C JUMPI RETURNDATASIZE PUSH0 DUP1 RETURNDATACOPY RETURNDATASIZE PUSH0 REVERT JUMPDEST POP PUSH0 SWAP3 POP DUP7 SWAP2 POP POP PUSH1 0x1 PUSH1 0x1 PUSH1 0x40 SHL SUB DUP2 GT ISZERO PUSH2 0xB8B JUMPI PUSH2 0xB8B PUSH2 0x2A7D JUMP JUMPDEST PUSH1 0x40 MLOAD SWAP1 DUP1 DUP3 MSTORE DUP1 PUSH1 0x20 MUL PUSH1 0x20 ADD DUP3 ADD PUSH1 0x40 MSTORE DUP1 ISZERO PUSH2 0xBB4 JUMPI DUP2 PUSH1 0x20 ADD PUSH1 0x20 DUP3 MUL DUP1 CALLDATASIZE DUP4 CALLDATACOPY ADD SWAP1 POP JUMPDEST POP SWAP1 POP PUSH0 JUMPDEST DUP6 DUP2 LT ISZERO PUSH2 0xE9C JUMPI PUSH1 0x1 DUP8 DUP8 DUP4 DUP2 DUP2 LT PUSH2 0xBD5 JUMPI PUSH2 0xBD5 PUSH2 0x318E JUMP JUMPDEST SWAP1 POP PUSH1 0x20 MUL ADD CALLDATALOAD LT ISZERO DUP1 ISZERO PUSH2 0xC03 JUMPI POP PUSH1 0xA DUP8 DUP8 DUP4 DUP2 DUP2 LT PUSH2 0xBF9 JUMPI PUSH2 0xBF9 PUSH2 0x318E JUMP JUMPDEST SWAP1 POP PUSH1 0x20 MUL ADD CALLDATALOAD GT ISZERO JUMPDEST PUSH2 0xC1F JUMPI PUSH1 0x40 MLOAD PUSH3 0x461BCD PUSH1 0xE5 SHL DUP2 MSTORE PUSH1 0x4 ADD PUSH2 0x931 SWAP1 PUSH2 0x320A JUMP JUMPDEST CALLER PUSH0 SWAP1 DUP2 MSTORE PUSH1 0xB PUSH1 0x20 MSTORE PUSH1 0x40 DUP2 KECCAK256 SWAP1 DUP9 DUP9 DUP5 DUP2 DUP2 LT PUSH2 0xC40 JUMPI PUSH2 0xC40 PUSH2 0x318E JUMP JUMPDEST PUSH1 0x20 SWAP1 DUP2 MUL SWAP3 SWAP1 SWAP3 ADD CALLDATALOAD DUP4 MSTORE POP DUP2 ADD SWAP2 SWAP1 SWAP2 MSTORE PUSH1 0x40 ADD PUSH0 KECCAK256 SLOAD PUSH2 0x100 SWAP1 DIV PUSH1 0x1 PUSH1 0x1 PUSH1 0x40 SHL SUB AND ISZERO PUSH2 0xCA3 JUMPI PUSH1 0x40 MLOAD PUSH3 0x461BCD PUSH1 0xE5 SHL DUP2 MSTORE PUSH1 0x20 PUSH1 0x4 DUP3 ADD MSTORE PUSH1 0xC PUSH1 0x24 DUP3 ADD MSTORE PUSH12 0x426164676520657869737473 PUSH1 0xA0 SHL PUSH1 0x44 DUP3 ADD MSTORE PUSH1 0x64 ADD PUSH2 0x931 JUMP JUMPDEST PUSH1 0x40 MLOAD DUP1 PUSH1 0x60 ADD PUSH1 0x40 MSTORE DUP1 DUP7 DUP7 DUP5 DUP2 DUP2 LT PUSH2 0xCC0 JUMPI PUSH2 0xCC0 PUSH2 0x318E JUMP JUMPDEST SWAP1 POP PUSH1 0x20 MUL ADD PUSH1 0x20 DUP2 ADD SWAP1 PUSH2 0xCD5 SWAP2 SWAP1 PUSH2 0x2CC7 JUMP JUMPDEST PUSH1 0xFF AND DUP2 MSTORE PUSH1 0x1 PUSH1 0x1 PUSH1 0x40 SHL SUB TIMESTAMP AND PUSH1 0x20 DUP1 DUP4 ADD SWAP2 SWAP1 SWAP2 MSTORE PUSH1 0x1 PUSH1 0x40 SWAP3 DUP4 ADD MSTORE CALLER PUSH0 SWAP1 DUP2 MSTORE PUSH1 0xB SWAP1 SWAP2 MSTORE SWAP1 DUP2 KECCAK256 SWAP1 DUP10 DUP10 DUP6 DUP2 DUP2 LT PUSH2 0xD15 JUMPI PUSH2 0xD15 PUSH2 0x318E JUMP JUMPDEST PUSH1 0x20 SWAP1 DUP2 MUL SWAP3 SWAP1 SWAP3 ADD CALLDATALOAD DUP4 MSTORE POP DUP2 DUP2 ADD SWAP3 SWAP1 SWAP3 MSTORE PUSH1 0x40 SWAP1 DUP2 ADD PUSH0 KECCAK256 DUP4 MLOAD DUP2 SLOAD SWAP4 DUP6 ADD MLOAD SWAP5 SWAP1 SWAP3 ADD MLOAD PUSH1 0xFF SWAP1 DUP2 AND PUSH1 0x1 PUSH1 0x48 SHL MUL PUSH1 0xFF PUSH1 0x48 SHL NOT PUSH1 0x1 PUSH1 0x1 PUSH1 0x40 SHL SUB SWAP1 SWAP7 AND PUSH2 0x100 MUL PUSH9 0xFFFFFFFFFFFFFFFFFF NOT SWAP1 SWAP6 AND SWAP2 SWAP1 SWAP4 AND OR SWAP3 SWAP1 SWAP3 OR SWAP3 SWAP1 SWAP3 AND SWAP2 SWAP1 SWAP2 OR SWAP1 SSTORE DUP2 MLOAD PUSH1 0x1 SWAP1 DUP4 SWAP1 DUP4 SWAP1 DUP2 LT PUSH2 0xD95 JUMPI PUSH2 0xD95 PUSH2 0x318E JUMP JUMPDEST PUSH1 0x20 MUL PUSH1 0x20 ADD ADD DUP2 DUP2 MSTORE POP POP DUP7 DUP7 DUP3 DUP2 DUP2 LT PUSH2 0xDB3 JUMPI PUSH2 0xDB3 PUSH2 0x318E JUMP JUMPDEST SWAP1 POP PUSH1 0x20 MUL ADD CALLDATALOAD CALLER PUSH1 0x1 PUSH1 0x1 PUSH1 0xA0 SHL SUB AND PUSH32 0xE2CD9E06786BB57E10D4CB6DE25C23039AC44F7B93B1FF941027C25B0504DCAE PUSH1 0xA PUSH0 DUP12 DUP12 DUP8 DUP2 DUP2 LT PUSH2 0xDFA JUMPI PUSH2 0xDFA PUSH2 0x318E JUMP JUMPDEST SWAP1 POP PUSH1 0x20 MUL ADD CALLDATALOAD DUP2 MSTORE PUSH1 0x20 ADD SWAP1 DUP2 MSTORE PUSH1 0x20 ADD PUSH0 KECCAK256 DUP9 DUP9 DUP7 DUP2 DUP2 LT PUSH2 0xE20 JUMPI PUSH2 0xE20 PUSH2 0x318E JUMP JUMPDEST SWAP1 POP PUSH1 0x20 MUL ADD PUSH1 0x20 DUP2 ADD SWAP1 PUSH2 0xE35 SWAP2 SWAP1 PUSH2 0x2CC7 JUMP JUMPDEST PUSH1 0xD PUSH0 DUP12 DUP12 DUP10 DUP2 DUP2 LT PUSH2 0xE4A JUMPI PUSH2 0xE4A PUSH2 0x318E JUMP JUMPDEST SWAP1 POP PUSH1 0x20 MUL ADD PUSH1 0x20 DUP2 ADD SWAP1 PUSH2 0xE5F SWAP2 SWAP1 PUSH2 0x2CC7 JUMP JUMPDEST PUSH1 0xFF AND PUSH1 0xFF AND DUP2 MSTORE PUSH1 0x20 ADD SWAP1 DUP2 MSTORE PUSH1 0x20 ADD PUSH0 KECCAK256 SLOAD PUSH1 0x40 MLOAD PUSH2 0xE82 SWAP4 SWAP3 SWAP2 SWAP1 PUSH2 0x32AD JUMP JUMPDEST PUSH1 0x40 MLOAD DUP1 SWAP2 SUB SWAP1 LOG3 DUP1 PUSH2 0xE94 DUP2 PUSH2 0x31DB JUMP JUMPDEST SWAP2 POP POP PUSH2 0xBB9 JUMP JUMPDEST POP PUSH2 0xEE9 CALLER DUP8 DUP8 DUP1 DUP1 PUSH1 0x20 MUL PUSH1 0x20 ADD PUSH1 0x40 MLOAD SWAP1 DUP2 ADD PUSH1 0x40 MSTORE DUP1 SWAP4 SWAP3 SWAP2 SWAP1 DUP2 DUP2 MSTORE PUSH1 0x20 ADD DUP4 DUP4 PUSH1 0x20 MUL DUP1 DUP3 DUP5 CALLDATACOPY PUSH0 SWAP3 ADD DUP3 SWAP1 MSTORE POP PUSH1 0x40 DUP1 MLOAD PUSH1 0x20 DUP2 ADD SWAP1 SWAP2 MSTORE SWAP1 DUP2 MSTORE DUP8 SWAP4 POP SWAP2 POP PUSH2 0x214F SWAP1 POP JUMP JUMPDEST POP POP POP POP POP POP JUMP JUMPDEST PUSH1 0x60 PUSH1 0x2 DUP1 SLOAD PUSH2 0xF00 SWAP1 PUSH2 0x3156 JUMP JUMPDEST DUP1 PUSH1 0x1F ADD PUSH1 0x20 DUP1 SWAP2 DIV MUL PUSH1 0x20 ADD PUSH1 0x40 MLOAD SWAP1 DUP2 ADD PUSH1 0x40 MSTORE DUP1 SWAP3 SWAP2 SWAP1 DUP2 DUP2 MSTORE PUSH1 0x20 ADD DUP3 DUP1 SLOAD PUSH2 0xF2C SWAP1 PUSH2 0x3156 JUMP JUMPDEST DUP1 ISZERO PUSH2 0xF77 JUMPI DUP1 PUSH1 0x1F LT PUSH2 0xF4E JUMPI PUSH2 0x100 DUP1 DUP4 SLOAD DIV MUL DUP4 MSTORE SWAP2 PUSH1 0x20 ADD SWAP2 PUSH2 0xF77 JUMP JUMPDEST DUP3 ADD SWAP2 SWAP1 PUSH0 MSTORE PUSH1 0x20 PUSH0 KECCAK256 SWAP1 JUMPDEST DUP2 SLOAD DUP2 MSTORE SWAP1 PUSH1 0x1 ADD SWAP1 PUSH1 0x20 ADD DUP1 DUP4 GT PUSH2 0xF5A JUMPI DUP3 SWAP1 SUB PUSH1 0x1F AND DUP3 ADD SWAP2 JUMPDEST POP POP POP POP POP SWAP1 POP SWAP2 SWAP1 POP JUMP JUMPDEST CALLER PUSH1 0x1 PUSH1 0x1 PUSH1 0xA0 SHL SUB DUP7 AND DUP2 EQ DUP1 ISZERO SWAP1 PUSH2 0xFA4 JUMPI POP PUSH2 0xFA2 DUP7 DUP3 PUSH2 0x1F03 JUMP JUMPDEST ISZERO JUMPDEST ISZERO PUSH2 0xFD5 JUMPI PUSH1 0x40 MLOAD PUSH4 0x711BEC91 PUSH1 0xE1 SHL DUP2 MSTORE PUSH1 0x1 PUSH1 0x1 PUSH1 0xA0 SHL SUB DUP1 DUP4 AND PUSH1 0x4 DUP4 ADD MSTORE DUP8 AND PUSH1 0x24 DUP3 ADD MSTORE PUSH1 0x44 ADD PUSH2 0x931 JUMP JUMPDEST PUSH2 0xEE9 DUP7 DUP7 DUP7 DUP7 DUP7 PUSH2 0x218B JUMP JUMPDEST PUSH1 0x60 PUSH0 PUSH1 0x1 JUMPDEST PUSH1 0xA DUP2 GT PUSH2 0x1046 JUMPI PUSH1 0x1 PUSH1 0x1 PUSH1 0xA0 SHL SUB DUP5 AND PUSH0 SWAP1 DUP2 MSTORE PUSH1 0xB PUSH1 0x20 SWAP1 DUP2 MSTORE PUSH1 0x40 DUP1 DUP4 KECCAK256 DUP5 DUP5 MSTORE SWAP1 SWAP2 MSTORE SWAP1 KECCAK256 SLOAD PUSH2 0x100 SWAP1 DIV PUSH1 0x1 PUSH1 0x1 PUSH1 0x40 SHL SUB AND ISZERO PUSH2 0x1034 JUMPI DUP2 PUSH2 0x1030 DUP2 PUSH2 0x31DB JUMP JUMPDEST SWAP3 POP POP JUMPDEST DUP1 PUSH2 0x103E DUP2 PUSH2 0x31DB JUMP JUMPDEST SWAP2 POP POP PUSH2 0xFE8 JUMP JUMPDEST POP PUSH0 DUP2 PUSH1 0x1 PUSH1 0x1 PUSH1 0x40 SHL SUB DUP2 GT ISZERO PUSH2 0x1060 JUMPI PUSH2 0x1060 PUSH2 0x2A7D JUMP JUMPDEST PUSH1 0x40 MLOAD SWAP1 DUP1 DUP3 MSTORE DUP1 PUSH1 0x20 MUL PUSH1 0x20 ADD DUP3 ADD PUSH1 0x40 MSTORE DUP1 ISZERO PUSH2 0x1089 JUMPI DUP2 PUSH1 0x20 ADD PUSH1 0x20 DUP3 MUL DUP1 CALLDATASIZE DUP4 CALLDATACOPY ADD SWAP1 POP JUMPDEST POP SWAP1 POP PUSH0 PUSH1 0x1 JUMPDEST PUSH1 0xA DUP2 GT PUSH2 0x110C JUMPI PUSH1 0x1 PUSH1 0x1 PUSH1 0xA0 SHL SUB DUP7 AND PUSH0 SWAP1 DUP2 MSTORE PUSH1 0xB PUSH1 0x20 SWAP1 DUP2 MSTORE PUSH1 0x40 DUP1 DUP4 KECCAK256 DUP5 DUP5 MSTORE SWAP1 SWAP2 MSTORE SWAP1 KECCAK256 SLOAD PUSH2 0x100 SWAP1 DIV PUSH1 0x1 PUSH1 0x1 PUSH1 0x40 SHL SUB AND ISZERO PUSH2 0x10FA JUMPI DUP1 DUP4 DUP4 DUP2 MLOAD DUP2 LT PUSH2 0x10E1 JUMPI PUSH2 0x10E1 PUSH2 0x318E JUMP JUMPDEST PUSH1 0x20 SWAP1 DUP2 MUL SWAP2 SWAP1 SWAP2 ADD ADD MSTORE DUP2 PUSH2 0x10F6 DUP2 PUSH2 0x31DB JUMP JUMPDEST SWAP3 POP POP JUMPDEST DUP1 PUSH2 0x1104 DUP2 PUSH2 0x31DB JUMP JUMPDEST SWAP2 POP POP PUSH2 0x1090 JUMP JUMPDEST POP SWAP1 SWAP5 SWAP4 POP POP POP POP JUMP JUMPDEST PUSH1 0x1 PUSH1 0x1 PUSH1 0xA0 SHL SUB DUP3 AND PUSH0 SWAP1 DUP2 MSTORE PUSH1 0xB PUSH1 0x20 SWAP1 DUP2 MSTORE PUSH1 0x40 DUP1 DUP4 KECCAK256 DUP5 DUP5 MSTORE SWAP1 SWAP2 MSTORE SWAP1 KECCAK256 DUP1 SLOAD PUSH2 0x100 SWAP1 DIV PUSH1 0x1 PUSH1 0x1 PUSH1 0x40 SHL SUB AND ISZERO DUP1 ISZERO SWAP1 PUSH2 0x1161 JUMPI POP DUP1 SLOAD PUSH1 0x1 PUSH1 0x48 SHL SWAP1 DIV PUSH1 0xFF AND PUSH1 0x1 EQ JUMPDEST ISZERO PUSH2 0x11D5 JUMPI DUP1 SLOAD PUSH2 0x1184 SWAP1 PUSH3 0x76A700 SWAP1 PUSH2 0x100 SWAP1 DIV PUSH1 0x1 PUSH1 0x1 PUSH1 0x40 SHL SUB AND PUSH2 0x32D4 JUMP JUMPDEST PUSH1 0x1 PUSH1 0x1 PUSH1 0x40 SHL SUB AND TIMESTAMP GT ISZERO PUSH2 0x11D5 JUMPI DUP1 SLOAD PUSH1 0xFF PUSH1 0x48 SHL NOT AND DUP2 SSTORE PUSH1 0x40 MLOAD DUP3 SWAP1 PUSH1 0x1 PUSH1 0x1 PUSH1 0xA0 SHL SUB DUP6 AND SWAP1 PUSH32 0xFE3376793D31B551742504AB5D60EF12323F83F07F3F67C68F5C7AC1081FEB05 SWAP1 PUSH0 SWAP1 LOG3 JUMPDEST POP POP POP JUMP JUMPDEST PUSH2 0x11E2 PUSH2 0x2116 JUMP JUMPDEST PUSH1 0x9 DUP1 SLOAD PUSH1 0x1 PUSH1 0x1 PUSH1 0xA0 SHL SUB NOT AND PUSH1 0x1 PUSH1 0x1 PUSH1 0xA0 SHL SUB SWAP3 SWAP1 SWAP3 AND SWAP2 SWAP1 SWAP2 OR SWAP1 SSTORE JUMP JUMPDEST PUSH1 0x60 DUP2 MLOAD DUP4 MLOAD EQ PUSH2 0x1235 JUMPI DUP2 MLOAD DUP4 MLOAD PUSH1 0x40 MLOAD PUSH4 0x5B059991 PUSH1 0xE0 SHL DUP2 MSTORE PUSH1 0x4 DUP2 ADD SWAP3 SWAP1 SWAP3 MSTORE PUSH1 0x24 DUP3 ADD MSTORE PUSH1 0x44 ADD PUSH2 0x931 JUMP JUMPDEST PUSH0 DUP4 MLOAD PUSH1 0x1 PUSH1 0x1 PUSH1 0x40 SHL SUB DUP2 GT ISZERO PUSH2 0x124F JUMPI PUSH2 0x124F PUSH2 0x2A7D JUMP JUMPDEST PUSH1 0x40 MLOAD SWAP1 DUP1 DUP3 MSTORE DUP1 PUSH1 0x20 MUL PUSH1 0x20 ADD DUP3 ADD PUSH1 0x40 MSTORE DUP1 ISZERO PUSH2 0x1278 JUMPI DUP2 PUSH1 0x20 ADD PUSH1 0x20 DUP3 MUL DUP1 CALLDATASIZE DUP4 CALLDATACOPY ADD SWAP1 POP JUMPDEST POP SWAP1 POP PUSH0 JUMPDEST DUP5 MLOAD DUP2 LT ISZERO PUSH2 0x12CE JUMPI PUSH1 0x20 DUP1 DUP3 MUL DUP7 ADD ADD MLOAD PUSH2 0x12A1 SWAP1 PUSH1 0x20 DUP1 DUP5 MUL DUP8 ADD ADD MLOAD PUSH2 0x730 JUMP JUMPDEST DUP3 DUP3 DUP2 MLOAD DUP2 LT PUSH2 0x12B3 JUMPI PUSH2 0x12B3 PUSH2 0x318E JUMP JUMPDEST PUSH1 0x20 SWAP1 DUP2 MUL SWAP2 SWAP1 SWAP2 ADD ADD MSTORE PUSH2 0x12C7 DUP2 PUSH2 0x31DB JUMP JUMPDEST SWAP1 POP PUSH2 0x127D JUMP JUMPDEST POP SWAP4 SWAP3 POP POP POP JUMP JUMPDEST CALLER PUSH0 SWAP1 DUP2 MSTORE PUSH1 0xB PUSH1 0x20 SWAP1 DUP2 MSTORE PUSH1 0x40 DUP1 DUP4 KECCAK256 DUP5 DUP5 MSTORE SWAP1 SWAP2 MSTORE SWAP1 KECCAK256 SLOAD PUSH2 0x100 SWAP1 DIV PUSH1 0x1 PUSH1 0x1 PUSH1 0x40 SHL SUB AND PUSH2 0x133C JUMPI PUSH1 0x40 MLOAD PUSH3 0x461BCD PUSH1 0xE5 SHL DUP2 MSTORE PUSH1 0x20 PUSH1 0x4 DUP3 ADD MSTORE PUSH1 0xF PUSH1 0x24 DUP3 ADD MSTORE PUSH15 0x10985919D9481B9BDD081BDDDB9959 PUSH1 0x8A SHL PUSH1 0x44 DUP3 ADD MSTORE PUSH1 0x64 ADD PUSH2 0x931 JUMP JUMPDEST CALLER PUSH0 DUP2 DUP2 MSTORE PUSH1 0xB PUSH1 0x20 SWAP1 DUP2 MSTORE PUSH1 0x40 DUP1 DUP4 KECCAK256 DUP6 DUP5 MSTORE SWAP1 SWAP2 MSTORE SWAP1 KECCAK256 DUP1 SLOAD PUSH10 0xFFFFFFFFFFFFFFFFFFFF NOT AND SWAP1 SSTORE PUSH2 0x1372 SWAP1 DUP3 PUSH1 0x1 PUSH2 0x21F0 JUMP JUMPDEST PUSH1 0x40 MLOAD DUP2 SWAP1 CALLER SWAP1 PUSH32 0x21EFCAE153B58616332D7F7EE4EB0B72BD5B472048C613A4107D750A710B6402 SWAP1 PUSH0 SWAP1 LOG3 POP JUMP JUMPDEST PUSH1 0x1 DUP3 LT ISZERO DUP1 ISZERO PUSH2 0x13B3 JUMPI POP PUSH1 0xA DUP3 GT ISZERO JUMPDEST PUSH2 0x13CF JUMPI PUSH1 0x40 MLOAD PUSH3 0x461BCD PUSH1 0xE5 SHL DUP2 MSTORE PUSH1 0x4 ADD PUSH2 0x931 SWAP1 PUSH2 0x320A JUMP JUMPDEST PUSH1 0x1 PUSH1 0xFF DUP3 AND LT DUP1 ISZERO SWAP1 PUSH2 0x13E7 JUMPI POP PUSH1 0x3 PUSH1 0xFF DUP3 AND GT ISZERO JUMPDEST PUSH2 0x1403 JUMPI PUSH1 0x40 MLOAD PUSH3 0x461BCD PUSH1 0xE5 SHL DUP2 MSTORE PUSH1 0x4 ADD PUSH2 0x931 SWAP1 PUSH2 0x31A2 JUMP JUMPDEST CALLER PUSH0 SWAP1 DUP2 MSTORE PUSH1 0xB PUSH1 0x20 SWAP1 DUP2 MSTORE PUSH1 0x40 DUP1 DUP4 KECCAK256 DUP6 DUP5 MSTORE SWAP1 SWAP2 MSTORE SWAP1 KECCAK256 SLOAD PUSH2 0x100 SWAP1 DIV PUSH1 0x1 PUSH1 0x1 PUSH1 0x40 SHL SUB AND ISZERO PUSH2 0x146F JUMPI PUSH1 0x40 MLOAD PUSH3 0x461BCD PUSH1 0xE5 SHL DUP2 MSTORE PUSH1 0x20 PUSH1 0x4 DUP3 ADD MSTORE PUSH1 0x14 PUSH1 0x24 DUP3 ADD MSTORE PUSH20 0x426164676520616C726561647920657869737473 PUSH1 0x60 SHL PUSH1 0x44 DUP3 ADD MSTORE PUSH1 0x64 ADD PUSH2 0x931 JUMP JUMPDEST PUSH1 0xFF DUP2 AND PUSH0 SWAP1 DUP2 MSTORE PUSH1 0xD PUSH1 0x20 MSTORE PUSH1 0x40 SWAP1 KECCAK256 SLOAD DUP1 PUSH2 0x14C2 JUMPI PUSH1 0x40 MLOAD PUSH3 0x461BCD PUSH1 0xE5 SHL DUP2 MSTORE PUSH1 0x20 PUSH1 0x4 DUP3 ADD MSTORE PUSH1 0x11 PUSH1 0x24 DUP3 ADD MSTORE PUSH17 0x125B9D985B1A59081D1A595C8818DBDCDD PUSH1 0x7A SHL PUSH1 0x44 DUP3 ADD MSTORE PUSH1 0x64 ADD PUSH2 0x931 JUMP JUMPDEST PUSH1 0x9 SLOAD PUSH1 0x40 MLOAD PUSH4 0x70A08231 PUSH1 0xE0 SHL DUP2 MSTORE CALLER PUSH1 0x4 DUP3 ADD MSTORE DUP3 SWAP2 PUSH1 0x1 PUSH1 0x1 PUSH1 0xA0 SHL SUB AND SWAP1 PUSH4 0x70A08231 SWAP1 PUSH1 0x24 ADD PUSH1 0x20 PUSH1 0x40 MLOAD DUP1 DUP4 SUB DUP2 DUP7 GAS STATICCALL ISZERO DUP1 ISZERO PUSH2 0x1508 JUMPI RETURNDATASIZE PUSH0 DUP1 RETURNDATACOPY RETURNDATASIZE PUSH0 REVERT JUMPDEST POP POP POP POP PUSH1 0x40 MLOAD RETURNDATASIZE PUSH1 0x1F NOT PUSH1 0x1F DUP3 ADD AND DUP3 ADD DUP1 PUSH1 0x40 MSTORE POP DUP2 ADD SWAP1 PUSH2 0x152C SWAP2 SWAP1 PUSH2 0x31F3 JUMP JUMPDEST LT ISZERO PUSH2 0x1576 JUMPI PUSH1 0x40 MLOAD PUSH3 0x461BCD PUSH1 0xE5 SHL DUP2 MSTORE PUSH1 0x20 PUSH1 0x4 DUP3 ADD MSTORE PUSH1 0x19 PUSH1 0x24 DUP3 ADD MSTORE PUSH25 0x496E73756666696369656E7420435649422062616C616E6365 PUSH1 0x38 SHL PUSH1 0x44 DUP3 ADD MSTORE PUSH1 0x64 ADD PUSH2 0x931 JUMP JUMPDEST PUSH1 0x9 SLOAD PUSH1 0x40 MLOAD PUSH4 0x79CC679 PUSH1 0xE4 SHL DUP2 MSTORE CALLER PUSH1 0x4 DUP3 ADD MSTORE PUSH1 0x24 DUP2 ADD DUP4 SWAP1 MSTORE PUSH1 0x1 PUSH1 0x1 PUSH1 0xA0 SHL SUB SWAP1 SWAP2 AND SWAP1 PUSH4 0x79CC6790 SWAP1 PUSH1 0x44 ADD PUSH0 PUSH1 0x40 MLOAD DUP1 DUP4 SUB DUP2 PUSH0 DUP8 DUP1 EXTCODESIZE ISZERO DUP1 ISZERO PUSH2 0x15BF JUMPI PUSH0 DUP1 REVERT JUMPDEST POP GAS CALL ISZERO DUP1 ISZERO PUSH2 0x15D1 JUMPI RETURNDATASIZE PUSH0 DUP1 RETURNDATACOPY RETURNDATASIZE PUSH0 REVERT JUMPDEST POP POP PUSH1 0x40 DUP1 MLOAD PUSH1 0x60 DUP2 ADD DUP3 MSTORE PUSH1 0xFF DUP1 DUP8 AND DUP3 MSTORE PUSH1 0x1 PUSH1 0x1 PUSH1 0x40 SHL SUB TIMESTAMP DUP2 AND PUSH1 0x20 DUP1 DUP6 ADD SWAP2 DUP3 MSTORE PUSH1 0x1 DUP6 DUP8 ADD DUP2 DUP2 MSTORE CALLER PUSH0 DUP2 DUP2 MSTORE PUSH1 0xB DUP6 MSTORE DUP10 DUP2 KECCAK256 DUP16 DUP3 MSTORE DUP6 MSTORE DUP10 DUP2 KECCAK256 SWAP9 MLOAD DUP10 SLOAD SWAP7 MLOAD SWAP4 MLOAD DUP10 AND PUSH1 0x1 PUSH1 0x48 SHL MUL PUSH1 0xFF PUSH1 0x48 SHL NOT SWAP5 SWAP1 SWAP9 AND PUSH2 0x100 MUL PUSH9 0xFFFFFFFFFFFFFFFFFF NOT SWAP1 SWAP8 AND SWAP9 AND SWAP8 SWAP1 SWAP8 OR SWAP5 SWAP1 SWAP5 OR AND SWAP4 SWAP1 SWAP4 OR SWAP1 SWAP5 SSTORE DUP5 MLOAD SWAP4 DUP5 ADD SWAP1 SWAP5 MSTORE SWAP1 DUP3 MSTORE PUSH2 0x166C SWAP5 POP SWAP2 SWAP3 POP DUP7 SWAP2 SWAP1 PUSH2 0x2256 JUMP JUMPDEST PUSH0 DUP4 DUP2 MSTORE PUSH1 0xA PUSH1 0x20 MSTORE PUSH1 0x40 SWAP1 DUP2 SWAP1 KECCAK256 SWAP1 MLOAD DUP5 SWAP2 CALLER SWAP2 PUSH32 0xE2CD9E06786BB57E10D4CB6DE25C23039AC44F7B93B1FF941027C25B0504DCAE SWAP2 PUSH2 0x16B0 SWAP2 DUP8 SWAP1 DUP8 SWAP1 PUSH2 0x32AD JUMP JUMPDEST PUSH1 0x40 MLOAD DUP1 SWAP2 SUB SWAP1 LOG3 POP POP POP JUMP JUMPDEST PUSH2 0x16C5 PUSH2 0x2116 JUMP JUMPDEST PUSH2 0x16CE PUSH0 PUSH2 0x22B1 JUMP JUMPDEST JUMP JUMPDEST CALLER PUSH0 SWAP1 DUP2 MSTORE PUSH1 0xB PUSH1 0x20 SWAP1 DUP2 MSTORE PUSH1 0x40 DUP1 DUP4 KECCAK256 DUP6 DUP5 MSTORE SWAP1 SWAP2 MSTORE SWAP1 KECCAK256 DUP1 SLOAD PUSH2 0x100 SWAP1 DIV PUSH1 0x1 PUSH1 0x1 PUSH1 0x40 SHL SUB AND PUSH2 0x1737 JUMPI PUSH1 0x40 MLOAD PUSH3 0x461BCD PUSH1 0xE5 SHL DUP2 MSTORE PUSH1 0x20 PUSH1 0x4 DUP3 ADD MSTORE PUSH1 0xF PUSH1 0x24 DUP3 ADD MSTORE PUSH15 0x10985919D9481B9BDD081BDDDB9959 PUSH1 0x8A SHL PUSH1 0x44 DUP3 ADD MSTORE PUSH1 0x64 ADD PUSH2 0x931 JUMP JUMPDEST DUP1 SLOAD PUSH1 0xFF SWAP1 DUP2 AND SWAP1 DUP4 AND GT PUSH2 0x178E JUMPI PUSH1 0x40 MLOAD PUSH3 0x461BCD PUSH1 0xE5 SHL DUP2 MSTORE PUSH1 0x20 PUSH1 0x4 DUP3 ADD MSTORE PUSH1 0x17 PUSH1 0x24 DUP3 ADD MSTORE PUSH32 0x4E65772074696572206D75737420626520686967686572000000000000000000 PUSH1 0x44 DUP3 ADD MSTORE PUSH1 0x64 ADD PUSH2 0x931 JUMP JUMPDEST PUSH1 0x3 PUSH1 0xFF DUP4 AND GT ISZERO PUSH2 0x17B2 JUMPI PUSH1 0x40 MLOAD PUSH3 0x461BCD PUSH1 0xE5 SHL DUP2 MSTORE PUSH1 0x4 ADD PUSH2 0x931 SWAP1 PUSH2 0x31A2 JUMP JUMPDEST DUP1 SLOAD PUSH1 0xFF SWAP1 DUP2 AND PUSH0 SWAP1 DUP2 MSTORE PUSH1 0xD PUSH1 0x20 MSTORE PUSH1 0x40 DUP1 DUP3 KECCAK256 SLOAD SWAP3 DUP6 AND DUP3 MSTORE DUP2 KECCAK256 SLOAD SWAP1 PUSH2 0x17DB DUP4 DUP4 PUSH2 0x3143 JUMP JUMPDEST PUSH1 0x9 SLOAD PUSH1 0x40 MLOAD PUSH4 0x79CC679 PUSH1 0xE4 SHL DUP2 MSTORE CALLER PUSH1 0x4 DUP3 ADD MSTORE PUSH1 0x24 DUP2 ADD DUP4 SWAP1 MSTORE SWAP2 SWAP3 POP PUSH1 0x1 PUSH1 0x1 PUSH1 0xA0 SHL SUB AND SWAP1 PUSH4 0x79CC6790 SWAP1 PUSH1 0x44 ADD PUSH0 PUSH1 0x40 MLOAD DUP1 DUP4 SUB DUP2 PUSH0 DUP8 DUP1 EXTCODESIZE ISZERO DUP1 ISZERO PUSH2 0x1825 JUMPI PUSH0 DUP1 REVERT JUMPDEST POP GAS CALL ISZERO DUP1 ISZERO PUSH2 0x1837 JUMPI RETURNDATASIZE PUSH0 DUP1 RETURNDATACOPY RETURNDATASIZE PUSH0 REVERT JUMPDEST POP POP DUP6 SLOAD PUSH1 0x1 PUSH1 0x48 SHL PUSH1 0xFF DUP10 DUP2 AND PUSH9 0xFFFFFFFFFFFFFFFFFF NOT DUP5 AND DUP2 OR PUSH2 0x100 TIMESTAMP PUSH1 0x1 PUSH1 0x1 PUSH1 0x40 SHL SUB AND MUL OR PUSH1 0xFF PUSH1 0x48 SHL NOT AND SWAP3 SWAP1 SWAP3 OR DUP10 SSTORE PUSH1 0x40 DUP1 MLOAD SWAP2 SWAP1 SWAP4 AND DUP1 DUP3 MSTORE PUSH1 0x20 DUP3 ADD SWAP3 SWAP1 SWAP3 MSTORE SWAP1 SWAP4 POP DUP10 SWAP3 POP CALLER SWAP2 PUSH32 0xFE5AC37F441080DA72C3E4788457D0722B5196ED6D2843AF39B402294074B2C7 SWAP2 ADD PUSH1 0x40 MLOAD DUP1 SWAP2 SUB SWAP1 LOG3 POP POP POP POP POP POP POP JUMP JUMPDEST PUSH1 0x7 DUP1 SLOAD PUSH2 0x875 SWAP1 PUSH2 0x3156 JUMP JUMPDEST PUSH2 0x18D4 PUSH2 0x2116 JUMP JUMPDEST PUSH1 0x8 DUP1 SLOAD PUSH1 0x1 PUSH1 0x1 PUSH1 0xA0 SHL SUB NOT AND PUSH1 0x1 PUSH1 0x1 PUSH1 0xA0 SHL SUB SWAP3 SWAP1 SWAP3 AND SWAP2 SWAP1 SWAP2 OR SWAP1 SSTORE JUMP JUMPDEST PUSH2 0x1901 CALLER DUP4 DUP4 PUSH2 0x2302 JUMP JUMPDEST POP POP JUMP JUMPDEST PUSH1 0x1 DUP3 LT ISZERO DUP1 ISZERO PUSH2 0x1917 JUMPI POP PUSH1 0xA DUP3 GT ISZERO JUMPDEST PUSH2 0x1933 JUMPI PUSH1 0x40 MLOAD PUSH3 0x461BCD PUSH1 0xE5 SHL DUP2 MSTORE PUSH1 0x4 ADD PUSH2 0x931 SWAP1 PUSH2 0x320A JUMP JUMPDEST PUSH1 0x1 PUSH1 0xFF DUP3 AND LT DUP1 ISZERO SWAP1 PUSH2 0x194B JUMPI POP PUSH1 0x3 PUSH1 0xFF DUP3 AND GT ISZERO JUMPDEST PUSH2 0x1967 JUMPI PUSH1 0x40 MLOAD PUSH3 0x461BCD PUSH1 0xE5 SHL DUP2 MSTORE PUSH1 0x4 ADD PUSH2 0x931 SWAP1 PUSH2 0x31A2 JUMP JUMPDEST CALLER PUSH0 SWAP1 DUP2 MSTORE PUSH1 0xB PUSH1 0x20 SWAP1 DUP2 MSTORE PUSH1 0x40 DUP1 DUP4 KECCAK256 DUP6 DUP5 MSTORE SWAP1 SWAP2 MSTORE SWAP1 KECCAK256 SLOAD PUSH2 0x100 SWAP1 DIV PUSH1 0x1 PUSH1 0x1 PUSH1 0x40 SHL SUB AND ISZERO PUSH2 0x19D3 JUMPI PUSH1 0x40 MLOAD PUSH3 0x461BCD PUSH1 0xE5 SHL DUP2 MSTORE PUSH1 0x20 PUSH1 0x4 DUP3 ADD MSTORE PUSH1 0x14 PUSH1 0x24 DUP3 ADD MSTORE PUSH20 0x426164676520616C726561647920657869737473 PUSH1 0x60 SHL PUSH1 0x44 DUP3 ADD MSTORE PUSH1 0x64 ADD PUSH2 0x931 JUMP JUMPDEST PUSH0 PUSH2 0x19DE DUP5 DUP1 PUSH2 0x32FB JUMP JUMPDEST PUSH2 0x19E8 SWAP1 DUP1 PUSH2 0x3319 JUMP JUMPDEST PUSH2 0x19F2 DUP7 DUP1 PUSH2 0x32FB JUMP JUMPDEST PUSH2 0x1A00 SWAP1 PUSH1 0x20 DUP2 ADD SWAP1 PUSH2 0x3319 JUMP JUMPDEST PUSH2 0x1A0D PUSH1 0x20 DUP10 ADD DUP10 PUSH2 0x335B JUMP JUMPDEST PUSH1 0x40 MLOAD PUSH2 0x1A22 SWAP6 SWAP5 SWAP4 SWAP3 SWAP2 CALLDATALOAD SWAP1 PUSH1 0x20 ADD PUSH2 0x3397 JUMP JUMPDEST PUSH1 0x40 DUP1 MLOAD PUSH1 0x1F NOT DUP2 DUP5 SUB ADD DUP2 MSTORE SWAP2 DUP2 MSTORE DUP2 MLOAD PUSH1 0x20 SWAP3 DUP4 ADD KECCAK256 PUSH0 DUP2 DUP2 MSTORE PUSH1 0xC SWAP1 SWAP4 MSTORE SWAP2 KECCAK256 SLOAD SWAP1 SWAP2 POP PUSH1 0xFF AND ISZERO PUSH2 0x1A8E JUMPI PUSH1 0x40 MLOAD PUSH3 0x461BCD PUSH1 0xE5 SHL DUP2 MSTORE PUSH1 0x20 PUSH1 0x4 DUP3 ADD MSTORE PUSH1 0x12 PUSH1 0x24 DUP3 ADD MSTORE PUSH18 0x141C9BDBD988185B1C9958591E481D5CD959 PUSH1 0x72 SHL PUSH1 0x44 DUP3 ADD MSTORE PUSH1 0x64 ADD PUSH2 0x931 JUMP JUMPDEST PUSH1 0x8 SLOAD PUSH1 0x40 MLOAD PUSH4 0x54B0734F PUSH1 0xE1 SHL DUP2 MSTORE PUSH1 0x1 PUSH1 0x1 PUSH1 0xA0 SHL SUB SWAP1 SWAP2 AND SWAP1 PUSH4 0xA960E69E SWAP1 PUSH2 0x1ABE SWAP1 DUP8 SWAP1 PUSH1 0x4 ADD PUSH2 0x3549 JUMP JUMPDEST PUSH0 PUSH1 0x40 MLOAD DUP1 DUP4 SUB DUP2 DUP7 DUP1 EXTCODESIZE ISZERO DUP1 ISZERO PUSH2 0x1AD4 JUMPI PUSH0 DUP1 REVERT JUMPDEST POP GAS STATICCALL ISZERO DUP1 ISZERO PUSH2 0x1AE6 JUMPI RETURNDATASIZE PUSH0 DUP1 RETURNDATACOPY RETURNDATASIZE PUSH0 REVERT JUMPDEST POP POP POP PUSH0 DUP3 DUP2 MSTORE PUSH1 0xC PUSH1 0x20 SWAP1 DUP2 MSTORE PUSH1 0x40 DUP1 DUP4 KECCAK256 DUP1 SLOAD PUSH1 0xFF NOT AND PUSH1 0x1 SWAP1 DUP2 OR SWAP1 SWAP2 SSTORE DUP2 MLOAD PUSH1 0x60 DUP2 ADD DUP4 MSTORE PUSH1 0xFF DUP9 DUP2 AND DUP3 MSTORE PUSH1 0x1 PUSH1 0x1 PUSH1 0x40 SHL SUB TIMESTAMP DUP2 AND DUP4 DUP8 ADD SWAP1 DUP2 MSTORE DUP4 DUP7 ADD DUP6 DUP2 MSTORE CALLER DUP1 DUP11 MSTORE PUSH1 0xB DUP10 MSTORE DUP8 DUP11 KECCAK256 DUP15 DUP12 MSTORE DUP10 MSTORE DUP8 DUP11 KECCAK256 SWAP6 MLOAD DUP7 SLOAD SWAP4 MLOAD SWAP3 MLOAD DUP7 AND PUSH1 0x1 PUSH1 0x48 SHL MUL PUSH1 0xFF PUSH1 0x48 SHL NOT SWAP4 SWAP1 SWAP6 AND PUSH2 0x100 MUL PUSH9 0xFFFFFFFFFFFFFFFFFF NOT SWAP1 SWAP5 AND SWAP6 AND SWAP5 SWAP1 SWAP5 OR SWAP2 SWAP1 SWAP2 OR AND OR SWAP1 SWAP2 SSTORE DUP3 MLOAD SWAP4 DUP5 ADD SWAP1 SWAP3 MSTORE SWAP3 DUP3 MSTORE PUSH2 0x1B93 SWAP4 POP SWAP2 DUP7 SWAP2 PUSH2 0x2256 JUMP JUMPDEST PUSH0 DUP4 DUP2 MSTORE PUSH1 0xA PUSH1 0x20 MSTORE PUSH1 0x40 SWAP1 DUP2 SWAP1 KECCAK256 SWAP1 MLOAD DUP5 SWAP2 CALLER SWAP2 PUSH32 0xEEA079FECEA4873AEDE971DF0E085EAADFB8311FC3B73BDB10A9469EA7D19227 SWAP2 PUSH2 0x1BD5 SWAP2 DUP8 SWAP1 PUSH2 0x3601 JUMP JUMPDEST PUSH1 0x40 MLOAD DUP1 SWAP2 SUB SWAP1 LOG3 POP POP POP POP JUMP JUMPDEST PUSH2 0x1BEB PUSH2 0x2116 JUMP JUMPDEST PUSH0 DUP3 DUP2 MSTORE PUSH1 0xA PUSH1 0x20 MSTORE PUSH1 0x40 SWAP1 KECCAK256 PUSH2 0x11D5 DUP3 DUP3 PUSH2 0x366A JUMP JUMPDEST PUSH1 0x1 PUSH1 0x1 PUSH1 0xA0 SHL SUB DUP3 AND PUSH0 SWAP1 DUP2 MSTORE PUSH1 0xB PUSH1 0x20 SWAP1 DUP2 MSTORE PUSH1 0x40 DUP1 DUP4 KECCAK256 DUP5 DUP5 MSTORE DUP3 MSTORE DUP1 DUP4 KECCAK256 DUP2 MLOAD PUSH1 0x60 DUP2 ADD DUP4 MSTORE SWAP1 SLOAD PUSH1 0xFF DUP1 DUP3 AND DUP4 MSTORE PUSH1 0x1 PUSH1 0x1 PUSH1 0x40 SHL SUB PUSH2 0x100 DUP4 DIV AND SWAP5 DUP4 ADD DUP6 SWAP1 MSTORE PUSH1 0x1 PUSH1 0x48 SHL SWAP1 SWAP2 DIV AND SWAP2 DUP2 ADD SWAP2 SWAP1 SWAP2 MSTORE SWAP1 DUP3 SUB PUSH2 0x1C69 JUMPI PUSH0 SWAP2 POP POP PUSH2 0x751 JUMP JUMPDEST PUSH3 0x76A700 DUP2 PUSH1 0x20 ADD MLOAD PUSH2 0x1C7C SWAP2 SWAP1 PUSH2 0x32D4 JUMP JUMPDEST PUSH1 0x1 PUSH1 0x1 PUSH1 0x40 SHL SUB AND TIMESTAMP GT PUSH2 0x1C9C JUMPI PUSH1 0x40 ADD MLOAD PUSH1 0xFF AND PUSH1 0x1 EQ SWAP1 POP PUSH2 0x751 JUMP JUMPDEST POP PUSH0 SWAP4 SWAP3 POP POP POP JUMP JUMPDEST PUSH1 0x60 DUP1 DUP1 PUSH0 PUSH1 0x1 JUMPDEST PUSH1 0xA DUP2 GT PUSH2 0x1D0B JUMPI PUSH1 0x1 PUSH1 0x1 PUSH1 0xA0 SHL SUB DUP7 AND PUSH0 SWAP1 DUP2 MSTORE PUSH1 0xB PUSH1 0x20 SWAP1 DUP2 MSTORE PUSH1 0x40 DUP1 DUP4 KECCAK256 DUP5 DUP5 MSTORE SWAP1 SWAP2 MSTORE SWAP1 KECCAK256 SLOAD PUSH2 0x100 SWAP1 DIV PUSH1 0x1 PUSH1 0x1 PUSH1 0x40 SHL SUB AND ISZERO PUSH2 0x1CF9 JUMPI DUP2 PUSH2 0x1CF5 DUP2 PUSH2 0x31DB JUMP JUMPDEST SWAP3 POP POP JUMPDEST DUP1 PUSH2 0x1D03 DUP2 PUSH2 0x31DB JUMP JUMPDEST SWAP2 POP POP PUSH2 0x1CAD JUMP JUMPDEST POP DUP1 PUSH1 0x1 PUSH1 0x1 PUSH1 0x40 SHL SUB DUP2 GT ISZERO PUSH2 0x1D24 JUMPI PUSH2 0x1D24 PUSH2 0x2A7D JUMP JUMPDEST PUSH1 0x40 MLOAD SWAP1 DUP1 DUP3 MSTORE DUP1 PUSH1 0x20 MUL PUSH1 0x20 ADD DUP3 ADD PUSH1 0x40 MSTORE DUP1 ISZERO PUSH2 0x1D4D JUMPI DUP2 PUSH1 0x20 ADD PUSH1 0x20 DUP3 MUL DUP1 CALLDATASIZE DUP4 CALLDATACOPY ADD SWAP1 POP JUMPDEST POP SWAP4 POP DUP1 PUSH1 0x1 PUSH1 0x1 PUSH1 0x40 SHL SUB DUP2 GT ISZERO PUSH2 0x1D68 JUMPI PUSH2 0x1D68 PUSH2 0x2A7D JUMP JUMPDEST PUSH1 0x40 MLOAD SWAP1 DUP1 DUP3 MSTORE DUP1 PUSH1 0x20 MUL PUSH1 0x20 ADD DUP3 ADD PUSH1 0x40 MSTORE DUP1 ISZERO PUSH2 0x1D91 JUMPI DUP2 PUSH1 0x20 ADD PUSH1 0x20 DUP3 MUL DUP1 CALLDATASIZE DUP4 CALLDATACOPY ADD SWAP1 POP JUMPDEST POP SWAP3 POP DUP1 PUSH1 0x1 PUSH1 0x1 PUSH1 0x40 SHL SUB DUP2 GT ISZERO PUSH2 0x1DAC JUMPI PUSH2 0x1DAC PUSH2 0x2A7D JUMP JUMPDEST PUSH1 0x40 MLOAD SWAP1 DUP1 DUP3 MSTORE DUP1 PUSH1 0x20 MUL PUSH1 0x20 ADD DUP3 ADD PUSH1 0x40 MSTORE DUP1 ISZERO PUSH2 0x1DD5 JUMPI DUP2 PUSH1 0x20 ADD PUSH1 0x20 DUP3 MUL DUP1 CALLDATASIZE DUP4 CALLDATACOPY ADD SWAP1 POP JUMPDEST POP SWAP2 POP PUSH0 PUSH1 0x1 JUMPDEST PUSH1 0xA DUP2 GT PUSH2 0x1EF9 JUMPI PUSH1 0x1 PUSH1 0x1 PUSH1 0xA0 SHL SUB DUP8 AND PUSH0 SWAP1 DUP2 MSTORE PUSH1 0xB PUSH1 0x20 SWAP1 DUP2 MSTORE PUSH1 0x40 DUP1 DUP4 KECCAK256 DUP5 DUP5 MSTORE DUP3 MSTORE SWAP2 DUP3 SWAP1 KECCAK256 DUP3 MLOAD PUSH1 0x60 DUP2 ADD DUP5 MSTORE SWAP1 SLOAD PUSH1 0xFF DUP1 DUP3 AND DUP4 MSTORE PUSH1 0x1 PUSH1 0x1 PUSH1 0x40 SHL SUB PUSH2 0x100 DUP4 DIV AND SWAP4 DUP4 ADD DUP5 SWAP1 MSTORE PUSH1 0x1 PUSH1 0x48 SHL SWAP1 SWAP2 DIV AND SWAP3 DUP2 ADD SWAP3 SWAP1 SWAP3 MSTORE ISZERO PUSH2 0x1EE6 JUMPI DUP2 DUP8 DUP5 DUP2 MLOAD DUP2 LT PUSH2 0x1E54 JUMPI PUSH2 0x1E54 PUSH2 0x318E JUMP JUMPDEST PUSH1 0x20 MUL PUSH1 0x20 ADD ADD DUP2 DUP2 MSTORE POP POP DUP1 PUSH0 ADD MLOAD DUP7 DUP5 DUP2 MLOAD DUP2 LT PUSH2 0x1E76 JUMPI PUSH2 0x1E76 PUSH2 0x318E JUMP JUMPDEST PUSH1 0xFF SWAP3 DUP4 AND PUSH1 0x20 SWAP2 DUP3 MUL SWAP3 SWAP1 SWAP3 ADD ADD MSTORE PUSH1 0x40 DUP3 ADD MLOAD AND PUSH1 0x1 EQ DUP1 ISZERO PUSH2 0x1EB6 JUMPI POP PUSH3 0x76A700 DUP2 PUSH1 0x20 ADD MLOAD PUSH2 0x1EA9 SWAP2 SWAP1 PUSH2 0x32D4 JUMP JUMPDEST PUSH1 0x1 PUSH1 0x1 PUSH1 0x40 SHL SUB AND TIMESTAMP GT ISZERO JUMPDEST DUP6 DUP5 DUP2 MLOAD DUP2 LT PUSH2 0x1EC8 JUMPI PUSH2 0x1EC8 PUSH2 0x318E JUMP JUMPDEST SWAP2 ISZERO ISZERO PUSH1 0x20 SWAP3 DUP4 MUL SWAP2 SWAP1 SWAP2 ADD SWAP1 SWAP2 ADD MSTORE DUP3 PUSH2 0x1EE2 DUP2 PUSH2 0x31DB JUMP JUMPDEST SWAP4 POP POP JUMPDEST POP DUP1 PUSH2 0x1EF1 DUP2 PUSH2 0x31DB JUMP JUMPDEST SWAP2 POP POP PUSH2 0x1DDC JUMP JUMPDEST POP POP POP SWAP2 SWAP4 SWAP1 SWAP3 POP JUMP JUMPDEST PUSH1 0x1 PUSH1 0x1 PUSH1 0xA0 SHL SUB SWAP2 DUP3 AND PUSH0 SWAP1 DUP2 MSTORE PUSH1 0x1 PUSH1 0x20 SWAP1 DUP2 MSTORE PUSH1 0x40 DUP1 DUP4 KECCAK256 SWAP4 SWAP1 SWAP5 AND DUP3 MSTORE SWAP2 SWAP1 SWAP2 MSTORE KECCAK256 SLOAD PUSH1 0xFF AND SWAP1 JUMP JUMPDEST CALLER PUSH1 0x1 PUSH1 0x1 PUSH1 0xA0 SHL SUB DUP7 AND DUP2 EQ DUP1 ISZERO SWAP1 PUSH2 0x1F51 JUMPI POP PUSH2 0x1F4F DUP7 DUP3 PUSH2 0x1F03 JUMP JUMPDEST ISZERO JUMPDEST ISZERO PUSH2 0x1F82 JUMPI PUSH1 0x40 MLOAD PUSH4 0x711BEC91 PUSH1 0xE1 SHL DUP2 MSTORE PUSH1 0x1 PUSH1 0x1 PUSH1 0xA0 SHL SUB DUP1 DUP4 AND PUSH1 0x4 DUP4 ADD MSTORE DUP8 AND PUSH1 0x24 DUP3 ADD MSTORE PUSH1 0x44 ADD PUSH2 0x931 JUMP JUMPDEST PUSH2 0xEE9 DUP7 DUP7 DUP7 DUP7 DUP7 PUSH2 0x238E JUMP JUMPDEST PUSH2 0x1F97 PUSH2 0x2116 JUMP JUMPDEST PUSH1 0x1 PUSH1 0x1 PUSH1 0xA0 SHL SUB DUP2 AND PUSH2 0x1FC0 JUMPI PUSH1 0x40 MLOAD PUSH4 0x1E4FBDF7 PUSH1 0xE0 SHL DUP2 MSTORE PUSH0 PUSH1 0x4 DUP3 ADD MSTORE PUSH1 0x24 ADD PUSH2 0x931 JUMP JUMPDEST PUSH2 0x7B7 DUP2 PUSH2 0x22B1 JUMP JUMPDEST PUSH1 0xA PUSH1 0x20 MSTORE PUSH0 SWAP1 DUP2 MSTORE PUSH1 0x40 SWAP1 KECCAK256 DUP1 SLOAD PUSH2 0x875 SWAP1 PUSH2 0x3156 JUMP JUMPDEST PUSH2 0x1FE9 PUSH2 0x2116 JUMP JUMPDEST PUSH1 0x1 PUSH1 0xFF DUP4 AND LT DUP1 ISZERO SWAP1 PUSH2 0x2001 JUMPI POP PUSH1 0x3 PUSH1 0xFF DUP4 AND GT ISZERO JUMPDEST PUSH2 0x201D JUMPI PUSH1 0x40 MLOAD PUSH3 0x461BCD PUSH1 0xE5 SHL DUP2 MSTORE PUSH1 0x4 ADD PUSH2 0x931 SWAP1 PUSH2 0x31A2 JUMP JUMPDEST PUSH1 0xFF DUP3 AND PUSH0 DUP2 DUP2 MSTORE PUSH1 0xD PUSH1 0x20 SWAP1 DUP2 MSTORE PUSH1 0x40 SWAP2 DUP3 SWAP1 KECCAK256 DUP1 SLOAD SWAP1 DUP6 SWAP1 SSTORE DUP3 MLOAD DUP2 DUP2 MSTORE SWAP2 DUP3 ADD DUP6 SWAP1 MSTORE SWAP3 SWAP2 PUSH32 0x36CE8B5AA7F36316E5F4340D2D5E9123306E977039E992A8257620272391BE7B SWAP2 ADD PUSH1 0x40 MLOAD DUP1 SWAP2 SUB SWAP1 LOG2 POP POP POP JUMP JUMPDEST PUSH1 0x1 PUSH1 0x1 PUSH1 0xA0 SHL SUB DUP3 AND PUSH0 SWAP1 DUP2 MSTORE PUSH1 0xB PUSH1 0x20 SWAP1 DUP2 MSTORE PUSH1 0x40 DUP1 DUP4 KECCAK256 DUP5 DUP5 MSTORE DUP3 MSTORE DUP1 DUP4 KECCAK256 DUP2 MLOAD PUSH1 0x60 DUP2 ADD DUP4 MSTORE SWAP1 SLOAD PUSH1 0xFF DUP1 DUP3 AND DUP4 MSTORE PUSH1 0x1 PUSH1 0x1 PUSH1 0x40 SHL SUB PUSH2 0x100 DUP4 DIV AND SWAP5 DUP4 ADD DUP6 SWAP1 MSTORE PUSH1 0x1 PUSH1 0x48 SHL SWAP1 SWAP2 DIV AND SWAP2 DUP2 ADD SWAP2 SWAP1 SWAP2 MSTORE DUP3 SWAP2 DUP3 SWAP2 DUP3 SWAP2 DUP3 SWAP1 ISZERO PUSH2 0x20FA JUMPI PUSH3 0x76A700 DUP3 PUSH1 0x20 ADD MLOAD PUSH2 0x20EC SWAP2 SWAP1 PUSH2 0x32D4 JUMP JUMPDEST PUSH1 0x1 PUSH1 0x1 PUSH1 0x40 SHL SUB AND TIMESTAMP GT SWAP1 POP JUMPDEST DUP2 MLOAD PUSH1 0x20 DUP4 ADD MLOAD PUSH1 0x40 SWAP1 SWAP4 ADD MLOAD SWAP1 SWAP10 SWAP3 SWAP9 POP SWAP7 POP SWAP5 POP SWAP3 POP POP POP JUMP JUMPDEST PUSH1 0x5 SLOAD PUSH1 0x1 PUSH1 0x1 PUSH1 0xA0 SHL SUB AND CALLER EQ PUSH2 0x16CE JUMPI PUSH1 0x40 MLOAD PUSH4 0x118CDAA7 PUSH1 0xE0 SHL DUP2 MSTORE CALLER PUSH1 0x4 DUP3 ADD MSTORE PUSH1 0x24 ADD PUSH2 0x931 JUMP JUMPDEST PUSH1 0x2 PUSH2 0x1901 DUP3 DUP3 PUSH2 0x366A JUMP JUMPDEST PUSH1 0x1 PUSH1 0x1 PUSH1 0xA0 SHL SUB DUP5 AND PUSH2 0x2178 JUMPI PUSH1 0x40 MLOAD PUSH4 0x2BFA23E7 PUSH1 0xE1 SHL DUP2 MSTORE PUSH0 PUSH1 0x4 DUP3 ADD MSTORE PUSH1 0x24 ADD PUSH2 0x931 JUMP JUMPDEST PUSH2 0x2185 PUSH0 DUP6 DUP6 DUP6 DUP6 PUSH2 0x241A JUMP JUMPDEST POP POP POP POP JUMP JUMPDEST PUSH1 0x1 PUSH1 0x1 PUSH1 0xA0 SHL SUB DUP5 AND PUSH2 0x21B4 JUMPI PUSH1 0x40 MLOAD PUSH4 0x2BFA23E7 PUSH1 0xE1 SHL DUP2 MSTORE PUSH0 PUSH1 0x4 DUP3 ADD MSTORE PUSH1 0x24 ADD PUSH2 0x931 JUMP JUMPDEST PUSH1 0x1 PUSH1 0x1 PUSH1 0xA0 SHL SUB DUP6 AND PUSH2 0x21DC JUMPI PUSH1 0x40 MLOAD PUSH3 0x6A0D45 PUSH1 0xE2 SHL DUP2 MSTORE PUSH0 PUSH1 0x4 DUP3 ADD MSTORE PUSH1 0x24 ADD PUSH2 0x931 JUMP JUMPDEST PUSH2 0x21E9 DUP6 DUP6 DUP6 DUP6 DUP6 PUSH2 0x241A JUMP JUMPDEST POP POP POP POP POP JUMP JUMPDEST PUSH1 0x1 PUSH1 0x1 PUSH1 0xA0 SHL SUB DUP4 AND PUSH2 0x2218 JUMPI PUSH1 0x40 MLOAD PUSH3 0x6A0D45 PUSH1 0xE2 SHL DUP2 MSTORE PUSH0 PUSH1 0x4 DUP3 ADD MSTORE PUSH1 0x24 ADD PUSH2 0x931 JUMP JUMPDEST PUSH1 0x40 DUP1 MLOAD PUSH1 0x1 DUP1 DUP3 MSTORE PUSH1 0x20 DUP3 ADD DUP6 SWAP1 MSTORE DUP2 DUP4 ADD SWAP1 DUP2 MSTORE PUSH1 0x60 DUP3 ADD DUP5 SWAP1 MSTORE PUSH1 0xA0 DUP3 ADD SWAP1 SWAP3 MSTORE PUSH0 PUSH1 0x80 DUP3 ADD DUP2 DUP2 MSTORE SWAP2 SWAP3 SWAP2 PUSH2 0x21E9 SWAP2 DUP8 SWAP2 DUP6 SWAP1 DUP6 SWAP1 PUSH2 0x241A JUMP JUMPDEST PUSH1 0x1 PUSH1 0x1 PUSH1 0xA0 SHL SUB DUP5 AND PUSH2 0x227F JUMPI PUSH1 0x40 MLOAD PUSH4 0x2BFA23E7 PUSH1 0xE1 SHL DUP2 MSTORE PUSH0 PUSH1 0x4 DUP3 ADD MSTORE PUSH1 0x24 ADD PUSH2 0x931 JUMP JUMPDEST PUSH1 0x40 DUP1 MLOAD PUSH1 0x1 DUP1 DUP3 MSTORE PUSH1 0x20 DUP3 ADD DUP7 SWAP1 MSTORE DUP2 DUP4 ADD SWAP1 DUP2 MSTORE PUSH1 0x60 DUP3 ADD DUP6 SWAP1 MSTORE PUSH1 0x80 DUP3 ADD SWAP1 SWAP3 MSTORE SWAP1 PUSH2 0xEE9 PUSH0 DUP8 DUP5 DUP5 DUP8 PUSH2 0x241A JUMP JUMPDEST PUSH1 0x5 DUP1 SLOAD PUSH1 0x1 PUSH1 0x1 PUSH1 0xA0 SHL SUB DUP4 DUP2 AND PUSH1 0x1 PUSH1 0x1 PUSH1 0xA0 SHL SUB NOT DUP4 AND DUP2 OR SWAP1 SWAP4 SSTORE PUSH1 0x40 MLOAD SWAP2 AND SWAP2 SWAP1 DUP3 SWAP1 PUSH32 0x8BE0079C531659141344CD1FD0A4F28419497F9722A3DAAFE3B4186F6B6457E0 SWAP1 PUSH0 SWAP1 LOG3 POP POP JUMP JUMPDEST PUSH1 0x1 PUSH1 0x1 PUSH1 0xA0 SHL SUB DUP3 AND PUSH2 0x232A JUMPI PUSH1 0x40 MLOAD PUSH3 0xCED3E1 PUSH1 0xE8 SHL DUP2 MSTORE PUSH0 PUSH1 0x4 DUP3 ADD MSTORE PUSH1 0x24 ADD PUSH2 0x931 JUMP JUMPDEST PUSH1 0x1 PUSH1 0x1 PUSH1 0xA0 SHL SUB DUP4 DUP2 AND PUSH0 DUP2 DUP2 MSTORE PUSH1 0x1 PUSH1 0x20 SWAP1 DUP2 MSTORE PUSH1 0x40 DUP1 DUP4 KECCAK256 SWAP5 DUP8 AND DUP1 DUP5 MSTORE SWAP5 DUP3 MSTORE SWAP2 DUP3 SWAP1 KECCAK256 DUP1 SLOAD PUSH1 0xFF NOT AND DUP7 ISZERO ISZERO SWAP1 DUP2 OR SWAP1 SWAP2 SSTORE SWAP2 MLOAD SWAP2 DUP3 MSTORE PUSH32 0x17307EAB39AB6107E8899845AD3D59BD9653F200F220920489CA2B5937696C31 SWAP2 ADD PUSH2 0x16B0 JUMP JUMPDEST PUSH1 0x1 PUSH1 0x1 PUSH1 0xA0 SHL SUB DUP5 AND PUSH2 0x23B7 JUMPI PUSH1 0x40 MLOAD PUSH4 0x2BFA23E7 PUSH1 0xE1 SHL DUP2 MSTORE PUSH0 PUSH1 0x4 DUP3 ADD MSTORE PUSH1 0x24 ADD PUSH2 0x931 JUMP JUMPDEST PUSH1 0x1 PUSH1 0x1 PUSH1 0xA0 SHL SUB DUP6 AND PUSH2 0x23DF JUMPI PUSH1 0x40 MLOAD PUSH3 0x6A0D45 PUSH1 0xE2 SHL DUP2 MSTORE PUSH0 PUSH1 0x4 DUP3 ADD MSTORE PUSH1 0x24 ADD PUSH2 0x931 JUMP JUMPDEST PUSH1 0x40 DUP1 MLOAD PUSH1 0x1 DUP1 DUP3 MSTORE PUSH1 0x20 DUP3 ADD DUP7 SWAP1 MSTORE DUP2 DUP4 ADD SWAP1 DUP2 MSTORE PUSH1 0x60 DUP3 ADD DUP6 SWAP1 MSTORE PUSH1 0x80 DUP3 ADD SWAP1 SWAP3 MSTORE SWAP1 PUSH2 0x2411 DUP8 DUP8 DUP5 DUP5 DUP8 PUSH2 0x241A JUMP JUMPDEST POP POP POP POP POP POP POP JUMP JUMPDEST PUSH2 0x2426 DUP6 DUP6 DUP6 DUP6 PUSH2 0x246D JUMP JUMPDEST PUSH1 0x1 PUSH1 0x1 PUSH1 0xA0 SHL SUB DUP5 AND ISZERO PUSH2 0x21E9 JUMPI DUP3 MLOAD CALLER SWAP1 PUSH1 0x1 SUB PUSH2 0x245F JUMPI PUSH1 0x20 DUP5 DUP2 ADD MLOAD SWAP1 DUP5 ADD MLOAD PUSH2 0x2458 DUP4 DUP10 DUP10 DUP6 DUP6 DUP10 PUSH2 0x24F2 JUMP JUMPDEST POP POP PUSH2 0xEE9 JUMP JUMPDEST PUSH2 0xEE9 DUP2 DUP8 DUP8 DUP8 DUP8 DUP8 PUSH2 0x2613 JUMP JUMPDEST PUSH1 0x1 PUSH1 0x1 PUSH1 0xA0 SHL SUB DUP5 AND ISZERO DUP1 ISZERO SWAP1 PUSH2 0x248D JUMPI POP PUSH1 0x1 PUSH1 0x1 PUSH1 0xA0 SHL SUB DUP4 AND ISZERO ISZERO JUMPDEST ISZERO PUSH2 0x24E6 JUMPI PUSH1 0x40 MLOAD PUSH3 0x461BCD PUSH1 0xE5 SHL DUP2 MSTORE PUSH1 0x20 PUSH1 0x4 DUP3 ADD MSTORE PUSH1 0x24 DUP1 DUP3 ADD MSTORE PUSH32 0x536F756C626F756E643A20546F6B656E206973206E6F6E2D7472616E73666572 PUSH1 0x44 DUP3 ADD MSTORE PUSH4 0x61626C65 PUSH1 0xE0 SHL PUSH1 0x64 DUP3 ADD MSTORE PUSH1 0x84 ADD PUSH2 0x931 JUMP JUMPDEST PUSH2 0x2185 DUP5 DUP5 DUP5 DUP5 PUSH2 0x26FA JUMP JUMPDEST PUSH1 0x1 PUSH1 0x1 PUSH1 0xA0 SHL SUB DUP5 AND EXTCODESIZE ISZERO PUSH2 0xEE9 JUMPI PUSH1 0x40 MLOAD PUSH4 0xF23A6E61 PUSH1 0xE0 SHL DUP2 MSTORE PUSH1 0x1 PUSH1 0x1 PUSH1 0xA0 SHL SUB DUP6 AND SWAP1 PUSH4 0xF23A6E61 SWAP1 PUSH2 0x2536 SWAP1 DUP10 SWAP1 DUP10 SWAP1 DUP9 SWAP1 DUP9 SWAP1 DUP9 SWAP1 PUSH1 0x4 ADD PUSH2 0x3725 JUMP JUMPDEST PUSH1 0x20 PUSH1 0x40 MLOAD DUP1 DUP4 SUB DUP2 PUSH0 DUP8 GAS CALL SWAP3 POP POP POP DUP1 ISZERO PUSH2 0x2570 JUMPI POP PUSH1 0x40 DUP1 MLOAD PUSH1 0x1F RETURNDATASIZE SWAP1 DUP2 ADD PUSH1 0x1F NOT AND DUP3 ADD SWAP1 SWAP3 MSTORE PUSH2 0x256D SWAP2 DUP2 ADD SWAP1 PUSH2 0x3769 JUMP JUMPDEST PUSH1 0x1 JUMPDEST PUSH2 0x25D7 JUMPI RETURNDATASIZE DUP1 DUP1 ISZERO PUSH2 0x259D JUMPI PUSH1 0x40 MLOAD SWAP2 POP PUSH1 0x1F NOT PUSH1 0x3F RETURNDATASIZE ADD AND DUP3 ADD PUSH1 0x40 MSTORE RETURNDATASIZE DUP3 MSTORE RETURNDATASIZE PUSH0 PUSH1 0x20 DUP5 ADD RETURNDATACOPY PUSH2 0x25A2 JUMP JUMPDEST PUSH1 0x60 SWAP2 POP JUMPDEST POP DUP1 MLOAD PUSH0 SUB PUSH2 0x25CF JUMPI PUSH1 0x40 MLOAD PUSH4 0x2BFA23E7 PUSH1 0xE1 SHL DUP2 MSTORE PUSH1 0x1 PUSH1 0x1 PUSH1 0xA0 SHL SUB DUP7 AND PUSH1 0x4 DUP3 ADD MSTORE PUSH1 0x24 ADD PUSH2 0x931 JUMP JUMPDEST DUP1 MLOAD PUSH1 0x20 DUP3 ADD REVERT JUMPDEST PUSH1 0x1 PUSH1 0x1 PUSH1 0xE0 SHL SUB NOT DUP2 AND PUSH4 0xF23A6E61 PUSH1 0xE0 SHL EQ PUSH2 0x2411 JUMPI PUSH1 0x40 MLOAD PUSH4 0x2BFA23E7 PUSH1 0xE1 SHL DUP2 MSTORE PUSH1 0x1 PUSH1 0x1 PUSH1 0xA0 SHL SUB DUP7 AND PUSH1 0x4 DUP3 ADD MSTORE PUSH1 0x24 ADD PUSH2 0x931 JUMP JUMPDEST PUSH1 0x1 PUSH1 0x1 PUSH1 0xA0 SHL SUB DUP5 AND EXTCODESIZE ISZERO PUSH2 0xEE9 JUMPI PUSH1 0x40 MLOAD PUSH4 0xBC197C81 PUSH1 0xE0 SHL DUP2 MSTORE PUSH1 0x1 PUSH1 0x1 PUSH1 0xA0 SHL SUB DUP6 AND SWAP1 PUSH4 0xBC197C81 SWAP1 PUSH2 0x2657 SWAP1 DUP10 SWAP1 DUP10 SWAP1 DUP9 SWAP1 DUP9 SWAP1 DUP9 SWAP1 PUSH1 0x4 ADD PUSH2 0x3784 JUMP JUMPDEST PUSH1 0x20 PUSH1 0x40 MLOAD DUP1 DUP4 SUB DUP2 PUSH0 DUP8 GAS CALL SWAP3 POP POP POP DUP1 ISZERO PUSH2 0x2691 JUMPI POP PUSH1 0x40 DUP1 MLOAD PUSH1 0x1F RETURNDATASIZE SWAP1 DUP2 ADD PUSH1 0x1F NOT AND DUP3 ADD SWAP1 SWAP3 MSTORE PUSH2 0x268E SWAP2 DUP2 ADD SWAP1 PUSH2 0x3769 JUMP JUMPDEST PUSH1 0x1 JUMPDEST PUSH2 0x26BE JUMPI RETURNDATASIZE DUP1 DUP1 ISZERO PUSH2 0x259D JUMPI PUSH1 0x40 MLOAD SWAP2 POP PUSH1 0x1F NOT PUSH1 0x3F RETURNDATASIZE ADD AND DUP3 ADD PUSH1 0x40 MSTORE RETURNDATASIZE DUP3 MSTORE RETURNDATASIZE PUSH0 PUSH1 0x20 DUP5 ADD RETURNDATACOPY PUSH2 0x25A2 JUMP JUMPDEST PUSH1 0x1 PUSH1 0x1 PUSH1 0xE0 SHL SUB NOT DUP2 AND PUSH4 0xBC197C81 PUSH1 0xE0 SHL EQ PUSH2 0x2411 JUMPI PUSH1 0x40 MLOAD PUSH4 0x2BFA23E7 PUSH1 0xE1 SHL DUP2 MSTORE PUSH1 0x1 PUSH1 0x1 PUSH1 0xA0 SHL SUB DUP7 AND PUSH1 0x4 DUP3 ADD MSTORE PUSH1 0x24 ADD PUSH2 0x931 JUMP JUMPDEST PUSH2 0x2706 DUP5 DUP5 DUP5 DUP5 PUSH2 0x27F2 JUMP JUMPDEST PUSH1 0x1 PUSH1 0x1 PUSH1 0xA0 SHL SUB DUP5 AND PUSH2 0x278C JUMPI PUSH0 DUP1 JUMPDEST DUP4 MLOAD DUP2 LT ISZERO PUSH2 0x2773 JUMPI PUSH1 0x20 DUP2 DUP2 MUL DUP5 DUP2 ADD DUP3 ADD MLOAD SWAP1 DUP7 ADD DUP3 ADD MLOAD PUSH0 SWAP1 DUP2 MSTORE PUSH1 0x3 SWAP1 SWAP3 MSTORE PUSH1 0x40 DUP3 KECCAK256 DUP1 SLOAD SWAP2 SWAP3 DUP4 SWAP3 PUSH2 0x274F SWAP1 DUP5 SWAP1 PUSH2 0x31C8 JUMP JUMPDEST SWAP1 SWAP2 SSTORE POP PUSH2 0x275F SWAP1 POP DUP2 DUP5 PUSH2 0x31C8 JUMP JUMPDEST SWAP3 POP POP DUP1 PUSH2 0x276C SWAP1 PUSH2 0x31DB JUMP JUMPDEST SWAP1 POP PUSH2 0x2717 JUMP JUMPDEST POP DUP1 PUSH1 0x4 PUSH0 DUP3 DUP3 SLOAD PUSH2 0x2785 SWAP2 SWAP1 PUSH2 0x31C8 JUMP JUMPDEST SWAP1 SWAP2 SSTORE POP POP POP JUMPDEST PUSH1 0x1 PUSH1 0x1 PUSH1 0xA0 SHL SUB DUP4 AND PUSH2 0x2185 JUMPI PUSH0 DUP1 JUMPDEST DUP4 MLOAD DUP2 LT ISZERO PUSH2 0x27E1 JUMPI PUSH1 0x20 DUP2 DUP2 MUL DUP5 DUP2 ADD DUP3 ADD MLOAD SWAP1 DUP7 ADD DUP3 ADD MLOAD PUSH0 SWAP1 DUP2 MSTORE PUSH1 0x3 SWAP1 SWAP3 MSTORE PUSH1 0x40 SWAP1 SWAP2 KECCAK256 DUP1 SLOAD DUP3 SWAP1 SUB SWAP1 SSTORE SWAP2 SWAP1 SWAP2 ADD SWAP1 PUSH2 0x27DA DUP2 PUSH2 0x31DB JUMP JUMPDEST SWAP1 POP PUSH2 0x279D JUMP JUMPDEST POP PUSH1 0x4 DUP1 SLOAD SWAP2 SWAP1 SWAP2 SUB SWAP1 SSTORE POP POP POP POP JUMP JUMPDEST DUP1 MLOAD DUP3 MLOAD EQ PUSH2 0x2821 JUMPI DUP2 MLOAD DUP2 MLOAD PUSH1 0x40 MLOAD PUSH4 0x5B059991 PUSH1 0xE0 SHL DUP2 MSTORE PUSH1 0x4 DUP2 ADD SWAP3 SWAP1 SWAP3 MSTORE PUSH1 0x24 DUP3 ADD MSTORE PUSH1 0x44 ADD PUSH2 0x931 JUMP JUMPDEST CALLER PUSH0 JUMPDEST DUP4 MLOAD DUP2 LT ISZERO PUSH2 0x292C JUMPI PUSH1 0x20 DUP2 DUP2 MUL DUP6 DUP2 ADD DUP3 ADD MLOAD SWAP1 DUP6 ADD SWAP1 SWAP2 ADD MLOAD PUSH1 0x1 PUSH1 0x1 PUSH1 0xA0 SHL SUB DUP9 AND ISZERO PUSH2 0x28D5 JUMPI PUSH0 DUP3 DUP2 MSTORE PUSH1 0x20 DUP2 DUP2 MSTORE PUSH1 0x40 DUP1 DUP4 KECCAK256 PUSH1 0x1 PUSH1 0x1 PUSH1 0xA0 SHL SUB DUP13 AND DUP5 MSTORE SWAP1 SWAP2 MSTORE SWAP1 KECCAK256 SLOAD DUP2 DUP2 LT ISZERO PUSH2 0x28AF JUMPI PUSH1 0x40 MLOAD PUSH4 0x3DEE4C5 PUSH1 0xE0 SHL DUP2 MSTORE PUSH1 0x1 PUSH1 0x1 PUSH1 0xA0 SHL SUB DUP11 AND PUSH1 0x4 DUP3 ADD MSTORE PUSH1 0x24 DUP2 ADD DUP3 SWAP1 MSTORE PUSH1 0x44 DUP2 ADD DUP4 SWAP1 MSTORE PUSH1 0x64 DUP2 ADD DUP5 SWAP1 MSTORE PUSH1 0x84 ADD PUSH2 0x931 JUMP JUMPDEST PUSH0 DUP4 DUP2 MSTORE PUSH1 0x20 DUP2 DUP2 MSTORE PUSH1 0x40 DUP1 DUP4 KECCAK256 PUSH1 0x1 PUSH1 0x1 PUSH1 0xA0 SHL SUB DUP14 AND DUP5 MSTORE SWAP1 SWAP2 MSTORE SWAP1 KECCAK256 SWAP1 DUP3 SWAP1 SUB SWAP1 SSTORE JUMPDEST PUSH1 0x1 PUSH1 0x1 PUSH1 0xA0 SHL SUB DUP8 AND ISZERO PUSH2 0x2919 JUMPI PUSH0 DUP3 DUP2 MSTORE PUSH1 0x20 DUP2 DUP2 MSTORE PUSH1 0x40 DUP1 DUP4 KECCAK256 PUSH1 0x1 PUSH1 0x1 PUSH1 0xA0 SHL SUB DUP12 AND DUP5 MSTORE SWAP1 SWAP2 MSTORE DUP2 KECCAK256 DUP1 SLOAD DUP4 SWAP3 SWAP1 PUSH2 0x2913 SWAP1 DUP5 SWAP1 PUSH2 0x31C8 JUMP JUMPDEST SWAP1 SWAP2 SSTORE POP POP JUMPDEST POP POP DUP1 PUSH2 0x2925 SWAP1 PUSH2 0x31DB JUMP JUMPDEST SWAP1 POP PUSH2 0x2824 JUMP JUMPDEST POP DUP3 MLOAD PUSH1 0x1 SUB PUSH2 0x29AC JUMPI PUSH1 0x20 DUP4 ADD MLOAD PUSH0 SWAP1 PUSH1 0x20 DUP5 ADD MLOAD SWAP1 SWAP2 POP DUP6 PUSH1 0x1 PUSH1 0x1 PUSH1 0xA0 SHL SUB AND DUP8 PUSH1 0x1 PUSH1 0x1 PUSH1 0xA0 SHL SUB AND DUP5 PUSH1 0x1 PUSH1 0x1 PUSH1 0xA0 SHL SUB AND PUSH32 0xC3D58168C5AE7397731D063D5BBF3D657854427343F4C083240F7AACAA2D0F62 DUP6 DUP6 PUSH1 0x40 MLOAD PUSH2 0x299D SWAP3 SWAP2 SWAP1 SWAP2 DUP3 MSTORE PUSH1 0x20 DUP3 ADD MSTORE PUSH1 0x40 ADD SWAP1 JUMP JUMPDEST PUSH1 0x40 MLOAD DUP1 SWAP2 SUB SWAP1 LOG4 POP POP PUSH2 0x21E9 JUMP JUMPDEST DUP4 PUSH1 0x1 PUSH1 0x1 PUSH1 0xA0 SHL SUB AND DUP6 PUSH1 0x1 PUSH1 0x1 PUSH1 0xA0 SHL SUB AND DUP3 PUSH1 0x1 PUSH1 0x1 PUSH1 0xA0 SHL SUB AND PUSH32 0x4A39DC06D4C0DBC64B70AF90FD698A233A518AA5D07E595D983B8C0526C8F7FB DUP7 DUP7 PUSH1 0x40 MLOAD PUSH2 0x29FB SWAP3 SWAP2 SWAP1 PUSH2 0x37E1 JUMP JUMPDEST PUSH1 0x40 MLOAD DUP1 SWAP2 SUB SWAP1 LOG4 POP POP POP POP POP JUMP JUMPDEST DUP1 CALLDATALOAD PUSH1 0x1 PUSH1 0x1 PUSH1 0xA0 SHL SUB DUP2 AND DUP2 EQ PUSH2 0x2A20 JUMPI PUSH0 DUP1 REVERT JUMPDEST SWAP2 SWAP1 POP JUMP JUMPDEST PUSH0 DUP1 PUSH1 0x40 DUP4 DUP6 SUB SLT ISZERO PUSH2 0x2A36 JUMPI PUSH0 DUP1 REVERT JUMPDEST PUSH2 0x2A3F DUP4 PUSH2 0x2A0A JUMP JUMPDEST SWAP5 PUSH1 0x20 SWAP4 SWAP1 SWAP4 ADD CALLDATALOAD SWAP4 POP POP POP JUMP JUMPDEST PUSH1 0x1 PUSH1 0x1 PUSH1 0xE0 SHL SUB NOT DUP2 AND DUP2 EQ PUSH2 0x7B7 JUMPI PUSH0 DUP1 REVERT JUMPDEST PUSH0 PUSH1 0x20 DUP3 DUP5 SUB SLT ISZERO PUSH2 0x2A72 JUMPI PUSH0 DUP1 REVERT JUMPDEST DUP2 CALLDATALOAD PUSH2 0x861 DUP2 PUSH2 0x2A4D JUMP JUMPDEST PUSH4 0x4E487B71 PUSH1 0xE0 SHL PUSH0 MSTORE PUSH1 0x41 PUSH1 0x4 MSTORE PUSH1 0x24 PUSH0 REVERT JUMPDEST PUSH1 0x40 MLOAD PUSH1 0x1F DUP3 ADD PUSH1 0x1F NOT AND DUP2 ADD PUSH1 0x1 PUSH1 0x1 PUSH1 0x40 SHL SUB DUP2 GT DUP3 DUP3 LT OR ISZERO PUSH2 0x2AB9 JUMPI PUSH2 0x2AB9 PUSH2 0x2A7D JUMP JUMPDEST PUSH1 0x40 MSTORE SWAP2 SWAP1 POP JUMP JUMPDEST PUSH0 DUP3 PUSH1 0x1F DUP4 ADD SLT PUSH2 0x2AD0 JUMPI PUSH0 DUP1 REVERT JUMPDEST DUP2 CALLDATALOAD PUSH1 0x1 PUSH1 0x1 PUSH1 0x40 SHL SUB DUP2 GT ISZERO PUSH2 0x2AE9 JUMPI PUSH2 0x2AE9 PUSH2 0x2A7D JUMP JUMPDEST PUSH2 0x2AFC PUSH1 0x1F DUP3 ADD PUSH1 0x1F NOT AND PUSH1 0x20 ADD PUSH2 0x2A91 JUMP JUMPDEST DUP2 DUP2 MSTORE DUP5 PUSH1 0x20 DUP4 DUP7 ADD ADD GT ISZERO PUSH2 0x2B10 JUMPI PUSH0 DUP1 REVERT JUMPDEST DUP2 PUSH1 0x20 DUP6 ADD PUSH1 0x20 DUP4 ADD CALLDATACOPY PUSH0 SWAP2 DUP2 ADD PUSH1 0x20 ADD SWAP2 SWAP1 SWAP2 MSTORE SWAP4 SWAP3 POP POP POP JUMP JUMPDEST PUSH0 PUSH1 0x20 DUP3 DUP5 SUB SLT ISZERO PUSH2 0x2B3C JUMPI PUSH0 DUP1 REVERT JUMPDEST DUP2 CALLDATALOAD PUSH1 0x1 PUSH1 0x1 PUSH1 0x40 SHL SUB DUP2 GT ISZERO PUSH2 0x2B51 JUMPI PUSH0 DUP1 REVERT JUMPDEST PUSH2 0x2B5D DUP5 DUP3 DUP6 ADD PUSH2 0x2AC1 JUMP JUMPDEST SWAP5 SWAP4 POP POP POP POP JUMP JUMPDEST DUP1 CALLDATALOAD PUSH1 0xFF DUP2 AND DUP2 EQ PUSH2 0x2A20 JUMPI PUSH0 DUP1 REVERT JUMPDEST PUSH0 DUP1 PUSH0 PUSH1 0x60 DUP5 DUP7 SUB SLT ISZERO PUSH2 0x2B87 JUMPI PUSH0 DUP1 REVERT JUMPDEST PUSH2 0x2B90 DUP5 PUSH2 0x2A0A JUMP JUMPDEST SWAP3 POP PUSH1 0x20 DUP5 ADD CALLDATALOAD SWAP2 POP PUSH2 0x2BA5 PUSH1 0x40 DUP6 ADD PUSH2 0x2B65 JUMP JUMPDEST SWAP1 POP SWAP3 POP SWAP3 POP SWAP3 JUMP JUMPDEST PUSH0 DUP2 MLOAD DUP1 DUP5 MSTORE PUSH0 JUMPDEST DUP2 DUP2 LT ISZERO PUSH2 0x2BD2 JUMPI PUSH1 0x20 DUP2 DUP6 ADD DUP2 ADD MLOAD DUP7 DUP4 ADD DUP3 ADD MSTORE ADD PUSH2 0x2BB6 JUMP JUMPDEST POP PUSH0 PUSH1 0x20 DUP3 DUP7 ADD ADD MSTORE PUSH1 0x20 PUSH1 0x1F NOT PUSH1 0x1F DUP4 ADD AND DUP6 ADD ADD SWAP2 POP POP SWAP3 SWAP2 POP POP JUMP JUMPDEST PUSH1 0x20 DUP2 MSTORE PUSH0 PUSH2 0x861 PUSH1 0x20 DUP4 ADD DUP5 PUSH2 0x2BAE JUMP JUMPDEST PUSH0 DUP1 DUP4 PUSH1 0x1F DUP5 ADD SLT PUSH2 0x2C13 JUMPI PUSH0 DUP1 REVERT JUMPDEST POP DUP2 CALLDATALOAD PUSH1 0x1 PUSH1 0x1 PUSH1 0x40 SHL SUB DUP2 GT ISZERO PUSH2 0x2C29 JUMPI PUSH0 DUP1 REVERT JUMPDEST PUSH1 0x20 DUP4 ADD SWAP2 POP DUP4 PUSH1 0x20 DUP3 PUSH1 0x5 SHL DUP6 ADD ADD GT ISZERO PUSH2 0x2C43 JUMPI PUSH0 DUP1 REVERT JUMPDEST SWAP3 POP SWAP3 SWAP1 POP JUMP JUMPDEST PUSH0 DUP1 PUSH0 DUP1 PUSH1 0x40 DUP6 DUP8 SUB SLT ISZERO PUSH2 0x2C5D JUMPI PUSH0 DUP1 REVERT JUMPDEST DUP5 CALLDATALOAD PUSH1 0x1 PUSH1 0x1 PUSH1 0x40 SHL SUB DUP1 DUP3 GT ISZERO PUSH2 0x2C73 JUMPI PUSH0 DUP1 REVERT JUMPDEST PUSH2 0x2C7F DUP9 DUP4 DUP10 ADD PUSH2 0x2C03 JUMP JUMPDEST SWAP1 SWAP7 POP SWAP5 POP PUSH1 0x20 DUP8 ADD CALLDATALOAD SWAP2 POP DUP1 DUP3 GT ISZERO PUSH2 0x2C97 JUMPI PUSH0 DUP1 REVERT JUMPDEST POP PUSH2 0x2CA4 DUP8 DUP3 DUP9 ADD PUSH2 0x2C03 JUMP JUMPDEST SWAP6 SWAP9 SWAP5 SWAP8 POP SWAP6 POP POP POP POP JUMP JUMPDEST PUSH0 PUSH1 0x20 DUP3 DUP5 SUB SLT ISZERO PUSH2 0x2CC0 JUMPI PUSH0 DUP1 REVERT JUMPDEST POP CALLDATALOAD SWAP2 SWAP1 POP JUMP JUMPDEST PUSH0 PUSH1 0x20 DUP3 DUP5 SUB SLT ISZERO PUSH2 0x2CD7 JUMPI PUSH0 DUP1 REVERT JUMPDEST PUSH2 0x861 DUP3 PUSH2 0x2B65 JUMP JUMPDEST PUSH0 PUSH1 0x1 PUSH1 0x1 PUSH1 0x40 SHL SUB DUP3 GT ISZERO PUSH2 0x2CF8 JUMPI PUSH2 0x2CF8 PUSH2 0x2A7D JUMP JUMPDEST POP PUSH1 0x5 SHL PUSH1 0x20 ADD SWAP1 JUMP JUMPDEST PUSH0 DUP3 PUSH1 0x1F DUP4 ADD SLT PUSH2 0x2D11 JUMPI PUSH0 DUP1 REVERT JUMPDEST DUP2 CALLDATALOAD PUSH1 0x20 PUSH2 0x2D26 PUSH2 0x2D21 DUP4 PUSH2 0x2CE0 JUMP JUMPDEST PUSH2 0x2A91 JUMP JUMPDEST DUP3 DUP2 MSTORE PUSH1 0x5 SWAP3 SWAP1 SWAP3 SHL DUP5 ADD DUP2 ADD SWAP2 DUP2 DUP2 ADD SWAP1 DUP7 DUP5 GT ISZERO PUSH2 0x2D44 JUMPI PUSH0 DUP1 REVERT JUMPDEST DUP3 DUP7 ADD JUMPDEST DUP5 DUP2 LT ISZERO PUSH2 0x2D5F JUMPI DUP1 CALLDATALOAD DUP4 MSTORE SWAP2 DUP4 ADD SWAP2 DUP4 ADD PUSH2 0x2D48 JUMP JUMPDEST POP SWAP7 SWAP6 POP POP POP POP POP POP JUMP JUMPDEST PUSH0 DUP1 PUSH0 DUP1 PUSH0 PUSH1 0xA0 DUP7 DUP9 SUB SLT ISZERO PUSH2 0x2D7E JUMPI PUSH0 DUP1 REVERT JUMPDEST PUSH2 0x2D87 DUP7 PUSH2 0x2A0A JUMP JUMPDEST SWAP5 POP PUSH2 0x2D95 PUSH1 0x20 DUP8 ADD PUSH2 0x2A0A JUMP JUMPDEST SWAP4 POP PUSH1 0x40 DUP7 ADD CALLDATALOAD PUSH1 0x1 PUSH1 0x1 PUSH1 0x40 SHL SUB DUP1 DUP3 GT ISZERO PUSH2 0x2DB0 JUMPI PUSH0 DUP1 REVERT JUMPDEST PUSH2 0x2DBC DUP10 DUP4 DUP11 ADD PUSH2 0x2D02 JUMP JUMPDEST SWAP5 POP PUSH1 0x60 DUP9 ADD CALLDATALOAD SWAP2 POP DUP1 DUP3 GT ISZERO PUSH2 0x2DD1 JUMPI PUSH0 DUP1 REVERT JUMPDEST PUSH2 0x2DDD DUP10 DUP4 DUP11 ADD PUSH2 0x2D02 JUMP JUMPDEST SWAP4 POP PUSH1 0x80 DUP9 ADD CALLDATALOAD SWAP2 POP DUP1 DUP3 GT ISZERO PUSH2 0x2DF2 JUMPI PUSH0 DUP1 REVERT JUMPDEST POP PUSH2 0x2DFF DUP9 DUP3 DUP10 ADD PUSH2 0x2AC1 JUMP JUMPDEST SWAP2 POP POP SWAP3 SWAP6 POP SWAP3 SWAP6 SWAP1 SWAP4 POP JUMP JUMPDEST PUSH0 PUSH1 0x20 DUP3 DUP5 SUB SLT ISZERO PUSH2 0x2E1C JUMPI PUSH0 DUP1 REVERT JUMPDEST PUSH2 0x861 DUP3 PUSH2 0x2A0A JUMP JUMPDEST PUSH0 DUP2 MLOAD DUP1 DUP5 MSTORE PUSH1 0x20 DUP1 DUP6 ADD SWAP5 POP DUP1 DUP5 ADD PUSH0 JUMPDEST DUP4 DUP2 LT ISZERO PUSH2 0x2E53 JUMPI DUP2 MLOAD DUP8 MSTORE SWAP6 DUP3 ADD SWAP6 SWAP1 DUP3 ADD SWAP1 PUSH1 0x1 ADD PUSH2 0x2E37 JUMP JUMPDEST POP SWAP5 SWAP6 SWAP5 POP POP POP POP POP JUMP JUMPDEST PUSH1 0x20 DUP2 MSTORE PUSH0 PUSH2 0x861 PUSH1 0x20 DUP4 ADD DUP5 PUSH2 0x2E25 JUMP JUMPDEST PUSH0 DUP1 PUSH1 0x40 DUP4 DUP6 SUB SLT ISZERO PUSH2 0x2E81 JUMPI PUSH0 DUP1 REVERT JUMPDEST DUP3 CALLDATALOAD PUSH1 0x1 PUSH1 0x1 PUSH1 0x40 SHL SUB DUP1 DUP3 GT ISZERO PUSH2 0x2E97 JUMPI PUSH0 DUP1 REVERT JUMPDEST DUP2 DUP6 ADD SWAP2 POP DUP6 PUSH1 0x1F DUP4 ADD SLT PUSH2 0x2EAA JUMPI PUSH0 DUP1 REVERT JUMPDEST DUP2 CALLDATALOAD PUSH1 0x20 PUSH2 0x2EBA PUSH2 0x2D21 DUP4 PUSH2 0x2CE0 JUMP JUMPDEST DUP3 DUP2 MSTORE PUSH1 0x5 SWAP3 SWAP1 SWAP3 SHL DUP5 ADD DUP2 ADD SWAP2 DUP2 DUP2 ADD SWAP1 DUP10 DUP5 GT ISZERO PUSH2 0x2ED8 JUMPI PUSH0 DUP1 REVERT JUMPDEST SWAP5 DUP3 ADD SWAP5 JUMPDEST DUP4 DUP7 LT ISZERO PUSH2 0x2EFD JUMPI PUSH2 0x2EEE DUP7 PUSH2 0x2A0A JUMP JUMPDEST DUP3 MSTORE SWAP5 DUP3 ADD SWAP5 SWAP1 DUP3 ADD SWAP1 PUSH2 0x2EDD JUMP JUMPDEST SWAP7 POP POP DUP7 ADD CALLDATALOAD SWAP3 POP POP DUP1 DUP3 GT ISZERO PUSH2 0x2F12 JUMPI PUSH0 DUP1 REVERT JUMPDEST POP PUSH2 0x2F1F DUP6 DUP3 DUP7 ADD PUSH2 0x2D02 JUMP JUMPDEST SWAP2 POP POP SWAP3 POP SWAP3 SWAP1 POP JUMP JUMPDEST PUSH0 DUP1 PUSH1 0x40 DUP4 DUP6 SUB SLT ISZERO PUSH2 0x2F3A JUMPI PUSH0 DUP1 REVERT JUMPDEST DUP3 CALLDATALOAD SWAP2 POP PUSH2 0x2F4A PUSH1 0x20 DUP5 ADD PUSH2 0x2B65 JUMP JUMPDEST SWAP1 POP SWAP3 POP SWAP3 SWAP1 POP JUMP JUMPDEST PUSH0 DUP1 PUSH1 0x40 DUP4 DUP6 SUB SLT ISZERO PUSH2 0x2F64 JUMPI PUSH0 DUP1 REVERT JUMPDEST PUSH2 0x2F6D DUP4 PUSH2 0x2A0A JUMP JUMPDEST SWAP2 POP PUSH1 0x20 DUP4 ADD CALLDATALOAD DUP1 ISZERO ISZERO DUP2 EQ PUSH2 0x2F81 JUMPI PUSH0 DUP1 REVERT JUMPDEST DUP1 SWAP2 POP POP SWAP3 POP SWAP3 SWAP1 POP JUMP JUMPDEST PUSH0 DUP1 PUSH0 PUSH1 0x60 DUP5 DUP7 SUB SLT ISZERO PUSH2 0x2F9E JUMPI PUSH0 DUP1 REVERT JUMPDEST DUP4 CALLDATALOAD PUSH1 0x1 PUSH1 0x1 PUSH1 0x40 SHL SUB DUP2 GT ISZERO PUSH2 0x2FB3 JUMPI PUSH0 DUP1 REVERT JUMPDEST DUP5 ADD PUSH1 0x40 DUP2 DUP8 SUB SLT ISZERO PUSH2 0x2B90 JUMPI PUSH0 DUP1 REVERT JUMPDEST PUSH0 DUP1 PUSH1 0x40 DUP4 DUP6 SUB SLT ISZERO PUSH2 0x2FD5 JUMPI PUSH0 DUP1 REVERT JUMPDEST DUP3 CALLDATALOAD SWAP2 POP PUSH1 0x20 DUP4 ADD CALLDATALOAD PUSH1 0x1 PUSH1 0x1 PUSH1 0x40 SHL SUB DUP2 GT ISZERO PUSH2 0x2FF1 JUMPI PUSH0 DUP1 REVERT JUMPDEST PUSH2 0x2F1F DUP6 DUP3 DUP7 ADD PUSH2 0x2AC1 JUMP JUMPDEST PUSH1 0x60 DUP2 MSTORE PUSH0 PUSH2 0x300F PUSH1 0x60 DUP4 ADD DUP7 PUSH2 0x2E25 JUMP JUMPDEST DUP3 DUP2 SUB PUSH1 0x20 DUP5 DUP2 ADD SWAP2 SWAP1 SWAP2 MSTORE DUP6 MLOAD DUP1 DUP4 MSTORE DUP7 DUP3 ADD SWAP3 DUP3 ADD SWAP1 PUSH0 JUMPDEST DUP2 DUP2 LT ISZERO PUSH2 0x3048 JUMPI DUP5 MLOAD PUSH1 0xFF AND DUP4 MSTORE SWAP4 DUP4 ADD SWAP4 SWAP2 DUP4 ADD SWAP2 PUSH1 0x1 ADD PUSH2 0x3029 JUMP JUMPDEST POP POP DUP5 DUP2 SUB PUSH1 0x40 DUP7 ADD MSTORE DUP6 MLOAD DUP1 DUP3 MSTORE SWAP1 DUP3 ADD SWAP3 POP DUP2 DUP7 ADD SWAP1 PUSH0 JUMPDEST DUP2 DUP2 LT ISZERO PUSH2 0x3080 JUMPI DUP3 MLOAD ISZERO ISZERO DUP6 MSTORE SWAP4 DUP4 ADD SWAP4 SWAP2 DUP4 ADD SWAP2 PUSH1 0x1 ADD PUSH2 0x3062 JUMP JUMPDEST POP SWAP3 SWAP9 SWAP8 POP POP POP POP POP POP POP POP JUMP JUMPDEST PUSH0 DUP1 PUSH1 0x40 DUP4 DUP6 SUB SLT ISZERO PUSH2 0x309F JUMPI PUSH0 DUP1 REVERT JUMPDEST PUSH2 0x30A8 DUP4 PUSH2 0x2A0A JUMP JUMPDEST SWAP2 POP PUSH2 0x2F4A PUSH1 0x20 DUP5 ADD PUSH2 0x2A0A JUMP JUMPDEST PUSH0 DUP1 PUSH0 DUP1 PUSH0 PUSH1 0xA0 DUP7 DUP9 SUB SLT ISZERO PUSH2 0x30CA JUMPI PUSH0 DUP1 REVERT JUMPDEST PUSH2 0x30D3 DUP7 PUSH2 0x2A0A JUMP JUMPDEST SWAP5 POP PUSH2 0x30E1 PUSH1 0x20 DUP8 ADD PUSH2 0x2A0A JUMP JUMPDEST SWAP4 POP PUSH1 0x40 DUP7 ADD CALLDATALOAD SWAP3 POP PUSH1 0x60 DUP7 ADD CALLDATALOAD SWAP2 POP PUSH1 0x80 DUP7 ADD CALLDATALOAD PUSH1 0x1 PUSH1 0x1 PUSH1 0x40 SHL SUB DUP2 GT ISZERO PUSH2 0x3109 JUMPI PUSH0 DUP1 REVERT JUMPDEST PUSH2 0x2DFF DUP9 DUP3 DUP10 ADD PUSH2 0x2AC1 JUMP JUMPDEST PUSH0 DUP1 PUSH1 0x40 DUP4 DUP6 SUB SLT ISZERO PUSH2 0x3126 JUMPI PUSH0 DUP1 REVERT JUMPDEST PUSH2 0x2A3F DUP4 PUSH2 0x2B65 JUMP JUMPDEST PUSH4 0x4E487B71 PUSH1 0xE0 SHL PUSH0 MSTORE PUSH1 0x11 PUSH1 0x4 MSTORE PUSH1 0x24 PUSH0 REVERT JUMPDEST DUP2 DUP2 SUB DUP2 DUP2 GT ISZERO PUSH2 0x751 JUMPI PUSH2 0x751 PUSH2 0x312F JUMP JUMPDEST PUSH1 0x1 DUP2 DUP2 SHR SWAP1 DUP3 AND DUP1 PUSH2 0x316A JUMPI PUSH1 0x7F DUP3 AND SWAP2 POP JUMPDEST PUSH1 0x20 DUP3 LT DUP2 SUB PUSH2 0x3188 JUMPI PUSH4 0x4E487B71 PUSH1 0xE0 SHL PUSH0 MSTORE PUSH1 0x22 PUSH1 0x4 MSTORE PUSH1 0x24 PUSH0 REVERT JUMPDEST POP SWAP2 SWAP1 POP JUMP JUMPDEST PUSH4 0x4E487B71 PUSH1 0xE0 SHL PUSH0 MSTORE PUSH1 0x32 PUSH1 0x4 MSTORE PUSH1 0x24 PUSH0 REVERT JUMPDEST PUSH1 0x20 DUP1 DUP3 MSTORE PUSH1 0xC SWAP1 DUP3 ADD MSTORE PUSH12 0x24B73B30B634B2103A34B2B9 PUSH1 0xA1 SHL PUSH1 0x40 DUP3 ADD MSTORE PUSH1 0x60 ADD SWAP1 JUMP JUMPDEST DUP1 DUP3 ADD DUP1 DUP3 GT ISZERO PUSH2 0x751 JUMPI PUSH2 0x751 PUSH2 0x312F JUMP JUMPDEST PUSH0 PUSH1 0x1 DUP3 ADD PUSH2 0x31EC JUMPI PUSH2 0x31EC PUSH2 0x312F JUMP JUMPDEST POP PUSH1 0x1 ADD SWAP1 JUMP JUMPDEST PUSH0 PUSH1 0x20 DUP3 DUP5 SUB SLT ISZERO PUSH2 0x3203 JUMPI PUSH0 DUP1 REVERT JUMPDEST POP MLOAD SWAP2 SWAP1 POP JUMP JUMPDEST PUSH1 0x20 DUP1 DUP3 MSTORE PUSH1 0x10 SWAP1 DUP3 ADD MSTORE PUSH16 0x125B9D985B1A590819D95B9C99481251 PUSH1 0x82 SHL PUSH1 0x40 DUP3 ADD MSTORE PUSH1 0x60 ADD SWAP1 JUMP JUMPDEST PUSH0 DUP2 SLOAD PUSH2 0x3240 DUP2 PUSH2 0x3156 JUMP JUMPDEST DUP1 DUP6 MSTORE PUSH1 0x20 PUSH1 0x1 DUP4 DUP2 AND DUP1 ISZERO PUSH2 0x325D JUMPI PUSH1 0x1 DUP2 EQ PUSH2 0x3277 JUMPI PUSH2 0x32A2 JUMP JUMPDEST PUSH1 0xFF NOT DUP6 AND DUP9 DUP5 ADD MSTORE DUP4 ISZERO ISZERO PUSH1 0x5 SHL DUP9 ADD DUP4 ADD SWAP6 POP PUSH2 0x32A2 JUMP JUMPDEST DUP7 PUSH0 MSTORE DUP3 PUSH0 KECCAK256 PUSH0 JUMPDEST DUP6 DUP2 LT ISZERO PUSH2 0x329A JUMPI DUP2 SLOAD DUP11 DUP3 ADD DUP7 ADD MSTORE SWAP1 DUP4 ADD SWAP1 DUP5 ADD PUSH2 0x327F JUMP JUMPDEST DUP10 ADD DUP5 ADD SWAP7 POP POP JUMPDEST POP POP POP POP POP SWAP3 SWAP2 POP POP JUMP JUMPDEST PUSH1 0x60 DUP2 MSTORE PUSH0 PUSH2 0x32BF PUSH1 0x60 DUP4 ADD DUP7 PUSH2 0x3234 JUMP JUMPDEST PUSH1 0xFF SWAP5 SWAP1 SWAP5 AND PUSH1 0x20 DUP4 ADD MSTORE POP PUSH1 0x40 ADD MSTORE SWAP2 SWAP1 POP JUMP JUMPDEST PUSH1 0x1 PUSH1 0x1 PUSH1 0x40 SHL SUB DUP2 DUP2 AND DUP4 DUP3 AND ADD SWAP1 DUP1 DUP3 GT ISZERO PUSH2 0x32F4 JUMPI PUSH2 0x32F4 PUSH2 0x312F JUMP JUMPDEST POP SWAP3 SWAP2 POP POP JUMP JUMPDEST PUSH0 DUP3 CALLDATALOAD PUSH1 0x5E NOT DUP4 CALLDATASIZE SUB ADD DUP2 SLT PUSH2 0x330F JUMPI PUSH0 DUP1 REVERT JUMPDEST SWAP2 SWAP1 SWAP2 ADD SWAP3 SWAP2 POP POP JUMP JUMPDEST PUSH0 DUP1 DUP4 CALLDATALOAD PUSH1 0x1E NOT DUP5 CALLDATASIZE SUB ADD DUP2 SLT PUSH2 0x332E JUMPI PUSH0 DUP1 REVERT JUMPDEST DUP4 ADD DUP1 CALLDATALOAD SWAP2 POP PUSH1 0x1 PUSH1 0x1 PUSH1 0x40 SHL SUB DUP3 GT ISZERO PUSH2 0x3347 JUMPI PUSH0 DUP1 REVERT JUMPDEST PUSH1 0x20 ADD SWAP2 POP CALLDATASIZE DUP2 SWAP1 SUB DUP3 SGT ISZERO PUSH2 0x2C43 JUMPI PUSH0 DUP1 REVERT JUMPDEST PUSH0 DUP3 CALLDATALOAD PUSH1 0x9E NOT DUP4 CALLDATASIZE SUB ADD DUP2 SLT PUSH2 0x330F JUMPI PUSH0 DUP1 REVERT JUMPDEST DUP2 DUP4 MSTORE DUP2 DUP2 PUSH1 0x20 DUP6 ADD CALLDATACOPY POP PUSH0 DUP3 DUP3 ADD PUSH1 0x20 SWAP1 DUP2 ADD SWAP2 SWAP1 SWAP2 MSTORE PUSH1 0x1F SWAP1 SWAP2 ADD PUSH1 0x1F NOT AND SWAP1 SWAP2 ADD ADD SWAP1 JUMP JUMPDEST PUSH1 0x60 DUP2 MSTORE PUSH0 PUSH2 0x33AA PUSH1 0x60 DUP4 ADD DUP8 DUP10 PUSH2 0x336F JUMP JUMPDEST DUP3 DUP2 SUB PUSH1 0x20 DUP5 ADD MSTORE PUSH2 0x33BD DUP2 DUP7 DUP9 PUSH2 0x336F JUMP JUMPDEST SWAP2 POP POP DUP3 PUSH1 0x40 DUP4 ADD MSTORE SWAP7 SWAP6 POP POP POP POP POP POP JUMP JUMPDEST PUSH0 DUP1 DUP4 CALLDATALOAD PUSH1 0x1E NOT DUP5 CALLDATASIZE SUB ADD DUP2 SLT PUSH2 0x33E5 JUMPI PUSH0 DUP1 REVERT JUMPDEST DUP4 ADD PUSH1 0x20 DUP2 ADD SWAP3 POP CALLDATALOAD SWAP1 POP PUSH1 0x1 PUSH1 0x1 PUSH1 0x40 SHL SUB DUP2 GT ISZERO PUSH2 0x3403 JUMPI PUSH0 DUP1 REVERT JUMPDEST DUP1 CALLDATASIZE SUB DUP3 SGT ISZERO PUSH2 0x2C43 JUMPI PUSH0 DUP1 REVERT JUMPDEST PUSH0 DUP3 CALLDATALOAD PUSH1 0x9E NOT DUP4 CALLDATASIZE SUB ADD DUP2 SLT PUSH2 0x3425 JUMPI PUSH0 DUP1 REVERT JUMPDEST SWAP1 SWAP2 ADD SWAP3 SWAP2 POP POP JUMP JUMPDEST DUP1 CALLDATALOAD PUSH4 0xFFFFFFFF DUP2 AND DUP2 EQ PUSH2 0x2A20 JUMPI PUSH0 DUP1 REVERT JUMPDEST DUP2 DUP4 MSTORE PUSH0 PUSH1 0x20 DUP1 DUP6 ADD DUP1 DUP2 SWAP7 POP DUP6 PUSH1 0x5 SHL DUP2 ADD SWAP2 POP DUP5 PUSH0 JUMPDEST DUP8 DUP2 LT ISZERO PUSH2 0x348F JUMPI DUP3 DUP5 SUB DUP10 MSTORE PUSH2 0x3470 DUP3 DUP9 PUSH2 0x33D0 JUMP JUMPDEST PUSH2 0x347B DUP7 DUP3 DUP5 PUSH2 0x336F JUMP JUMPDEST SWAP11 DUP8 ADD SWAP11 SWAP6 POP POP POP SWAP1 DUP5 ADD SWAP1 PUSH1 0x1 ADD PUSH2 0x3459 JUMP JUMPDEST POP SWAP2 SWAP8 SWAP7 POP POP POP POP POP POP POP JUMP JUMPDEST DUP1 CALLDATALOAD DUP3 MSTORE PUSH1 0x1 PUSH1 0x1 PUSH1 0xA0 SHL SUB PUSH2 0x34B4 PUSH1 0x20 DUP4 ADD PUSH2 0x2A0A JUMP JUMPDEST AND PUSH1 0x20 DUP4 ADD MSTORE PUSH0 PUSH2 0x34C7 PUSH1 0x40 DUP4 ADD PUSH2 0x342E JUMP JUMPDEST PUSH4 0xFFFFFFFF DUP1 DUP3 AND PUSH1 0x40 DUP7 ADD MSTORE DUP1 PUSH2 0x34E1 PUSH1 0x60 DUP7 ADD PUSH2 0x342E JUMP JUMPDEST AND PUSH1 0x60 DUP7 ADD MSTORE POP POP PUSH1 0x80 DUP3 ADD CALLDATALOAD PUSH1 0x1E NOT DUP4 CALLDATASIZE SUB ADD DUP2 SLT PUSH2 0x34FF JUMPI PUSH0 DUP1 REVERT JUMPDEST DUP3 ADD PUSH1 0x20 DUP2 ADD SWAP1 CALLDATALOAD PUSH1 0x1 PUSH1 0x1 PUSH1 0x40 SHL SUB DUP2 GT ISZERO PUSH2 0x351A JUMPI PUSH0 DUP1 REVERT JUMPDEST DUP1 PUSH1 0x5 SHL CALLDATASIZE SUB DUP3 SGT ISZERO PUSH2 0x352B JUMPI PUSH0 DUP1 REVERT JUMPDEST PUSH1 0xA0 PUSH1 0x80 DUP7 ADD MSTORE PUSH2 0x3540 PUSH1 0xA0 DUP7 ADD DUP3 DUP5 PUSH2 0x3441 JUMP JUMPDEST SWAP6 SWAP5 POP POP POP POP POP JUMP JUMPDEST PUSH1 0x20 DUP2 MSTORE PUSH0 DUP3 CALLDATALOAD PUSH1 0x5E NOT DUP5 CALLDATASIZE SUB ADD DUP2 SLT PUSH2 0x3561 JUMPI PUSH0 DUP1 REVERT JUMPDEST PUSH1 0x40 PUSH1 0x20 DUP5 ADD MSTORE DUP4 ADD PUSH2 0x3574 DUP2 DUP1 PUSH2 0x33D0 JUMP JUMPDEST PUSH1 0x60 DUP1 DUP7 ADD MSTORE PUSH2 0x3588 PUSH1 0xC0 DUP7 ADD DUP3 DUP5 PUSH2 0x336F JUMP JUMPDEST SWAP2 POP POP PUSH2 0x3598 PUSH1 0x20 DUP4 ADD DUP4 PUSH2 0x33D0 JUMP JUMPDEST PUSH1 0x5F NOT DUP1 DUP8 DUP6 SUB ADD PUSH1 0x80 DUP9 ADD MSTORE PUSH2 0x35B0 DUP5 DUP4 DUP6 PUSH2 0x336F JUMP JUMPDEST SWAP4 POP PUSH2 0x35BF PUSH1 0x40 DUP7 ADD DUP7 PUSH2 0x33D0 JUMP JUMPDEST SWAP6 POP SWAP3 POP DUP1 DUP8 DUP6 SUB ADD PUSH1 0xA0 DUP9 ADD MSTORE POP POP PUSH2 0x35DA DUP3 DUP5 DUP4 PUSH2 0x336F JUMP JUMPDEST SWAP3 POP POP POP PUSH2 0x35EB PUSH1 0x20 DUP6 ADD DUP6 PUSH2 0x3411 JUMP JUMPDEST DUP4 DUP3 SUB PUSH1 0x1F NOT ADD PUSH1 0x40 DUP6 ADD MSTORE PUSH2 0x3540 DUP3 DUP3 PUSH2 0x349C JUMP JUMPDEST PUSH1 0x40 DUP2 MSTORE PUSH0 PUSH2 0x3613 PUSH1 0x40 DUP4 ADD DUP6 PUSH2 0x3234 JUMP JUMPDEST SWAP1 POP PUSH1 0xFF DUP4 AND PUSH1 0x20 DUP4 ADD MSTORE SWAP4 SWAP3 POP POP POP JUMP JUMPDEST PUSH1 0x1F DUP3 GT ISZERO PUSH2 0x11D5 JUMPI PUSH0 DUP2 DUP2 MSTORE PUSH1 0x20 DUP2 KECCAK256 PUSH1 0x1F DUP6 ADD PUSH1 0x5 SHR DUP2 ADD PUSH1 0x20 DUP7 LT ISZERO PUSH2 0x364B JUMPI POP DUP1 JUMPDEST PUSH1 0x1F DUP6 ADD PUSH1 0x5 SHR DUP3 ADD SWAP2 POP JUMPDEST DUP2 DUP2 LT ISZERO PUSH2 0xEE9 JUMPI DUP3 DUP2 SSTORE PUSH1 0x1 ADD PUSH2 0x3657 JUMP JUMPDEST DUP2 MLOAD PUSH1 0x1 PUSH1 0x1 PUSH1 0x40 SHL SUB DUP2 GT ISZERO PUSH2 0x3683 JUMPI PUSH2 0x3683 PUSH2 0x2A7D JUMP JUMPDEST PUSH2 0x3697 DUP2 PUSH2 0x3691 DUP5 SLOAD PUSH2 0x3156 JUMP JUMPDEST DUP5 PUSH2 0x3625 JUMP JUMPDEST PUSH1 0x20 DUP1 PUSH1 0x1F DUP4 GT PUSH1 0x1 DUP2 EQ PUSH2 0x36CA JUMPI PUSH0 DUP5 ISZERO PUSH2 0x36B3 JUMPI POP DUP6 DUP4 ADD MLOAD JUMPDEST PUSH0 NOT PUSH1 0x3 DUP7 SWAP1 SHL SHR NOT AND PUSH1 0x1 DUP6 SWAP1 SHL OR DUP6 SSTORE PUSH2 0xEE9 JUMP JUMPDEST PUSH0 DUP6 DUP2 MSTORE PUSH1 0x20 DUP2 KECCAK256 PUSH1 0x1F NOT DUP7 AND SWAP2 JUMPDEST DUP3 DUP2 LT ISZERO PUSH2 0x36F8 JUMPI DUP9 DUP7 ADD MLOAD DUP3 SSTORE SWAP5 DUP5 ADD SWAP5 PUSH1 0x1 SWAP1 SWAP2 ADD SWAP1 DUP5 ADD PUSH2 0x36D9 JUMP JUMPDEST POP DUP6 DUP3 LT ISZERO PUSH2 0x3715 JUMPI DUP8 DUP6 ADD MLOAD PUSH0 NOT PUSH1 0x3 DUP9 SWAP1 SHL PUSH1 0xF8 AND SHR NOT AND DUP2 SSTORE JUMPDEST POP POP POP POP POP PUSH1 0x1 SWAP1 DUP2 SHL ADD SWAP1 SSTORE POP JUMP JUMPDEST PUSH1 0x1 PUSH1 0x1 PUSH1 0xA0 SHL SUB DUP7 DUP2 AND DUP3 MSTORE DUP6 AND PUSH1 0x20 DUP3 ADD MSTORE PUSH1 0x40 DUP2 ADD DUP5 SWAP1 MSTORE PUSH1 0x60 DUP2 ADD DUP4 SWAP1 MSTORE PUSH1 0xA0 PUSH1 0x80 DUP3 ADD DUP2 SWAP1 MSTORE PUSH0 SWAP1 PUSH2 0x375E SWAP1 DUP4 ADD DUP5 PUSH2 0x2BAE JUMP JUMPDEST SWAP8 SWAP7 POP POP POP POP POP POP POP JUMP JUMPDEST PUSH0 PUSH1 0x20 DUP3 DUP5 SUB SLT ISZERO PUSH2 0x3779 JUMPI PUSH0 DUP1 REVERT JUMPDEST DUP2 MLOAD PUSH2 0x861 DUP2 PUSH2 0x2A4D JUMP JUMPDEST PUSH1 0x1 PUSH1 0x1 PUSH1 0xA0 SHL SUB DUP7 DUP2 AND DUP3 MSTORE DUP6 AND PUSH1 0x20 DUP3 ADD MSTORE PUSH1 0xA0 PUSH1 0x40 DUP3 ADD DUP2 SWAP1 MSTORE PUSH0 SWAP1 PUSH2 0x37AF SWAP1 DUP4 ADD DUP7 PUSH2 0x2E25 JUMP JUMPDEST DUP3 DUP2 SUB PUSH1 0x60 DUP5 ADD MSTORE PUSH2 0x37C1 DUP2 DUP7 PUSH2 0x2E25 JUMP JUMPDEST SWAP1 POP DUP3 DUP2 SUB PUSH1 0x80 DUP5 ADD MSTORE PUSH2 0x37D5 DUP2 DUP6 PUSH2 0x2BAE JUMP JUMPDEST SWAP9 SWAP8 POP POP POP POP POP POP POP POP JUMP JUMPDEST PUSH1 0x40 DUP2 MSTORE PUSH0 PUSH2 0x37F3 PUSH1 0x40 DUP4 ADD DUP6 PUSH2 0x2E25 JUMP JUMPDEST DUP3 DUP2 SUB PUSH1 0x20 DUP5 ADD MSTORE PUSH2 0x85D DUP2 DUP6 PUSH2 0x2E25 JUMP INVALID LOG2 PUSH5 0x6970667358 0x22 SLT KECCAK256 0xCF 0xE5 0x24 PUSH5 0x7D5F41AA6B PUSH8 0x3D878F76BADFDF53 0xD6 CALLER 0xE4 PUSH28 0x9D03F8ABE60D7D3AF4C164736F6C6343000814003300000000000000 "},"methodIdentifiers":{"MAX_GENRE_ID()":"69d11c55","STATUS_ACTIVE()":"4389cc22","STATUS_INACTIVE()":"02429742","TIER_ENTRY()":"f7486960","TIER_OG()":"c71c37d1","TIER_VETERAN()":"b5fa9642","VERIFICATION_VALIDITY()":"cb2b50cd","badgeInfo(address,uint256)":"d4c19e33","balanceOf(address,uint256)":"00fdd58e","balanceOfBatch(address[],uint256[])":"4e1273f4","burnBadge(uint256)":"55de28ae","checkAndDecayBadge(address,uint256)":"417b9942","checkBadge(address,uint256)":"5982fefe","exists(uint256)":"4f558e79","genreNames(uint256)":"f45fb6b5","getActiveBadgesWithInfo(address)":"d5325487","getBadgeInfo(address,uint256)":"ff4181be","getBadgeStatus(address,uint256)":"cd85336e","getMintCost(uint8)":"15bdca04","getUpgradeCost(address,uint256,uint8)":"04001372","getUserBadges(address)":"37c245fe","hasBadge(address,uint256)":"4c6a70ce","isApprovedForAll(address,address)":"e985e9c5","mintBatchWithCVIB(uint256[],uint8[])":"0e7d912e","mintWithCVIB(uint256,uint8)":"64e8934e","mintWithProof(((string,string,string),((bytes32,address,uint32,uint32),bytes[])),uint256,uint8)":"bd990d32","name()":"06fdde03","owner()":"8da5cb5b","reclaimAddress()":"aeade0e6","renounceOwnership()":"715018a6","safeBatchTransferFrom(address,address,uint256[],uint256[],bytes)":"2eb2c2d6","safeTransferFrom(address,address,uint256,uint256,bytes)":"f242432a","setApprovalForAll(address,bool)":"a22cb465","setGenreName(uint256,string)":"cc18eadc","setReclaimAddress(address)":"9fc43dbe","setTierCost(uint8,uint256)":"fd49d4aa","setURI(string)":"02fe5305","setVibeTokenAddress(address)":"49c6c84f","supportsInterface(bytes4)":"01ffc9a7","symbol()":"95d89b41","tierCost(uint8)":"ffdbd60d","totalSupply()":"18160ddd","totalSupply(uint256)":"bd85b039","transferOwnership(address)":"f2fde38b","upgradeBadgeWithCVIB(uint256,uint8)":"7b231cd0","uri(uint256)":"0e89341c","usedProofs(bytes32)":"c30a0f25","vibeTokenAddress()":"5c3cd209"}}}}}