{"project/contracts/MusicConsensusSBTV3.sol":{"MusicConsensusSBTV3":{"abi":[{"inputs":[{"internalType":"address","name":"initialOwner","type":"address"},{"internalType":"string","name":"baseUri","type":"string"},{"internalType":"address","name":"_reclaimAddress","type":"address"}],"stateMutability":"nonpayable","type":"constructor"},{"inputs":[{"internalType":"address","name":"sender","type":"address"},{"internalType":"uint256","name":"balance","type":"uint256"},{"internalType":"uint256","name":"needed","type":"uint256"},{"internalType":"uint256","name":"tokenId","type":"uint256"}],"name":"ERC1155InsufficientBalance","type":"error"},{"inputs":[{"internalType":"address","name":"approver","type":"address"}],"name":"ERC1155InvalidApprover","type":"error"},{"inputs":[{"internalType":"uint256","name":"idsLength","type":"uint256"},{"internalType":"uint256","name":"valuesLength","type":"uint256"}],"name":"ERC1155InvalidArrayLength","type":"error"},{"inputs":[{"internalType":"address","name":"operator","type":"address"}],"name":"ERC1155InvalidOperator","type":"error"},{"inputs":[{"internalType":"address","name":"receiver","type":"address"}],"name":"ERC1155InvalidReceiver","type":"error"},{"inputs":[{"internalType":"address","name":"sender","type":"address"}],"name":"ERC1155InvalidSender","type":"error"},{"inputs":[{"internalType":"address","name":"operator","type":"address"},{"internalType":"address","name":"owner","type":"address"}],"name":"ERC1155MissingApprovalForAll","type":"error"},{"inputs":[{"internalType":"address","name":"owner","type":"address"}],"name":"OwnableInvalidOwner","type":"error"},{"inputs":[{"internalType":"address","name":"account","type":"address"}],"name":"OwnableUnauthorizedAccount","type":"error"},{"anonymous":false,"inputs":[{"indexed":true,"internalType":"address","name":"account","type":"address"},{"indexed":true,"internalType":"address","name":"operator","type":"address"},{"indexed":false,"internalType":"bool","name":"approved","type":"bool"}],"name":"ApprovalForAll","type":"event"},{"anonymous":false,"inputs":[{"indexed":true,"internalType":"address","name":"user","type":"address"},{"indexed":true,"internalType":"uint256","name":"genreId","type":"uint256"}],"name":"BadgeBurned","type":"event"},{"anonymous":false,"inputs":[{"indexed":true,"internalType":"address","name":"user","type":"address"},{"indexed":true,"internalType":"uint256","name":"genreId","type":"uint256"}],"name":"BadgeDecayed","type":"event"},{"anonymous":false,"inputs":[{"indexed":true,"internalType":"address","name":"user","type":"address"},{"indexed":true,"internalType":"uint256","name":"genreId","type":"uint256"},{"indexed":false,"internalType":"string","name":"genreName","type":"string"},{"indexed":false,"internalType":"uint8","name":"tier","type":"uint8"}],"name":"BadgeMinted","type":"event"},{"anonymous":false,"inputs":[{"indexed":true,"internalType":"address","name":"user","type":"address"},{"indexed":true,"internalType":"uint256","name":"genreId","type":"uint256"},{"indexed":false,"internalType":"uint8","name":"oldTier","type":"uint8"},{"indexed":false,"internalType":"uint8","name":"newTier","type":"uint8"}],"name":"BadgeRefreshed","type":"event"},{"anonymous":false,"inputs":[{"indexed":true,"internalType":"address","name":"previousOwner","type":"address"},{"indexed":true,"internalType":"address","name":"newOwner","type":"address"}],"name":"OwnershipTransferred","type":"event"},{"anonymous":false,"inputs":[{"indexed":true,"internalType":"address","name":"operator","type":"address"},{"indexed":true,"internalType":"address","name":"from","type":"address"},{"indexed":true,"internalType":"address","name":"to","type":"address"},{"indexed":false,"internalType":"uint256[]","name":"ids","type":"uint256[]"},{"indexed":false,"internalType":"uint256[]","name":"values","type":"uint256[]"}],"name":"TransferBatch","type":"event"},{"anonymous":false,"inputs":[{"indexed":true,"internalType":"address","name":"operator","type":"address"},{"indexed":true,"internalType":"address","name":"from","type":"address"},{"indexed":true,"internalType":"address","name":"to","type":"address"},{"indexed":false,"internalType":"uint256","name":"id","type":"uint256"},{"indexed":false,"internalType":"uint256","name":"value","type":"uint256"}],"name":"TransferSingle","type":"event"},{"anonymous":false,"inputs":[{"indexed":false,"internalType":"string","name":"value","type":"string"},{"indexed":true,"internalType":"uint256","name":"id","type":"uint256"}],"name":"URI","type":"event"},{"inputs":[],"name":"MAX_GENRE_ID","outputs":[{"internalType":"uint256","name":"","type":"uint256"}],"stateMutability":"view","type":"function"},{"inputs":[],"name":"STATUS_ACTIVE","outputs":[{"internalType":"uint8","name":"","type":"uint8"}],"stateMutability":"view","type":"function"},{"inputs":[],"name":"STATUS_INACTIVE","outputs":[{"internalType":"uint8","name":"","type":"uint8"}],"stateMutability":"view","type":"function"},{"inputs":[],"name":"TIER_ENTRY","outputs":[{"internalType":"uint8","name":"","type":"uint8"}],"stateMutability":"view","type":"function"},{"inputs":[],"name":"TIER_OG","outputs":[{"internalType":"uint8","name":"","type":"uint8"}],"stateMutability":"view","type":"function"},{"inputs":[],"name":"TIER_VETERAN","outputs":[{"internalType":"uint8","name":"","type":"uint8"}],"stateMutability":"view","type":"function"},{"inputs":[],"name":"VERIFICATION_VALIDITY","outputs":[{"internalType":"uint64","name":"","type":"uint64"}],"stateMutability":"view","type":"function"},{"inputs":[{"internalType":"address","name":"","type":"address"},{"internalType":"uint256","name":"","type":"uint256"}],"name":"badgeInfo","outputs":[{"internalType":"uint8","name":"tier","type":"uint8"},{"internalType":"uint64","name":"lastVerified","type":"uint64"},{"internalType":"uint8","name":"status","type":"uint8"}],"stateMutability":"view","type":"function"},{"inputs":[{"internalType":"address","name":"account","type":"address"},{"internalType":"uint256","name":"id","type":"uint256"}],"name":"balanceOf","outputs":[{"internalType":"uint256","name":"","type":"uint256"}],"stateMutability":"view","type":"function"},{"inputs":[{"internalType":"address[]","name":"accounts","type":"address[]"},{"internalType":"uint256[]","name":"ids","type":"uint256[]"}],"name":"balanceOfBatch","outputs":[{"internalType":"uint256[]","name":"","type":"uint256[]"}],"stateMutability":"view","type":"function"},{"inputs":[{"internalType":"uint256","name":"genreId","type":"uint256"}],"name":"burnBadge","outputs":[],"stateMutability":"nonpayable","type":"function"},{"inputs":[{"internalType":"address","name":"user","type":"address"},{"internalType":"uint256","name":"genreId","type":"uint256"}],"name":"checkAndDecayBadge","outputs":[],"stateMutability":"nonpayable","type":"function"},{"inputs":[{"internalType":"address","name":"user","type":"address"},{"internalType":"uint256","name":"genreId","type":"uint256"}],"name":"checkBadge","outputs":[{"internalType":"bool","name":"","type":"bool"}],"stateMutability":"view","type":"function"},{"inputs":[{"internalType":"uint256","name":"id","type":"uint256"}],"name":"exists","outputs":[{"internalType":"bool","name":"","type":"bool"}],"stateMutability":"view","type":"function"},{"inputs":[{"internalType":"uint256","name":"","type":"uint256"}],"name":"genreNames","outputs":[{"internalType":"string","name":"","type":"string"}],"stateMutability":"view","type":"function"},{"inputs":[{"internalType":"address","name":"user","type":"address"}],"name":"getActiveBadgesWithInfo","outputs":[{"internalType":"uint256[]","name":"genreIds","type":"uint256[]"},{"internalType":"uint8[]","name":"tiers","type":"uint8[]"},{"internalType":"bool[]","name":"isActives","type":"bool[]"}],"stateMutability":"view","type":"function"},{"inputs":[{"internalType":"address","name":"user","type":"address"},{"internalType":"uint256","name":"genreId","type":"uint256"}],"name":"getBadgeInfo","outputs":[{"internalType":"uint8","name":"tier","type":"uint8"},{"internalType":"uint64","name":"lastVerified","type":"uint64"},{"internalType":"uint8","name":"status","type":"uint8"},{"internalType":"bool","name":"isExpired","type":"bool"}],"stateMutability":"view","type":"function"},{"inputs":[{"internalType":"address","name":"user","type":"address"},{"internalType":"uint256","name":"genreId","type":"uint256"}],"name":"getBadgeStatus","outputs":[{"internalType":"bool","name":"isActive","type":"bool"}],"stateMutability":"view","type":"function"},{"inputs":[{"internalType":"address","name":"user","type":"address"}],"name":"getUserBadges","outputs":[{"internalType":"uint256[]","name":"","type":"uint256[]"}],"stateMutability":"view","type":"function"},{"inputs":[{"internalType":"address","name":"user","type":"address"},{"internalType":"uint256","name":"genreId","type":"uint256"}],"name":"hasBadge","outputs":[{"internalType":"bool","name":"","type":"bool"}],"stateMutability":"view","type":"function"},{"inputs":[{"internalType":"address","name":"account","type":"address"},{"internalType":"address","name":"operator","type":"address"}],"name":"isApprovedForAll","outputs":[{"internalType":"bool","name":"","type":"bool"}],"stateMutability":"view","type":"function"},{"inputs":[{"components":[{"components":[{"internalType":"string","name":"provider","type":"string"},{"internalType":"string","name":"parameters","type":"string"},{"internalType":"string","name":"context","type":"string"}],"internalType":"struct ClaimInfo","name":"claimInfo","type":"tuple"},{"components":[{"components":[{"internalType":"bytes32","name":"identifier","type":"bytes32"},{"internalType":"address","name":"owner","type":"address"},{"internalType":"uint32","name":"timestampS","type":"uint32"},{"internalType":"uint32","name":"epoch","type":"uint32"}],"internalType":"struct CompleteClaimData","name":"claim","type":"tuple"},{"internalType":"bytes[]","name":"signatures","type":"bytes[]"}],"internalType":"struct SignedClaim","name":"signedClaim","type":"tuple"}],"internalType":"struct Proof","name":"proof","type":"tuple"},{"internalType":"uint256[]","name":"genreIds","type":"uint256[]"},{"internalType":"uint8[]","name":"tiers","type":"uint8[]"}],"name":"mintBatchWithProof","outputs":[],"stateMutability":"nonpayable","type":"function"},{"inputs":[{"components":[{"components":[{"internalType":"string","name":"provider","type":"string"},{"internalType":"string","name":"parameters","type":"string"},{"internalType":"string","name":"context","type":"string"}],"internalType":"struct ClaimInfo","name":"claimInfo","type":"tuple"},{"components":[{"components":[{"internalType":"bytes32","name":"identifier","type":"bytes32"},{"internalType":"address","name":"owner","type":"address"},{"internalType":"uint32","name":"timestampS","type":"uint32"},{"internalType":"uint32","name":"epoch","type":"uint32"}],"internalType":"struct CompleteClaimData","name":"claim","type":"tuple"},{"internalType":"bytes[]","name":"signatures","type":"bytes[]"}],"internalType":"struct SignedClaim","name":"signedClaim","type":"tuple"}],"internalType":"struct Proof","name":"proof","type":"tuple"},{"internalType":"uint256","name":"genreId","type":"uint256"},{"internalType":"uint8","name":"tier","type":"uint8"}],"name":"mintWithProof","outputs":[],"stateMutability":"nonpayable","type":"function"},{"inputs":[],"name":"name","outputs":[{"internalType":"string","name":"","type":"string"}],"stateMutability":"view","type":"function"},{"inputs":[],"name":"owner","outputs":[{"internalType":"address","name":"","type":"address"}],"stateMutability":"view","type":"function"},{"inputs":[],"name":"reclaimAddress","outputs":[{"internalType":"address","name":"","type":"address"}],"stateMutability":"view","type":"function"},{"inputs":[{"components":[{"components":[{"internalType":"string","name":"provider","type":"string"},{"internalType":"string","name":"parameters","type":"string"},{"internalType":"string","name":"context","type":"string"}],"internalType":"struct ClaimInfo","name":"claimInfo","type":"tuple"},{"components":[{"components":[{"internalType":"bytes32","name":"identifier","type":"bytes32"},{"internalType":"address","name":"owner","type":"address"},{"internalType":"uint32","name":"timestampS","type":"uint32"},{"internalType":"uint32","name":"epoch","type":"uint32"}],"internalType":"struct CompleteClaimData","name":"claim","type":"tuple"},{"internalType":"bytes[]","name":"signatures","type":"bytes[]"}],"internalType":"struct SignedClaim","name":"signedClaim","type":"tuple"}],"internalType":"struct Proof","name":"proof","type":"tuple"},{"internalType":"uint256","name":"genreId","type":"uint256"},{"internalType":"uint8","name":"newTier","type":"uint8"}],"name":"refreshBadgeWithProof","outputs":[],"stateMutability":"nonpayable","type":"function"},{"inputs":[],"name":"renounceOwnership","outputs":[],"stateMutability":"nonpayable","type":"function"},{"inputs":[{"internalType":"address","name":"from","type":"address"},{"internalType":"address","name":"to","type":"address"},{"internalType":"uint256[]","name":"ids","type":"uint256[]"},{"internalType":"uint256[]","name":"values","type":"uint256[]"},{"internalType":"bytes","name":"data","type":"bytes"}],"name":"safeBatchTransferFrom","outputs":[],"stateMutability":"nonpayable","type":"function"},{"inputs":[{"internalType":"address","name":"from","type":"address"},{"internalType":"address","name":"to","type":"address"},{"internalType":"uint256","name":"id","type":"uint256"},{"internalType":"uint256","name":"value","type":"uint256"},{"internalType":"bytes","name":"data","type":"bytes"}],"name":"safeTransferFrom","outputs":[],"stateMutability":"nonpayable","type":"function"},{"inputs":[{"internalType":"address","name":"operator","type":"address"},{"internalType":"bool","name":"approved","type":"bool"}],"name":"setApprovalForAll","outputs":[],"stateMutability":"nonpayable","type":"function"},{"inputs":[{"internalType":"uint256","name":"genreId","type":"uint256"},{"internalType":"string","name":"genreName","type":"string"}],"name":"setGenreName","outputs":[],"stateMutability":"nonpayable","type":"function"},{"inputs":[{"internalType":"address","name":"_reclaimAddress","type":"address"}],"name":"setReclaimAddress","outputs":[],"stateMutability":"nonpayable","type":"function"},{"inputs":[{"internalType":"string","name":"newUri","type":"string"}],"name":"setURI","outputs":[],"stateMutability":"nonpayable","type":"function"},{"inputs":[{"internalType":"bytes4","name":"interfaceId","type":"bytes4"}],"name":"supportsInterface","outputs":[{"internalType":"bool","name":"","type":"bool"}],"stateMutability":"view","type":"function"},{"inputs":[],"name":"symbol","outputs":[{"internalType":"string","name":"","type":"string"}],"stateMutability":"view","type":"function"},{"inputs":[],"name":"totalSupply","outputs":[{"internalType":"uint256","name":"","type":"uint256"}],"stateMutability":"view","type":"function"},{"inputs":[{"internalType":"uint256","name":"id","type":"uint256"}],"name":"totalSupply","outputs":[{"internalType":"uint256","name":"","type":"uint256"}],"stateMutability":"view","type":"function"},{"inputs":[{"internalType":"address","name":"newOwner","type":"address"}],"name":"transferOwnership","outputs":[],"stateMutability":"nonpayable","type":"function"},{"inputs":[{"internalType":"uint256","name":"","type":"uint256"}],"name":"uri","outputs":[{"internalType":"string","name":"","type":"string"}],"stateMutability":"view","type":"function"},{"inputs":[{"internalType":"bytes32","name":"","type":"bytes32"}],"name":"usedProofs","outputs":[{"internalType":"bool","name":"","type":"bool"}],"stateMutability":"view","type":"function"}],"evm":{"bytecode":{"linkReferences":{},"object":"608060405234801562000010575f80fd5b50604051620039713803806200397183398101604081905262000033916200050e565b828262000040816200047b565b506001600160a01b0381166200006f57604051631e4fbdf760e01b81525f600482015260240160405180910390fd5b6200007a816200048d565b5060408051808201909152601681527f4d7573696320436f6e73656e73757320534254205633000000000000000000006020820152600690620000be90826200068d565b506040805180820190915260068152654d435342543360d01b6020820152600790620000eb90826200068d565b50600880546001600160a01b0319166001600160a01b0383161790556040805180820190915260038152620506f760ec1b60208083019190915260015f52600990527f92e85d02570a8092d09a6e3a57665bc3815a2699a4074001bf1ccabf660f5a36906200015b90826200068d565b50604080518082019091526004815263526f636b60e01b60208083019190915260025f52600990527f6cde3cea4b3a3fb2488b2808bae7556f4a405e50f65e1794383bc026131b13c390620001b190826200068d565b5060408051808201909152600781526604869702d486f760cc1b60208083019190915260035f52600990527fc575c31fea594a6eb97c8e9d3f9caee4c16218c6ef37e923234c0fe9014a61e7906200020a90826200068d565b5060408051808201909152600381526229132160e91b60208083019190915260045f52600990527f8dc18c4ccfd75f5c815b63770fa542fd953e8fef7e0e44bbdd4913470ce7e9cb906200025f90826200068d565b5060408051808201909152600a815269456c656374726f6e696360b01b60208083019190915260055f52600990527f74b05292d1d4b2b48b65261b07099d24244bcb069f138d9a6bfdcf776becac4c90620002bb90826200068d565b506040805180820190915260048152632530bd3d60e11b60208083019190915260065f52600990527fbb6daa0c283751197dfdc76590680f9005e97d6f23870deb1164ab60b28b9f5f906200031190826200068d565b506040805180820190915260098082526810db185cdcda58d85b60ba1b60208084019190915260075f52527fae6299332bcd708cd60e3a8defa55de28078a50a4cf2b3de3a546253240ff9e1906200036a90826200068d565b50604080518082019091526007815266436f756e74727960c81b60208083019190915260085f52600990527fc7694af312c4f286114180fd0ba6a52461fcee8a381636770b19a343af92538a90620003c390826200068d565b50604080518082019091526005815264496e64696560d81b60208083019190915260095f81905290527f87e8a52529e8ece4ef759037313542a6429ff494a9fab9027fb79db90124eba6906200041a90826200068d565b5060408051808201909152600581526413595d185b60da1b602080830191909152600a5f52600990527f502e20e4e219e0c509d693958f17384c185f07a810a5d31c46c2be981e979c25906200047190826200068d565b5050505062000755565b60026200048982826200068d565b5050565b600580546001600160a01b038381166001600160a01b0319831681179093556040519116919082907f8be0079c531659141344cd1fd0a4f28419497f9722a3daafe3b4186f6b6457e0905f90a35050565b80516001600160a01b0381168114620004f5575f80fd5b919050565b634e487b7160e01b5f52604160045260245ffd5b5f805f6060848603121562000521575f80fd5b6200052c84620004de565b602085810151919450906001600160401b03808211156200054b575f80fd5b818701915087601f8301126200055f575f80fd5b815181811115620005745762000574620004fa565b604051601f8201601f19908116603f011681019083821181831017156200059f576200059f620004fa565b816040528281528a86848701011115620005b7575f80fd5b5f93505b82841015620005da5784840186015181850187015292850192620005bb565b5f868483010152809750505050505050620005f860408501620004de565b90509250925092565b600181811c908216806200061657607f821691505b6020821081036200063557634e487b7160e01b5f52602260045260245ffd5b50919050565b601f82111562000688575f81815260208120601f850160051c81016020861015620006635750805b601f850160051c820191505b8181101562000684578281556001016200066f565b5050505b505050565b81516001600160401b03811115620006a957620006a9620004fa565b620006c181620006ba845462000601565b846200063b565b602080601f831160018114620006f7575f8415620006df5750858301515b5f19600386901b1c1916600185901b17855562000684565b5f85815260208120601f198616915b82811015620007275788860151825594840194600190910190840162000706565b50858210156200074557878501515f19600388901b60f8161c191681555b5050505050600190811b01905550565b61320e80620007635f395ff3fe608060405234801561000f575f80fd5b5060043610610249575f3560e01c80639fc43dbe11610140578063cd85336e116100bf578063f242432a11610084578063f242432a146105ac578063f2fde38b146105bf578063f45fb6b5146105d2578063f4908830146105e5578063f74869601461033a578063ff4181be146105f8575f80fd5b8063cd85336e146104dd578063d4c19e33146104f0578063d532548714610564578063e985e9c514610586578063f009f18114610599575f80fd5b8063bd990d3211610105578063bd990d321461046b578063c30a0f251461047e578063c71c37d1146104a0578063cb2b50cd146104a8578063cc18eadc146104ca575f80fd5b80639fc43dbe1461040b578063a22cb4651461041e578063aeade0e614610431578063b5fa964214610444578063bd85b0391461044c575f80fd5b80634389cc22116101cc5780635982fefe116101915780635982fefe1461034257806369d11c55146103ce578063715018a6146103d65780638da5cb5b146103de57806395d89b4114610403575f80fd5b80634389cc221461033a5780634c6a70ce146103425780634e1273f4146103875780634f558e791461039a57806355de28ae146103bb575f80fd5b80630e89341c116102125780630e89341c146102d957806318160ddd146102ec5780632eb2c2d6146102f457806337c245fe14610307578063417b994214610327575f80fd5b8062fdd58e1461024d57806301ffc9a714610273578063024297421461029657806302fe5305146102af57806306fdde03146102c4575b5f80fd5b61026061025b366004612471565b61063f565b6040519081526020015b60405180910390f35b6102866102813660046124ae565b610666565b604051901515815260200161026a565b61029d5f81565b60405160ff909116815260200161026a565b6102c26102bd36600461257f565b6106b5565b005b6102cc6106c9565b60405161026a91906125fb565b6102cc6102e736600461260d565b610755565b600454610260565b6102c26103023660046126ae565b6107e7565b61031a610315366004612750565b610853565b60405161026a91906127a2565b6102c2610335366004612471565b610987565b61029d600181565b610286610350366004612471565b6001600160a01b03919091165f908152600a60209081526040808320938352929052205461010090046001600160401b0316151590565b61031a6103953660046127b4565b610a4b565b6102866103a836600461260d565b5f90815260036020526040902054151590565b6102c26103c936600461260d565b610b1d565b610260600a81565b6102c2610be8565b6005546001600160a01b03165b6040516001600160a01b03909116815260200161026a565b6102cc610bfb565b6102c2610419366004612750565b610c08565b6102c261042c36600461286d565b610c32565b6008546103eb906001600160a01b031681565b61029d600281565b61026061045a36600461260d565b5f9081526003602052604090205490565b6102c26104793660046128cc565b610c41565b61028661048c36600461260d565b600b6020525f908152604090205460ff1681565b61029d600381565b6104b26276a70081565b6040516001600160401b03909116815260200161026a565b6102c26104d836600461291e565b610f1d565b6102866104eb366004612471565b610f3c565b6105386104fe366004612471565b600a60209081525f928352604080842090915290825290205460ff808216916001600160401b0361010082041691600160481b9091041683565b6040805160ff94851681526001600160401b03909316602084015292169181019190915260600161026a565b610577610572366004612750565b610fdf565b60405161026a93929190612957565b6102866105943660046129e8565b61123d565b6102c26105a73660046128cc565b61126a565b6102c26105ba366004612a19565b6114a6565b6102c26105cd366004612750565b611505565b6102cc6105e036600461260d565b61153f565b6102c26105f3366004612abf565b611557565b61060b610606366004612471565b611ac2565b6040805160ff95861681526001600160401b039490941660208501529190931690820152901515606082015260800161026a565b5f818152602081815260408083206001600160a01b03861684529091529020545b92915050565b5f6001600160e01b03198216636cdb3d1360e11b148061069657506001600160e01b031982166303a24d0760e21b145b8061066057506301ffc9a760e01b6001600160e01b0319831614610660565b6106bd611b63565b6106c681611b90565b50565b600680546106d690612b4c565b80601f016020809104026020016040519081016040528092919081815260200182805461070290612b4c565b801561074d5780601f106107245761010080835404028352916020019161074d565b820191905f5260205f20905b81548152906001019060200180831161073057829003601f168201915b505050505081565b60606002805461076490612b4c565b80601f016020809104026020016040519081016040528092919081815260200182805461079090612b4c565b80156107db5780601f106107b2576101008083540402835291602001916107db565b820191905f5260205f20905b8154815290600101906020018083116107be57829003601f168201915b50505050509050919050565b336001600160a01b03861681148015906108085750610806868261123d565b155b1561083e5760405163711bec9160e11b81526001600160a01b038083166004830152871660248201526044015b60405180910390fd5b61084b8686868686611b9c565b505050505050565b60605f60015b600a81116108b7576001600160a01b0384165f908152600a6020908152604080832084845290915290205461010090046001600160401b0316156108a557816108a181612b92565b9250505b806108af81612b92565b915050610859565b505f816001600160401b038111156108d1576108d16124d0565b6040519080825280602002602001820160405280156108fa578160200160208202803683370190505b5090505f60015b600a811161097d576001600160a01b0386165f908152600a6020908152604080832084845290915290205461010090046001600160401b03161561096b578083838151811061095257610952612baa565b60209081029190910101528161096781612b92565b9250505b8061097581612b92565b915050610901565b5090949350505050565b6001600160a01b0382165f908152600a602090815260408083208484529091529020805461010090046001600160401b0316158015906109d257508054600160481b900460ff166001145b15610a465780546109f5906276a7009061010090046001600160401b0316612bbe565b6001600160401b0316421115610a4657805460ff60481b1916815560405182906001600160a01b038516907ffe3376793d31b551742504ab5d60ef12323f83f07f3f67c68f5c7ac1081feb05905f90a35b505050565b60608151835114610a7c5781518351604051635b05999160e01b815260048101929092526024820152604401610835565b5f83516001600160401b03811115610a9657610a966124d0565b604051908082528060200260200182016040528015610abf578160200160208202803683370190505b5090505f5b8451811015610b1557602080820286010151610ae89060208084028701015161063f565b828281518110610afa57610afa612baa565b6020908102919091010152610b0e81612b92565b9050610ac4565b509392505050565b335f908152600a6020908152604080832084845290915290205461010090046001600160401b0316610b835760405162461bcd60e51b815260206004820152600f60248201526e10985919d9481b9bdd081bdddb9959608a1b6044820152606401610835565b335f818152600a602090815260408083208584529091529020805469ffffffffffffffffffff19169055610bb990826001611c01565b604051819033907f21efcae153b58616332d7f7ee4eb0b72bd5b472048c613a4107d750a710b6402905f90a350565b610bf0611b63565b610bf95f611c67565b565b600780546106d690612b4c565b610c10611b63565b600880546001600160a01b0319166001600160a01b0392909216919091179055565b610c3d338383611cb8565b5050565b60018210158015610c535750600a8211155b610c925760405162461bcd60e51b815260206004820152601060248201526f125b9d985b1a590819d95b9c9948125160821b6044820152606401610835565b600160ff821610801590610caa5750600360ff821611155b610cc65760405162461bcd60e51b815260040161083590612be5565b335f908152600a6020908152604080832085845290915290205461010090046001600160401b031615610d325760405162461bcd60e51b8152602060048201526014602482015273426164676520616c72656164792065786973747360601b6044820152606401610835565b5f610d3d8480612c0b565b610d479080612c29565b610d518680612c0b565b610d5f906020810190612c29565b610d6c6020890189612c6b565b604051610d8195949392913590602001612ca7565b60408051601f1981840301815291815281516020928301205f818152600b90935291205490915060ff1615610dc85760405162461bcd60e51b815260040161083590612ce0565b6008546040516354b0734f60e11b81526001600160a01b039091169063a960e69e90610df8908790600401612e85565b5f6040518083038186803b158015610e0e575f80fd5b505afa158015610e20573d5f803e3d5ffd5b5050505f828152600b60209081526040808320805460ff19166001908117909155815160608101835260ff88811682526001600160401b0342811683870190815283860185815233808a52600a8952878a208e8b528952878a2095518654935192518616600160481b0260ff60481b19939095166101000268ffffffffffffffffff199094169516949094179190911716179091558251938401909252928252610ecd9350918691611d4c565b5f83815260096020526040908190209051849133917feea079fecea4873aede971df0e085eaadfb8311fc3b73bdb10a9469ea7d1922791610f0f918790612f3d565b60405180910390a350505050565b610f25611b63565b5f828152600960205260409020610a468282613011565b6001600160a01b0382165f908152600a6020908152604080832084845282528083208151606081018352905460ff80821683526001600160401b03610100830416948301859052600160481b9091041691810191909152908203610fa3575f915050610660565b6276a7008160200151610fb69190612bbe565b6001600160401b03164211610fd6576040015160ff166001149050610660565b505f9392505050565b606080805f60015b600a8111611045576001600160a01b0386165f908152600a6020908152604080832084845290915290205461010090046001600160401b031615611033578161102f81612b92565b9250505b8061103d81612b92565b915050610fe7565b50806001600160401b0381111561105e5761105e6124d0565b604051908082528060200260200182016040528015611087578160200160208202803683370190505b509350806001600160401b038111156110a2576110a26124d0565b6040519080825280602002602001820160405280156110cb578160200160208202803683370190505b509250806001600160401b038111156110e6576110e66124d0565b60405190808252806020026020018201604052801561110f578160200160208202803683370190505b5091505f60015b600a8111611233576001600160a01b0387165f908152600a602090815260408083208484528252918290208251606081018452905460ff80821683526001600160401b03610100830416938301849052600160481b909104169281019290925215611220578187848151811061118e5761118e612baa565b602002602001018181525050805f01518684815181106111b0576111b0612baa565b60ff928316602091820292909201015260408201511660011480156111f057506276a70081602001516111e39190612bbe565b6001600160401b03164211155b85848151811061120257611202612baa565b911515602092830291909101909101528261121c81612b92565b9350505b508061122b81612b92565b915050611116565b5050509193909250565b6001600160a01b039182165f90815260016020908152604080832093909416825291909152205460ff1690565b335f908152600a6020908152604080832085845290915290205461010090046001600160401b03166112d05760405162461bcd60e51b815260206004820152600f60248201526e10985919d9481b9bdd081bdddb9959608a1b6044820152606401610835565b600160ff8216108015906112e85750600360ff821611155b6113045760405162461bcd60e51b815260040161083590612be5565b5f61130f8480612c0b565b6113199080612c29565b6113238680612c0b565b611331906020810190612c29565b61133e6020890189612c6b565b60405161135395949392913590602001612ca7565b60408051601f1981840301815291815281516020928301205f818152600b90935291205490915060ff161561139a5760405162461bcd60e51b815260040161083590612ce0565b6008546040516354b0734f60e11b81526001600160a01b039091169063a960e69e906113ca908790600401612e85565b5f6040518083038186803b1580156113e0575f80fd5b505afa1580156113f2573d5f803e3d5ffd5b5050505f828152600b602090815260408083208054600160ff199182161790915533808552600a84528285208986528452938290208054600160481b69ffffffffffffffffff00198216610100426001600160401b03160260ff60481b1916171790921660ff8981169182178355845193168084529483015294509192879290917ffe5ac37f441080da72c3e4788457d0722b5196ed6d2843af39b402294074b2c7910160405180910390a3505050505050565b336001600160a01b03861681148015906114c757506114c5868261123d565b155b156114f85760405163711bec9160e11b81526001600160a01b03808316600483015287166024820152604401610835565b61084b8686868686611da7565b61150d611b63565b6001600160a01b03811661153657604051631e4fbdf760e01b81525f6004820152602401610835565b6106c681611c67565b60096020525f9081526040902080546106d690612b4c565b8281146115985760405162461bcd60e51b815260206004820152600f60248201526e082e4e4c2f2e640dad2e6dac2e8c6d608b1b6044820152606401610835565b826115d45760405162461bcd60e51b815260206004820152600c60248201526b456d7074792061727261797360a01b6044820152606401610835565b5f6115df8680612c0b565b6115e99080612c29565b6115f38880612c0b565b611601906020810190612c29565b61160e60208b018b612c6b565b60405161162395949392913590602001612ca7565b60408051601f1981840301815291815281516020928301205f818152600b90935291205490915060ff161561166a5760405162461bcd60e51b815260040161083590612ce0565b6008546040516354b0734f60e11b81526001600160a01b039091169063a960e69e9061169a908990600401612e85565b5f6040518083038186803b1580156116b0575f80fd5b505afa1580156116c2573d5f803e3d5ffd5b5050505f828152600b60205260408120805460ff191660011790559050846001600160401b038111156116f7576116f76124d0565b604051908082528060200260200182016040528015611720578160200160208202803683370190505b5090505f5b85811015611a6c57600187878381811061174157611741612baa565b905060200201351015801561176f5750600a87878381811061176557611765612baa565b9050602002013511155b6117ae5760405162461bcd60e51b815260206004820152601060248201526f125b9d985b1a590819d95b9c9948125160821b6044820152606401610835565b60018585838181106117c2576117c2612baa565b90506020020160208101906117d791906130cc565b60ff1610158015611812575060038585838181106117f7576117f7612baa565b905060200201602081019061180c91906130cc565b60ff1611155b61182e5760405162461bcd60e51b815260040161083590612be5565b335f908152600a602052604081209088888481811061184f5761184f612baa565b602090810292909201358352508101919091526040015f205461010090046001600160401b0316156118b25760405162461bcd60e51b815260206004820152600c60248201526b42616467652065786973747360a01b6044820152606401610835565b60405180606001604052808686848181106118cf576118cf612baa565b90506020020160208101906118e491906130cc565b60ff1681526001600160401b0342166020808301919091526001604092830152335f908152600a9091529081209089898581811061192457611924612baa565b602090810292909201358352508181019290925260409081015f208351815493850151949092015160ff908116600160481b0260ff60481b196001600160401b039096166101000268ffffffffffffffffff199095169190931617929092179290921691909117905581516001908390839081106119a4576119a4612baa565b6020026020010181815250508686828181106119c2576119c2612baa565b90506020020135336001600160a01b03167feea079fecea4873aede971df0e085eaadfb8311fc3b73bdb10a9469ea7d1922760095f8b8b87818110611a0957611a09612baa565b9050602002013581526020019081526020015f20888886818110611a2f57611a2f612baa565b9050602002016020810190611a4491906130cc565b604051611a52929190612f3d565b60405180910390a380611a6481612b92565b915050611725565b50611ab9338787808060200260200160405190810160405280939291908181526020018383602002808284375f92018290525060408051602081019091529081528793509150611e2a9050565b50505050505050565b6001600160a01b0382165f908152600a6020908152604080832084845282528083208151606081018352905460ff80821683526001600160401b03610100830416948301859052600160481b9091041691810191909152829182918291829015611b47576276a7008260200151611b399190612bbe565b6001600160401b0316421190505b8151602083015160409093015190999298509650945092505050565b6005546001600160a01b03163314610bf95760405163118cdaa760e01b8152336004820152602401610835565b6002610c3d8282613011565b6001600160a01b038416611bc557604051632bfa23e760e11b81525f6004820152602401610835565b6001600160a01b038516611bed57604051626a0d4560e21b81525f6004820152602401610835565b611bfa8585858585611e66565b5050505050565b6001600160a01b038316611c2957604051626a0d4560e21b81525f6004820152602401610835565b604080516001808252602082018590528183019081526060820184905260a082019092525f60808201818152919291611bfa91879185908590611e66565b600580546001600160a01b038381166001600160a01b0319831681179093556040519116919082907f8be0079c531659141344cd1fd0a4f28419497f9722a3daafe3b4186f6b6457e0905f90a35050565b6001600160a01b038216611ce05760405162ced3e160e81b81525f6004820152602401610835565b6001600160a01b038381165f81815260016020908152604080832094871680845294825291829020805460ff191686151590811790915591519182527f17307eab39ab6107e8899845ad3d59bd9653f200f220920489ca2b5937696c31910160405180910390a3505050565b6001600160a01b038416611d7557604051632bfa23e760e11b81525f6004820152602401610835565b6040805160018082526020820186905281830190815260608201859052608082019092529061084b5f87848487611e66565b6001600160a01b038416611dd057604051632bfa23e760e11b81525f6004820152602401610835565b6001600160a01b038516611df857604051626a0d4560e21b81525f6004820152602401610835565b60408051600180825260208201869052818301908152606082018590526080820190925290611ab98787848487611e66565b6001600160a01b038416611e5357604051632bfa23e760e11b81525f6004820152602401610835565b611e605f85858585611e66565b50505050565b611e7285858585611eb9565b6001600160a01b03841615611bfa5782513390600103611eab5760208481015190840151611ea4838989858589611f3e565b505061084b565b61084b81878787878761205f565b6001600160a01b03841615801590611ed957506001600160a01b03831615155b15611f325760405162461bcd60e51b8152602060048201526024808201527f536f756c626f756e643a20546f6b656e206973206e6f6e2d7472616e7366657260448201526361626c6560e01b6064820152608401610835565b611e6084848484612146565b6001600160a01b0384163b1561084b5760405163f23a6e6160e01b81526001600160a01b0385169063f23a6e6190611f8290899089908890889088906004016130e5565b6020604051808303815f875af1925050508015611fbc575060408051601f3d908101601f19168201909252611fb991810190613129565b60015b612023573d808015611fe9576040519150601f19603f3d011682016040523d82523d5f602084013e611fee565b606091505b5080515f0361201b57604051632bfa23e760e11b81526001600160a01b0386166004820152602401610835565b805160208201fd5b6001600160e01b0319811663f23a6e6160e01b14611ab957604051632bfa23e760e11b81526001600160a01b0386166004820152602401610835565b6001600160a01b0384163b1561084b5760405163bc197c8160e01b81526001600160a01b0385169063bc197c81906120a39089908990889088908890600401613144565b6020604051808303815f875af19250505080156120dd575060408051601f3d908101601f191682019092526120da91810190613129565b60015b61210a573d808015611fe9576040519150601f19603f3d011682016040523d82523d5f602084013e611fee565b6001600160e01b0319811663bc197c8160e01b14611ab957604051632bfa23e760e11b81526001600160a01b0386166004820152602401610835565b6121528484848461223e565b6001600160a01b0384166121d8575f805b83518110156121bf5760208181028481018201519086018201515f90815260039092526040822080549192839261219b9084906131a1565b909155506121ab905081846131a1565b925050806121b890612b92565b9050612163565b508060045f8282546121d191906131a1565b9091555050505b6001600160a01b038316611e60575f805b835181101561222d5760208181028481018201519086018201515f9081526003909252604090912080548290039055919091019061222681612b92565b90506121e9565b506004805491909103905550505050565b805182511461226d5781518151604051635b05999160e01b815260048101929092526024820152604401610835565b335f5b8351811015612378576020818102858101820151908501909101516001600160a01b03881615612321575f828152602081815260408083206001600160a01b038c168452909152902054818110156122fb576040516303dee4c560e01b81526001600160a01b038a166004820152602481018290526044810183905260648101849052608401610835565b5f838152602081815260408083206001600160a01b038d16845290915290209082900390555b6001600160a01b03871615612365575f828152602081815260408083206001600160a01b038b1684529091528120805483929061235f9084906131a1565b90915550505b50508061237190612b92565b9050612270565b5082516001036123f85760208301515f906020840151909150856001600160a01b0316876001600160a01b0316846001600160a01b03167fc3d58168c5ae7397731d063d5bbf3d657854427343f4c083240f7aacaa2d0f6285856040516123e9929190918252602082015260400190565b60405180910390a45050611bfa565b836001600160a01b0316856001600160a01b0316826001600160a01b03167f4a39dc06d4c0dbc64b70af90fd698a233a518aa5d07e595d983b8c0526c8f7fb86866040516124479291906131b4565b60405180910390a45050505050565b80356001600160a01b038116811461246c575f80fd5b919050565b5f8060408385031215612482575f80fd5b61248b83612456565b946020939093013593505050565b6001600160e01b0319811681146106c6575f80fd5b5f602082840312156124be575f80fd5b81356124c981612499565b9392505050565b634e487b7160e01b5f52604160045260245ffd5b604051601f8201601f191681016001600160401b038111828210171561250c5761250c6124d0565b604052919050565b5f82601f830112612523575f80fd5b81356001600160401b0381111561253c5761253c6124d0565b61254f601f8201601f19166020016124e4565b818152846020838601011115612563575f80fd5b816020850160208301375f918101602001919091529392505050565b5f6020828403121561258f575f80fd5b81356001600160401b038111156125a4575f80fd5b6125b084828501612514565b949350505050565b5f81518084525f5b818110156125dc576020818501810151868301820152016125c0565b505f602082860101526020601f19601f83011685010191505092915050565b602081525f6124c960208301846125b8565b5f6020828403121561261d575f80fd5b5035919050565b5f6001600160401b0382111561263c5761263c6124d0565b5060051b60200190565b5f82601f830112612655575f80fd5b8135602061266a61266583612624565b6124e4565b82815260059290921b84018101918181019086841115612688575f80fd5b8286015b848110156126a3578035835291830191830161268c565b509695505050505050565b5f805f805f60a086880312156126c2575f80fd5b6126cb86612456565b94506126d960208701612456565b935060408601356001600160401b03808211156126f4575f80fd5b61270089838a01612646565b94506060880135915080821115612715575f80fd5b61272189838a01612646565b93506080880135915080821115612736575f80fd5b5061274388828901612514565b9150509295509295909350565b5f60208284031215612760575f80fd5b6124c982612456565b5f8151808452602080850194508084015f5b838110156127975781518752958201959082019060010161277b565b509495945050505050565b602081525f6124c96020830184612769565b5f80604083850312156127c5575f80fd5b82356001600160401b03808211156127db575f80fd5b818501915085601f8301126127ee575f80fd5b813560206127fe61266583612624565b82815260059290921b8401810191818101908984111561281c575f80fd5b948201945b838610156128415761283286612456565b82529482019490820190612821565b96505086013592505080821115612856575f80fd5b5061286385828601612646565b9150509250929050565b5f806040838503121561287e575f80fd5b61288783612456565b91506020830135801515811461289b575f80fd5b809150509250929050565b5f604082840312156128b6575f80fd5b50919050565b803560ff8116811461246c575f80fd5b5f805f606084860312156128de575f80fd5b83356001600160401b038111156128f3575f80fd5b6128ff868287016128a6565b93505060208401359150612915604085016128bc565b90509250925092565b5f806040838503121561292f575f80fd5b8235915060208301356001600160401b0381111561294b575f80fd5b61286385828601612514565b606081525f6129696060830186612769565b8281036020848101919091528551808352868201928201905f5b818110156129a257845160ff1683529383019391830191600101612983565b5050848103604086015285518082529082019250818601905f5b818110156129da5782511515855293830193918301916001016129bc565b509298975050505050505050565b5f80604083850312156129f9575f80fd5b612a0283612456565b9150612a1060208401612456565b90509250929050565b5f805f805f60a08688031215612a2d575f80fd5b612a3686612456565b9450612a4460208701612456565b9350604086013592506060860135915060808601356001600160401b03811115612a6c575f80fd5b61274388828901612514565b5f8083601f840112612a88575f80fd5b5081356001600160401b03811115612a9e575f80fd5b6020830191508360208260051b8501011115612ab8575f80fd5b9250929050565b5f805f805f60608688031215612ad3575f80fd5b85356001600160401b0380821115612ae9575f80fd5b612af589838a016128a6565b96506020880135915080821115612b0a575f80fd5b612b1689838a01612a78565b90965094506040880135915080821115612b2e575f80fd5b50612b3b88828901612a78565b969995985093965092949392505050565b600181811c90821680612b6057607f821691505b6020821081036128b657634e487b7160e01b5f52602260045260245ffd5b634e487b7160e01b5f52601160045260245ffd5b5f60018201612ba357612ba3612b7e565b5060010190565b634e487b7160e01b5f52603260045260245ffd5b6001600160401b03818116838216019080821115612bde57612bde612b7e565b5092915050565b6020808252600c908201526b24b73b30b634b2103a34b2b960a11b604082015260600190565b5f8235605e19833603018112612c1f575f80fd5b9190910192915050565b5f808335601e19843603018112612c3e575f80fd5b8301803591506001600160401b03821115612c57575f80fd5b602001915036819003821315612ab8575f80fd5b5f8235609e19833603018112612c1f575f80fd5b81835281816020850137505f828201602090810191909152601f909101601f19169091010190565b606081525f612cba606083018789612c7f565b8281036020840152612ccd818688612c7f565b9150508260408301529695505050505050565b602080825260129082015271141c9bdbd988185b1c9958591e481d5cd95960721b604082015260600190565b5f808335601e19843603018112612d21575f80fd5b83016020810192503590506001600160401b03811115612d3f575f80fd5b803603821315612ab8575f80fd5b5f8235609e19833603018112612d61575f80fd5b90910192915050565b803563ffffffff8116811461246c575f80fd5b8183525f6020808501808196508560051b81019150845f5b87811015612dcb578284038952612dac8288612d0c565b612db7868284612c7f565b9a87019a9550505090840190600101612d95565b5091979650505050505050565b803582526001600160a01b03612df060208301612456565b1660208301525f612e0360408301612d6a565b63ffffffff808216604086015280612e1d60608601612d6a565b16606086015250506080820135601e19833603018112612e3b575f80fd5b82016020810190356001600160401b03811115612e56575f80fd5b8060051b3603821315612e67575f80fd5b60a06080860152612e7c60a086018284612d7d565b95945050505050565b602081525f8235605e19843603018112612e9d575f80fd5b604060208401528301612eb08180612d0c565b606080860152612ec460c086018284612c7f565b915050612ed46020830183612d0c565b605f1980878503016080880152612eec848385612c7f565b9350612efb6040860186612d0c565b95509250808785030160a08801525050612f16828483612c7f565b92505050612f276020850185612d4d565b838203601f19016040850152612e7c8282612dd8565b604081525f808454612f4e81612b4c565b806040860152606060018084165f8114612f6f5760018114612f8957612fb7565b60ff1985168884015283151560051b880183019550612fb7565b895f526020805f205f5b86811015612fae5781548b8201870152908401908201612f93565b8a018501975050505b5050505060ff851660208501525090506124c9565b601f821115610a46575f81815260208120601f850160051c81016020861015612ff25750805b601f850160051c820191505b8181101561084b57828155600101612ffe565b81516001600160401b0381111561302a5761302a6124d0565b61303e816130388454612b4c565b84612fcc565b602080601f831160018114613071575f841561305a5750858301515b5f19600386901b1c1916600185901b17855561084b565b5f85815260208120601f198616915b8281101561309f57888601518255948401946001909101908401613080565b50858210156130bc57878501515f19600388901b60f8161c191681555b5050505050600190811b01905550565b5f602082840312156130dc575f80fd5b6124c9826128bc565b6001600160a01b03868116825285166020820152604081018490526060810183905260a0608082018190525f9061311e908301846125b8565b979650505050505050565b5f60208284031215613139575f80fd5b81516124c981612499565b6001600160a01b0386811682528516602082015260a0604082018190525f9061316f90830186612769565b82810360608401526131818186612769565b9050828103608084015261319581856125b8565b98975050505050505050565b8082018082111561066057610660612b7e565b604081525f6131c66040830185612769565b8281036020840152612e7c818561276956fea26469706673582212205cd13c8b92bf8a8166ea34dc517085c2e1d75d8476c04cf6ec0ec00cea9baac564736f6c63430008140033","opcodes":"PUSH1 0x80 PUSH1 0x40 MSTORE CALLVALUE DUP1 ISZERO PUSH3 0x10 JUMPI PUSH0 DUP1 REVERT JUMPDEST POP PUSH1 0x40 MLOAD PUSH3 0x3971 CODESIZE SUB DUP1 PUSH3 0x3971 DUP4 CODECOPY DUP2 ADD PUSH1 0x40 DUP2 SWAP1 MSTORE PUSH3 0x33 SWAP2 PUSH3 0x50E JUMP JUMPDEST DUP3 DUP3 PUSH3 0x40 DUP2 PUSH3 0x47B JUMP JUMPDEST POP PUSH1 0x1 PUSH1 0x1 PUSH1 0xA0 SHL SUB DUP2 AND PUSH3 0x6F JUMPI PUSH1 0x40 MLOAD PUSH4 0x1E4FBDF7 PUSH1 0xE0 SHL DUP2 MSTORE PUSH0 PUSH1 0x4 DUP3 ADD MSTORE PUSH1 0x24 ADD PUSH1 0x40 MLOAD DUP1 SWAP2 SUB SWAP1 REVERT JUMPDEST PUSH3 0x7A DUP2 PUSH3 0x48D JUMP JUMPDEST POP PUSH1 0x40 DUP1 MLOAD DUP1 DUP3 ADD SWAP1 SWAP2 MSTORE PUSH1 0x16 DUP2 MSTORE PUSH32 0x4D7573696320436F6E73656E7375732053425420563300000000000000000000 PUSH1 0x20 DUP3 ADD MSTORE PUSH1 0x6 SWAP1 PUSH3 0xBE SWAP1 DUP3 PUSH3 0x68D JUMP JUMPDEST POP PUSH1 0x40 DUP1 MLOAD DUP1 DUP3 ADD SWAP1 SWAP2 MSTORE PUSH1 0x6 DUP2 MSTORE PUSH6 0x4D4353425433 PUSH1 0xD0 SHL PUSH1 0x20 DUP3 ADD MSTORE PUSH1 0x7 SWAP1 PUSH3 0xEB SWAP1 DUP3 PUSH3 0x68D JUMP JUMPDEST POP PUSH1 0x8 DUP1 SLOAD PUSH1 0x1 PUSH1 0x1 PUSH1 0xA0 SHL SUB NOT AND PUSH1 0x1 PUSH1 0x1 PUSH1 0xA0 SHL SUB DUP4 AND OR SWAP1 SSTORE PUSH1 0x40 DUP1 MLOAD DUP1 DUP3 ADD SWAP1 SWAP2 MSTORE PUSH1 0x3 DUP2 MSTORE PUSH3 0x506F7 PUSH1 0xEC SHL PUSH1 0x20 DUP1 DUP4 ADD SWAP2 SWAP1 SWAP2 MSTORE PUSH1 0x1 PUSH0 MSTORE PUSH1 0x9 SWAP1 MSTORE PUSH32 0x92E85D02570A8092D09A6E3A57665BC3815A2699A4074001BF1CCABF660F5A36 SWAP1 PUSH3 0x15B SWAP1 DUP3 PUSH3 0x68D JUMP JUMPDEST POP PUSH1 0x40 DUP1 MLOAD DUP1 DUP3 ADD SWAP1 SWAP2 MSTORE PUSH1 0x4 DUP2 MSTORE PUSH4 0x526F636B PUSH1 0xE0 SHL PUSH1 0x20 DUP1 DUP4 ADD SWAP2 SWAP1 SWAP2 MSTORE PUSH1 0x2 PUSH0 MSTORE PUSH1 0x9 SWAP1 MSTORE PUSH32 0x6CDE3CEA4B3A3FB2488B2808BAE7556F4A405E50F65E1794383BC026131B13C3 SWAP1 PUSH3 0x1B1 SWAP1 DUP3 PUSH3 0x68D JUMP JUMPDEST POP PUSH1 0x40 DUP1 MLOAD DUP1 DUP3 ADD SWAP1 SWAP2 MSTORE PUSH1 0x7 DUP2 MSTORE PUSH7 0x4869702D486F7 PUSH1 0xCC SHL PUSH1 0x20 DUP1 DUP4 ADD SWAP2 SWAP1 SWAP2 MSTORE PUSH1 0x3 PUSH0 MSTORE PUSH1 0x9 SWAP1 MSTORE PUSH32 0xC575C31FEA594A6EB97C8E9D3F9CAEE4C16218C6EF37E923234C0FE9014A61E7 SWAP1 PUSH3 0x20A SWAP1 DUP3 PUSH3 0x68D JUMP JUMPDEST POP PUSH1 0x40 DUP1 MLOAD DUP1 DUP3 ADD SWAP1 SWAP2 MSTORE PUSH1 0x3 DUP2 MSTORE PUSH3 0x291321 PUSH1 0xE9 SHL PUSH1 0x20 DUP1 DUP4 ADD SWAP2 SWAP1 SWAP2 MSTORE PUSH1 0x4 PUSH0 MSTORE PUSH1 0x9 SWAP1 MSTORE PUSH32 0x8DC18C4CCFD75F5C815B63770FA542FD953E8FEF7E0E44BBDD4913470CE7E9CB SWAP1 PUSH3 0x25F SWAP1 DUP3 PUSH3 0x68D JUMP JUMPDEST POP PUSH1 0x40 DUP1 MLOAD DUP1 DUP3 ADD SWAP1 SWAP2 MSTORE PUSH1 0xA DUP2 MSTORE PUSH10 0x456C656374726F6E6963 PUSH1 0xB0 SHL PUSH1 0x20 DUP1 DUP4 ADD SWAP2 SWAP1 SWAP2 MSTORE PUSH1 0x5 PUSH0 MSTORE PUSH1 0x9 SWAP1 MSTORE PUSH32 0x74B05292D1D4B2B48B65261B07099D24244BCB069F138D9A6BFDCF776BECAC4C SWAP1 PUSH3 0x2BB SWAP1 DUP3 PUSH3 0x68D JUMP JUMPDEST POP PUSH1 0x40 DUP1 MLOAD DUP1 DUP3 ADD SWAP1 SWAP2 MSTORE PUSH1 0x4 DUP2 MSTORE PUSH4 0x2530BD3D PUSH1 0xE1 SHL PUSH1 0x20 DUP1 DUP4 ADD SWAP2 SWAP1 SWAP2 MSTORE PUSH1 0x6 PUSH0 MSTORE PUSH1 0x9 SWAP1 MSTORE PUSH32 0xBB6DAA0C283751197DFDC76590680F9005E97D6F23870DEB1164AB60B28B9F5F SWAP1 PUSH3 0x311 SWAP1 DUP3 PUSH3 0x68D JUMP JUMPDEST POP PUSH1 0x40 DUP1 MLOAD DUP1 DUP3 ADD SWAP1 SWAP2 MSTORE PUSH1 0x9 DUP1 DUP3 MSTORE PUSH9 0x10DB185CDCDA58D85B PUSH1 0xBA SHL PUSH1 0x20 DUP1 DUP5 ADD SWAP2 SWAP1 SWAP2 MSTORE PUSH1 0x7 PUSH0 MSTORE MSTORE PUSH32 0xAE6299332BCD708CD60E3A8DEFA55DE28078A50A4CF2B3DE3A546253240FF9E1 SWAP1 PUSH3 0x36A SWAP1 DUP3 PUSH3 0x68D JUMP JUMPDEST POP PUSH1 0x40 DUP1 MLOAD DUP1 DUP3 ADD SWAP1 SWAP2 MSTORE PUSH1 0x7 DUP2 MSTORE PUSH7 0x436F756E747279 PUSH1 0xC8 SHL PUSH1 0x20 DUP1 DUP4 ADD SWAP2 SWAP1 SWAP2 MSTORE PUSH1 0x8 PUSH0 MSTORE PUSH1 0x9 SWAP1 MSTORE PUSH32 0xC7694AF312C4F286114180FD0BA6A52461FCEE8A381636770B19A343AF92538A SWAP1 PUSH3 0x3C3 SWAP1 DUP3 PUSH3 0x68D JUMP JUMPDEST POP PUSH1 0x40 DUP1 MLOAD DUP1 DUP3 ADD SWAP1 SWAP2 MSTORE PUSH1 0x5 DUP2 MSTORE PUSH5 0x496E646965 PUSH1 0xD8 SHL PUSH1 0x20 DUP1 DUP4 ADD SWAP2 SWAP1 SWAP2 MSTORE PUSH1 0x9 PUSH0 DUP2 SWAP1 MSTORE SWAP1 MSTORE PUSH32 0x87E8A52529E8ECE4EF759037313542A6429FF494A9FAB9027FB79DB90124EBA6 SWAP1 PUSH3 0x41A SWAP1 DUP3 PUSH3 0x68D JUMP JUMPDEST POP PUSH1 0x40 DUP1 MLOAD DUP1 DUP3 ADD SWAP1 SWAP2 MSTORE PUSH1 0x5 DUP2 MSTORE PUSH5 0x13595D185B PUSH1 0xDA SHL PUSH1 0x20 DUP1 DUP4 ADD SWAP2 SWAP1 SWAP2 MSTORE PUSH1 0xA PUSH0 MSTORE PUSH1 0x9 SWAP1 MSTORE PUSH32 0x502E20E4E219E0C509D693958F17384C185F07A810A5D31C46C2BE981E979C25 SWAP1 PUSH3 0x471 SWAP1 DUP3 PUSH3 0x68D JUMP JUMPDEST POP POP POP POP PUSH3 0x755 JUMP JUMPDEST PUSH1 0x2 PUSH3 0x489 DUP3 DUP3 PUSH3 0x68D JUMP JUMPDEST POP POP JUMP JUMPDEST PUSH1 0x5 DUP1 SLOAD PUSH1 0x1 PUSH1 0x1 PUSH1 0xA0 SHL SUB DUP4 DUP2 AND PUSH1 0x1 PUSH1 0x1 PUSH1 0xA0 SHL SUB NOT DUP4 AND DUP2 OR SWAP1 SWAP4 SSTORE PUSH1 0x40 MLOAD SWAP2 AND SWAP2 SWAP1 DUP3 SWAP1 PUSH32 0x8BE0079C531659141344CD1FD0A4F28419497F9722A3DAAFE3B4186F6B6457E0 SWAP1 PUSH0 SWAP1 LOG3 POP POP JUMP JUMPDEST DUP1 MLOAD PUSH1 0x1 PUSH1 0x1 PUSH1 0xA0 SHL SUB DUP2 AND DUP2 EQ PUSH3 0x4F5 JUMPI PUSH0 DUP1 REVERT JUMPDEST SWAP2 SWAP1 POP JUMP JUMPDEST PUSH4 0x4E487B71 PUSH1 0xE0 SHL PUSH0 MSTORE PUSH1 0x41 PUSH1 0x4 MSTORE PUSH1 0x24 PUSH0 REVERT JUMPDEST PUSH0 DUP1 PUSH0 PUSH1 0x60 DUP5 DUP7 SUB SLT ISZERO PUSH3 0x521 JUMPI PUSH0 DUP1 REVERT JUMPDEST PUSH3 0x52C DUP5 PUSH3 0x4DE JUMP JUMPDEST PUSH1 0x20 DUP6 DUP2 ADD MLOAD SWAP2 SWAP5 POP SWAP1 PUSH1 0x1 PUSH1 0x1 PUSH1 0x40 SHL SUB DUP1 DUP3 GT ISZERO PUSH3 0x54B JUMPI PUSH0 DUP1 REVERT JUMPDEST DUP2 DUP8 ADD SWAP2 POP DUP8 PUSH1 0x1F DUP4 ADD SLT PUSH3 0x55F JUMPI PUSH0 DUP1 REVERT JUMPDEST DUP2 MLOAD DUP2 DUP2 GT ISZERO PUSH3 0x574 JUMPI PUSH3 0x574 PUSH3 0x4FA JUMP JUMPDEST PUSH1 0x40 MLOAD PUSH1 0x1F DUP3 ADD PUSH1 0x1F NOT SWAP1 DUP2 AND PUSH1 0x3F ADD AND DUP2 ADD SWAP1 DUP4 DUP3 GT DUP2 DUP4 LT OR ISZERO PUSH3 0x59F JUMPI PUSH3 0x59F PUSH3 0x4FA JUMP JUMPDEST DUP2 PUSH1 0x40 MSTORE DUP3 DUP2 MSTORE DUP11 DUP7 DUP5 DUP8 ADD ADD GT ISZERO PUSH3 0x5B7 JUMPI PUSH0 DUP1 REVERT JUMPDEST PUSH0 SWAP4 POP JUMPDEST DUP3 DUP5 LT ISZERO PUSH3 0x5DA JUMPI DUP5 DUP5 ADD DUP7 ADD MLOAD DUP2 DUP6 ADD DUP8 ADD MSTORE SWAP3 DUP6 ADD SWAP3 PUSH3 0x5BB JUMP JUMPDEST PUSH0 DUP7 DUP5 DUP4 ADD ADD MSTORE DUP1 SWAP8 POP POP POP POP POP POP POP PUSH3 0x5F8 PUSH1 0x40 DUP6 ADD PUSH3 0x4DE JUMP JUMPDEST SWAP1 POP SWAP3 POP SWAP3 POP SWAP3 JUMP JUMPDEST PUSH1 0x1 DUP2 DUP2 SHR SWAP1 DUP3 AND DUP1 PUSH3 0x616 JUMPI PUSH1 0x7F DUP3 AND SWAP2 POP JUMPDEST PUSH1 0x20 DUP3 LT DUP2 SUB PUSH3 0x635 JUMPI PUSH4 0x4E487B71 PUSH1 0xE0 SHL PUSH0 MSTORE PUSH1 0x22 PUSH1 0x4 MSTORE PUSH1 0x24 PUSH0 REVERT JUMPDEST POP SWAP2 SWAP1 POP JUMP JUMPDEST PUSH1 0x1F DUP3 GT ISZERO PUSH3 0x688 JUMPI PUSH0 DUP2 DUP2 MSTORE PUSH1 0x20 DUP2 KECCAK256 PUSH1 0x1F DUP6 ADD PUSH1 0x5 SHR DUP2 ADD PUSH1 0x20 DUP7 LT ISZERO PUSH3 0x663 JUMPI POP DUP1 JUMPDEST PUSH1 0x1F DUP6 ADD PUSH1 0x5 SHR DUP3 ADD SWAP2 POP JUMPDEST DUP2 DUP2 LT ISZERO PUSH3 0x684 JUMPI DUP3 DUP2 SSTORE PUSH1 0x1 ADD PUSH3 0x66F JUMP JUMPDEST POP POP POP JUMPDEST POP POP POP JUMP JUMPDEST DUP2 MLOAD PUSH1 0x1 PUSH1 0x1 PUSH1 0x40 SHL SUB DUP2 GT ISZERO PUSH3 0x6A9 JUMPI PUSH3 0x6A9 PUSH3 0x4FA JUMP JUMPDEST PUSH3 0x6C1 DUP2 PUSH3 0x6BA DUP5 SLOAD PUSH3 0x601 JUMP JUMPDEST DUP5 PUSH3 0x63B JUMP JUMPDEST PUSH1 0x20 DUP1 PUSH1 0x1F DUP4 GT PUSH1 0x1 DUP2 EQ PUSH3 0x6F7 JUMPI PUSH0 DUP5 ISZERO PUSH3 0x6DF JUMPI POP DUP6 DUP4 ADD MLOAD JUMPDEST PUSH0 NOT PUSH1 0x3 DUP7 SWAP1 SHL SHR NOT AND PUSH1 0x1 DUP6 SWAP1 SHL OR DUP6 SSTORE PUSH3 0x684 JUMP JUMPDEST PUSH0 DUP6 DUP2 MSTORE PUSH1 0x20 DUP2 KECCAK256 PUSH1 0x1F NOT DUP7 AND SWAP2 JUMPDEST DUP3 DUP2 LT ISZERO PUSH3 0x727 JUMPI DUP9 DUP7 ADD MLOAD DUP3 SSTORE SWAP5 DUP5 ADD SWAP5 PUSH1 0x1 SWAP1 SWAP2 ADD SWAP1 DUP5 ADD PUSH3 0x706 JUMP JUMPDEST POP DUP6 DUP3 LT ISZERO PUSH3 0x745 JUMPI DUP8 DUP6 ADD MLOAD PUSH0 NOT PUSH1 0x3 DUP9 SWAP1 SHL PUSH1 0xF8 AND SHR NOT AND DUP2 SSTORE JUMPDEST POP POP POP POP POP PUSH1 0x1 SWAP1 DUP2 SHL ADD SWAP1 SSTORE POP JUMP JUMPDEST PUSH2 0x320E DUP1 PUSH3 0x763 PUSH0 CODECOPY PUSH0 RETURN INVALID PUSH1 0x80 PUSH1 0x40 MSTORE CALLVALUE DUP1 ISZERO PUSH2 0xF JUMPI PUSH0 DUP1 REVERT JUMPDEST POP PUSH1 0x4 CALLDATASIZE LT PUSH2 0x249 JUMPI PUSH0 CALLDATALOAD PUSH1 0xE0 SHR DUP1 PUSH4 0x9FC43DBE GT PUSH2 0x140 JUMPI DUP1 PUSH4 0xCD85336E GT PUSH2 0xBF JUMPI DUP1 PUSH4 0xF242432A GT PUSH2 0x84 JUMPI DUP1 PUSH4 0xF242432A EQ PUSH2 0x5AC JUMPI DUP1 PUSH4 0xF2FDE38B EQ PUSH2 0x5BF JUMPI DUP1 PUSH4 0xF45FB6B5 EQ PUSH2 0x5D2 JUMPI DUP1 PUSH4 0xF4908830 EQ PUSH2 0x5E5 JUMPI DUP1 PUSH4 0xF7486960 EQ PUSH2 0x33A JUMPI DUP1 PUSH4 0xFF4181BE EQ PUSH2 0x5F8 JUMPI PUSH0 DUP1 REVERT JUMPDEST DUP1 PUSH4 0xCD85336E EQ PUSH2 0x4DD JUMPI DUP1 PUSH4 0xD4C19E33 EQ PUSH2 0x4F0 JUMPI DUP1 PUSH4 0xD5325487 EQ PUSH2 0x564 JUMPI DUP1 PUSH4 0xE985E9C5 EQ PUSH2 0x586 JUMPI DUP1 PUSH4 0xF009F181 EQ PUSH2 0x599 JUMPI PUSH0 DUP1 REVERT JUMPDEST DUP1 PUSH4 0xBD990D32 GT PUSH2 0x105 JUMPI DUP1 PUSH4 0xBD990D32 EQ PUSH2 0x46B JUMPI DUP1 PUSH4 0xC30A0F25 EQ PUSH2 0x47E JUMPI DUP1 PUSH4 0xC71C37D1 EQ PUSH2 0x4A0 JUMPI DUP1 PUSH4 0xCB2B50CD EQ PUSH2 0x4A8 JUMPI DUP1 PUSH4 0xCC18EADC EQ PUSH2 0x4CA JUMPI PUSH0 DUP1 REVERT JUMPDEST DUP1 PUSH4 0x9FC43DBE EQ PUSH2 0x40B JUMPI DUP1 PUSH4 0xA22CB465 EQ PUSH2 0x41E JUMPI DUP1 PUSH4 0xAEADE0E6 EQ PUSH2 0x431 JUMPI DUP1 PUSH4 0xB5FA9642 EQ PUSH2 0x444 JUMPI DUP1 PUSH4 0xBD85B039 EQ PUSH2 0x44C JUMPI PUSH0 DUP1 REVERT JUMPDEST DUP1 PUSH4 0x4389CC22 GT PUSH2 0x1CC JUMPI DUP1 PUSH4 0x5982FEFE GT PUSH2 0x191 JUMPI DUP1 PUSH4 0x5982FEFE EQ PUSH2 0x342 JUMPI DUP1 PUSH4 0x69D11C55 EQ PUSH2 0x3CE JUMPI DUP1 PUSH4 0x715018A6 EQ PUSH2 0x3D6 JUMPI DUP1 PUSH4 0x8DA5CB5B EQ PUSH2 0x3DE JUMPI DUP1 PUSH4 0x95D89B41 EQ PUSH2 0x403 JUMPI PUSH0 DUP1 REVERT JUMPDEST DUP1 PUSH4 0x4389CC22 EQ PUSH2 0x33A JUMPI DUP1 PUSH4 0x4C6A70CE EQ PUSH2 0x342 JUMPI DUP1 PUSH4 0x4E1273F4 EQ PUSH2 0x387 JUMPI DUP1 PUSH4 0x4F558E79 EQ PUSH2 0x39A JUMPI DUP1 PUSH4 0x55DE28AE EQ PUSH2 0x3BB JUMPI PUSH0 DUP1 REVERT JUMPDEST DUP1 PUSH4 0xE89341C GT PUSH2 0x212 JUMPI DUP1 PUSH4 0xE89341C EQ PUSH2 0x2D9 JUMPI DUP1 PUSH4 0x18160DDD EQ PUSH2 0x2EC JUMPI DUP1 PUSH4 0x2EB2C2D6 EQ PUSH2 0x2F4 JUMPI DUP1 PUSH4 0x37C245FE EQ PUSH2 0x307 JUMPI DUP1 PUSH4 0x417B9942 EQ PUSH2 0x327 JUMPI PUSH0 DUP1 REVERT JUMPDEST DUP1 PUSH3 0xFDD58E EQ PUSH2 0x24D JUMPI DUP1 PUSH4 0x1FFC9A7 EQ PUSH2 0x273 JUMPI DUP1 PUSH4 0x2429742 EQ PUSH2 0x296 JUMPI DUP1 PUSH4 0x2FE5305 EQ PUSH2 0x2AF JUMPI DUP1 PUSH4 0x6FDDE03 EQ PUSH2 0x2C4 JUMPI JUMPDEST PUSH0 DUP1 REVERT JUMPDEST PUSH2 0x260 PUSH2 0x25B CALLDATASIZE PUSH1 0x4 PUSH2 0x2471 JUMP JUMPDEST PUSH2 0x63F JUMP JUMPDEST PUSH1 0x40 MLOAD SWAP1 DUP2 MSTORE PUSH1 0x20 ADD JUMPDEST PUSH1 0x40 MLOAD DUP1 SWAP2 SUB SWAP1 RETURN JUMPDEST PUSH2 0x286 PUSH2 0x281 CALLDATASIZE PUSH1 0x4 PUSH2 0x24AE JUMP JUMPDEST PUSH2 0x666 JUMP JUMPDEST PUSH1 0x40 MLOAD SWAP1 ISZERO ISZERO DUP2 MSTORE PUSH1 0x20 ADD PUSH2 0x26A JUMP JUMPDEST PUSH2 0x29D PUSH0 DUP2 JUMP JUMPDEST PUSH1 0x40 MLOAD PUSH1 0xFF SWAP1 SWAP2 AND DUP2 MSTORE PUSH1 0x20 ADD PUSH2 0x26A JUMP JUMPDEST PUSH2 0x2C2 PUSH2 0x2BD CALLDATASIZE PUSH1 0x4 PUSH2 0x257F JUMP JUMPDEST PUSH2 0x6B5 JUMP JUMPDEST STOP JUMPDEST PUSH2 0x2CC PUSH2 0x6C9 JUMP JUMPDEST PUSH1 0x40 MLOAD PUSH2 0x26A SWAP2 SWAP1 PUSH2 0x25FB JUMP JUMPDEST PUSH2 0x2CC PUSH2 0x2E7 CALLDATASIZE PUSH1 0x4 PUSH2 0x260D JUMP JUMPDEST PUSH2 0x755 JUMP JUMPDEST PUSH1 0x4 SLOAD PUSH2 0x260 JUMP JUMPDEST PUSH2 0x2C2 PUSH2 0x302 CALLDATASIZE PUSH1 0x4 PUSH2 0x26AE JUMP JUMPDEST PUSH2 0x7E7 JUMP JUMPDEST PUSH2 0x31A PUSH2 0x315 CALLDATASIZE PUSH1 0x4 PUSH2 0x2750 JUMP JUMPDEST PUSH2 0x853 JUMP JUMPDEST PUSH1 0x40 MLOAD PUSH2 0x26A SWAP2 SWAP1 PUSH2 0x27A2 JUMP JUMPDEST PUSH2 0x2C2 PUSH2 0x335 CALLDATASIZE PUSH1 0x4 PUSH2 0x2471 JUMP JUMPDEST PUSH2 0x987 JUMP JUMPDEST PUSH2 0x29D PUSH1 0x1 DUP2 JUMP JUMPDEST PUSH2 0x286 PUSH2 0x350 CALLDATASIZE PUSH1 0x4 PUSH2 0x2471 JUMP JUMPDEST PUSH1 0x1 PUSH1 0x1 PUSH1 0xA0 SHL SUB SWAP2 SWAP1 SWAP2 AND PUSH0 SWAP1 DUP2 MSTORE PUSH1 0xA PUSH1 0x20 SWAP1 DUP2 MSTORE PUSH1 0x40 DUP1 DUP4 KECCAK256 SWAP4 DUP4 MSTORE SWAP3 SWAP1 MSTORE KECCAK256 SLOAD PUSH2 0x100 SWAP1 DIV PUSH1 0x1 PUSH1 0x1 PUSH1 0x40 SHL SUB AND ISZERO ISZERO SWAP1 JUMP JUMPDEST PUSH2 0x31A PUSH2 0x395 CALLDATASIZE PUSH1 0x4 PUSH2 0x27B4 JUMP JUMPDEST PUSH2 0xA4B JUMP JUMPDEST PUSH2 0x286 PUSH2 0x3A8 CALLDATASIZE PUSH1 0x4 PUSH2 0x260D JUMP JUMPDEST PUSH0 SWAP1 DUP2 MSTORE PUSH1 0x3 PUSH1 0x20 MSTORE PUSH1 0x40 SWAP1 KECCAK256 SLOAD ISZERO ISZERO SWAP1 JUMP JUMPDEST PUSH2 0x2C2 PUSH2 0x3C9 CALLDATASIZE PUSH1 0x4 PUSH2 0x260D JUMP JUMPDEST PUSH2 0xB1D JUMP JUMPDEST PUSH2 0x260 PUSH1 0xA DUP2 JUMP JUMPDEST PUSH2 0x2C2 PUSH2 0xBE8 JUMP JUMPDEST PUSH1 0x5 SLOAD PUSH1 0x1 PUSH1 0x1 PUSH1 0xA0 SHL SUB AND JUMPDEST PUSH1 0x40 MLOAD PUSH1 0x1 PUSH1 0x1 PUSH1 0xA0 SHL SUB SWAP1 SWAP2 AND DUP2 MSTORE PUSH1 0x20 ADD PUSH2 0x26A JUMP JUMPDEST PUSH2 0x2CC PUSH2 0xBFB JUMP JUMPDEST PUSH2 0x2C2 PUSH2 0x419 CALLDATASIZE PUSH1 0x4 PUSH2 0x2750 JUMP JUMPDEST PUSH2 0xC08 JUMP JUMPDEST PUSH2 0x2C2 PUSH2 0x42C CALLDATASIZE PUSH1 0x4 PUSH2 0x286D JUMP JUMPDEST PUSH2 0xC32 JUMP JUMPDEST PUSH1 0x8 SLOAD PUSH2 0x3EB SWAP1 PUSH1 0x1 PUSH1 0x1 PUSH1 0xA0 SHL SUB AND DUP2 JUMP JUMPDEST PUSH2 0x29D PUSH1 0x2 DUP2 JUMP JUMPDEST PUSH2 0x260 PUSH2 0x45A CALLDATASIZE PUSH1 0x4 PUSH2 0x260D JUMP JUMPDEST PUSH0 SWAP1 DUP2 MSTORE PUSH1 0x3 PUSH1 0x20 MSTORE PUSH1 0x40 SWAP1 KECCAK256 SLOAD SWAP1 JUMP JUMPDEST PUSH2 0x2C2 PUSH2 0x479 CALLDATASIZE PUSH1 0x4 PUSH2 0x28CC JUMP JUMPDEST PUSH2 0xC41 JUMP JUMPDEST PUSH2 0x286 PUSH2 0x48C CALLDATASIZE PUSH1 0x4 PUSH2 0x260D JUMP JUMPDEST PUSH1 0xB PUSH1 0x20 MSTORE PUSH0 SWAP1 DUP2 MSTORE PUSH1 0x40 SWAP1 KECCAK256 SLOAD PUSH1 0xFF AND DUP2 JUMP JUMPDEST PUSH2 0x29D PUSH1 0x3 DUP2 JUMP JUMPDEST PUSH2 0x4B2 PUSH3 0x76A700 DUP2 JUMP JUMPDEST PUSH1 0x40 MLOAD PUSH1 0x1 PUSH1 0x1 PUSH1 0x40 SHL SUB SWAP1 SWAP2 AND DUP2 MSTORE PUSH1 0x20 ADD PUSH2 0x26A JUMP JUMPDEST PUSH2 0x2C2 PUSH2 0x4D8 CALLDATASIZE PUSH1 0x4 PUSH2 0x291E JUMP JUMPDEST PUSH2 0xF1D JUMP JUMPDEST PUSH2 0x286 PUSH2 0x4EB CALLDATASIZE PUSH1 0x4 PUSH2 0x2471 JUMP JUMPDEST PUSH2 0xF3C JUMP JUMPDEST PUSH2 0x538 PUSH2 0x4FE CALLDATASIZE PUSH1 0x4 PUSH2 0x2471 JUMP JUMPDEST PUSH1 0xA PUSH1 0x20 SWAP1 DUP2 MSTORE PUSH0 SWAP3 DUP4 MSTORE PUSH1 0x40 DUP1 DUP5 KECCAK256 SWAP1 SWAP2 MSTORE SWAP1 DUP3 MSTORE SWAP1 KECCAK256 SLOAD PUSH1 0xFF DUP1 DUP3 AND SWAP2 PUSH1 0x1 PUSH1 0x1 PUSH1 0x40 SHL SUB PUSH2 0x100 DUP3 DIV AND SWAP2 PUSH1 0x1 PUSH1 0x48 SHL SWAP1 SWAP2 DIV AND DUP4 JUMP JUMPDEST PUSH1 0x40 DUP1 MLOAD PUSH1 0xFF SWAP5 DUP6 AND DUP2 MSTORE PUSH1 0x1 PUSH1 0x1 PUSH1 0x40 SHL SUB SWAP1 SWAP4 AND PUSH1 0x20 DUP5 ADD MSTORE SWAP3 AND SWAP2 DUP2 ADD SWAP2 SWAP1 SWAP2 MSTORE PUSH1 0x60 ADD PUSH2 0x26A JUMP JUMPDEST PUSH2 0x577 PUSH2 0x572 CALLDATASIZE PUSH1 0x4 PUSH2 0x2750 JUMP JUMPDEST PUSH2 0xFDF JUMP JUMPDEST PUSH1 0x40 MLOAD PUSH2 0x26A SWAP4 SWAP3 SWAP2 SWAP1 PUSH2 0x2957 JUMP JUMPDEST PUSH2 0x286 PUSH2 0x594 CALLDATASIZE PUSH1 0x4 PUSH2 0x29E8 JUMP JUMPDEST PUSH2 0x123D JUMP JUMPDEST PUSH2 0x2C2 PUSH2 0x5A7 CALLDATASIZE PUSH1 0x4 PUSH2 0x28CC JUMP JUMPDEST PUSH2 0x126A JUMP JUMPDEST PUSH2 0x2C2 PUSH2 0x5BA CALLDATASIZE PUSH1 0x4 PUSH2 0x2A19 JUMP JUMPDEST PUSH2 0x14A6 JUMP JUMPDEST PUSH2 0x2C2 PUSH2 0x5CD CALLDATASIZE PUSH1 0x4 PUSH2 0x2750 JUMP JUMPDEST PUSH2 0x1505 JUMP JUMPDEST PUSH2 0x2CC PUSH2 0x5E0 CALLDATASIZE PUSH1 0x4 PUSH2 0x260D JUMP JUMPDEST PUSH2 0x153F JUMP JUMPDEST PUSH2 0x2C2 PUSH2 0x5F3 CALLDATASIZE PUSH1 0x4 PUSH2 0x2ABF JUMP JUMPDEST PUSH2 0x1557 JUMP JUMPDEST PUSH2 0x60B PUSH2 0x606 CALLDATASIZE PUSH1 0x4 PUSH2 0x2471 JUMP JUMPDEST PUSH2 0x1AC2 JUMP JUMPDEST PUSH1 0x40 DUP1 MLOAD PUSH1 0xFF SWAP6 DUP7 AND DUP2 MSTORE PUSH1 0x1 PUSH1 0x1 PUSH1 0x40 SHL SUB SWAP5 SWAP1 SWAP5 AND PUSH1 0x20 DUP6 ADD MSTORE SWAP2 SWAP1 SWAP4 AND SWAP1 DUP3 ADD MSTORE SWAP1 ISZERO ISZERO PUSH1 0x60 DUP3 ADD MSTORE PUSH1 0x80 ADD PUSH2 0x26A JUMP JUMPDEST PUSH0 DUP2 DUP2 MSTORE PUSH1 0x20 DUP2 DUP2 MSTORE PUSH1 0x40 DUP1 DUP4 KECCAK256 PUSH1 0x1 PUSH1 0x1 PUSH1 0xA0 SHL SUB DUP7 AND DUP5 MSTORE SWAP1 SWAP2 MSTORE SWAP1 KECCAK256 SLOAD JUMPDEST SWAP3 SWAP2 POP POP JUMP JUMPDEST PUSH0 PUSH1 0x1 PUSH1 0x1 PUSH1 0xE0 SHL SUB NOT DUP3 AND PUSH4 0x6CDB3D13 PUSH1 0xE1 SHL EQ DUP1 PUSH2 0x696 JUMPI POP PUSH1 0x1 PUSH1 0x1 PUSH1 0xE0 SHL SUB NOT DUP3 AND PUSH4 0x3A24D07 PUSH1 0xE2 SHL EQ JUMPDEST DUP1 PUSH2 0x660 JUMPI POP PUSH4 0x1FFC9A7 PUSH1 0xE0 SHL PUSH1 0x1 PUSH1 0x1 PUSH1 0xE0 SHL SUB NOT DUP4 AND EQ PUSH2 0x660 JUMP JUMPDEST PUSH2 0x6BD PUSH2 0x1B63 JUMP JUMPDEST PUSH2 0x6C6 DUP2 PUSH2 0x1B90 JUMP JUMPDEST POP JUMP JUMPDEST PUSH1 0x6 DUP1 SLOAD PUSH2 0x6D6 SWAP1 PUSH2 0x2B4C JUMP JUMPDEST DUP1 PUSH1 0x1F ADD PUSH1 0x20 DUP1 SWAP2 DIV MUL PUSH1 0x20 ADD PUSH1 0x40 MLOAD SWAP1 DUP2 ADD PUSH1 0x40 MSTORE DUP1 SWAP3 SWAP2 SWAP1 DUP2 DUP2 MSTORE PUSH1 0x20 ADD DUP3 DUP1 SLOAD PUSH2 0x702 SWAP1 PUSH2 0x2B4C JUMP JUMPDEST DUP1 ISZERO PUSH2 0x74D JUMPI DUP1 PUSH1 0x1F LT PUSH2 0x724 JUMPI PUSH2 0x100 DUP1 DUP4 SLOAD DIV MUL DUP4 MSTORE SWAP2 PUSH1 0x20 ADD SWAP2 PUSH2 0x74D JUMP JUMPDEST DUP3 ADD SWAP2 SWAP1 PUSH0 MSTORE PUSH1 0x20 PUSH0 KECCAK256 SWAP1 JUMPDEST DUP2 SLOAD DUP2 MSTORE SWAP1 PUSH1 0x1 ADD SWAP1 PUSH1 0x20 ADD DUP1 DUP4 GT PUSH2 0x730 JUMPI DUP3 SWAP1 SUB PUSH1 0x1F AND DUP3 ADD SWAP2 JUMPDEST POP POP POP POP POP DUP2 JUMP JUMPDEST PUSH1 0x60 PUSH1 0x2 DUP1 SLOAD PUSH2 0x764 SWAP1 PUSH2 0x2B4C JUMP JUMPDEST DUP1 PUSH1 0x1F ADD PUSH1 0x20 DUP1 SWAP2 DIV MUL PUSH1 0x20 ADD PUSH1 0x40 MLOAD SWAP1 DUP2 ADD PUSH1 0x40 MSTORE DUP1 SWAP3 SWAP2 SWAP1 DUP2 DUP2 MSTORE PUSH1 0x20 ADD DUP3 DUP1 SLOAD PUSH2 0x790 SWAP1 PUSH2 0x2B4C JUMP JUMPDEST DUP1 ISZERO PUSH2 0x7DB JUMPI DUP1 PUSH1 0x1F LT PUSH2 0x7B2 JUMPI PUSH2 0x100 DUP1 DUP4 SLOAD DIV MUL DUP4 MSTORE SWAP2 PUSH1 0x20 ADD SWAP2 PUSH2 0x7DB JUMP JUMPDEST DUP3 ADD SWAP2 SWAP1 PUSH0 MSTORE PUSH1 0x20 PUSH0 KECCAK256 SWAP1 JUMPDEST DUP2 SLOAD DUP2 MSTORE SWAP1 PUSH1 0x1 ADD SWAP1 PUSH1 0x20 ADD DUP1 DUP4 GT PUSH2 0x7BE JUMPI DUP3 SWAP1 SUB PUSH1 0x1F AND DUP3 ADD SWAP2 JUMPDEST POP POP POP POP POP SWAP1 POP SWAP2 SWAP1 POP JUMP JUMPDEST CALLER PUSH1 0x1 PUSH1 0x1 PUSH1 0xA0 SHL SUB DUP7 AND DUP2 EQ DUP1 ISZERO SWAP1 PUSH2 0x808 JUMPI POP PUSH2 0x806 DUP7 DUP3 PUSH2 0x123D JUMP JUMPDEST ISZERO JUMPDEST ISZERO PUSH2 0x83E JUMPI PUSH1 0x40 MLOAD PUSH4 0x711BEC91 PUSH1 0xE1 SHL DUP2 MSTORE PUSH1 0x1 PUSH1 0x1 PUSH1 0xA0 SHL SUB DUP1 DUP4 AND PUSH1 0x4 DUP4 ADD MSTORE DUP8 AND PUSH1 0x24 DUP3 ADD MSTORE PUSH1 0x44 ADD JUMPDEST PUSH1 0x40 MLOAD DUP1 SWAP2 SUB SWAP1 REVERT JUMPDEST PUSH2 0x84B DUP7 DUP7 DUP7 DUP7 DUP7 PUSH2 0x1B9C JUMP JUMPDEST POP POP POP POP POP POP JUMP JUMPDEST PUSH1 0x60 PUSH0 PUSH1 0x1 JUMPDEST PUSH1 0xA DUP2 GT PUSH2 0x8B7 JUMPI PUSH1 0x1 PUSH1 0x1 PUSH1 0xA0 SHL SUB DUP5 AND PUSH0 SWAP1 DUP2 MSTORE PUSH1 0xA PUSH1 0x20 SWAP1 DUP2 MSTORE PUSH1 0x40 DUP1 DUP4 KECCAK256 DUP5 DUP5 MSTORE SWAP1 SWAP2 MSTORE SWAP1 KECCAK256 SLOAD PUSH2 0x100 SWAP1 DIV PUSH1 0x1 PUSH1 0x1 PUSH1 0x40 SHL SUB AND ISZERO PUSH2 0x8A5 JUMPI DUP2 PUSH2 0x8A1 DUP2 PUSH2 0x2B92 JUMP JUMPDEST SWAP3 POP POP JUMPDEST DUP1 PUSH2 0x8AF DUP2 PUSH2 0x2B92 JUMP JUMPDEST SWAP2 POP POP PUSH2 0x859 JUMP JUMPDEST POP PUSH0 DUP2 PUSH1 0x1 PUSH1 0x1 PUSH1 0x40 SHL SUB DUP2 GT ISZERO PUSH2 0x8D1 JUMPI PUSH2 0x8D1 PUSH2 0x24D0 JUMP JUMPDEST PUSH1 0x40 MLOAD SWAP1 DUP1 DUP3 MSTORE DUP1 PUSH1 0x20 MUL PUSH1 0x20 ADD DUP3 ADD PUSH1 0x40 MSTORE DUP1 ISZERO PUSH2 0x8FA JUMPI DUP2 PUSH1 0x20 ADD PUSH1 0x20 DUP3 MUL DUP1 CALLDATASIZE DUP4 CALLDATACOPY ADD SWAP1 POP JUMPDEST POP SWAP1 POP PUSH0 PUSH1 0x1 JUMPDEST PUSH1 0xA DUP2 GT PUSH2 0x97D JUMPI PUSH1 0x1 PUSH1 0x1 PUSH1 0xA0 SHL SUB DUP7 AND PUSH0 SWAP1 DUP2 MSTORE PUSH1 0xA PUSH1 0x20 SWAP1 DUP2 MSTORE PUSH1 0x40 DUP1 DUP4 KECCAK256 DUP5 DUP5 MSTORE SWAP1 SWAP2 MSTORE SWAP1 KECCAK256 SLOAD PUSH2 0x100 SWAP1 DIV PUSH1 0x1 PUSH1 0x1 PUSH1 0x40 SHL SUB AND ISZERO PUSH2 0x96B JUMPI DUP1 DUP4 DUP4 DUP2 MLOAD DUP2 LT PUSH2 0x952 JUMPI PUSH2 0x952 PUSH2 0x2BAA JUMP JUMPDEST PUSH1 0x20 SWAP1 DUP2 MUL SWAP2 SWAP1 SWAP2 ADD ADD MSTORE DUP2 PUSH2 0x967 DUP2 PUSH2 0x2B92 JUMP JUMPDEST SWAP3 POP POP JUMPDEST DUP1 PUSH2 0x975 DUP2 PUSH2 0x2B92 JUMP JUMPDEST SWAP2 POP POP PUSH2 0x901 JUMP JUMPDEST POP SWAP1 SWAP5 SWAP4 POP POP POP POP JUMP JUMPDEST PUSH1 0x1 PUSH1 0x1 PUSH1 0xA0 SHL SUB DUP3 AND PUSH0 SWAP1 DUP2 MSTORE PUSH1 0xA PUSH1 0x20 SWAP1 DUP2 MSTORE PUSH1 0x40 DUP1 DUP4 KECCAK256 DUP5 DUP5 MSTORE SWAP1 SWAP2 MSTORE SWAP1 KECCAK256 DUP1 SLOAD PUSH2 0x100 SWAP1 DIV PUSH1 0x1 PUSH1 0x1 PUSH1 0x40 SHL SUB AND ISZERO DUP1 ISZERO SWAP1 PUSH2 0x9D2 JUMPI POP DUP1 SLOAD PUSH1 0x1 PUSH1 0x48 SHL SWAP1 DIV PUSH1 0xFF AND PUSH1 0x1 EQ JUMPDEST ISZERO PUSH2 0xA46 JUMPI DUP1 SLOAD PUSH2 0x9F5 SWAP1 PUSH3 0x76A700 SWAP1 PUSH2 0x100 SWAP1 DIV PUSH1 0x1 PUSH1 0x1 PUSH1 0x40 SHL SUB AND PUSH2 0x2BBE JUMP JUMPDEST PUSH1 0x1 PUSH1 0x1 PUSH1 0x40 SHL SUB AND TIMESTAMP GT ISZERO PUSH2 0xA46 JUMPI DUP1 SLOAD PUSH1 0xFF PUSH1 0x48 SHL NOT AND DUP2 SSTORE PUSH1 0x40 MLOAD DUP3 SWAP1 PUSH1 0x1 PUSH1 0x1 PUSH1 0xA0 SHL SUB DUP6 AND SWAP1 PUSH32 0xFE3376793D31B551742504AB5D60EF12323F83F07F3F67C68F5C7AC1081FEB05 SWAP1 PUSH0 SWAP1 LOG3 JUMPDEST POP POP POP JUMP JUMPDEST PUSH1 0x60 DUP2 MLOAD DUP4 MLOAD EQ PUSH2 0xA7C JUMPI DUP2 MLOAD DUP4 MLOAD PUSH1 0x40 MLOAD PUSH4 0x5B059991 PUSH1 0xE0 SHL DUP2 MSTORE PUSH1 0x4 DUP2 ADD SWAP3 SWAP1 SWAP3 MSTORE PUSH1 0x24 DUP3 ADD MSTORE PUSH1 0x44 ADD PUSH2 0x835 JUMP JUMPDEST PUSH0 DUP4 MLOAD PUSH1 0x1 PUSH1 0x1 PUSH1 0x40 SHL SUB DUP2 GT ISZERO PUSH2 0xA96 JUMPI PUSH2 0xA96 PUSH2 0x24D0 JUMP JUMPDEST PUSH1 0x40 MLOAD SWAP1 DUP1 DUP3 MSTORE DUP1 PUSH1 0x20 MUL PUSH1 0x20 ADD DUP3 ADD PUSH1 0x40 MSTORE DUP1 ISZERO PUSH2 0xABF JUMPI DUP2 PUSH1 0x20 ADD PUSH1 0x20 DUP3 MUL DUP1 CALLDATASIZE DUP4 CALLDATACOPY ADD SWAP1 POP JUMPDEST POP SWAP1 POP PUSH0 JUMPDEST DUP5 MLOAD DUP2 LT ISZERO PUSH2 0xB15 JUMPI PUSH1 0x20 DUP1 DUP3 MUL DUP7 ADD ADD MLOAD PUSH2 0xAE8 SWAP1 PUSH1 0x20 DUP1 DUP5 MUL DUP8 ADD ADD MLOAD PUSH2 0x63F JUMP JUMPDEST DUP3 DUP3 DUP2 MLOAD DUP2 LT PUSH2 0xAFA JUMPI PUSH2 0xAFA PUSH2 0x2BAA JUMP JUMPDEST PUSH1 0x20 SWAP1 DUP2 MUL SWAP2 SWAP1 SWAP2 ADD ADD MSTORE PUSH2 0xB0E DUP2 PUSH2 0x2B92 JUMP JUMPDEST SWAP1 POP PUSH2 0xAC4 JUMP JUMPDEST POP SWAP4 SWAP3 POP POP POP JUMP JUMPDEST CALLER PUSH0 SWAP1 DUP2 MSTORE PUSH1 0xA PUSH1 0x20 SWAP1 DUP2 MSTORE PUSH1 0x40 DUP1 DUP4 KECCAK256 DUP5 DUP5 MSTORE SWAP1 SWAP2 MSTORE SWAP1 KECCAK256 SLOAD PUSH2 0x100 SWAP1 DIV PUSH1 0x1 PUSH1 0x1 PUSH1 0x40 SHL SUB AND PUSH2 0xB83 JUMPI PUSH1 0x40 MLOAD PUSH3 0x461BCD PUSH1 0xE5 SHL DUP2 MSTORE PUSH1 0x20 PUSH1 0x4 DUP3 ADD MSTORE PUSH1 0xF PUSH1 0x24 DUP3 ADD MSTORE PUSH15 0x10985919D9481B9BDD081BDDDB9959 PUSH1 0x8A SHL PUSH1 0x44 DUP3 ADD MSTORE PUSH1 0x64 ADD PUSH2 0x835 JUMP JUMPDEST CALLER PUSH0 DUP2 DUP2 MSTORE PUSH1 0xA PUSH1 0x20 SWAP1 DUP2 MSTORE PUSH1 0x40 DUP1 DUP4 KECCAK256 DUP6 DUP5 MSTORE SWAP1 SWAP2 MSTORE SWAP1 KECCAK256 DUP1 SLOAD PUSH10 0xFFFFFFFFFFFFFFFFFFFF NOT AND SWAP1 SSTORE PUSH2 0xBB9 SWAP1 DUP3 PUSH1 0x1 PUSH2 0x1C01 JUMP JUMPDEST PUSH1 0x40 MLOAD DUP2 SWAP1 CALLER SWAP1 PUSH32 0x21EFCAE153B58616332D7F7EE4EB0B72BD5B472048C613A4107D750A710B6402 SWAP1 PUSH0 SWAP1 LOG3 POP JUMP JUMPDEST PUSH2 0xBF0 PUSH2 0x1B63 JUMP JUMPDEST PUSH2 0xBF9 PUSH0 PUSH2 0x1C67 JUMP JUMPDEST JUMP JUMPDEST PUSH1 0x7 DUP1 SLOAD PUSH2 0x6D6 SWAP1 PUSH2 0x2B4C JUMP JUMPDEST PUSH2 0xC10 PUSH2 0x1B63 JUMP JUMPDEST PUSH1 0x8 DUP1 SLOAD PUSH1 0x1 PUSH1 0x1 PUSH1 0xA0 SHL SUB NOT AND PUSH1 0x1 PUSH1 0x1 PUSH1 0xA0 SHL SUB SWAP3 SWAP1 SWAP3 AND SWAP2 SWAP1 SWAP2 OR SWAP1 SSTORE JUMP JUMPDEST PUSH2 0xC3D CALLER DUP4 DUP4 PUSH2 0x1CB8 JUMP JUMPDEST POP POP JUMP JUMPDEST PUSH1 0x1 DUP3 LT ISZERO DUP1 ISZERO PUSH2 0xC53 JUMPI POP PUSH1 0xA DUP3 GT ISZERO JUMPDEST PUSH2 0xC92 JUMPI PUSH1 0x40 MLOAD PUSH3 0x461BCD PUSH1 0xE5 SHL DUP2 MSTORE PUSH1 0x20 PUSH1 0x4 DUP3 ADD MSTORE PUSH1 0x10 PUSH1 0x24 DUP3 ADD MSTORE PUSH16 0x125B9D985B1A590819D95B9C99481251 PUSH1 0x82 SHL PUSH1 0x44 DUP3 ADD MSTORE PUSH1 0x64 ADD PUSH2 0x835 JUMP JUMPDEST PUSH1 0x1 PUSH1 0xFF DUP3 AND LT DUP1 ISZERO SWAP1 PUSH2 0xCAA JUMPI POP PUSH1 0x3 PUSH1 0xFF DUP3 AND GT ISZERO JUMPDEST PUSH2 0xCC6 JUMPI PUSH1 0x40 MLOAD PUSH3 0x461BCD PUSH1 0xE5 SHL DUP2 MSTORE PUSH1 0x4 ADD PUSH2 0x835 SWAP1 PUSH2 0x2BE5 JUMP JUMPDEST CALLER PUSH0 SWAP1 DUP2 MSTORE PUSH1 0xA PUSH1 0x20 SWAP1 DUP2 MSTORE PUSH1 0x40 DUP1 DUP4 KECCAK256 DUP6 DUP5 MSTORE SWAP1 SWAP2 MSTORE SWAP1 KECCAK256 SLOAD PUSH2 0x100 SWAP1 DIV PUSH1 0x1 PUSH1 0x1 PUSH1 0x40 SHL SUB AND ISZERO PUSH2 0xD32 JUMPI PUSH1 0x40 MLOAD PUSH3 0x461BCD PUSH1 0xE5 SHL DUP2 MSTORE PUSH1 0x20 PUSH1 0x4 DUP3 ADD MSTORE PUSH1 0x14 PUSH1 0x24 DUP3 ADD MSTORE PUSH20 0x426164676520616C726561647920657869737473 PUSH1 0x60 SHL PUSH1 0x44 DUP3 ADD MSTORE PUSH1 0x64 ADD PUSH2 0x835 JUMP JUMPDEST PUSH0 PUSH2 0xD3D DUP5 DUP1 PUSH2 0x2C0B JUMP JUMPDEST PUSH2 0xD47 SWAP1 DUP1 PUSH2 0x2C29 JUMP JUMPDEST PUSH2 0xD51 DUP7 DUP1 PUSH2 0x2C0B JUMP JUMPDEST PUSH2 0xD5F SWAP1 PUSH1 0x20 DUP2 ADD SWAP1 PUSH2 0x2C29 JUMP JUMPDEST PUSH2 0xD6C PUSH1 0x20 DUP10 ADD DUP10 PUSH2 0x2C6B JUMP JUMPDEST PUSH1 0x40 MLOAD PUSH2 0xD81 SWAP6 SWAP5 SWAP4 SWAP3 SWAP2 CALLDATALOAD SWAP1 PUSH1 0x20 ADD PUSH2 0x2CA7 JUMP JUMPDEST PUSH1 0x40 DUP1 MLOAD PUSH1 0x1F NOT DUP2 DUP5 SUB ADD DUP2 MSTORE SWAP2 DUP2 MSTORE DUP2 MLOAD PUSH1 0x20 SWAP3 DUP4 ADD KECCAK256 PUSH0 DUP2 DUP2 MSTORE PUSH1 0xB SWAP1 SWAP4 MSTORE SWAP2 KECCAK256 SLOAD SWAP1 SWAP2 POP PUSH1 0xFF AND ISZERO PUSH2 0xDC8 JUMPI PUSH1 0x40 MLOAD PUSH3 0x461BCD PUSH1 0xE5 SHL DUP2 MSTORE PUSH1 0x4 ADD PUSH2 0x835 SWAP1 PUSH2 0x2CE0 JUMP JUMPDEST PUSH1 0x8 SLOAD PUSH1 0x40 MLOAD PUSH4 0x54B0734F PUSH1 0xE1 SHL DUP2 MSTORE PUSH1 0x1 PUSH1 0x1 PUSH1 0xA0 SHL SUB SWAP1 SWAP2 AND SWAP1 PUSH4 0xA960E69E SWAP1 PUSH2 0xDF8 SWAP1 DUP8 SWAP1 PUSH1 0x4 ADD PUSH2 0x2E85 JUMP JUMPDEST PUSH0 PUSH1 0x40 MLOAD DUP1 DUP4 SUB DUP2 DUP7 DUP1 EXTCODESIZE ISZERO DUP1 ISZERO PUSH2 0xE0E JUMPI PUSH0 DUP1 REVERT JUMPDEST POP GAS STATICCALL ISZERO DUP1 ISZERO PUSH2 0xE20 JUMPI RETURNDATASIZE PUSH0 DUP1 RETURNDATACOPY RETURNDATASIZE PUSH0 REVERT JUMPDEST POP POP POP PUSH0 DUP3 DUP2 MSTORE PUSH1 0xB PUSH1 0x20 SWAP1 DUP2 MSTORE PUSH1 0x40 DUP1 DUP4 KECCAK256 DUP1 SLOAD PUSH1 0xFF NOT AND PUSH1 0x1 SWAP1 DUP2 OR SWAP1 SWAP2 SSTORE DUP2 MLOAD PUSH1 0x60 DUP2 ADD DUP4 MSTORE PUSH1 0xFF DUP9 DUP2 AND DUP3 MSTORE PUSH1 0x1 PUSH1 0x1 PUSH1 0x40 SHL SUB TIMESTAMP DUP2 AND DUP4 DUP8 ADD SWAP1 DUP2 MSTORE DUP4 DUP7 ADD DUP6 DUP2 MSTORE CALLER DUP1 DUP11 MSTORE PUSH1 0xA DUP10 MSTORE DUP8 DUP11 KECCAK256 DUP15 DUP12 MSTORE DUP10 MSTORE DUP8 DUP11 KECCAK256 SWAP6 MLOAD DUP7 SLOAD SWAP4 MLOAD SWAP3 MLOAD DUP7 AND PUSH1 0x1 PUSH1 0x48 SHL MUL PUSH1 0xFF PUSH1 0x48 SHL NOT SWAP4 SWAP1 SWAP6 AND PUSH2 0x100 MUL PUSH9 0xFFFFFFFFFFFFFFFFFF NOT SWAP1 SWAP5 AND SWAP6 AND SWAP5 SWAP1 SWAP5 OR SWAP2 SWAP1 SWAP2 OR AND OR SWAP1 SWAP2 SSTORE DUP3 MLOAD SWAP4 DUP5 ADD SWAP1 SWAP3 MSTORE SWAP3 DUP3 MSTORE PUSH2 0xECD SWAP4 POP SWAP2 DUP7 SWAP2 PUSH2 0x1D4C JUMP JUMPDEST PUSH0 DUP4 DUP2 MSTORE PUSH1 0x9 PUSH1 0x20 MSTORE PUSH1 0x40 SWAP1 DUP2 SWAP1 KECCAK256 SWAP1 MLOAD DUP5 SWAP2 CALLER SWAP2 PUSH32 0xEEA079FECEA4873AEDE971DF0E085EAADFB8311FC3B73BDB10A9469EA7D19227 SWAP2 PUSH2 0xF0F SWAP2 DUP8 SWAP1 PUSH2 0x2F3D JUMP JUMPDEST PUSH1 0x40 MLOAD DUP1 SWAP2 SUB SWAP1 LOG3 POP POP POP POP JUMP JUMPDEST PUSH2 0xF25 PUSH2 0x1B63 JUMP JUMPDEST PUSH0 DUP3 DUP2 MSTORE PUSH1 0x9 PUSH1 0x20 MSTORE PUSH1 0x40 SWAP1 KECCAK256 PUSH2 0xA46 DUP3 DUP3 PUSH2 0x3011 JUMP JUMPDEST PUSH1 0x1 PUSH1 0x1 PUSH1 0xA0 SHL SUB DUP3 AND PUSH0 SWAP1 DUP2 MSTORE PUSH1 0xA PUSH1 0x20 SWAP1 DUP2 MSTORE PUSH1 0x40 DUP1 DUP4 KECCAK256 DUP5 DUP5 MSTORE DUP3 MSTORE DUP1 DUP4 KECCAK256 DUP2 MLOAD PUSH1 0x60 DUP2 ADD DUP4 MSTORE SWAP1 SLOAD PUSH1 0xFF DUP1 DUP3 AND DUP4 MSTORE PUSH1 0x1 PUSH1 0x1 PUSH1 0x40 SHL SUB PUSH2 0x100 DUP4 DIV AND SWAP5 DUP4 ADD DUP6 SWAP1 MSTORE PUSH1 0x1 PUSH1 0x48 SHL SWAP1 SWAP2 DIV AND SWAP2 DUP2 ADD SWAP2 SWAP1 SWAP2 MSTORE SWAP1 DUP3 SUB PUSH2 0xFA3 JUMPI PUSH0 SWAP2 POP POP PUSH2 0x660 JUMP JUMPDEST PUSH3 0x76A700 DUP2 PUSH1 0x20 ADD MLOAD PUSH2 0xFB6 SWAP2 SWAP1 PUSH2 0x2BBE JUMP JUMPDEST PUSH1 0x1 PUSH1 0x1 PUSH1 0x40 SHL SUB AND TIMESTAMP GT PUSH2 0xFD6 JUMPI PUSH1 0x40 ADD MLOAD PUSH1 0xFF AND PUSH1 0x1 EQ SWAP1 POP PUSH2 0x660 JUMP JUMPDEST POP PUSH0 SWAP4 SWAP3 POP POP POP JUMP JUMPDEST PUSH1 0x60 DUP1 DUP1 PUSH0 PUSH1 0x1 JUMPDEST PUSH1 0xA DUP2 GT PUSH2 0x1045 JUMPI PUSH1 0x1 PUSH1 0x1 PUSH1 0xA0 SHL SUB DUP7 AND PUSH0 SWAP1 DUP2 MSTORE PUSH1 0xA PUSH1 0x20 SWAP1 DUP2 MSTORE PUSH1 0x40 DUP1 DUP4 KECCAK256 DUP5 DUP5 MSTORE SWAP1 SWAP2 MSTORE SWAP1 KECCAK256 SLOAD PUSH2 0x100 SWAP1 DIV PUSH1 0x1 PUSH1 0x1 PUSH1 0x40 SHL SUB AND ISZERO PUSH2 0x1033 JUMPI DUP2 PUSH2 0x102F DUP2 PUSH2 0x2B92 JUMP JUMPDEST SWAP3 POP POP JUMPDEST DUP1 PUSH2 0x103D DUP2 PUSH2 0x2B92 JUMP JUMPDEST SWAP2 POP POP PUSH2 0xFE7 JUMP JUMPDEST POP DUP1 PUSH1 0x1 PUSH1 0x1 PUSH1 0x40 SHL SUB DUP2 GT ISZERO PUSH2 0x105E JUMPI PUSH2 0x105E PUSH2 0x24D0 JUMP JUMPDEST PUSH1 0x40 MLOAD SWAP1 DUP1 DUP3 MSTORE DUP1 PUSH1 0x20 MUL PUSH1 0x20 ADD DUP3 ADD PUSH1 0x40 MSTORE DUP1 ISZERO PUSH2 0x1087 JUMPI DUP2 PUSH1 0x20 ADD PUSH1 0x20 DUP3 MUL DUP1 CALLDATASIZE DUP4 CALLDATACOPY ADD SWAP1 POP JUMPDEST POP SWAP4 POP DUP1 PUSH1 0x1 PUSH1 0x1 PUSH1 0x40 SHL SUB DUP2 GT ISZERO PUSH2 0x10A2 JUMPI PUSH2 0x10A2 PUSH2 0x24D0 JUMP JUMPDEST PUSH1 0x40 MLOAD SWAP1 DUP1 DUP3 MSTORE DUP1 PUSH1 0x20 MUL PUSH1 0x20 ADD DUP3 ADD PUSH1 0x40 MSTORE DUP1 ISZERO PUSH2 0x10CB JUMPI DUP2 PUSH1 0x20 ADD PUSH1 0x20 DUP3 MUL DUP1 CALLDATASIZE DUP4 CALLDATACOPY ADD SWAP1 POP JUMPDEST POP SWAP3 POP DUP1 PUSH1 0x1 PUSH1 0x1 PUSH1 0x40 SHL SUB DUP2 GT ISZERO PUSH2 0x10E6 JUMPI PUSH2 0x10E6 PUSH2 0x24D0 JUMP JUMPDEST PUSH1 0x40 MLOAD SWAP1 DUP1 DUP3 MSTORE DUP1 PUSH1 0x20 MUL PUSH1 0x20 ADD DUP3 ADD PUSH1 0x40 MSTORE DUP1 ISZERO PUSH2 0x110F JUMPI DUP2 PUSH1 0x20 ADD PUSH1 0x20 DUP3 MUL DUP1 CALLDATASIZE DUP4 CALLDATACOPY ADD SWAP1 POP JUMPDEST POP SWAP2 POP PUSH0 PUSH1 0x1 JUMPDEST PUSH1 0xA DUP2 GT PUSH2 0x1233 JUMPI PUSH1 0x1 PUSH1 0x1 PUSH1 0xA0 SHL SUB DUP8 AND PUSH0 SWAP1 DUP2 MSTORE PUSH1 0xA PUSH1 0x20 SWAP1 DUP2 MSTORE PUSH1 0x40 DUP1 DUP4 KECCAK256 DUP5 DUP5 MSTORE DUP3 MSTORE SWAP2 DUP3 SWAP1 KECCAK256 DUP3 MLOAD PUSH1 0x60 DUP2 ADD DUP5 MSTORE SWAP1 SLOAD PUSH1 0xFF DUP1 DUP3 AND DUP4 MSTORE PUSH1 0x1 PUSH1 0x1 PUSH1 0x40 SHL SUB PUSH2 0x100 DUP4 DIV AND SWAP4 DUP4 ADD DUP5 SWAP1 MSTORE PUSH1 0x1 PUSH1 0x48 SHL SWAP1 SWAP2 DIV AND SWAP3 DUP2 ADD SWAP3 SWAP1 SWAP3 MSTORE ISZERO PUSH2 0x1220 JUMPI DUP2 DUP8 DUP5 DUP2 MLOAD DUP2 LT PUSH2 0x118E JUMPI PUSH2 0x118E PUSH2 0x2BAA JUMP JUMPDEST PUSH1 0x20 MUL PUSH1 0x20 ADD ADD DUP2 DUP2 MSTORE POP POP DUP1 PUSH0 ADD MLOAD DUP7 DUP5 DUP2 MLOAD DUP2 LT PUSH2 0x11B0 JUMPI PUSH2 0x11B0 PUSH2 0x2BAA JUMP JUMPDEST PUSH1 0xFF SWAP3 DUP4 AND PUSH1 0x20 SWAP2 DUP3 MUL SWAP3 SWAP1 SWAP3 ADD ADD MSTORE PUSH1 0x40 DUP3 ADD MLOAD AND PUSH1 0x1 EQ DUP1 ISZERO PUSH2 0x11F0 JUMPI POP PUSH3 0x76A700 DUP2 PUSH1 0x20 ADD MLOAD PUSH2 0x11E3 SWAP2 SWAP1 PUSH2 0x2BBE JUMP JUMPDEST PUSH1 0x1 PUSH1 0x1 PUSH1 0x40 SHL SUB AND TIMESTAMP GT ISZERO JUMPDEST DUP6 DUP5 DUP2 MLOAD DUP2 LT PUSH2 0x1202 JUMPI PUSH2 0x1202 PUSH2 0x2BAA JUMP JUMPDEST SWAP2 ISZERO ISZERO PUSH1 0x20 SWAP3 DUP4 MUL SWAP2 SWAP1 SWAP2 ADD SWAP1 SWAP2 ADD MSTORE DUP3 PUSH2 0x121C DUP2 PUSH2 0x2B92 JUMP JUMPDEST SWAP4 POP POP JUMPDEST POP DUP1 PUSH2 0x122B DUP2 PUSH2 0x2B92 JUMP JUMPDEST SWAP2 POP POP PUSH2 0x1116 JUMP JUMPDEST POP POP POP SWAP2 SWAP4 SWAP1 SWAP3 POP JUMP JUMPDEST PUSH1 0x1 PUSH1 0x1 PUSH1 0xA0 SHL SUB SWAP2 DUP3 AND PUSH0 SWAP1 DUP2 MSTORE PUSH1 0x1 PUSH1 0x20 SWAP1 DUP2 MSTORE PUSH1 0x40 DUP1 DUP4 KECCAK256 SWAP4 SWAP1 SWAP5 AND DUP3 MSTORE SWAP2 SWAP1 SWAP2 MSTORE KECCAK256 SLOAD PUSH1 0xFF AND SWAP1 JUMP JUMPDEST CALLER PUSH0 SWAP1 DUP2 MSTORE PUSH1 0xA PUSH1 0x20 SWAP1 DUP2 MSTORE PUSH1 0x40 DUP1 DUP4 KECCAK256 DUP6 DUP5 MSTORE SWAP1 SWAP2 MSTORE SWAP1 KECCAK256 SLOAD PUSH2 0x100 SWAP1 DIV PUSH1 0x1 PUSH1 0x1 PUSH1 0x40 SHL SUB AND PUSH2 0x12D0 JUMPI PUSH1 0x40 MLOAD PUSH3 0x461BCD PUSH1 0xE5 SHL DUP2 MSTORE PUSH1 0x20 PUSH1 0x4 DUP3 ADD MSTORE PUSH1 0xF PUSH1 0x24 DUP3 ADD MSTORE PUSH15 0x10985919D9481B9BDD081BDDDB9959 PUSH1 0x8A SHL PUSH1 0x44 DUP3 ADD MSTORE PUSH1 0x64 ADD PUSH2 0x835 JUMP JUMPDEST PUSH1 0x1 PUSH1 0xFF DUP3 AND LT DUP1 ISZERO SWAP1 PUSH2 0x12E8 JUMPI POP PUSH1 0x3 PUSH1 0xFF DUP3 AND GT ISZERO JUMPDEST PUSH2 0x1304 JUMPI PUSH1 0x40 MLOAD PUSH3 0x461BCD PUSH1 0xE5 SHL DUP2 MSTORE PUSH1 0x4 ADD PUSH2 0x835 SWAP1 PUSH2 0x2BE5 JUMP JUMPDEST PUSH0 PUSH2 0x130F DUP5 DUP1 PUSH2 0x2C0B JUMP JUMPDEST PUSH2 0x1319 SWAP1 DUP1 PUSH2 0x2C29 JUMP JUMPDEST PUSH2 0x1323 DUP7 DUP1 PUSH2 0x2C0B JUMP JUMPDEST PUSH2 0x1331 SWAP1 PUSH1 0x20 DUP2 ADD SWAP1 PUSH2 0x2C29 JUMP JUMPDEST PUSH2 0x133E PUSH1 0x20 DUP10 ADD DUP10 PUSH2 0x2C6B JUMP JUMPDEST PUSH1 0x40 MLOAD PUSH2 0x1353 SWAP6 SWAP5 SWAP4 SWAP3 SWAP2 CALLDATALOAD SWAP1 PUSH1 0x20 ADD PUSH2 0x2CA7 JUMP JUMPDEST PUSH1 0x40 DUP1 MLOAD PUSH1 0x1F NOT DUP2 DUP5 SUB ADD DUP2 MSTORE SWAP2 DUP2 MSTORE DUP2 MLOAD PUSH1 0x20 SWAP3 DUP4 ADD KECCAK256 PUSH0 DUP2 DUP2 MSTORE PUSH1 0xB SWAP1 SWAP4 MSTORE SWAP2 KECCAK256 SLOAD SWAP1 SWAP2 POP PUSH1 0xFF AND ISZERO PUSH2 0x139A JUMPI PUSH1 0x40 MLOAD PUSH3 0x461BCD PUSH1 0xE5 SHL DUP2 MSTORE PUSH1 0x4 ADD PUSH2 0x835 SWAP1 PUSH2 0x2CE0 JUMP JUMPDEST PUSH1 0x8 SLOAD PUSH1 0x40 MLOAD PUSH4 0x54B0734F PUSH1 0xE1 SHL DUP2 MSTORE PUSH1 0x1 PUSH1 0x1 PUSH1 0xA0 SHL SUB SWAP1 SWAP2 AND SWAP1 PUSH4 0xA960E69E SWAP1 PUSH2 0x13CA SWAP1 DUP8 SWAP1 PUSH1 0x4 ADD PUSH2 0x2E85 JUMP JUMPDEST PUSH0 PUSH1 0x40 MLOAD DUP1 DUP4 SUB DUP2 DUP7 DUP1 EXTCODESIZE ISZERO DUP1 ISZERO PUSH2 0x13E0 JUMPI PUSH0 DUP1 REVERT JUMPDEST POP GAS STATICCALL ISZERO DUP1 ISZERO PUSH2 0x13F2 JUMPI RETURNDATASIZE PUSH0 DUP1 RETURNDATACOPY RETURNDATASIZE PUSH0 REVERT JUMPDEST POP POP POP PUSH0 DUP3 DUP2 MSTORE PUSH1 0xB PUSH1 0x20 SWAP1 DUP2 MSTORE PUSH1 0x40 DUP1 DUP4 KECCAK256 DUP1 SLOAD PUSH1 0x1 PUSH1 0xFF NOT SWAP2 DUP3 AND OR SWAP1 SWAP2 SSTORE CALLER DUP1 DUP6 MSTORE PUSH1 0xA DUP5 MSTORE DUP3 DUP6 KECCAK256 DUP10 DUP7 MSTORE DUP5 MSTORE SWAP4 DUP3 SWAP1 KECCAK256 DUP1 SLOAD PUSH1 0x1 PUSH1 0x48 SHL PUSH10 0xFFFFFFFFFFFFFFFFFF00 NOT DUP3 AND PUSH2 0x100 TIMESTAMP PUSH1 0x1 PUSH1 0x1 PUSH1 0x40 SHL SUB AND MUL PUSH1 0xFF PUSH1 0x48 SHL NOT AND OR OR SWAP1 SWAP3 AND PUSH1 0xFF DUP10 DUP2 AND SWAP2 DUP3 OR DUP4 SSTORE DUP5 MLOAD SWAP4 AND DUP1 DUP5 MSTORE SWAP5 DUP4 ADD MSTORE SWAP5 POP SWAP2 SWAP3 DUP8 SWAP3 SWAP1 SWAP2 PUSH32 0xFE5AC37F441080DA72C3E4788457D0722B5196ED6D2843AF39B402294074B2C7 SWAP2 ADD PUSH1 0x40 MLOAD DUP1 SWAP2 SUB SWAP1 LOG3 POP POP POP POP POP POP JUMP JUMPDEST CALLER PUSH1 0x1 PUSH1 0x1 PUSH1 0xA0 SHL SUB DUP7 AND DUP2 EQ DUP1 ISZERO SWAP1 PUSH2 0x14C7 JUMPI POP PUSH2 0x14C5 DUP7 DUP3 PUSH2 0x123D JUMP JUMPDEST ISZERO JUMPDEST ISZERO PUSH2 0x14F8 JUMPI PUSH1 0x40 MLOAD PUSH4 0x711BEC91 PUSH1 0xE1 SHL DUP2 MSTORE PUSH1 0x1 PUSH1 0x1 PUSH1 0xA0 SHL SUB DUP1 DUP4 AND PUSH1 0x4 DUP4 ADD MSTORE DUP8 AND PUSH1 0x24 DUP3 ADD MSTORE PUSH1 0x44 ADD PUSH2 0x835 JUMP JUMPDEST PUSH2 0x84B DUP7 DUP7 DUP7 DUP7 DUP7 PUSH2 0x1DA7 JUMP JUMPDEST PUSH2 0x150D PUSH2 0x1B63 JUMP JUMPDEST PUSH1 0x1 PUSH1 0x1 PUSH1 0xA0 SHL SUB DUP2 AND PUSH2 0x1536 JUMPI PUSH1 0x40 MLOAD PUSH4 0x1E4FBDF7 PUSH1 0xE0 SHL DUP2 MSTORE PUSH0 PUSH1 0x4 DUP3 ADD MSTORE PUSH1 0x24 ADD PUSH2 0x835 JUMP JUMPDEST PUSH2 0x6C6 DUP2 PUSH2 0x1C67 JUMP JUMPDEST PUSH1 0x9 PUSH1 0x20 MSTORE PUSH0 SWAP1 DUP2 MSTORE PUSH1 0x40 SWAP1 KECCAK256 DUP1 SLOAD PUSH2 0x6D6 SWAP1 PUSH2 0x2B4C JUMP JUMPDEST DUP3 DUP2 EQ PUSH2 0x1598 JUMPI PUSH1 0x40 MLOAD PUSH3 0x461BCD PUSH1 0xE5 SHL DUP2 MSTORE PUSH1 0x20 PUSH1 0x4 DUP3 ADD MSTORE PUSH1 0xF PUSH1 0x24 DUP3 ADD MSTORE PUSH15 0x82E4E4C2F2E640DAD2E6DAC2E8C6D PUSH1 0x8B SHL PUSH1 0x44 DUP3 ADD MSTORE PUSH1 0x64 ADD PUSH2 0x835 JUMP JUMPDEST DUP3 PUSH2 0x15D4 JUMPI PUSH1 0x40 MLOAD PUSH3 0x461BCD PUSH1 0xE5 SHL DUP2 MSTORE PUSH1 0x20 PUSH1 0x4 DUP3 ADD MSTORE PUSH1 0xC PUSH1 0x24 DUP3 ADD MSTORE PUSH12 0x456D70747920617272617973 PUSH1 0xA0 SHL PUSH1 0x44 DUP3 ADD MSTORE PUSH1 0x64 ADD PUSH2 0x835 JUMP JUMPDEST PUSH0 PUSH2 0x15DF DUP7 DUP1 PUSH2 0x2C0B JUMP JUMPDEST PUSH2 0x15E9 SWAP1 DUP1 PUSH2 0x2C29 JUMP JUMPDEST PUSH2 0x15F3 DUP9 DUP1 PUSH2 0x2C0B JUMP JUMPDEST PUSH2 0x1601 SWAP1 PUSH1 0x20 DUP2 ADD SWAP1 PUSH2 0x2C29 JUMP JUMPDEST PUSH2 0x160E PUSH1 0x20 DUP12 ADD DUP12 PUSH2 0x2C6B JUMP JUMPDEST PUSH1 0x40 MLOAD PUSH2 0x1623 SWAP6 SWAP5 SWAP4 SWAP3 SWAP2 CALLDATALOAD SWAP1 PUSH1 0x20 ADD PUSH2 0x2CA7 JUMP JUMPDEST PUSH1 0x40 DUP1 MLOAD PUSH1 0x1F NOT DUP2 DUP5 SUB ADD DUP2 MSTORE SWAP2 DUP2 MSTORE DUP2 MLOAD PUSH1 0x20 SWAP3 DUP4 ADD KECCAK256 PUSH0 DUP2 DUP2 MSTORE PUSH1 0xB SWAP1 SWAP4 MSTORE SWAP2 KECCAK256 SLOAD SWAP1 SWAP2 POP PUSH1 0xFF AND ISZERO PUSH2 0x166A JUMPI PUSH1 0x40 MLOAD PUSH3 0x461BCD PUSH1 0xE5 SHL DUP2 MSTORE PUSH1 0x4 ADD PUSH2 0x835 SWAP1 PUSH2 0x2CE0 JUMP JUMPDEST PUSH1 0x8 SLOAD PUSH1 0x40 MLOAD PUSH4 0x54B0734F PUSH1 0xE1 SHL DUP2 MSTORE PUSH1 0x1 PUSH1 0x1 PUSH1 0xA0 SHL SUB SWAP1 SWAP2 AND SWAP1 PUSH4 0xA960E69E SWAP1 PUSH2 0x169A SWAP1 DUP10 SWAP1 PUSH1 0x4 ADD PUSH2 0x2E85 JUMP JUMPDEST PUSH0 PUSH1 0x40 MLOAD DUP1 DUP4 SUB DUP2 DUP7 DUP1 EXTCODESIZE ISZERO DUP1 ISZERO PUSH2 0x16B0 JUMPI PUSH0 DUP1 REVERT JUMPDEST POP GAS STATICCALL ISZERO DUP1 ISZERO PUSH2 0x16C2 JUMPI RETURNDATASIZE PUSH0 DUP1 RETURNDATACOPY RETURNDATASIZE PUSH0 REVERT JUMPDEST POP POP POP PUSH0 DUP3 DUP2 MSTORE PUSH1 0xB PUSH1 0x20 MSTORE PUSH1 0x40 DUP2 KECCAK256 DUP1 SLOAD PUSH1 0xFF NOT AND PUSH1 0x1 OR SWAP1 SSTORE SWAP1 POP DUP5 PUSH1 0x1 PUSH1 0x1 PUSH1 0x40 SHL SUB DUP2 GT ISZERO PUSH2 0x16F7 JUMPI PUSH2 0x16F7 PUSH2 0x24D0 JUMP JUMPDEST PUSH1 0x40 MLOAD SWAP1 DUP1 DUP3 MSTORE DUP1 PUSH1 0x20 MUL PUSH1 0x20 ADD DUP3 ADD PUSH1 0x40 MSTORE DUP1 ISZERO PUSH2 0x1720 JUMPI DUP2 PUSH1 0x20 ADD PUSH1 0x20 DUP3 MUL DUP1 CALLDATASIZE DUP4 CALLDATACOPY ADD SWAP1 POP JUMPDEST POP SWAP1 POP PUSH0 JUMPDEST DUP6 DUP2 LT ISZERO PUSH2 0x1A6C JUMPI PUSH1 0x1 DUP8 DUP8 DUP4 DUP2 DUP2 LT PUSH2 0x1741 JUMPI PUSH2 0x1741 PUSH2 0x2BAA JUMP JUMPDEST SWAP1 POP PUSH1 0x20 MUL ADD CALLDATALOAD LT ISZERO DUP1 ISZERO PUSH2 0x176F JUMPI POP PUSH1 0xA DUP8 DUP8 DUP4 DUP2 DUP2 LT PUSH2 0x1765 JUMPI PUSH2 0x1765 PUSH2 0x2BAA JUMP JUMPDEST SWAP1 POP PUSH1 0x20 MUL ADD CALLDATALOAD GT ISZERO JUMPDEST PUSH2 0x17AE JUMPI PUSH1 0x40 MLOAD PUSH3 0x461BCD PUSH1 0xE5 SHL DUP2 MSTORE PUSH1 0x20 PUSH1 0x4 DUP3 ADD MSTORE PUSH1 0x10 PUSH1 0x24 DUP3 ADD MSTORE PUSH16 0x125B9D985B1A590819D95B9C99481251 PUSH1 0x82 SHL PUSH1 0x44 DUP3 ADD MSTORE PUSH1 0x64 ADD PUSH2 0x835 JUMP JUMPDEST PUSH1 0x1 DUP6 DUP6 DUP4 DUP2 DUP2 LT PUSH2 0x17C2 JUMPI PUSH2 0x17C2 PUSH2 0x2BAA JUMP JUMPDEST SWAP1 POP PUSH1 0x20 MUL ADD PUSH1 0x20 DUP2 ADD SWAP1 PUSH2 0x17D7 SWAP2 SWAP1 PUSH2 0x30CC JUMP JUMPDEST PUSH1 0xFF AND LT ISZERO DUP1 ISZERO PUSH2 0x1812 JUMPI POP PUSH1 0x3 DUP6 DUP6 DUP4 DUP2 DUP2 LT PUSH2 0x17F7 JUMPI PUSH2 0x17F7 PUSH2 0x2BAA JUMP JUMPDEST SWAP1 POP PUSH1 0x20 MUL ADD PUSH1 0x20 DUP2 ADD SWAP1 PUSH2 0x180C SWAP2 SWAP1 PUSH2 0x30CC JUMP JUMPDEST PUSH1 0xFF AND GT ISZERO JUMPDEST PUSH2 0x182E JUMPI PUSH1 0x40 MLOAD PUSH3 0x461BCD PUSH1 0xE5 SHL DUP2 MSTORE PUSH1 0x4 ADD PUSH2 0x835 SWAP1 PUSH2 0x2BE5 JUMP JUMPDEST CALLER PUSH0 SWAP1 DUP2 MSTORE PUSH1 0xA PUSH1 0x20 MSTORE PUSH1 0x40 DUP2 KECCAK256 SWAP1 DUP9 DUP9 DUP5 DUP2 DUP2 LT PUSH2 0x184F JUMPI PUSH2 0x184F PUSH2 0x2BAA JUMP JUMPDEST PUSH1 0x20 SWAP1 DUP2 MUL SWAP3 SWAP1 SWAP3 ADD CALLDATALOAD DUP4 MSTORE POP DUP2 ADD SWAP2 SWAP1 SWAP2 MSTORE PUSH1 0x40 ADD PUSH0 KECCAK256 SLOAD PUSH2 0x100 SWAP1 DIV PUSH1 0x1 PUSH1 0x1 PUSH1 0x40 SHL SUB AND ISZERO PUSH2 0x18B2 JUMPI PUSH1 0x40 MLOAD PUSH3 0x461BCD PUSH1 0xE5 SHL DUP2 MSTORE PUSH1 0x20 PUSH1 0x4 DUP3 ADD MSTORE PUSH1 0xC PUSH1 0x24 DUP3 ADD MSTORE PUSH12 0x426164676520657869737473 PUSH1 0xA0 SHL PUSH1 0x44 DUP3 ADD MSTORE PUSH1 0x64 ADD PUSH2 0x835 JUMP JUMPDEST PUSH1 0x40 MLOAD DUP1 PUSH1 0x60 ADD PUSH1 0x40 MSTORE DUP1 DUP7 DUP7 DUP5 DUP2 DUP2 LT PUSH2 0x18CF JUMPI PUSH2 0x18CF PUSH2 0x2BAA JUMP JUMPDEST SWAP1 POP PUSH1 0x20 MUL ADD PUSH1 0x20 DUP2 ADD SWAP1 PUSH2 0x18E4 SWAP2 SWAP1 PUSH2 0x30CC JUMP JUMPDEST PUSH1 0xFF AND DUP2 MSTORE PUSH1 0x1 PUSH1 0x1 PUSH1 0x40 SHL SUB TIMESTAMP AND PUSH1 0x20 DUP1 DUP4 ADD SWAP2 SWAP1 SWAP2 MSTORE PUSH1 0x1 PUSH1 0x40 SWAP3 DUP4 ADD MSTORE CALLER PUSH0 SWAP1 DUP2 MSTORE PUSH1 0xA SWAP1 SWAP2 MSTORE SWAP1 DUP2 KECCAK256 SWAP1 DUP10 DUP10 DUP6 DUP2 DUP2 LT PUSH2 0x1924 JUMPI PUSH2 0x1924 PUSH2 0x2BAA JUMP JUMPDEST PUSH1 0x20 SWAP1 DUP2 MUL SWAP3 SWAP1 SWAP3 ADD CALLDATALOAD DUP4 MSTORE POP DUP2 DUP2 ADD SWAP3 SWAP1 SWAP3 MSTORE PUSH1 0x40 SWAP1 DUP2 ADD PUSH0 KECCAK256 DUP4 MLOAD DUP2 SLOAD SWAP4 DUP6 ADD MLOAD SWAP5 SWAP1 SWAP3 ADD MLOAD PUSH1 0xFF SWAP1 DUP2 AND PUSH1 0x1 PUSH1 0x48 SHL MUL PUSH1 0xFF PUSH1 0x48 SHL NOT PUSH1 0x1 PUSH1 0x1 PUSH1 0x40 SHL SUB SWAP1 SWAP7 AND PUSH2 0x100 MUL PUSH9 0xFFFFFFFFFFFFFFFFFF NOT SWAP1 SWAP6 AND SWAP2 SWAP1 SWAP4 AND OR SWAP3 SWAP1 SWAP3 OR SWAP3 SWAP1 SWAP3 AND SWAP2 SWAP1 SWAP2 OR SWAP1 SSTORE DUP2 MLOAD PUSH1 0x1 SWAP1 DUP4 SWAP1 DUP4 SWAP1 DUP2 LT PUSH2 0x19A4 JUMPI PUSH2 0x19A4 PUSH2 0x2BAA JUMP JUMPDEST PUSH1 0x20 MUL PUSH1 0x20 ADD ADD DUP2 DUP2 MSTORE POP POP DUP7 DUP7 DUP3 DUP2 DUP2 LT PUSH2 0x19C2 JUMPI PUSH2 0x19C2 PUSH2 0x2BAA JUMP JUMPDEST SWAP1 POP PUSH1 0x20 MUL ADD CALLDATALOAD CALLER PUSH1 0x1 PUSH1 0x1 PUSH1 0xA0 SHL SUB AND PUSH32 0xEEA079FECEA4873AEDE971DF0E085EAADFB8311FC3B73BDB10A9469EA7D19227 PUSH1 0x9 PUSH0 DUP12 DUP12 DUP8 DUP2 DUP2 LT PUSH2 0x1A09 JUMPI PUSH2 0x1A09 PUSH2 0x2BAA JUMP JUMPDEST SWAP1 POP PUSH1 0x20 MUL ADD CALLDATALOAD DUP2 MSTORE PUSH1 0x20 ADD SWAP1 DUP2 MSTORE PUSH1 0x20 ADD PUSH0 KECCAK256 DUP9 DUP9 DUP7 DUP2 DUP2 LT PUSH2 0x1A2F JUMPI PUSH2 0x1A2F PUSH2 0x2BAA JUMP JUMPDEST SWAP1 POP PUSH1 0x20 MUL ADD PUSH1 0x20 DUP2 ADD SWAP1 PUSH2 0x1A44 SWAP2 SWAP1 PUSH2 0x30CC JUMP JUMPDEST PUSH1 0x40 MLOAD PUSH2 0x1A52 SWAP3 SWAP2 SWAP1 PUSH2 0x2F3D JUMP JUMPDEST PUSH1 0x40 MLOAD DUP1 SWAP2 SUB SWAP1 LOG3 DUP1 PUSH2 0x1A64 DUP2 PUSH2 0x2B92 JUMP JUMPDEST SWAP2 POP POP PUSH2 0x1725 JUMP JUMPDEST POP PUSH2 0x1AB9 CALLER DUP8 DUP8 DUP1 DUP1 PUSH1 0x20 MUL PUSH1 0x20 ADD PUSH1 0x40 MLOAD SWAP1 DUP2 ADD PUSH1 0x40 MSTORE DUP1 SWAP4 SWAP3 SWAP2 SWAP1 DUP2 DUP2 MSTORE PUSH1 0x20 ADD DUP4 DUP4 PUSH1 0x20 MUL DUP1 DUP3 DUP5 CALLDATACOPY PUSH0 SWAP3 ADD DUP3 SWAP1 MSTORE POP PUSH1 0x40 DUP1 MLOAD PUSH1 0x20 DUP2 ADD SWAP1 SWAP2 MSTORE SWAP1 DUP2 MSTORE DUP8 SWAP4 POP SWAP2 POP PUSH2 0x1E2A SWAP1 POP JUMP JUMPDEST POP POP POP POP POP POP POP JUMP JUMPDEST PUSH1 0x1 PUSH1 0x1 PUSH1 0xA0 SHL SUB DUP3 AND PUSH0 SWAP1 DUP2 MSTORE PUSH1 0xA PUSH1 0x20 SWAP1 DUP2 MSTORE PUSH1 0x40 DUP1 DUP4 KECCAK256 DUP5 DUP5 MSTORE DUP3 MSTORE DUP1 DUP4 KECCAK256 DUP2 MLOAD PUSH1 0x60 DUP2 ADD DUP4 MSTORE SWAP1 SLOAD PUSH1 0xFF DUP1 DUP3 AND DUP4 MSTORE PUSH1 0x1 PUSH1 0x1 PUSH1 0x40 SHL SUB PUSH2 0x100 DUP4 DIV AND SWAP5 DUP4 ADD DUP6 SWAP1 MSTORE PUSH1 0x1 PUSH1 0x48 SHL SWAP1 SWAP2 DIV AND SWAP2 DUP2 ADD SWAP2 SWAP1 SWAP2 MSTORE DUP3 SWAP2 DUP3 SWAP2 DUP3 SWAP2 DUP3 SWAP1 ISZERO PUSH2 0x1B47 JUMPI PUSH3 0x76A700 DUP3 PUSH1 0x20 ADD MLOAD PUSH2 0x1B39 SWAP2 SWAP1 PUSH2 0x2BBE JUMP JUMPDEST PUSH1 0x1 PUSH1 0x1 PUSH1 0x40 SHL SUB AND TIMESTAMP GT SWAP1 POP JUMPDEST DUP2 MLOAD PUSH1 0x20 DUP4 ADD MLOAD PUSH1 0x40 SWAP1 SWAP4 ADD MLOAD SWAP1 SWAP10 SWAP3 SWAP9 POP SWAP7 POP SWAP5 POP SWAP3 POP POP POP JUMP JUMPDEST PUSH1 0x5 SLOAD PUSH1 0x1 PUSH1 0x1 PUSH1 0xA0 SHL SUB AND CALLER EQ PUSH2 0xBF9 JUMPI PUSH1 0x40 MLOAD PUSH4 0x118CDAA7 PUSH1 0xE0 SHL DUP2 MSTORE CALLER PUSH1 0x4 DUP3 ADD MSTORE PUSH1 0x24 ADD PUSH2 0x835 JUMP JUMPDEST PUSH1 0x2 PUSH2 0xC3D DUP3 DUP3 PUSH2 0x3011 JUMP JUMPDEST PUSH1 0x1 PUSH1 0x1 PUSH1 0xA0 SHL SUB DUP5 AND PUSH2 0x1BC5 JUMPI PUSH1 0x40 MLOAD PUSH4 0x2BFA23E7 PUSH1 0xE1 SHL DUP2 MSTORE PUSH0 PUSH1 0x4 DUP3 ADD MSTORE PUSH1 0x24 ADD PUSH2 0x835 JUMP JUMPDEST PUSH1 0x1 PUSH1 0x1 PUSH1 0xA0 SHL SUB DUP6 AND PUSH2 0x1BED JUMPI PUSH1 0x40 MLOAD PUSH3 0x6A0D45 PUSH1 0xE2 SHL DUP2 MSTORE PUSH0 PUSH1 0x4 DUP3 ADD MSTORE PUSH1 0x24 ADD PUSH2 0x835 JUMP JUMPDEST PUSH2 0x1BFA DUP6 DUP6 DUP6 DUP6 DUP6 PUSH2 0x1E66 JUMP JUMPDEST POP POP POP POP POP JUMP JUMPDEST PUSH1 0x1 PUSH1 0x1 PUSH1 0xA0 SHL SUB DUP4 AND PUSH2 0x1C29 JUMPI PUSH1 0x40 MLOAD PUSH3 0x6A0D45 PUSH1 0xE2 SHL DUP2 MSTORE PUSH0 PUSH1 0x4 DUP3 ADD MSTORE PUSH1 0x24 ADD PUSH2 0x835 JUMP JUMPDEST PUSH1 0x40 DUP1 MLOAD PUSH1 0x1 DUP1 DUP3 MSTORE PUSH1 0x20 DUP3 ADD DUP6 SWAP1 MSTORE DUP2 DUP4 ADD SWAP1 DUP2 MSTORE PUSH1 0x60 DUP3 ADD DUP5 SWAP1 MSTORE PUSH1 0xA0 DUP3 ADD SWAP1 SWAP3 MSTORE PUSH0 PUSH1 0x80 DUP3 ADD DUP2 DUP2 MSTORE SWAP2 SWAP3 SWAP2 PUSH2 0x1BFA SWAP2 DUP8 SWAP2 DUP6 SWAP1 DUP6 SWAP1 PUSH2 0x1E66 JUMP JUMPDEST PUSH1 0x5 DUP1 SLOAD PUSH1 0x1 PUSH1 0x1 PUSH1 0xA0 SHL SUB DUP4 DUP2 AND PUSH1 0x1 PUSH1 0x1 PUSH1 0xA0 SHL SUB NOT DUP4 AND DUP2 OR SWAP1 SWAP4 SSTORE PUSH1 0x40 MLOAD SWAP2 AND SWAP2 SWAP1 DUP3 SWAP1 PUSH32 0x8BE0079C531659141344CD1FD0A4F28419497F9722A3DAAFE3B4186F6B6457E0 SWAP1 PUSH0 SWAP1 LOG3 POP POP JUMP JUMPDEST PUSH1 0x1 PUSH1 0x1 PUSH1 0xA0 SHL SUB DUP3 AND PUSH2 0x1CE0 JUMPI PUSH1 0x40 MLOAD PUSH3 0xCED3E1 PUSH1 0xE8 SHL DUP2 MSTORE PUSH0 PUSH1 0x4 DUP3 ADD MSTORE PUSH1 0x24 ADD PUSH2 0x835 JUMP JUMPDEST PUSH1 0x1 PUSH1 0x1 PUSH1 0xA0 SHL SUB DUP4 DUP2 AND PUSH0 DUP2 DUP2 MSTORE PUSH1 0x1 PUSH1 0x20 SWAP1 DUP2 MSTORE PUSH1 0x40 DUP1 DUP4 KECCAK256 SWAP5 DUP8 AND DUP1 DUP5 MSTORE SWAP5 DUP3 MSTORE SWAP2 DUP3 SWAP1 KECCAK256 DUP1 SLOAD PUSH1 0xFF NOT AND DUP7 ISZERO ISZERO SWAP1 DUP2 OR SWAP1 SWAP2 SSTORE SWAP2 MLOAD SWAP2 DUP3 MSTORE PUSH32 0x17307EAB39AB6107E8899845AD3D59BD9653F200F220920489CA2B5937696C31 SWAP2 ADD PUSH1 0x40 MLOAD DUP1 SWAP2 SUB SWAP1 LOG3 POP POP POP JUMP JUMPDEST PUSH1 0x1 PUSH1 0x1 PUSH1 0xA0 SHL SUB DUP5 AND PUSH2 0x1D75 JUMPI PUSH1 0x40 MLOAD PUSH4 0x2BFA23E7 PUSH1 0xE1 SHL DUP2 MSTORE PUSH0 PUSH1 0x4 DUP3 ADD MSTORE PUSH1 0x24 ADD PUSH2 0x835 JUMP JUMPDEST PUSH1 0x40 DUP1 MLOAD PUSH1 0x1 DUP1 DUP3 MSTORE PUSH1 0x20 DUP3 ADD DUP7 SWAP1 MSTORE DUP2 DUP4 ADD SWAP1 DUP2 MSTORE PUSH1 0x60 DUP3 ADD DUP6 SWAP1 MSTORE PUSH1 0x80 DUP3 ADD SWAP1 SWAP3 MSTORE SWAP1 PUSH2 0x84B PUSH0 DUP8 DUP5 DUP5 DUP8 PUSH2 0x1E66 JUMP JUMPDEST PUSH1 0x1 PUSH1 0x1 PUSH1 0xA0 SHL SUB DUP5 AND PUSH2 0x1DD0 JUMPI PUSH1 0x40 MLOAD PUSH4 0x2BFA23E7 PUSH1 0xE1 SHL DUP2 MSTORE PUSH0 PUSH1 0x4 DUP3 ADD MSTORE PUSH1 0x24 ADD PUSH2 0x835 JUMP JUMPDEST PUSH1 0x1 PUSH1 0x1 PUSH1 0xA0 SHL SUB DUP6 AND PUSH2 0x1DF8 JUMPI PUSH1 0x40 MLOAD PUSH3 0x6A0D45 PUSH1 0xE2 SHL DUP2 MSTORE PUSH0 PUSH1 0x4 DUP3 ADD MSTORE PUSH1 0x24 ADD PUSH2 0x835 JUMP JUMPDEST PUSH1 0x40 DUP1 MLOAD PUSH1 0x1 DUP1 DUP3 MSTORE PUSH1 0x20 DUP3 ADD DUP7 SWAP1 MSTORE DUP2 DUP4 ADD SWAP1 DUP2 MSTORE PUSH1 0x60 DUP3 ADD DUP6 SWAP1 MSTORE PUSH1 0x80 DUP3 ADD SWAP1 SWAP3 MSTORE SWAP1 PUSH2 0x1AB9 DUP8 DUP8 DUP5 DUP5 DUP8 PUSH2 0x1E66 JUMP JUMPDEST PUSH1 0x1 PUSH1 0x1 PUSH1 0xA0 SHL SUB DUP5 AND PUSH2 0x1E53 JUMPI PUSH1 0x40 MLOAD PUSH4 0x2BFA23E7 PUSH1 0xE1 SHL DUP2 MSTORE PUSH0 PUSH1 0x4 DUP3 ADD MSTORE PUSH1 0x24 ADD PUSH2 0x835 JUMP JUMPDEST PUSH2 0x1E60 PUSH0 DUP6 DUP6 DUP6 DUP6 PUSH2 0x1E66 JUMP JUMPDEST POP POP POP POP JUMP JUMPDEST PUSH2 0x1E72 DUP6 DUP6 DUP6 DUP6 PUSH2 0x1EB9 JUMP JUMPDEST PUSH1 0x1 PUSH1 0x1 PUSH1 0xA0 SHL SUB DUP5 AND ISZERO PUSH2 0x1BFA JUMPI DUP3 MLOAD CALLER SWAP1 PUSH1 0x1 SUB PUSH2 0x1EAB JUMPI PUSH1 0x20 DUP5 DUP2 ADD MLOAD SWAP1 DUP5 ADD MLOAD PUSH2 0x1EA4 DUP4 DUP10 DUP10 DUP6 DUP6 DUP10 PUSH2 0x1F3E JUMP JUMPDEST POP POP PUSH2 0x84B JUMP JUMPDEST PUSH2 0x84B DUP2 DUP8 DUP8 DUP8 DUP8 DUP8 PUSH2 0x205F JUMP JUMPDEST PUSH1 0x1 PUSH1 0x1 PUSH1 0xA0 SHL SUB DUP5 AND ISZERO DUP1 ISZERO SWAP1 PUSH2 0x1ED9 JUMPI POP PUSH1 0x1 PUSH1 0x1 PUSH1 0xA0 SHL SUB DUP4 AND ISZERO ISZERO JUMPDEST ISZERO PUSH2 0x1F32 JUMPI PUSH1 0x40 MLOAD PUSH3 0x461BCD PUSH1 0xE5 SHL DUP2 MSTORE PUSH1 0x20 PUSH1 0x4 DUP3 ADD MSTORE PUSH1 0x24 DUP1 DUP3 ADD MSTORE PUSH32 0x536F756C626F756E643A20546F6B656E206973206E6F6E2D7472616E73666572 PUSH1 0x44 DUP3 ADD MSTORE PUSH4 0x61626C65 PUSH1 0xE0 SHL PUSH1 0x64 DUP3 ADD MSTORE PUSH1 0x84 ADD PUSH2 0x835 JUMP JUMPDEST PUSH2 0x1E60 DUP5 DUP5 DUP5 DUP5 PUSH2 0x2146 JUMP JUMPDEST PUSH1 0x1 PUSH1 0x1 PUSH1 0xA0 SHL SUB DUP5 AND EXTCODESIZE ISZERO PUSH2 0x84B JUMPI PUSH1 0x40 MLOAD PUSH4 0xF23A6E61 PUSH1 0xE0 SHL DUP2 MSTORE PUSH1 0x1 PUSH1 0x1 PUSH1 0xA0 SHL SUB DUP6 AND SWAP1 PUSH4 0xF23A6E61 SWAP1 PUSH2 0x1F82 SWAP1 DUP10 SWAP1 DUP10 SWAP1 DUP9 SWAP1 DUP9 SWAP1 DUP9 SWAP1 PUSH1 0x4 ADD PUSH2 0x30E5 JUMP JUMPDEST PUSH1 0x20 PUSH1 0x40 MLOAD DUP1 DUP4 SUB DUP2 PUSH0 DUP8 GAS CALL SWAP3 POP POP POP DUP1 ISZERO PUSH2 0x1FBC JUMPI POP PUSH1 0x40 DUP1 MLOAD PUSH1 0x1F RETURNDATASIZE SWAP1 DUP2 ADD PUSH1 0x1F NOT AND DUP3 ADD SWAP1 SWAP3 MSTORE PUSH2 0x1FB9 SWAP2 DUP2 ADD SWAP1 PUSH2 0x3129 JUMP JUMPDEST PUSH1 0x1 JUMPDEST PUSH2 0x2023 JUMPI RETURNDATASIZE DUP1 DUP1 ISZERO PUSH2 0x1FE9 JUMPI PUSH1 0x40 MLOAD SWAP2 POP PUSH1 0x1F NOT PUSH1 0x3F RETURNDATASIZE ADD AND DUP3 ADD PUSH1 0x40 MSTORE RETURNDATASIZE DUP3 MSTORE RETURNDATASIZE PUSH0 PUSH1 0x20 DUP5 ADD RETURNDATACOPY PUSH2 0x1FEE JUMP JUMPDEST PUSH1 0x60 SWAP2 POP JUMPDEST POP DUP1 MLOAD PUSH0 SUB PUSH2 0x201B JUMPI PUSH1 0x40 MLOAD PUSH4 0x2BFA23E7 PUSH1 0xE1 SHL DUP2 MSTORE PUSH1 0x1 PUSH1 0x1 PUSH1 0xA0 SHL SUB DUP7 AND PUSH1 0x4 DUP3 ADD MSTORE PUSH1 0x24 ADD PUSH2 0x835 JUMP JUMPDEST DUP1 MLOAD PUSH1 0x20 DUP3 ADD REVERT JUMPDEST PUSH1 0x1 PUSH1 0x1 PUSH1 0xE0 SHL SUB NOT DUP2 AND PUSH4 0xF23A6E61 PUSH1 0xE0 SHL EQ PUSH2 0x1AB9 JUMPI PUSH1 0x40 MLOAD PUSH4 0x2BFA23E7 PUSH1 0xE1 SHL DUP2 MSTORE PUSH1 0x1 PUSH1 0x1 PUSH1 0xA0 SHL SUB DUP7 AND PUSH1 0x4 DUP3 ADD MSTORE PUSH1 0x24 ADD PUSH2 0x835 JUMP JUMPDEST PUSH1 0x1 PUSH1 0x1 PUSH1 0xA0 SHL SUB DUP5 AND EXTCODESIZE ISZERO PUSH2 0x84B JUMPI PUSH1 0x40 MLOAD PUSH4 0xBC197C81 PUSH1 0xE0 SHL DUP2 MSTORE PUSH1 0x1 PUSH1 0x1 PUSH1 0xA0 SHL SUB DUP6 AND SWAP1 PUSH4 0xBC197C81 SWAP1 PUSH2 0x20A3 SWAP1 DUP10 SWAP1 DUP10 SWAP1 DUP9 SWAP1 DUP9 SWAP1 DUP9 SWAP1 PUSH1 0x4 ADD PUSH2 0x3144 JUMP JUMPDEST PUSH1 0x20 PUSH1 0x40 MLOAD DUP1 DUP4 SUB DUP2 PUSH0 DUP8 GAS CALL SWAP3 POP POP POP DUP1 ISZERO PUSH2 0x20DD JUMPI POP PUSH1 0x40 DUP1 MLOAD PUSH1 0x1F RETURNDATASIZE SWAP1 DUP2 ADD PUSH1 0x1F NOT AND DUP3 ADD SWAP1 SWAP3 MSTORE PUSH2 0x20DA SWAP2 DUP2 ADD SWAP1 PUSH2 0x3129 JUMP JUMPDEST PUSH1 0x1 JUMPDEST PUSH2 0x210A JUMPI RETURNDATASIZE DUP1 DUP1 ISZERO PUSH2 0x1FE9 JUMPI PUSH1 0x40 MLOAD SWAP2 POP PUSH1 0x1F NOT PUSH1 0x3F RETURNDATASIZE ADD AND DUP3 ADD PUSH1 0x40 MSTORE RETURNDATASIZE DUP3 MSTORE RETURNDATASIZE PUSH0 PUSH1 0x20 DUP5 ADD RETURNDATACOPY PUSH2 0x1FEE JUMP JUMPDEST PUSH1 0x1 PUSH1 0x1 PUSH1 0xE0 SHL SUB NOT DUP2 AND PUSH4 0xBC197C81 PUSH1 0xE0 SHL EQ PUSH2 0x1AB9 JUMPI PUSH1 0x40 MLOAD PUSH4 0x2BFA23E7 PUSH1 0xE1 SHL DUP2 MSTORE PUSH1 0x1 PUSH1 0x1 PUSH1 0xA0 SHL SUB DUP7 AND PUSH1 0x4 DUP3 ADD MSTORE PUSH1 0x24 ADD PUSH2 0x835 JUMP JUMPDEST PUSH2 0x2152 DUP5 DUP5 DUP5 DUP5 PUSH2 0x223E JUMP JUMPDEST PUSH1 0x1 PUSH1 0x1 PUSH1 0xA0 SHL SUB DUP5 AND PUSH2 0x21D8 JUMPI PUSH0 DUP1 JUMPDEST DUP4 MLOAD DUP2 LT ISZERO PUSH2 0x21BF JUMPI PUSH1 0x20 DUP2 DUP2 MUL DUP5 DUP2 ADD DUP3 ADD MLOAD SWAP1 DUP7 ADD DUP3 ADD MLOAD PUSH0 SWAP1 DUP2 MSTORE PUSH1 0x3 SWAP1 SWAP3 MSTORE PUSH1 0x40 DUP3 KECCAK256 DUP1 SLOAD SWAP2 SWAP3 DUP4 SWAP3 PUSH2 0x219B SWAP1 DUP5 SWAP1 PUSH2 0x31A1 JUMP JUMPDEST SWAP1 SWAP2 SSTORE POP PUSH2 0x21AB SWAP1 POP DUP2 DUP5 PUSH2 0x31A1 JUMP JUMPDEST SWAP3 POP POP DUP1 PUSH2 0x21B8 SWAP1 PUSH2 0x2B92 JUMP JUMPDEST SWAP1 POP PUSH2 0x2163 JUMP JUMPDEST POP DUP1 PUSH1 0x4 PUSH0 DUP3 DUP3 SLOAD PUSH2 0x21D1 SWAP2 SWAP1 PUSH2 0x31A1 JUMP JUMPDEST SWAP1 SWAP2 SSTORE POP POP POP JUMPDEST PUSH1 0x1 PUSH1 0x1 PUSH1 0xA0 SHL SUB DUP4 AND PUSH2 0x1E60 JUMPI PUSH0 DUP1 JUMPDEST DUP4 MLOAD DUP2 LT ISZERO PUSH2 0x222D JUMPI PUSH1 0x20 DUP2 DUP2 MUL DUP5 DUP2 ADD DUP3 ADD MLOAD SWAP1 DUP7 ADD DUP3 ADD MLOAD PUSH0 SWAP1 DUP2 MSTORE PUSH1 0x3 SWAP1 SWAP3 MSTORE PUSH1 0x40 SWAP1 SWAP2 KECCAK256 DUP1 SLOAD DUP3 SWAP1 SUB SWAP1 SSTORE SWAP2 SWAP1 SWAP2 ADD SWAP1 PUSH2 0x2226 DUP2 PUSH2 0x2B92 JUMP JUMPDEST SWAP1 POP PUSH2 0x21E9 JUMP JUMPDEST POP PUSH1 0x4 DUP1 SLOAD SWAP2 SWAP1 SWAP2 SUB SWAP1 SSTORE POP POP POP POP JUMP JUMPDEST DUP1 MLOAD DUP3 MLOAD EQ PUSH2 0x226D JUMPI DUP2 MLOAD DUP2 MLOAD PUSH1 0x40 MLOAD PUSH4 0x5B059991 PUSH1 0xE0 SHL DUP2 MSTORE PUSH1 0x4 DUP2 ADD SWAP3 SWAP1 SWAP3 MSTORE PUSH1 0x24 DUP3 ADD MSTORE PUSH1 0x44 ADD PUSH2 0x835 JUMP JUMPDEST CALLER PUSH0 JUMPDEST DUP4 MLOAD DUP2 LT ISZERO PUSH2 0x2378 JUMPI PUSH1 0x20 DUP2 DUP2 MUL DUP6 DUP2 ADD DUP3 ADD MLOAD SWAP1 DUP6 ADD SWAP1 SWAP2 ADD MLOAD PUSH1 0x1 PUSH1 0x1 PUSH1 0xA0 SHL SUB DUP9 AND ISZERO PUSH2 0x2321 JUMPI PUSH0 DUP3 DUP2 MSTORE PUSH1 0x20 DUP2 DUP2 MSTORE PUSH1 0x40 DUP1 DUP4 KECCAK256 PUSH1 0x1 PUSH1 0x1 PUSH1 0xA0 SHL SUB DUP13 AND DUP5 MSTORE SWAP1 SWAP2 MSTORE SWAP1 KECCAK256 SLOAD DUP2 DUP2 LT ISZERO PUSH2 0x22FB JUMPI PUSH1 0x40 MLOAD PUSH4 0x3DEE4C5 PUSH1 0xE0 SHL DUP2 MSTORE PUSH1 0x1 PUSH1 0x1 PUSH1 0xA0 SHL SUB DUP11 AND PUSH1 0x4 DUP3 ADD MSTORE PUSH1 0x24 DUP2 ADD DUP3 SWAP1 MSTORE PUSH1 0x44 DUP2 ADD DUP4 SWAP1 MSTORE PUSH1 0x64 DUP2 ADD DUP5 SWAP1 MSTORE PUSH1 0x84 ADD PUSH2 0x835 JUMP JUMPDEST PUSH0 DUP4 DUP2 MSTORE PUSH1 0x20 DUP2 DUP2 MSTORE PUSH1 0x40 DUP1 DUP4 KECCAK256 PUSH1 0x1 PUSH1 0x1 PUSH1 0xA0 SHL SUB DUP14 AND DUP5 MSTORE SWAP1 SWAP2 MSTORE SWAP1 KECCAK256 SWAP1 DUP3 SWAP1 SUB SWAP1 SSTORE JUMPDEST PUSH1 0x1 PUSH1 0x1 PUSH1 0xA0 SHL SUB DUP8 AND ISZERO PUSH2 0x2365 JUMPI PUSH0 DUP3 DUP2 MSTORE PUSH1 0x20 DUP2 DUP2 MSTORE PUSH1 0x40 DUP1 DUP4 KECCAK256 PUSH1 0x1 PUSH1 0x1 PUSH1 0xA0 SHL SUB DUP12 AND DUP5 MSTORE SWAP1 SWAP2 MSTORE DUP2 KECCAK256 DUP1 SLOAD DUP4 SWAP3 SWAP1 PUSH2 0x235F SWAP1 DUP5 SWAP1 PUSH2 0x31A1 JUMP JUMPDEST SWAP1 SWAP2 SSTORE POP POP JUMPDEST POP POP DUP1 PUSH2 0x2371 SWAP1 PUSH2 0x2B92 JUMP JUMPDEST SWAP1 POP PUSH2 0x2270 JUMP JUMPDEST POP DUP3 MLOAD PUSH1 0x1 SUB PUSH2 0x23F8 JUMPI PUSH1 0x20 DUP4 ADD MLOAD PUSH0 SWAP1 PUSH1 0x20 DUP5 ADD MLOAD SWAP1 SWAP2 POP DUP6 PUSH1 0x1 PUSH1 0x1 PUSH1 0xA0 SHL SUB AND DUP8 PUSH1 0x1 PUSH1 0x1 PUSH1 0xA0 SHL SUB AND DUP5 PUSH1 0x1 PUSH1 0x1 PUSH1 0xA0 SHL SUB AND PUSH32 0xC3D58168C5AE7397731D063D5BBF3D657854427343F4C083240F7AACAA2D0F62 DUP6 DUP6 PUSH1 0x40 MLOAD PUSH2 0x23E9 SWAP3 SWAP2 SWAP1 SWAP2 DUP3 MSTORE PUSH1 0x20 DUP3 ADD MSTORE PUSH1 0x40 ADD SWAP1 JUMP JUMPDEST PUSH1 0x40 MLOAD DUP1 SWAP2 SUB SWAP1 LOG4 POP POP PUSH2 0x1BFA JUMP JUMPDEST DUP4 PUSH1 0x1 PUSH1 0x1 PUSH1 0xA0 SHL SUB AND DUP6 PUSH1 0x1 PUSH1 0x1 PUSH1 0xA0 SHL SUB AND DUP3 PUSH1 0x1 PUSH1 0x1 PUSH1 0xA0 SHL SUB AND PUSH32 0x4A39DC06D4C0DBC64B70AF90FD698A233A518AA5D07E595D983B8C0526C8F7FB DUP7 DUP7 PUSH1 0x40 MLOAD PUSH2 0x2447 SWAP3 SWAP2 SWAP1 PUSH2 0x31B4 JUMP JUMPDEST PUSH1 0x40 MLOAD DUP1 SWAP2 SUB SWAP1 LOG4 POP POP POP POP POP JUMP JUMPDEST DUP1 CALLDATALOAD PUSH1 0x1 PUSH1 0x1 PUSH1 0xA0 SHL SUB DUP2 AND DUP2 EQ PUSH2 0x246C JUMPI PUSH0 DUP1 REVERT JUMPDEST SWAP2 SWAP1 POP JUMP JUMPDEST PUSH0 DUP1 PUSH1 0x40 DUP4 DUP6 SUB SLT ISZERO PUSH2 0x2482 JUMPI PUSH0 DUP1 REVERT JUMPDEST PUSH2 0x248B DUP4 PUSH2 0x2456 JUMP JUMPDEST SWAP5 PUSH1 0x20 SWAP4 SWAP1 SWAP4 ADD CALLDATALOAD SWAP4 POP POP POP JUMP JUMPDEST PUSH1 0x1 PUSH1 0x1 PUSH1 0xE0 SHL SUB NOT DUP2 AND DUP2 EQ PUSH2 0x6C6 JUMPI PUSH0 DUP1 REVERT JUMPDEST PUSH0 PUSH1 0x20 DUP3 DUP5 SUB SLT ISZERO PUSH2 0x24BE JUMPI PUSH0 DUP1 REVERT JUMPDEST DUP2 CALLDATALOAD PUSH2 0x24C9 DUP2 PUSH2 0x2499 JUMP JUMPDEST SWAP4 SWAP3 POP POP POP JUMP JUMPDEST PUSH4 0x4E487B71 PUSH1 0xE0 SHL PUSH0 MSTORE PUSH1 0x41 PUSH1 0x4 MSTORE PUSH1 0x24 PUSH0 REVERT JUMPDEST PUSH1 0x40 MLOAD PUSH1 0x1F DUP3 ADD PUSH1 0x1F NOT AND DUP2 ADD PUSH1 0x1 PUSH1 0x1 PUSH1 0x40 SHL SUB DUP2 GT DUP3 DUP3 LT OR ISZERO PUSH2 0x250C JUMPI PUSH2 0x250C PUSH2 0x24D0 JUMP JUMPDEST PUSH1 0x40 MSTORE SWAP2 SWAP1 POP JUMP JUMPDEST PUSH0 DUP3 PUSH1 0x1F DUP4 ADD SLT PUSH2 0x2523 JUMPI PUSH0 DUP1 REVERT JUMPDEST DUP2 CALLDATALOAD PUSH1 0x1 PUSH1 0x1 PUSH1 0x40 SHL SUB DUP2 GT ISZERO PUSH2 0x253C JUMPI PUSH2 0x253C PUSH2 0x24D0 JUMP JUMPDEST PUSH2 0x254F PUSH1 0x1F DUP3 ADD PUSH1 0x1F NOT AND PUSH1 0x20 ADD PUSH2 0x24E4 JUMP JUMPDEST DUP2 DUP2 MSTORE DUP5 PUSH1 0x20 DUP4 DUP7 ADD ADD GT ISZERO PUSH2 0x2563 JUMPI PUSH0 DUP1 REVERT JUMPDEST DUP2 PUSH1 0x20 DUP6 ADD PUSH1 0x20 DUP4 ADD CALLDATACOPY PUSH0 SWAP2 DUP2 ADD PUSH1 0x20 ADD SWAP2 SWAP1 SWAP2 MSTORE SWAP4 SWAP3 POP POP POP JUMP JUMPDEST PUSH0 PUSH1 0x20 DUP3 DUP5 SUB SLT ISZERO PUSH2 0x258F JUMPI PUSH0 DUP1 REVERT JUMPDEST DUP2 CALLDATALOAD PUSH1 0x1 PUSH1 0x1 PUSH1 0x40 SHL SUB DUP2 GT ISZERO PUSH2 0x25A4 JUMPI PUSH0 DUP1 REVERT JUMPDEST PUSH2 0x25B0 DUP5 DUP3 DUP6 ADD PUSH2 0x2514 JUMP JUMPDEST SWAP5 SWAP4 POP POP POP POP JUMP JUMPDEST PUSH0 DUP2 MLOAD DUP1 DUP5 MSTORE PUSH0 JUMPDEST DUP2 DUP2 LT ISZERO PUSH2 0x25DC JUMPI PUSH1 0x20 DUP2 DUP6 ADD DUP2 ADD MLOAD DUP7 DUP4 ADD DUP3 ADD MSTORE ADD PUSH2 0x25C0 JUMP JUMPDEST POP PUSH0 PUSH1 0x20 DUP3 DUP7 ADD ADD MSTORE PUSH1 0x20 PUSH1 0x1F NOT PUSH1 0x1F DUP4 ADD AND DUP6 ADD ADD SWAP2 POP POP SWAP3 SWAP2 POP POP JUMP JUMPDEST PUSH1 0x20 DUP2 MSTORE PUSH0 PUSH2 0x24C9 PUSH1 0x20 DUP4 ADD DUP5 PUSH2 0x25B8 JUMP JUMPDEST PUSH0 PUSH1 0x20 DUP3 DUP5 SUB SLT ISZERO PUSH2 0x261D JUMPI PUSH0 DUP1 REVERT JUMPDEST POP CALLDATALOAD SWAP2 SWAP1 POP JUMP JUMPDEST PUSH0 PUSH1 0x1 PUSH1 0x1 PUSH1 0x40 SHL SUB DUP3 GT ISZERO PUSH2 0x263C JUMPI PUSH2 0x263C PUSH2 0x24D0 JUMP JUMPDEST POP PUSH1 0x5 SHL PUSH1 0x20 ADD SWAP1 JUMP JUMPDEST PUSH0 DUP3 PUSH1 0x1F DUP4 ADD SLT PUSH2 0x2655 JUMPI PUSH0 DUP1 REVERT JUMPDEST DUP2 CALLDATALOAD PUSH1 0x20 PUSH2 0x266A PUSH2 0x2665 DUP4 PUSH2 0x2624 JUMP JUMPDEST PUSH2 0x24E4 JUMP JUMPDEST DUP3 DUP2 MSTORE PUSH1 0x5 SWAP3 SWAP1 SWAP3 SHL DUP5 ADD DUP2 ADD SWAP2 DUP2 DUP2 ADD SWAP1 DUP7 DUP5 GT ISZERO PUSH2 0x2688 JUMPI PUSH0 DUP1 REVERT JUMPDEST DUP3 DUP7 ADD JUMPDEST DUP5 DUP2 LT ISZERO PUSH2 0x26A3 JUMPI DUP1 CALLDATALOAD DUP4 MSTORE SWAP2 DUP4 ADD SWAP2 DUP4 ADD PUSH2 0x268C JUMP JUMPDEST POP SWAP7 SWAP6 POP POP POP POP POP POP JUMP JUMPDEST PUSH0 DUP1 PUSH0 DUP1 PUSH0 PUSH1 0xA0 DUP7 DUP9 SUB SLT ISZERO PUSH2 0x26C2 JUMPI PUSH0 DUP1 REVERT JUMPDEST PUSH2 0x26CB DUP7 PUSH2 0x2456 JUMP JUMPDEST SWAP5 POP PUSH2 0x26D9 PUSH1 0x20 DUP8 ADD PUSH2 0x2456 JUMP JUMPDEST SWAP4 POP PUSH1 0x40 DUP7 ADD CALLDATALOAD PUSH1 0x1 PUSH1 0x1 PUSH1 0x40 SHL SUB DUP1 DUP3 GT ISZERO PUSH2 0x26F4 JUMPI PUSH0 DUP1 REVERT JUMPDEST PUSH2 0x2700 DUP10 DUP4 DUP11 ADD PUSH2 0x2646 JUMP JUMPDEST SWAP5 POP PUSH1 0x60 DUP9 ADD CALLDATALOAD SWAP2 POP DUP1 DUP3 GT ISZERO PUSH2 0x2715 JUMPI PUSH0 DUP1 REVERT JUMPDEST PUSH2 0x2721 DUP10 DUP4 DUP11 ADD PUSH2 0x2646 JUMP JUMPDEST SWAP4 POP PUSH1 0x80 DUP9 ADD CALLDATALOAD SWAP2 POP DUP1 DUP3 GT ISZERO PUSH2 0x2736 JUMPI PUSH0 DUP1 REVERT JUMPDEST POP PUSH2 0x2743 DUP9 DUP3 DUP10 ADD PUSH2 0x2514 JUMP JUMPDEST SWAP2 POP POP SWAP3 SWAP6 POP SWAP3 SWAP6 SWAP1 SWAP4 POP JUMP JUMPDEST PUSH0 PUSH1 0x20 DUP3 DUP5 SUB SLT ISZERO PUSH2 0x2760 JUMPI PUSH0 DUP1 REVERT JUMPDEST PUSH2 0x24C9 DUP3 PUSH2 0x2456 JUMP JUMPDEST PUSH0 DUP2 MLOAD DUP1 DUP5 MSTORE PUSH1 0x20 DUP1 DUP6 ADD SWAP5 POP DUP1 DUP5 ADD PUSH0 JUMPDEST DUP4 DUP2 LT ISZERO PUSH2 0x2797 JUMPI DUP2 MLOAD DUP8 MSTORE SWAP6 DUP3 ADD SWAP6 SWAP1 DUP3 ADD SWAP1 PUSH1 0x1 ADD PUSH2 0x277B JUMP JUMPDEST POP SWAP5 SWAP6 SWAP5 POP POP POP POP POP JUMP JUMPDEST PUSH1 0x20 DUP2 MSTORE PUSH0 PUSH2 0x24C9 PUSH1 0x20 DUP4 ADD DUP5 PUSH2 0x2769 JUMP JUMPDEST PUSH0 DUP1 PUSH1 0x40 DUP4 DUP6 SUB SLT ISZERO PUSH2 0x27C5 JUMPI PUSH0 DUP1 REVERT JUMPDEST DUP3 CALLDATALOAD PUSH1 0x1 PUSH1 0x1 PUSH1 0x40 SHL SUB DUP1 DUP3 GT ISZERO PUSH2 0x27DB JUMPI PUSH0 DUP1 REVERT JUMPDEST DUP2 DUP6 ADD SWAP2 POP DUP6 PUSH1 0x1F DUP4 ADD SLT PUSH2 0x27EE JUMPI PUSH0 DUP1 REVERT JUMPDEST DUP2 CALLDATALOAD PUSH1 0x20 PUSH2 0x27FE PUSH2 0x2665 DUP4 PUSH2 0x2624 JUMP JUMPDEST DUP3 DUP2 MSTORE PUSH1 0x5 SWAP3 SWAP1 SWAP3 SHL DUP5 ADD DUP2 ADD SWAP2 DUP2 DUP2 ADD SWAP1 DUP10 DUP5 GT ISZERO PUSH2 0x281C JUMPI PUSH0 DUP1 REVERT JUMPDEST SWAP5 DUP3 ADD SWAP5 JUMPDEST DUP4 DUP7 LT ISZERO PUSH2 0x2841 JUMPI PUSH2 0x2832 DUP7 PUSH2 0x2456 JUMP JUMPDEST DUP3 MSTORE SWAP5 DUP3 ADD SWAP5 SWAP1 DUP3 ADD SWAP1 PUSH2 0x2821 JUMP JUMPDEST SWAP7 POP POP DUP7 ADD CALLDATALOAD SWAP3 POP POP DUP1 DUP3 GT ISZERO PUSH2 0x2856 JUMPI PUSH0 DUP1 REVERT JUMPDEST POP PUSH2 0x2863 DUP6 DUP3 DUP7 ADD PUSH2 0x2646 JUMP JUMPDEST SWAP2 POP POP SWAP3 POP SWAP3 SWAP1 POP JUMP JUMPDEST PUSH0 DUP1 PUSH1 0x40 DUP4 DUP6 SUB SLT ISZERO PUSH2 0x287E JUMPI PUSH0 DUP1 REVERT JUMPDEST PUSH2 0x2887 DUP4 PUSH2 0x2456 JUMP JUMPDEST SWAP2 POP PUSH1 0x20 DUP4 ADD CALLDATALOAD DUP1 ISZERO ISZERO DUP2 EQ PUSH2 0x289B JUMPI PUSH0 DUP1 REVERT JUMPDEST DUP1 SWAP2 POP POP SWAP3 POP SWAP3 SWAP1 POP JUMP JUMPDEST PUSH0 PUSH1 0x40 DUP3 DUP5 SUB SLT ISZERO PUSH2 0x28B6 JUMPI PUSH0 DUP1 REVERT JUMPDEST POP SWAP2 SWAP1 POP JUMP JUMPDEST DUP1 CALLDATALOAD PUSH1 0xFF DUP2 AND DUP2 EQ PUSH2 0x246C JUMPI PUSH0 DUP1 REVERT JUMPDEST PUSH0 DUP1 PUSH0 PUSH1 0x60 DUP5 DUP7 SUB SLT ISZERO PUSH2 0x28DE JUMPI PUSH0 DUP1 REVERT JUMPDEST DUP4 CALLDATALOAD PUSH1 0x1 PUSH1 0x1 PUSH1 0x40 SHL SUB DUP2 GT ISZERO PUSH2 0x28F3 JUMPI PUSH0 DUP1 REVERT JUMPDEST PUSH2 0x28FF DUP7 DUP3 DUP8 ADD PUSH2 0x28A6 JUMP JUMPDEST SWAP4 POP POP PUSH1 0x20 DUP5 ADD CALLDATALOAD SWAP2 POP PUSH2 0x2915 PUSH1 0x40 DUP6 ADD PUSH2 0x28BC JUMP JUMPDEST SWAP1 POP SWAP3 POP SWAP3 POP SWAP3 JUMP JUMPDEST PUSH0 DUP1 PUSH1 0x40 DUP4 DUP6 SUB SLT ISZERO PUSH2 0x292F JUMPI PUSH0 DUP1 REVERT JUMPDEST DUP3 CALLDATALOAD SWAP2 POP PUSH1 0x20 DUP4 ADD CALLDATALOAD PUSH1 0x1 PUSH1 0x1 PUSH1 0x40 SHL SUB DUP2 GT ISZERO PUSH2 0x294B JUMPI PUSH0 DUP1 REVERT JUMPDEST PUSH2 0x2863 DUP6 DUP3 DUP7 ADD PUSH2 0x2514 JUMP JUMPDEST PUSH1 0x60 DUP2 MSTORE PUSH0 PUSH2 0x2969 PUSH1 0x60 DUP4 ADD DUP7 PUSH2 0x2769 JUMP JUMPDEST DUP3 DUP2 SUB PUSH1 0x20 DUP5 DUP2 ADD SWAP2 SWAP1 SWAP2 MSTORE DUP6 MLOAD DUP1 DUP4 MSTORE DUP7 DUP3 ADD SWAP3 DUP3 ADD SWAP1 PUSH0 JUMPDEST DUP2 DUP2 LT ISZERO PUSH2 0x29A2 JUMPI DUP5 MLOAD PUSH1 0xFF AND DUP4 MSTORE SWAP4 DUP4 ADD SWAP4 SWAP2 DUP4 ADD SWAP2 PUSH1 0x1 ADD PUSH2 0x2983 JUMP JUMPDEST POP POP DUP5 DUP2 SUB PUSH1 0x40 DUP7 ADD MSTORE DUP6 MLOAD DUP1 DUP3 MSTORE SWAP1 DUP3 ADD SWAP3 POP DUP2 DUP7 ADD SWAP1 PUSH0 JUMPDEST DUP2 DUP2 LT ISZERO PUSH2 0x29DA JUMPI DUP3 MLOAD ISZERO ISZERO DUP6 MSTORE SWAP4 DUP4 ADD SWAP4 SWAP2 DUP4 ADD SWAP2 PUSH1 0x1 ADD PUSH2 0x29BC JUMP JUMPDEST POP SWAP3 SWAP9 SWAP8 POP POP POP POP POP POP POP POP JUMP JUMPDEST PUSH0 DUP1 PUSH1 0x40 DUP4 DUP6 SUB SLT ISZERO PUSH2 0x29F9 JUMPI PUSH0 DUP1 REVERT JUMPDEST PUSH2 0x2A02 DUP4 PUSH2 0x2456 JUMP JUMPDEST SWAP2 POP PUSH2 0x2A10 PUSH1 0x20 DUP5 ADD PUSH2 0x2456 JUMP JUMPDEST SWAP1 POP SWAP3 POP SWAP3 SWAP1 POP JUMP JUMPDEST PUSH0 DUP1 PUSH0 DUP1 PUSH0 PUSH1 0xA0 DUP7 DUP9 SUB SLT ISZERO PUSH2 0x2A2D JUMPI PUSH0 DUP1 REVERT JUMPDEST PUSH2 0x2A36 DUP7 PUSH2 0x2456 JUMP JUMPDEST SWAP5 POP PUSH2 0x2A44 PUSH1 0x20 DUP8 ADD PUSH2 0x2456 JUMP JUMPDEST SWAP4 POP PUSH1 0x40 DUP7 ADD CALLDATALOAD SWAP3 POP PUSH1 0x60 DUP7 ADD CALLDATALOAD SWAP2 POP PUSH1 0x80 DUP7 ADD CALLDATALOAD PUSH1 0x1 PUSH1 0x1 PUSH1 0x40 SHL SUB DUP2 GT ISZERO PUSH2 0x2A6C JUMPI PUSH0 DUP1 REVERT JUMPDEST PUSH2 0x2743 DUP9 DUP3 DUP10 ADD PUSH2 0x2514 JUMP JUMPDEST PUSH0 DUP1 DUP4 PUSH1 0x1F DUP5 ADD SLT PUSH2 0x2A88 JUMPI PUSH0 DUP1 REVERT JUMPDEST POP DUP2 CALLDATALOAD PUSH1 0x1 PUSH1 0x1 PUSH1 0x40 SHL SUB DUP2 GT ISZERO PUSH2 0x2A9E JUMPI PUSH0 DUP1 REVERT JUMPDEST PUSH1 0x20 DUP4 ADD SWAP2 POP DUP4 PUSH1 0x20 DUP3 PUSH1 0x5 SHL DUP6 ADD ADD GT ISZERO PUSH2 0x2AB8 JUMPI PUSH0 DUP1 REVERT JUMPDEST SWAP3 POP SWAP3 SWAP1 POP JUMP JUMPDEST PUSH0 DUP1 PUSH0 DUP1 PUSH0 PUSH1 0x60 DUP7 DUP9 SUB SLT ISZERO PUSH2 0x2AD3 JUMPI PUSH0 DUP1 REVERT JUMPDEST DUP6 CALLDATALOAD PUSH1 0x1 PUSH1 0x1 PUSH1 0x40 SHL SUB DUP1 DUP3 GT ISZERO PUSH2 0x2AE9 JUMPI PUSH0 DUP1 REVERT JUMPDEST PUSH2 0x2AF5 DUP10 DUP4 DUP11 ADD PUSH2 0x28A6 JUMP JUMPDEST SWAP7 POP PUSH1 0x20 DUP9 ADD CALLDATALOAD SWAP2 POP DUP1 DUP3 GT ISZERO PUSH2 0x2B0A JUMPI PUSH0 DUP1 REVERT JUMPDEST PUSH2 0x2B16 DUP10 DUP4 DUP11 ADD PUSH2 0x2A78 JUMP JUMPDEST SWAP1 SWAP7 POP SWAP5 POP PUSH1 0x40 DUP9 ADD CALLDATALOAD SWAP2 POP DUP1 DUP3 GT ISZERO PUSH2 0x2B2E JUMPI PUSH0 DUP1 REVERT JUMPDEST POP PUSH2 0x2B3B DUP9 DUP3 DUP10 ADD PUSH2 0x2A78 JUMP JUMPDEST SWAP7 SWAP10 SWAP6 SWAP9 POP SWAP4 SWAP7 POP SWAP3 SWAP5 SWAP4 SWAP3 POP POP POP JUMP JUMPDEST PUSH1 0x1 DUP2 DUP2 SHR SWAP1 DUP3 AND DUP1 PUSH2 0x2B60 JUMPI PUSH1 0x7F DUP3 AND SWAP2 POP JUMPDEST PUSH1 0x20 DUP3 LT DUP2 SUB PUSH2 0x28B6 JUMPI PUSH4 0x4E487B71 PUSH1 0xE0 SHL PUSH0 MSTORE PUSH1 0x22 PUSH1 0x4 MSTORE PUSH1 0x24 PUSH0 REVERT JUMPDEST PUSH4 0x4E487B71 PUSH1 0xE0 SHL PUSH0 MSTORE PUSH1 0x11 PUSH1 0x4 MSTORE PUSH1 0x24 PUSH0 REVERT JUMPDEST PUSH0 PUSH1 0x1 DUP3 ADD PUSH2 0x2BA3 JUMPI PUSH2 0x2BA3 PUSH2 0x2B7E JUMP JUMPDEST POP PUSH1 0x1 ADD SWAP1 JUMP JUMPDEST PUSH4 0x4E487B71 PUSH1 0xE0 SHL PUSH0 MSTORE PUSH1 0x32 PUSH1 0x4 MSTORE PUSH1 0x24 PUSH0 REVERT JUMPDEST PUSH1 0x1 PUSH1 0x1 PUSH1 0x40 SHL SUB DUP2 DUP2 AND DUP4 DUP3 AND ADD SWAP1 DUP1 DUP3 GT ISZERO PUSH2 0x2BDE JUMPI PUSH2 0x2BDE PUSH2 0x2B7E JUMP JUMPDEST POP SWAP3 SWAP2 POP POP JUMP JUMPDEST PUSH1 0x20 DUP1 DUP3 MSTORE PUSH1 0xC SWAP1 DUP3 ADD MSTORE PUSH12 0x24B73B30B634B2103A34B2B9 PUSH1 0xA1 SHL PUSH1 0x40 DUP3 ADD MSTORE PUSH1 0x60 ADD SWAP1 JUMP JUMPDEST PUSH0 DUP3 CALLDATALOAD PUSH1 0x5E NOT DUP4 CALLDATASIZE SUB ADD DUP2 SLT PUSH2 0x2C1F JUMPI PUSH0 DUP1 REVERT JUMPDEST SWAP2 SWAP1 SWAP2 ADD SWAP3 SWAP2 POP POP JUMP JUMPDEST PUSH0 DUP1 DUP4 CALLDATALOAD PUSH1 0x1E NOT DUP5 CALLDATASIZE SUB ADD DUP2 SLT PUSH2 0x2C3E JUMPI PUSH0 DUP1 REVERT JUMPDEST DUP4 ADD DUP1 CALLDATALOAD SWAP2 POP PUSH1 0x1 PUSH1 0x1 PUSH1 0x40 SHL SUB DUP3 GT ISZERO PUSH2 0x2C57 JUMPI PUSH0 DUP1 REVERT JUMPDEST PUSH1 0x20 ADD SWAP2 POP CALLDATASIZE DUP2 SWAP1 SUB DUP3 SGT ISZERO PUSH2 0x2AB8 JUMPI PUSH0 DUP1 REVERT JUMPDEST PUSH0 DUP3 CALLDATALOAD PUSH1 0x9E NOT DUP4 CALLDATASIZE SUB ADD DUP2 SLT PUSH2 0x2C1F JUMPI PUSH0 DUP1 REVERT JUMPDEST DUP2 DUP4 MSTORE DUP2 DUP2 PUSH1 0x20 DUP6 ADD CALLDATACOPY POP PUSH0 DUP3 DUP3 ADD PUSH1 0x20 SWAP1 DUP2 ADD SWAP2 SWAP1 SWAP2 MSTORE PUSH1 0x1F SWAP1 SWAP2 ADD PUSH1 0x1F NOT AND SWAP1 SWAP2 ADD ADD SWAP1 JUMP JUMPDEST PUSH1 0x60 DUP2 MSTORE PUSH0 PUSH2 0x2CBA PUSH1 0x60 DUP4 ADD DUP8 DUP10 PUSH2 0x2C7F JUMP JUMPDEST DUP3 DUP2 SUB PUSH1 0x20 DUP5 ADD MSTORE PUSH2 0x2CCD DUP2 DUP7 DUP9 PUSH2 0x2C7F JUMP JUMPDEST SWAP2 POP POP DUP3 PUSH1 0x40 DUP4 ADD MSTORE SWAP7 SWAP6 POP POP POP POP POP POP JUMP JUMPDEST PUSH1 0x20 DUP1 DUP3 MSTORE PUSH1 0x12 SWAP1 DUP3 ADD MSTORE PUSH18 0x141C9BDBD988185B1C9958591E481D5CD959 PUSH1 0x72 SHL PUSH1 0x40 DUP3 ADD MSTORE PUSH1 0x60 ADD SWAP1 JUMP JUMPDEST PUSH0 DUP1 DUP4 CALLDATALOAD PUSH1 0x1E NOT DUP5 CALLDATASIZE SUB ADD DUP2 SLT PUSH2 0x2D21 JUMPI PUSH0 DUP1 REVERT JUMPDEST DUP4 ADD PUSH1 0x20 DUP2 ADD SWAP3 POP CALLDATALOAD SWAP1 POP PUSH1 0x1 PUSH1 0x1 PUSH1 0x40 SHL SUB DUP2 GT ISZERO PUSH2 0x2D3F JUMPI PUSH0 DUP1 REVERT JUMPDEST DUP1 CALLDATASIZE SUB DUP3 SGT ISZERO PUSH2 0x2AB8 JUMPI PUSH0 DUP1 REVERT JUMPDEST PUSH0 DUP3 CALLDATALOAD PUSH1 0x9E NOT DUP4 CALLDATASIZE SUB ADD DUP2 SLT PUSH2 0x2D61 JUMPI PUSH0 DUP1 REVERT JUMPDEST SWAP1 SWAP2 ADD SWAP3 SWAP2 POP POP JUMP JUMPDEST DUP1 CALLDATALOAD PUSH4 0xFFFFFFFF DUP2 AND DUP2 EQ PUSH2 0x246C JUMPI PUSH0 DUP1 REVERT JUMPDEST DUP2 DUP4 MSTORE PUSH0 PUSH1 0x20 DUP1 DUP6 ADD DUP1 DUP2 SWAP7 POP DUP6 PUSH1 0x5 SHL DUP2 ADD SWAP2 POP DUP5 PUSH0 JUMPDEST DUP8 DUP2 LT ISZERO PUSH2 0x2DCB JUMPI DUP3 DUP5 SUB DUP10 MSTORE PUSH2 0x2DAC DUP3 DUP9 PUSH2 0x2D0C JUMP JUMPDEST PUSH2 0x2DB7 DUP7 DUP3 DUP5 PUSH2 0x2C7F JUMP JUMPDEST SWAP11 DUP8 ADD SWAP11 SWAP6 POP POP POP SWAP1 DUP5 ADD SWAP1 PUSH1 0x1 ADD PUSH2 0x2D95 JUMP JUMPDEST POP SWAP2 SWAP8 SWAP7 POP POP POP POP POP POP POP JUMP JUMPDEST DUP1 CALLDATALOAD DUP3 MSTORE PUSH1 0x1 PUSH1 0x1 PUSH1 0xA0 SHL SUB PUSH2 0x2DF0 PUSH1 0x20 DUP4 ADD PUSH2 0x2456 JUMP JUMPDEST AND PUSH1 0x20 DUP4 ADD MSTORE PUSH0 PUSH2 0x2E03 PUSH1 0x40 DUP4 ADD PUSH2 0x2D6A JUMP JUMPDEST PUSH4 0xFFFFFFFF DUP1 DUP3 AND PUSH1 0x40 DUP7 ADD MSTORE DUP1 PUSH2 0x2E1D PUSH1 0x60 DUP7 ADD PUSH2 0x2D6A JUMP JUMPDEST AND PUSH1 0x60 DUP7 ADD MSTORE POP POP PUSH1 0x80 DUP3 ADD CALLDATALOAD PUSH1 0x1E NOT DUP4 CALLDATASIZE SUB ADD DUP2 SLT PUSH2 0x2E3B JUMPI PUSH0 DUP1 REVERT JUMPDEST DUP3 ADD PUSH1 0x20 DUP2 ADD SWAP1 CALLDATALOAD PUSH1 0x1 PUSH1 0x1 PUSH1 0x40 SHL SUB DUP2 GT ISZERO PUSH2 0x2E56 JUMPI PUSH0 DUP1 REVERT JUMPDEST DUP1 PUSH1 0x5 SHL CALLDATASIZE SUB DUP3 SGT ISZERO PUSH2 0x2E67 JUMPI PUSH0 DUP1 REVERT JUMPDEST PUSH1 0xA0 PUSH1 0x80 DUP7 ADD MSTORE PUSH2 0x2E7C PUSH1 0xA0 DUP7 ADD DUP3 DUP5 PUSH2 0x2D7D JUMP JUMPDEST SWAP6 SWAP5 POP POP POP POP POP JUMP JUMPDEST PUSH1 0x20 DUP2 MSTORE PUSH0 DUP3 CALLDATALOAD PUSH1 0x5E NOT DUP5 CALLDATASIZE SUB ADD DUP2 SLT PUSH2 0x2E9D JUMPI PUSH0 DUP1 REVERT JUMPDEST PUSH1 0x40 PUSH1 0x20 DUP5 ADD MSTORE DUP4 ADD PUSH2 0x2EB0 DUP2 DUP1 PUSH2 0x2D0C JUMP JUMPDEST PUSH1 0x60 DUP1 DUP7 ADD MSTORE PUSH2 0x2EC4 PUSH1 0xC0 DUP7 ADD DUP3 DUP5 PUSH2 0x2C7F JUMP JUMPDEST SWAP2 POP POP PUSH2 0x2ED4 PUSH1 0x20 DUP4 ADD DUP4 PUSH2 0x2D0C JUMP JUMPDEST PUSH1 0x5F NOT DUP1 DUP8 DUP6 SUB ADD PUSH1 0x80 DUP9 ADD MSTORE PUSH2 0x2EEC DUP5 DUP4 DUP6 PUSH2 0x2C7F JUMP JUMPDEST SWAP4 POP PUSH2 0x2EFB PUSH1 0x40 DUP7 ADD DUP7 PUSH2 0x2D0C JUMP JUMPDEST SWAP6 POP SWAP3 POP DUP1 DUP8 DUP6 SUB ADD PUSH1 0xA0 DUP9 ADD MSTORE POP POP PUSH2 0x2F16 DUP3 DUP5 DUP4 PUSH2 0x2C7F JUMP JUMPDEST SWAP3 POP POP POP PUSH2 0x2F27 PUSH1 0x20 DUP6 ADD DUP6 PUSH2 0x2D4D JUMP JUMPDEST DUP4 DUP3 SUB PUSH1 0x1F NOT ADD PUSH1 0x40 DUP6 ADD MSTORE PUSH2 0x2E7C DUP3 DUP3 PUSH2 0x2DD8 JUMP JUMPDEST PUSH1 0x40 DUP2 MSTORE PUSH0 DUP1 DUP5 SLOAD PUSH2 0x2F4E DUP2 PUSH2 0x2B4C JUMP JUMPDEST DUP1 PUSH1 0x40 DUP7 ADD MSTORE PUSH1 0x60 PUSH1 0x1 DUP1 DUP5 AND PUSH0 DUP2 EQ PUSH2 0x2F6F JUMPI PUSH1 0x1 DUP2 EQ PUSH2 0x2F89 JUMPI PUSH2 0x2FB7 JUMP JUMPDEST PUSH1 0xFF NOT DUP6 AND DUP9 DUP5 ADD MSTORE DUP4 ISZERO ISZERO PUSH1 0x5 SHL DUP9 ADD DUP4 ADD SWAP6 POP PUSH2 0x2FB7 JUMP JUMPDEST DUP10 PUSH0 MSTORE PUSH1 0x20 DUP1 PUSH0 KECCAK256 PUSH0 JUMPDEST DUP7 DUP2 LT ISZERO PUSH2 0x2FAE JUMPI DUP2 SLOAD DUP12 DUP3 ADD DUP8 ADD MSTORE SWAP1 DUP5 ADD SWAP1 DUP3 ADD PUSH2 0x2F93 JUMP JUMPDEST DUP11 ADD DUP6 ADD SWAP8 POP POP POP JUMPDEST POP POP POP POP PUSH1 0xFF DUP6 AND PUSH1 0x20 DUP6 ADD MSTORE POP SWAP1 POP PUSH2 0x24C9 JUMP JUMPDEST PUSH1 0x1F DUP3 GT ISZERO PUSH2 0xA46 JUMPI PUSH0 DUP2 DUP2 MSTORE PUSH1 0x20 DUP2 KECCAK256 PUSH1 0x1F DUP6 ADD PUSH1 0x5 SHR DUP2 ADD PUSH1 0x20 DUP7 LT ISZERO PUSH2 0x2FF2 JUMPI POP DUP1 JUMPDEST PUSH1 0x1F DUP6 ADD PUSH1 0x5 SHR DUP3 ADD SWAP2 POP JUMPDEST DUP2 DUP2 LT ISZERO PUSH2 0x84B JUMPI DUP3 DUP2 SSTORE PUSH1 0x1 ADD PUSH2 0x2FFE JUMP JUMPDEST DUP2 MLOAD PUSH1 0x1 PUSH1 0x1 PUSH1 0x40 SHL SUB DUP2 GT ISZERO PUSH2 0x302A JUMPI PUSH2 0x302A PUSH2 0x24D0 JUMP JUMPDEST PUSH2 0x303E DUP2 PUSH2 0x3038 DUP5 SLOAD PUSH2 0x2B4C JUMP JUMPDEST DUP5 PUSH2 0x2FCC JUMP JUMPDEST PUSH1 0x20 DUP1 PUSH1 0x1F DUP4 GT PUSH1 0x1 DUP2 EQ PUSH2 0x3071 JUMPI PUSH0 DUP5 ISZERO PUSH2 0x305A JUMPI POP DUP6 DUP4 ADD MLOAD JUMPDEST PUSH0 NOT PUSH1 0x3 DUP7 SWAP1 SHL SHR NOT AND PUSH1 0x1 DUP6 SWAP1 SHL OR DUP6 SSTORE PUSH2 0x84B JUMP JUMPDEST PUSH0 DUP6 DUP2 MSTORE PUSH1 0x20 DUP2 KECCAK256 PUSH1 0x1F NOT DUP7 AND SWAP2 JUMPDEST DUP3 DUP2 LT ISZERO PUSH2 0x309F JUMPI DUP9 DUP7 ADD MLOAD DUP3 SSTORE SWAP5 DUP5 ADD SWAP5 PUSH1 0x1 SWAP1 SWAP2 ADD SWAP1 DUP5 ADD PUSH2 0x3080 JUMP JUMPDEST POP DUP6 DUP3 LT ISZERO PUSH2 0x30BC JUMPI DUP8 DUP6 ADD MLOAD PUSH0 NOT PUSH1 0x3 DUP9 SWAP1 SHL PUSH1 0xF8 AND SHR NOT AND DUP2 SSTORE JUMPDEST POP POP POP POP POP PUSH1 0x1 SWAP1 DUP2 SHL ADD SWAP1 SSTORE POP JUMP JUMPDEST PUSH0 PUSH1 0x20 DUP3 DUP5 SUB SLT ISZERO PUSH2 0x30DC JUMPI PUSH0 DUP1 REVERT JUMPDEST PUSH2 0x24C9 DUP3 PUSH2 0x28BC JUMP JUMPDEST PUSH1 0x1 PUSH1 0x1 PUSH1 0xA0 SHL SUB DUP7 DUP2 AND DUP3 MSTORE DUP6 AND PUSH1 0x20 DUP3 ADD MSTORE PUSH1 0x40 DUP2 ADD DUP5 SWAP1 MSTORE PUSH1 0x60 DUP2 ADD DUP4 SWAP1 MSTORE PUSH1 0xA0 PUSH1 0x80 DUP3 ADD DUP2 SWAP1 MSTORE PUSH0 SWAP1 PUSH2 0x311E SWAP1 DUP4 ADD DUP5 PUSH2 0x25B8 JUMP JUMPDEST SWAP8 SWAP7 POP POP POP POP POP POP POP JUMP JUMPDEST PUSH0 PUSH1 0x20 DUP3 DUP5 SUB SLT ISZERO PUSH2 0x3139 JUMPI PUSH0 DUP1 REVERT JUMPDEST DUP2 MLOAD PUSH2 0x24C9 DUP2 PUSH2 0x2499 JUMP JUMPDEST PUSH1 0x1 PUSH1 0x1 PUSH1 0xA0 SHL SUB DUP7 DUP2 AND DUP3 MSTORE DUP6 AND PUSH1 0x20 DUP3 ADD MSTORE PUSH1 0xA0 PUSH1 0x40 DUP3 ADD DUP2 SWAP1 MSTORE PUSH0 SWAP1 PUSH2 0x316F SWAP1 DUP4 ADD DUP7 PUSH2 0x2769 JUMP JUMPDEST DUP3 DUP2 SUB PUSH1 0x60 DUP5 ADD MSTORE PUSH2 0x3181 DUP2 DUP7 PUSH2 0x2769 JUMP JUMPDEST SWAP1 POP DUP3 DUP2 SUB PUSH1 0x80 DUP5 ADD MSTORE PUSH2 0x3195 DUP2 DUP6 PUSH2 0x25B8 JUMP JUMPDEST SWAP9 SWAP8 POP POP POP POP POP POP POP POP JUMP JUMPDEST DUP1 DUP3 ADD DUP1 DUP3 GT ISZERO PUSH2 0x660 JUMPI PUSH2 0x660 PUSH2 0x2B7E JUMP JUMPDEST PUSH1 0x40 DUP2 MSTORE PUSH0 PUSH2 0x31C6 PUSH1 0x40 DUP4 ADD DUP6 PUSH2 0x2769 JUMP JUMPDEST DUP3 DUP2 SUB PUSH1 0x20 DUP5 ADD MSTORE PUSH2 0x2E7C DUP2 DUP6 PUSH2 0x2769 JUMP INVALID LOG2 PUSH5 0x6970667358 0x22 SLT KECCAK256 0x5C 0xD1 EXTCODECOPY DUP12 SWAP3 0xBF DUP11 DUP2 PUSH7 0xEA34DC517085C2 0xE1 0xD7 0x5D DUP5 PUSH23 0xC04CF6EC0EC00CEA9BAAC564736F6C6343000814003300 "},"methodIdentifiers":{"MAX_GENRE_ID()":"69d11c55","STATUS_ACTIVE()":"4389cc22","STATUS_INACTIVE()":"02429742","TIER_ENTRY()":"f7486960","TIER_OG()":"c71c37d1","TIER_VETERAN()":"b5fa9642","VERIFICATION_VALIDITY()":"cb2b50cd","badgeInfo(address,uint256)":"d4c19e33","balanceOf(address,uint256)":"00fdd58e","balanceOfBatch(address[],uint256[])":"4e1273f4","burnBadge(uint256)":"55de28ae","checkAndDecayBadge(address,uint256)":"417b9942","checkBadge(address,uint256)":"5982fefe","exists(uint256)":"4f558e79","genreNames(uint256)":"f45fb6b5","getActiveBadgesWithInfo(address)":"d5325487","getBadgeInfo(address,uint256)":"ff4181be","getBadgeStatus(address,uint256)":"cd85336e","getUserBadges(address)":"37c245fe","hasBadge(address,uint256)":"4c6a70ce","isApprovedForAll(address,address)":"e985e9c5","mintBatchWithProof(((string,string,string),((bytes32,address,uint32,uint32),bytes[])),uint256[],uint8[])":"f4908830","mintWithProof(((string,string,string),((bytes32,address,uint32,uint32),bytes[])),uint256,uint8)":"bd990d32","name()":"06fdde03","owner()":"8da5cb5b","reclaimAddress()":"aeade0e6","refreshBadgeWithProof(((string,string,string),((bytes32,address,uint32,uint32),bytes[])),uint256,uint8)":"f009f181","renounceOwnership()":"715018a6","safeBatchTransferFrom(address,address,uint256[],uint256[],bytes)":"2eb2c2d6","safeTransferFrom(address,address,uint256,uint256,bytes)":"f242432a","setApprovalForAll(address,bool)":"a22cb465","setGenreName(uint256,string)":"cc18eadc","setReclaimAddress(address)":"9fc43dbe","setURI(string)":"02fe5305","supportsInterface(bytes4)":"01ffc9a7","symbol()":"95d89b41","totalSupply()":"18160ddd","totalSupply(uint256)":"bd85b039","transferOwnership(address)":"f2fde38b","uri(uint256)":"0e89341c","usedProofs(bytes32)":"c30a0f25"}}}}}