{
  "_format": "hh3-artifact-1",
  "contractName": "ConvibeToken",
  "sourceName": "contracts/VibeToken.sol",
  "abi": [
    {
      "inputs": [
        {
          "internalType": "address",
          "name": "initialOwner",
          "type": "address"
        }
      ],
      "stateMutability": "nonpayable",
      "type": "constructor"
    },
    {
      "inputs": [
        {
          "internalType": "address",
          "name": "spender",
          "type": "address"
        },
        {
          "internalType": "uint256",
          "name": "allowance",
          "type": "uint256"
        },
        {
          "internalType": "uint256",
          "name": "needed",
          "type": "uint256"
        }
      ],
      "name": "ERC20InsufficientAllowance",
      "type": "error"
    },
    {
      "inputs": [
        {
          "internalType": "address",
          "name": "sender",
          "type": "address"
        },
        {
          "internalType": "uint256",
          "name": "balance",
          "type": "uint256"
        },
        {
          "internalType": "uint256",
          "name": "needed",
          "type": "uint256"
        }
      ],
      "name": "ERC20InsufficientBalance",
      "type": "error"
    },
    {
      "inputs": [
        {
          "internalType": "address",
          "name": "approver",
          "type": "address"
        }
      ],
      "name": "ERC20InvalidApprover",
      "type": "error"
    },
    {
      "inputs": [
        {
          "internalType": "address",
          "name": "receiver",
          "type": "address"
        }
      ],
      "name": "ERC20InvalidReceiver",
      "type": "error"
    },
    {
      "inputs": [
        {
          "internalType": "address",
          "name": "sender",
          "type": "address"
        }
      ],
      "name": "ERC20InvalidSender",
      "type": "error"
    },
    {
      "inputs": [
        {
          "internalType": "address",
          "name": "spender",
          "type": "address"
        }
      ],
      "name": "ERC20InvalidSpender",
      "type": "error"
    },
    {
      "inputs": [
        {
          "internalType": "address",
          "name": "owner",
          "type": "address"
        }
      ],
      "name": "OwnableInvalidOwner",
      "type": "error"
    },
    {
      "inputs": [
        {
          "internalType": "address",
          "name": "account",
          "type": "address"
        }
      ],
      "name": "OwnableUnauthorizedAccount",
      "type": "error"
    },
    {
      "anonymous": false,
      "inputs": [
        {
          "indexed": true,
          "internalType": "address",
          "name": "owner",
          "type": "address"
        },
        {
          "indexed": true,
          "internalType": "address",
          "name": "spender",
          "type": "address"
        },
        {
          "indexed": false,
          "internalType": "uint256",
          "name": "value",
          "type": "uint256"
        }
      ],
      "name": "Approval",
      "type": "event"
    },
    {
      "anonymous": false,
      "inputs": [
        {
          "indexed": true,
          "internalType": "address",
          "name": "minter",
          "type": "address"
        },
        {
          "indexed": false,
          "internalType": "bool",
          "name": "authorized",
          "type": "bool"
        }
      ],
      "name": "MinterAuthorized",
      "type": "event"
    },
    {
      "anonymous": false,
      "inputs": [
        {
          "indexed": true,
          "internalType": "address",
          "name": "previousOwner",
          "type": "address"
        },
        {
          "indexed": true,
          "internalType": "address",
          "name": "newOwner",
          "type": "address"
        }
      ],
      "name": "OwnershipTransferred",
      "type": "event"
    },
    {
      "anonymous": false,
      "inputs": [
        {
          "indexed": false,
          "internalType": "uint256",
          "name": "oldValue",
          "type": "uint256"
        },
        {
          "indexed": false,
          "internalType": "uint256",
          "name": "newValue",
          "type": "uint256"
        }
      ],
      "name": "RewardPerHourUpdated",
      "type": "event"
    },
    {
      "anonymous": false,
      "inputs": [
        {
          "indexed": true,
          "internalType": "address",
          "name": "to",
          "type": "address"
        },
        {
          "indexed": false,
          "internalType": "uint256",
          "name": "amount",
          "type": "uint256"
        },
        {
          "indexed": false,
          "internalType": "string",
          "name": "reason",
          "type": "string"
        }
      ],
      "name": "TokensMinted",
      "type": "event"
    },
    {
      "anonymous": false,
      "inputs": [
        {
          "indexed": true,
          "internalType": "address",
          "name": "from",
          "type": "address"
        },
        {
          "indexed": true,
          "internalType": "address",
          "name": "to",
          "type": "address"
        },
        {
          "indexed": false,
          "internalType": "uint256",
          "name": "value",
          "type": "uint256"
        }
      ],
      "name": "Transfer",
      "type": "event"
    },
    {
      "inputs": [
        {
          "internalType": "address",
          "name": "owner",
          "type": "address"
        },
        {
          "internalType": "address",
          "name": "spender",
          "type": "address"
        }
      ],
      "name": "allowance",
      "outputs": [
        {
          "internalType": "uint256",
          "name": "",
          "type": "uint256"
        }
      ],
      "stateMutability": "view",
      "type": "function"
    },
    {
      "inputs": [
        {
          "internalType": "address",
          "name": "spender",
          "type": "address"
        },
        {
          "internalType": "uint256",
          "name": "value",
          "type": "uint256"
        }
      ],
      "name": "approve",
      "outputs": [
        {
          "internalType": "bool",
          "name": "",
          "type": "bool"
        }
      ],
      "stateMutability": "nonpayable",
      "type": "function"
    },
    {
      "inputs": [
        {
          "internalType": "address",
          "name": "",
          "type": "address"
        }
      ],
      "name": "authorizedMinters",
      "outputs": [
        {
          "internalType": "bool",
          "name": "",
          "type": "bool"
        }
      ],
      "stateMutability": "view",
      "type": "function"
    },
    {
      "inputs": [
        {
          "internalType": "address",
          "name": "account",
          "type": "address"
        }
      ],
      "name": "balanceOf",
      "outputs": [
        {
          "internalType": "uint256",
          "name": "",
          "type": "uint256"
        }
      ],
      "stateMutability": "view",
      "type": "function"
    },
    {
      "inputs": [
        {
          "internalType": "uint256",
          "name": "value",
          "type": "uint256"
        }
      ],
      "name": "burn",
      "outputs": [],
      "stateMutability": "nonpayable",
      "type": "function"
    },
    {
      "inputs": [
        {
          "internalType": "address",
          "name": "account",
          "type": "address"
        },
        {
          "internalType": "uint256",
          "name": "value",
          "type": "uint256"
        }
      ],
      "name": "burnFrom",
      "outputs": [],
      "stateMutability": "nonpayable",
      "type": "function"
    },
    {
      "inputs": [
        {
          "internalType": "uint256",
          "name": "hoursListened",
          "type": "uint256"
        }
      ],
      "name": "calculateReward",
      "outputs": [
        {
          "internalType": "uint256",
          "name": "",
          "type": "uint256"
        }
      ],
      "stateMutability": "view",
      "type": "function"
    },
    {
      "inputs": [],
      "name": "decimals",
      "outputs": [
        {
          "internalType": "uint8",
          "name": "",
          "type": "uint8"
        }
      ],
      "stateMutability": "view",
      "type": "function"
    },
    {
      "inputs": [
        {
          "internalType": "address",
          "name": "minter",
          "type": "address"
        }
      ],
      "name": "isMinter",
      "outputs": [
        {
          "internalType": "bool",
          "name": "",
          "type": "bool"
        }
      ],
      "stateMutability": "view",
      "type": "function"
    },
    {
      "inputs": [
        {
          "internalType": "address",
          "name": "to",
          "type": "address"
        },
        {
          "internalType": "uint256",
          "name": "amount",
          "type": "uint256"
        }
      ],
      "name": "mint",
      "outputs": [],
      "stateMutability": "nonpayable",
      "type": "function"
    },
    {
      "inputs": [
        {
          "internalType": "address",
          "name": "to",
          "type": "address"
        },
        {
          "internalType": "uint256",
          "name": "hoursListened",
          "type": "uint256"
        }
      ],
      "name": "mintForListening",
      "outputs": [],
      "stateMutability": "nonpayable",
      "type": "function"
    },
    {
      "inputs": [],
      "name": "name",
      "outputs": [
        {
          "internalType": "string",
          "name": "",
          "type": "string"
        }
      ],
      "stateMutability": "view",
      "type": "function"
    },
    {
      "inputs": [],
      "name": "owner",
      "outputs": [
        {
          "internalType": "address",
          "name": "",
          "type": "address"
        }
      ],
      "stateMutability": "view",
      "type": "function"
    },
    {
      "inputs": [],
      "name": "renounceOwnership",
      "outputs": [],
      "stateMutability": "nonpayable",
      "type": "function"
    },
    {
      "inputs": [],
      "name": "rewardPerHour",
      "outputs": [
        {
          "internalType": "uint256",
          "name": "",
          "type": "uint256"
        }
      ],
      "stateMutability": "view",
      "type": "function"
    },
    {
      "inputs": [
        {
          "internalType": "address",
          "name": "minter",
          "type": "address"
        },
        {
          "internalType": "bool",
          "name": "authorized",
          "type": "bool"
        }
      ],
      "name": "setMinter",
      "outputs": [],
      "stateMutability": "nonpayable",
      "type": "function"
    },
    {
      "inputs": [
        {
          "internalType": "uint256",
          "name": "newRewardPerHour",
          "type": "uint256"
        }
      ],
      "name": "setRewardPerHour",
      "outputs": [],
      "stateMutability": "nonpayable",
      "type": "function"
    },
    {
      "inputs": [],
      "name": "symbol",
      "outputs": [
        {
          "internalType": "string",
          "name": "",
          "type": "string"
        }
      ],
      "stateMutability": "view",
      "type": "function"
    },
    {
      "inputs": [],
      "name": "totalSupply",
      "outputs": [
        {
          "internalType": "uint256",
          "name": "",
          "type": "uint256"
        }
      ],
      "stateMutability": "view",
      "type": "function"
    },
    {
      "inputs": [
        {
          "internalType": "address",
          "name": "to",
          "type": "address"
        },
        {
          "internalType": "uint256",
          "name": "value",
          "type": "uint256"
        }
      ],
      "name": "transfer",
      "outputs": [
        {
          "internalType": "bool",
          "name": "",
          "type": "bool"
        }
      ],
      "stateMutability": "nonpayable",
      "type": "function"
    },
    {
      "inputs": [
        {
          "internalType": "address",
          "name": "from",
          "type": "address"
        },
        {
          "internalType": "address",
          "name": "to",
          "type": "address"
        },
        {
          "internalType": "uint256",
          "name": "value",
          "type": "uint256"
        }
      ],
      "name": "transferFrom",
      "outputs": [
        {
          "internalType": "bool",
          "name": "",
          "type": "bool"
        }
      ],
      "stateMutability": "nonpayable",
      "type": "function"
    },
    {
      "inputs": [
        {
          "internalType": "address",
          "name": "newOwner",
          "type": "address"
        }
      ],
      "name": "transferOwnership",
      "outputs": [],
      "stateMutability": "nonpayable",
      "type": "function"
    }
  ],
  "bytecode": "0x6080604052678ac7230489e800006007553480156200001c575f80fd5b5060405162001001380380620010018339810160408190526200003f9162000131565b8060405180604001604052806007815260200166436f6e7669626560c81b8152506040518060400160405280600381526020016221ab2160e91b81525081600390816200008d919062000200565b5060046200009c828262000200565b5050506001600160a01b038116620000cd57604051631e4fbdf760e01b81525f600482015260240160405180910390fd5b620000d881620000e0565b5050620002c8565b600580546001600160a01b038381166001600160a01b0319831681179093556040519116919082907f8be0079c531659141344cd1fd0a4f28419497f9722a3daafe3b4186f6b6457e0905f90a35050565b5f6020828403121562000142575f80fd5b81516001600160a01b038116811462000159575f80fd5b9392505050565b634e487b7160e01b5f52604160045260245ffd5b600181811c908216806200018957607f821691505b602082108103620001a857634e487b7160e01b5f52602260045260245ffd5b50919050565b601f821115620001fb575f81815260208120601f850160051c81016020861015620001d65750805b601f850160051c820191505b81811015620001f757828155600101620001e2565b5050505b505050565b81516001600160401b038111156200021c576200021c62000160565b62000234816200022d845462000174565b84620001ae565b602080601f8311600181146200026a575f8415620002525750858301515b5f19600386901b1c1916600185901b178555620001f7565b5f85815260208120601f198616915b828110156200029a5788860151825594840194600190910190840162000279565b5085821015620002b857878501515f19600388901b60f8161c191681555b5050505050600190811b01905550565b610d2b80620002d65f395ff3fe608060405234801561000f575f80fd5b506004361061013d575f3560e01c806379cc6790116100b4578063aa271e1a11610079578063aa271e1a14610286578063aa2fe91b14610299578063cf456ae7146102bb578063d2d7231f146102ce578063dd62ed3e146102e1578063f2fde38b14610319575f80fd5b806379cc67901461022a5780638761dc5f1461023d5780638da5cb5b1461025057806395d89b411461026b578063a9059cbb14610273575f80fd5b8063313ce56711610105578063313ce567146101bc57806340c10f19146101cb57806342966c68146101de57806361414358146101f157806370a08231146101fa578063715018a614610222575f80fd5b806306fdde0314610141578063095ea7b31461015f57806317ebf1041461018257806318160ddd1461019757806323b872dd146101a9575b5f80fd5b61014961032c565b6040516101569190610ad3565b60405180910390f35b61017261016d366004610b39565b6103bc565b6040519015158152602001610156565b610195610190366004610b39565b6103d5565b005b6002545b604051908152602001610156565b6101726101b7366004610b61565b6104ac565b60405160128152602001610156565b6101956101d9366004610b39565b6104cf565b6101956101ec366004610b9a565b61058a565b61019b60075481565b61019b610208366004610bb1565b6001600160a01b03165f9081526020819052604090205490565b610195610597565b610195610238366004610b39565b6105aa565b61019561024b366004610b9a565b6105c3565b6005546040516001600160a01b039091168152602001610156565b610149610610565b610172610281366004610b39565b61061f565b610172610294366004610bb1565b61062c565b6101726102a7366004610bb1565b60066020525f908152604090205460ff1681565b6101956102c9366004610bd1565b610662565b61019b6102dc366004610b9a565b6106c1565b61019b6102ef366004610c0a565b6001600160a01b039182165f90815260016020908152604080832093909416825291909152205490565b610195610327366004610bb1565b6106d0565b60606003805461033b90610c3b565b80601f016020809104026020016040519081016040528092919081815260200182805461036790610c3b565b80156103b25780601f10610389576101008083540402835291602001916103b2565b820191905f5260205f20905b81548152906001019060200180831161039557829003601f168201915b5050505050905090565b5f336103c981858561070a565b60019150505b92915050565b335f9081526006602052604090205460ff16806103fc57506005546001600160a01b031633145b6104215760405162461bcd60e51b815260040161041890610c73565b60405180910390fd5b5f600754826104309190610ccb565b905061043c838261071c565b826001600160a01b03167f9d89e36eadf856db0ad9ffb5a569e07f95634dddd9501141ecf04820484ad0dc8260405161049f9181526040602082018190526010908201526f1b1a5cdd195b9a5b99d7dc995dd85c9960821b606082015260800190565b60405180910390a2505050565b5f336104b9858285610750565b6104c48585856107cc565b506001949350505050565b335f9081526006602052604090205460ff16806104f657506005546001600160a01b031633145b6105125760405162461bcd60e51b815260040161041890610c73565b61051c828261071c565b816001600160a01b03167f9d89e36eadf856db0ad9ffb5a569e07f95634dddd9501141ecf04820484ad0dc8260405161057e918152604060208201819052600f908201526e185d5d1a1bdc9a5e995917db5a5b9d608a1b606082015260800190565b60405180910390a25050565b6105943382610829565b50565b61059f61085d565b6105a85f61088a565b565b6105b5823383610750565b6105bf8282610829565b5050565b6105cb61085d565b600780549082905560408051828152602081018490527f3fb15c88e32516e0bf1eff6bce376ac6a3245cbeebf6cfc01c1b215f588ebb69910160405180910390a15050565b60606004805461033b90610c3b565b5f336103c98185856107cc565b6001600160a01b0381165f9081526006602052604081205460ff16806103cf5750506005546001600160a01b0391821691161490565b61066a61085d565b6001600160a01b0382165f81815260066020908152604091829020805460ff191685151590811790915591519182527f9041c22ed79d1c19c69cc22fd9e38c93da4f2dd8cd32580594e232a8a18541cb910161057e565b5f600754826103cf9190610ccb565b6106d861085d565b6001600160a01b03811661070157604051631e4fbdf760e01b81525f6004820152602401610418565b6105948161088a565b61071783838360016108db565b505050565b6001600160a01b0382166107455760405163ec442f0560e01b81525f6004820152602401610418565b6105bf5f83836109ad565b6001600160a01b038381165f908152600160209081526040808320938616835292905220545f198110156107c657818110156107b857604051637dc7a0d960e11b81526001600160a01b03841660048201526024810182905260448101839052606401610418565b6107c684848484035f6108db565b50505050565b6001600160a01b0383166107f557604051634b637e8f60e11b81525f6004820152602401610418565b6001600160a01b03821661081e5760405163ec442f0560e01b81525f6004820152602401610418565b6107178383836109ad565b6001600160a01b03821661085257604051634b637e8f60e11b81525f6004820152602401610418565b6105bf825f836109ad565b6005546001600160a01b031633146105a85760405163118cdaa760e01b8152336004820152602401610418565b600580546001600160a01b038381166001600160a01b0319831681179093556040519116919082907f8be0079c531659141344cd1fd0a4f28419497f9722a3daafe3b4186f6b6457e0905f90a35050565b6001600160a01b0384166109045760405163e602df0560e01b81525f6004820152602401610418565b6001600160a01b03831661092d57604051634a1406b160e11b81525f6004820152602401610418565b6001600160a01b038085165f90815260016020908152604080832093871683529290522082905580156107c657826001600160a01b0316846001600160a01b03167f8c5be1e5ebec7d5bd14f71427d1e84f3dd0314c0f7b2291e5b200ac8c7c3b9258460405161099f91815260200190565b60405180910390a350505050565b6001600160a01b0383166109d7578060025f8282546109cc9190610ce2565b90915550610a479050565b6001600160a01b0383165f9081526020819052604090205481811015610a295760405163391434e360e21b81526001600160a01b03851660048201526024810182905260448101839052606401610418565b6001600160a01b0384165f9081526020819052604090209082900390555b6001600160a01b038216610a6357600280548290039055610a81565b6001600160a01b0382165f9081526020819052604090208054820190555b816001600160a01b0316836001600160a01b03167fddf252ad1be2c89b69c2b068fc378daa952ba7f163c4a11628f55a4df523b3ef83604051610ac691815260200190565b60405180910390a3505050565b5f6020808352835180828501525f5b81811015610afe57858101830151858201604001528201610ae2565b505f604082860101526040601f19601f8301168501019250505092915050565b80356001600160a01b0381168114610b34575f80fd5b919050565b5f8060408385031215610b4a575f80fd5b610b5383610b1e565b946020939093013593505050565b5f805f60608486031215610b73575f80fd5b610b7c84610b1e565b9250610b8a60208501610b1e565b9150604084013590509250925092565b5f60208284031215610baa575f80fd5b5035919050565b5f60208284031215610bc1575f80fd5b610bca82610b1e565b9392505050565b5f8060408385031215610be2575f80fd5b610beb83610b1e565b915060208301358015158114610bff575f80fd5b809150509250929050565b5f8060408385031215610c1b575f80fd5b610c2483610b1e565b9150610c3260208401610b1e565b90509250929050565b600181811c90821680610c4f57607f821691505b602082108103610c6d57634e487b7160e01b5f52602260045260245ffd5b50919050565b60208082526024908201527f436f6e76696265546f6b656e3a204e6f7420617574686f72697a656420746f206040820152631b5a5b9d60e21b606082015260800190565b634e487b7160e01b5f52601160045260245ffd5b80820281158282048414176103cf576103cf610cb7565b808201808211156103cf576103cf610cb756fea2646970667358221220ace894600c93c7f70c82fb05a1028762d9b83b8398c68380b638a6eb970c71c564736f6c63430008140033",
  "linkReferences": {},
  "deployedLinkReferences": {},
  "immutableReferences": {},
  "inputSourceName": "project/contracts/VibeToken.sol",
  "buildInfoId": "solc-0_8_20-967c8642eaf5af09578dca419f8977a05c7a4283"
}